{"abi":[{"type":"constructor","inputs":[{"name":"_initialOwner","type":"address","internalType":"address"},{"name":"_stakingContractAddress","type":"address","internalType":"address"},{"name":"_evvmMetadata","type":"tuple","internalType":"struct CoreStructs.EvvmMetadata","components":[{"name":"EvvmName","type":"string","internalType":"string"},{"name":"EvvmID","type":"uint256","internalType":"uint256"},{"name":"principalTokenName","type":"string","internalType":"string"},{"name":"principalTokenSymbol","type":"string","internalType":"string"},{"name":"principalTokenAddress","type":"address","internalType":"address"},{"name":"totalSupply","type":"uint256","internalType":"uint256"},{"name":"eraTokens","type":"uint256","internalType":"uint256"},{"name":"reward","type":"uint256","internalType":"uint256"}]}],"stateMutability":"nonpayable"},{"type":"fallback","stateMutability":"nonpayable"},{"type":"function","name":"acceptAdmin","inputs":[],"outputs":[],"stateMutability":"nonpayable"},{"type":"function","name":"acceptChangeBaseRewardAmount","inputs":[],"outputs":[],"stateMutability":"nonpayable"},{"type":"function","name":"acceptChangeRewardFlowDistribution","inputs":[],"outputs":[],"stateMutability":"nonpayable"},{"type":"function","name":"acceptDeleteTotalSupply","inputs":[],"outputs":[],"stateMutability":"nonpayable"},{"type":"function","name":"acceptImplementation","inputs":[],"outputs":[],"stateMutability":"nonpayable"},{"type":"function","name":"acceptListStatusProposal","inputs":[],"outputs":[],"stateMutability":"nonpayable"},{"type":"function","name":"acceptUserValidatorProposal","inputs":[],"outputs":[],"stateMutability":"nonpayable"},{"type":"function","name":"addAmountToUser","inputs":[{"name":"user","type":"address","internalType":"address"},{"name":"token","type":"address","internalType":"address"},{"name":"amount","type":"uint256","internalType":"uint256"}],"outputs":[],"stateMutability":"nonpayable"},{"type":"function","name":"addBalance","inputs":[{"name":"user","type":"address","internalType":"address"},{"name":"token","type":"address","internalType":"address"},{"name":"quantity","type":"uint256","internalType":"uint256"}],"outputs":[],"stateMutability":"nonpayable"},{"type":"function","name":"asyncNonceStatus","inputs":[{"name":"user","type":"address","internalType":"address"},{"name":"nonce","type":"uint256","internalType":"uint256"}],"outputs":[{"name":"","type":"bytes1","internalType":"bytes1"}],"stateMutability":"view"},{"type":"function","name":"batchPay","inputs":[{"name":"batchData","type":"tuple[]","internalType":"struct CoreStructs.BatchData[]","components":[{"name":"from","type":"address","internalType":"address"},{"name":"to_address","type":"address","internalType":"address"},{"name":"to_identity","type":"string","internalType":"string"},{"name":"token","type":"address","internalType":"address"},{"name":"amount","type":"uint256","internalType":"uint256"},{"name":"priorityFee","type":"uint256","internalType":"uint256"},{"name":"senderExecutor","type":"address","internalType":"address"},{"name":"originExecutor","type":"address","internalType":"address"},{"name":"nonce","type":"uint256","internalType":"uint256"},{"name":"isAsyncExec","type":"bool","internalType":"bool"},{"name":"signature","type":"bytes","internalType":"bytes"}]}],"outputs":[{"name":"successfulTransactions","type":"uint256","internalType":"uint256"},{"name":"results","type":"bool[]","internalType":"bool[]"}],"stateMutability":"nonpayable"},{"type":"function","name":"caPay","inputs":[{"name":"to","type":"address","internalType":"address"},{"name":"token","type":"address","internalType":"address"},{"name":"amount","type":"uint256","internalType":"uint256"}],"outputs":[],"stateMutability":"nonpayable"},{"type":"function","name":"canExecuteUserTransaction","inputs":[{"name":"user","type":"address","internalType":"address"}],"outputs":[{"name":"","type":"bool","internalType":"bool"}],"stateMutability":"view"},{"type":"function","name":"cancelUserValidatorProposal","inputs":[],"outputs":[],"stateMutability":"nonpayable"},{"type":"function","name":"disperseCaPay","inputs":[{"name":"toData","type":"tuple[]","internalType":"struct CoreStructs.DisperseCaPayMetadata[]","components":[{"name":"amount","type":"uint256","internalType":"uint256"},{"name":"toAddress","type":"address","internalType":"address"}]},{"name":"token","type":"address","internalType":"address"},{"name":"amount","type":"uint256","internalType":"uint256"}],"outputs":[],"stateMutability":"nonpayable"},{"type":"function","name":"dispersePay","inputs":[{"name":"from","type":"address","internalType":"address"},{"name":"toData","type":"tuple[]","internalType":"struct CoreStructs.DispersePayMetadata[]","components":[{"name":"amount","type":"uint256","internalType":"uint256"},{"name":"to_address","type":"address","internalType":"address"},{"name":"to_identity","type":"string","internalType":"string"}]},{"name":"token","type":"address","internalType":"address"},{"name":"amount","type":"uint256","internalType":"uint256"},{"name":"priorityFee","type":"uint256","internalType":"uint256"},{"name":"senderExecutor","type":"address","internalType":"address"},{"name":"originExecutor","type":"address","internalType":"address"},{"name":"nonce","type":"uint256","internalType":"uint256"},{"name":"isAsyncExec","type":"bool","internalType":"bool"},{"name":"signature","type":"bytes","internalType":"bytes"}],"outputs":[],"stateMutability":"nonpayable"},{"type":"function","name":"getAllowListStatus","inputs":[{"name":"token","type":"address","internalType":"address"}],"outputs":[{"name":"","type":"bool","internalType":"bool"}],"stateMutability":"view"},{"type":"function","name":"getAsyncNonceReservation","inputs":[{"name":"user","type":"address","internalType":"address"},{"name":"nonce","type":"uint256","internalType":"uint256"}],"outputs":[{"name":"","type":"address","internalType":"address"}],"stateMutability":"view"},{"type":"function","name":"getBalance","inputs":[{"name":"user","type":"address","internalType":"address"},{"name":"token","type":"address","internalType":"address"}],"outputs":[{"name":"","type":"uint256","internalType":"uint256"}],"stateMutability":"view"},{"type":"function","name":"getChainHostCoinAddress","inputs":[],"outputs":[{"name":"","type":"address","internalType":"address"}],"stateMutability":"pure"},{"type":"function","name":"getCurrentAdmin","inputs":[],"outputs":[{"name":"","type":"address","internalType":"address"}],"stateMutability":"view"},{"type":"function","name":"getCurrentImplementation","inputs":[],"outputs":[{"name":"","type":"address","internalType":"address"}],"stateMutability":"view"},{"type":"function","name":"getCurrentListStatus","inputs":[],"outputs":[{"name":"","type":"bytes1","internalType":"bytes1"}],"stateMutability":"view"},{"type":"function","name":"getCurrentSupply","inputs":[],"outputs":[{"name":"","type":"uint256","internalType":"uint256"}],"stateMutability":"view"},{"type":"function","name":"getDenyListStatus","inputs":[{"name":"token","type":"address","internalType":"address"}],"outputs":[{"name":"","type":"bool","internalType":"bool"}],"stateMutability":"view"},{"type":"function","name":"getEvvmID","inputs":[],"outputs":[{"name":"","type":"uint256","internalType":"uint256"}],"stateMutability":"view"},{"type":"function","name":"getEvvmMetadata","inputs":[],"outputs":[{"name":"","type":"tuple","internalType":"struct CoreStructs.EvvmMetadata","components":[{"name":"EvvmName","type":"string","internalType":"string"},{"name":"EvvmID","type":"uint256","internalType":"uint256"},{"name":"principalTokenName","type":"string","internalType":"string"},{"name":"principalTokenSymbol","type":"string","internalType":"string"},{"name":"principalTokenAddress","type":"address","internalType":"address"},{"name":"totalSupply","type":"uint256","internalType":"uint256"},{"name":"eraTokens","type":"uint256","internalType":"uint256"},{"name":"reward","type":"uint256","internalType":"uint256"}]}],"stateMutability":"view"},{"type":"function","name":"getFullDetailAdmin","inputs":[],"outputs":[{"name":"","type":"tuple","internalType":"struct ProposalStructs.AddressTypeProposal","components":[{"name":"current","type":"address","internalType":"address"},{"name":"proposal","type":"address","internalType":"address"},{"name":"timeToAccept","type":"uint256","internalType":"uint256"}]}],"stateMutability":"view"},{"type":"function","name":"getFullDetailImplementation","inputs":[],"outputs":[{"name":"","type":"tuple","internalType":"struct ProposalStructs.AddressTypeProposal","components":[{"name":"current","type":"address","internalType":"address"},{"name":"proposal","type":"address","internalType":"address"},{"name":"timeToAccept","type":"uint256","internalType":"uint256"}]}],"stateMutability":"view"},{"type":"function","name":"getFullDetailListStatus","inputs":[],"outputs":[{"name":"","type":"tuple","internalType":"struct ProposalStructs.Bytes1TypeProposal","components":[{"name":"current","type":"bytes1","internalType":"bytes1"},{"name":"proposal","type":"bytes1","internalType":"bytes1"},{"name":"timeToAccept","type":"uint256","internalType":"uint256"}]}],"stateMutability":"view"},{"type":"function","name":"getFullDetailReward","inputs":[],"outputs":[{"name":"","type":"tuple","internalType":"struct ProposalStructs.UintTypeProposal","components":[{"name":"current","type":"uint256","internalType":"uint256"},{"name":"proposal","type":"uint256","internalType":"uint256"},{"name":"timeToAccept","type":"uint256","internalType":"uint256"}]}],"stateMutability":"view"},{"type":"function","name":"getFullDetailRewardFlowDistribution","inputs":[],"outputs":[{"name":"","type":"tuple","internalType":"struct ProposalStructs.BoolTypeProposal","components":[{"name":"flag","type":"bool","internalType":"bool"},{"name":"timeToAccept","type":"uint256","internalType":"uint256"}]}],"stateMutability":"view"},{"type":"function","name":"getFullDetailUserValidator","inputs":[],"outputs":[{"name":"","type":"tuple","internalType":"struct ProposalStructs.AddressTypeProposal","components":[{"name":"current","type":"address","internalType":"address"},{"name":"proposal","type":"address","internalType":"address"},{"name":"timeToAccept","type":"uint256","internalType":"uint256"}]}],"stateMutability":"view"},{"type":"function","name":"getIfUsedAsyncNonce","inputs":[{"name":"user","type":"address","internalType":"address"},{"name":"nonce","type":"uint256","internalType":"uint256"}],"outputs":[{"name":"","type":"bool","internalType":"bool"}],"stateMutability":"view"},{"type":"function","name":"getNameServiceAddress","inputs":[],"outputs":[{"name":"","type":"address","internalType":"address"}],"stateMutability":"view"},{"type":"function","name":"getNextCurrentSyncNonce","inputs":[{"name":"user","type":"address","internalType":"address"}],"outputs":[{"name":"","type":"uint256","internalType":"uint256"}],"stateMutability":"view"},{"type":"function","name":"getPrincipalTokenAddress","inputs":[],"outputs":[{"name":"","type":"address","internalType":"address"}],"stateMutability":"view"},{"type":"function","name":"getPrincipalTokenTotalSupply","inputs":[],"outputs":[{"name":"","type":"uint256","internalType":"uint256"}],"stateMutability":"view"},{"type":"function","name":"getRewardAmount","inputs":[],"outputs":[{"name":"","type":"uint256","internalType":"uint256"}],"stateMutability":"view"},{"type":"function","name":"getRewardFlowDistributionFlag","inputs":[],"outputs":[{"name":"","type":"bool","internalType":"bool"}],"stateMutability":"view"},{"type":"function","name":"getStakingContractAddress","inputs":[],"outputs":[{"name":"","type":"address","internalType":"address"}],"stateMutability":"view"},{"type":"function","name":"getTimeToDeleteMaxSupply","inputs":[],"outputs":[{"name":"","type":"uint256","internalType":"uint256"}],"stateMutability":"view"},{"type":"function","name":"getUserValidatorAddress","inputs":[],"outputs":[{"name":"","type":"address","internalType":"address"}],"stateMutability":"view"},{"type":"function","name":"initializeSystemContracts","inputs":[{"name":"_nameServiceAddress","type":"address","internalType":"address"},{"name":"_treasuryAddress","type":"address","internalType":"address"}],"outputs":[],"stateMutability":"nonpayable"},{"type":"function","name":"isAddressStaker","inputs":[{"name":"user","type":"address","internalType":"address"}],"outputs":[{"name":"","type":"bool","internalType":"bool"}],"stateMutability":"view"},{"type":"function","name":"pay","inputs":[{"name":"from","type":"address","internalType":"address"},{"name":"to_address","type":"address","internalType":"address"},{"name":"to_identity","type":"string","internalType":"string"},{"name":"token","type":"address","internalType":"address"},{"name":"amount","type":"uint256","internalType":"uint256"},{"name":"priorityFee","type":"uint256","internalType":"uint256"},{"name":"senderExecutor","type":"address","internalType":"address"},{"name":"originExecutor","type":"address","internalType":"address"},{"name":"nonce","type":"uint256","internalType":"uint256"},{"name":"isAsyncExec","type":"bool","internalType":"bool"},{"name":"signature","type":"bytes","internalType":"bytes"}],"outputs":[],"stateMutability":"nonpayable"},{"type":"function","name":"pointStaker","inputs":[{"name":"user","type":"address","internalType":"address"},{"name":"answer","type":"bytes1","internalType":"bytes1"}],"outputs":[],"stateMutability":"nonpayable"},{"type":"function","name":"proposeAdmin","inputs":[{"name":"_newOwner","type":"address","internalType":"address"}],"outputs":[],"stateMutability":"nonpayable"},{"type":"function","name":"proposeChangeBaseRewardAmount","inputs":[{"name":"newBaseReward","type":"uint256","internalType":"uint256"}],"outputs":[],"stateMutability":"nonpayable"},{"type":"function","name":"proposeChangeRewardFlowDistribution","inputs":[],"outputs":[],"stateMutability":"nonpayable"},{"type":"function","name":"proposeDeleteTotalSupply","inputs":[],"outputs":[],"stateMutability":"nonpayable"},{"type":"function","name":"proposeImplementation","inputs":[{"name":"_newImpl","type":"address","internalType":"address"}],"outputs":[],"stateMutability":"nonpayable"},{"type":"function","name":"proposeListStatus","inputs":[{"name":"newStatus","type":"bytes1","internalType":"bytes1"}],"outputs":[],"stateMutability":"nonpayable"},{"type":"function","name":"proposeUserValidator","inputs":[{"name":"newValidator","type":"address","internalType":"address"}],"outputs":[],"stateMutability":"nonpayable"},{"type":"function","name":"recalculateReward","inputs":[],"outputs":[],"stateMutability":"nonpayable"},{"type":"function","name":"rejectChangeBaseRewardAmount","inputs":[],"outputs":[],"stateMutability":"nonpayable"},{"type":"function","name":"rejectChangeRewardFlowDistribution","inputs":[],"outputs":[],"stateMutability":"nonpayable"},{"type":"function","name":"rejectDeleteTotalSupply","inputs":[],"outputs":[],"stateMutability":"nonpayable"},{"type":"function","name":"rejectListStatusProposal","inputs":[],"outputs":[],"stateMutability":"nonpayable"},{"type":"function","name":"rejectProposalAdmin","inputs":[],"outputs":[],"stateMutability":"nonpayable"},{"type":"function","name":"rejectUpgrade","inputs":[],"outputs":[],"stateMutability":"nonpayable"},{"type":"function","name":"removeAmountFromUser","inputs":[{"name":"user","type":"address","internalType":"address"},{"name":"token","type":"address","internalType":"address"},{"name":"amount","type":"uint256","internalType":"uint256"}],"outputs":[],"stateMutability":"nonpayable"},{"type":"function","name":"reserveAsyncNonce","inputs":[{"name":"nonce","type":"uint256","internalType":"uint256"},{"name":"senderExecutor","type":"address","internalType":"address"}],"outputs":[],"stateMutability":"nonpayable"},{"type":"function","name":"revokeAsyncNonce","inputs":[{"name":"nonce","type":"uint256","internalType":"uint256"}],"outputs":[],"stateMutability":"nonpayable"},{"type":"function","name":"setEvvmID","inputs":[{"name":"newEvvmID","type":"uint256","internalType":"uint256"}],"outputs":[],"stateMutability":"nonpayable"},{"type":"function","name":"setPointStaker","inputs":[{"name":"user","type":"address","internalType":"address"},{"name":"answer","type":"bytes1","internalType":"bytes1"}],"outputs":[],"stateMutability":"nonpayable"},{"type":"function","name":"setTokenStatusOnAllowList","inputs":[{"name":"token","type":"address","internalType":"address"},{"name":"status","type":"bool","internalType":"bool"}],"outputs":[],"stateMutability":"nonpayable"},{"type":"function","name":"setTokenStatusOnDenyList","inputs":[{"name":"token","type":"address","internalType":"address"},{"name":"status","type":"bool","internalType":"bool"}],"outputs":[],"stateMutability":"nonpayable"},{"type":"function","name":"validateAndConsumeNonce","inputs":[{"name":"user","type":"address","internalType":"address"},{"name":"senderExecutor","type":"address","internalType":"address"},{"name":"hashPayload","type":"bytes32","internalType":"bytes32"},{"name":"originExecutor","type":"address","internalType":"address"},{"name":"nonce","type":"uint256","internalType":"uint256"},{"name":"isAsyncExec","type":"bool","internalType":"bool"},{"name":"signature","type":"bytes","internalType":"bytes"}],"outputs":[],"stateMutability":"nonpayable"},{"type":"error","name":"AddressCantBeZero","inputs":[]},{"type":"error","name":"AsyncNonceAlreadyReserved","inputs":[]},{"type":"error","name":"AsyncNonceAlreadyUsed","inputs":[]},{"type":"error","name":"AsyncNonceIsReservedByAnotherService","inputs":[]},{"type":"error","name":"AsyncNonceNotReserved","inputs":[]},{"type":"error","name":"BaseRewardIncreaseNotAllowed","inputs":[]},{"type":"error","name":"BreakerExploded","inputs":[]},{"type":"error","name":"ImplementationIsNotActive","inputs":[]},{"type":"error","name":"IncorrectAddressInput","inputs":[]},{"type":"error","name":"InsufficientBalance","inputs":[]},{"type":"error","name":"InvalidAmount","inputs":[]},{"type":"error","name":"InvalidListStatus","inputs":[]},{"type":"error","name":"InvalidServiceAddress","inputs":[]},{"type":"error","name":"InvalidSignature","inputs":[]},{"type":"error","name":"MaxSupplyDeletionNotAllowed","inputs":[]},{"type":"error","name":"NotAnCA","inputs":[]},{"type":"error","name":"OriginIsNotTheOriginExecutor","inputs":[]},{"type":"error","name":"ProposalNotReadyToAccept","inputs":[]},{"type":"error","name":"RewardFlowDistributionChangeNotAllowed","inputs":[]},{"type":"error","name":"SenderIsNotAdmin","inputs":[]},{"type":"error","name":"SenderIsNotTheProposedAdmin","inputs":[]},{"type":"error","name":"SenderIsNotTreasury","inputs":[]},{"type":"error","name":"ServiceSenderMismatch","inputs":[]},{"type":"error","name":"SyncNonceMismatch","inputs":[]},{"type":"error","name":"TokenIsDeniedForExecution","inputs":[]},{"type":"error","name":"UserCannotExecuteTransaction","inputs":[]},{"type":"error","name":"WindowExpired","inputs":[]}],"bytecode":{"object":"0x60806040523461061c576144f38038038061001981610620565b92833981019060608183031261061c5761003281610645565b9061003f60208201610645565b604082015190916001600160401b03821161061c5701916101008385031261061c576040519261010084016001600160401b038111858210176104065760405280516001600160401b03811161061c578561009b918301610659565b845260208181015190850190815260408201516001600160401b03811161061c57866100c8918401610659565b60408601908152606083015190966001600160401b03821161061c576100ef918401610659565b6060860190815261010260808401610645565b966080870197885260a08401519260a0880193845260e060c08601519560c08a0196875201519560e0890196875260018060a01b0316978815801561060b575b6105fc57518051906001600160401b0382116104065760095490600182811c921680156105f2575b60208310146103e85781601f84931161057c575b50602090601f8311600114610516575f9261050b575b50508160011b915f199060031b1c1916176009555b51600a55518051906001600160401b03821161040657600b5490600182811c92168015610501575b60208310146103e85781601f84931161048b575b50602090601f8311600114610425575f9261041a575b50508160011b915f199060031b1c191617600b555b5180519096906001600160401b03811161040657600c54600181811c911680156103fc575b60208210146103e857601f811161037a575b506020601f82116001146103125781906102d598995f92610307575b50508160011b915f199060031b1c191617600c555b51600d80546001600160a01b03199081166001600160a01b03938416179091559151600e559151600f5591516010556001805483169184169182178155601180549093169095179091556014805460ff19169094179093556106cb565b5f52601b60205260405f20600160ff19825416179055600160ff19601a541617601a55604051613da9908161074a8239f35b015190505f80610263565b601f19821698600c5f52815f20995f5b8181106103625750916102d5999a9184600195941061034a575b505050811b01600c55610278565b01515f1960f88460031b161c191690555f808061033c565b838301518c556001909b019a60209384019301610322565b8181111561024757600c5f52601f820160051c7fdf6966c971051c3d54ec59162606531493a51404a002842f56009d7e5cf4a8c7602084106103e0575b81601f9101920160051c03905f5b8281106103d3575050610247565b5f828201556001016103c5565b5f91506103b7565b634e487b7160e01b5f52602260045260245ffd5b90607f1690610235565b634e487b7160e01b5f52604160045260245ffd5b015190505f806101fb565b600b5f9081528281209350601f198516905b818110610473575090846001959493921061045b575b505050811b01600b55610210565b01515f1960f88460031b161c191690555f808061044d565b92936020600181928786015181550195019301610437565b828111156101e557600b5f52909150601f830160051c7f0175b7a638427703f0dbe7bb9bbf987a2551717b34e79f33b5b1008d1fa01db9602085106104f9575b849392601f0160051c82900391015f5b8281106104e95750506101e5565b5f818301558594506001016104db565b5f91506104cb565b91607f16916101d1565b015190505f80610194565b60095f9081528281209350601f198516905b818110610564575090846001959493921061054c575b505050811b016009556101a9565b01515f1960f88460031b161c191690555f808061053e565b92936020600181928786015181550195019301610528565b8281111561017e5760095f52909150601f830160051c7f6e1540171b6c0c960b71a7020d9f60077f6af931a8bbf590da0223dacf75c7af602085106105ea575b849392601f0160051c82900391015f5b8281106105da57505061017e565b5f818301558594506001016105cc565b5f91506105bc565b91607f169161016a565b632582a64160e11b5f5260045ffd5b506001600160a01b03881615610142565b5f80fd5b6040519190601f01601f191682016001600160401b0381118382101761040657604052565b51906001600160a01b038216820361061c57565b81601f8201121561061c578051906001600160401b03821161040657610688601f8301601f1916602001610620565b928284526020838301011161061c57815f9260208093018386015e8301015290565b919082018092116106b757565b634e487b7160e01b5f52601160045260245ffd5b60ff6014541615801561073b575b610738576010548060011b90808204600214901517156106b7576107339160018060a01b03165f52601c60205260405f2060018060a01b03600d54165f5260205260405f206107298282546106aa565b90556008546106aa565b600855565b50565b50600854600e5411156106d956fe60806040526004361015610019575b341561323d575b5f80fd5b5f3560e01c806301ed3f51146104685780630211de41146104635780630761a3ad1461045e57806308351bdd1461045957806309a69f571461045457806309fc69711461044f5780630e18b6811461044a5780630f1f38b2146104455780630faff8e814610440578063147bf6c41461043b57806315ba56e51461043657806317c85152146104315780631d3a4e2d1461042c57806325e3243b14610427578063280e32fb14610422578063286b4b441461041d57806329cca5691461041857806332e26fdc146104135780633625c9011461040e5780633a8cd872146104095780633f54542a14610404578063401dffee146103ff57806347ecd0f6146103fa5780634b366ccc146103f55780634c3b7bdb146103f05780634f3e1efc146103eb5780635300e162146103e657806354a12357146103e157806355160ea6146103dc578063563b6170146103d75780635a2cba27146103d2578063643d430c146103cd5780636a230fb4146103c85780636afe5795146103c35780636c9fa638146103be5780636cd30148146103b9578063766dd07b146103b457806376e6eb7e146103af5780637797e97d146103aa5780637a975c80146103a5578063804ef86f146103a0578063862b37371461039b5780638b62e507146103965780638e0c71ad1461039157806390fcb4ee1461038c57806392ab1f24146103875780639dd18c1514610382578063a574aac41461037d578063a7a096f614610378578063ab82aa0a14610373578063adb6233f1461036e578063ae63d1a714610369578063b139c79714610364578063b38c950a1461035f578063b517ac7d1461035a578063bd26035e14610355578063be726ffd14610350578063c898a6e91461034b578063cd654e3e14610346578063d0e3692d14610341578063d3bca8841461033c578063d4fac45d14610337578063e08290ee14610332578063e4e3cfee1461032d578063e7816eb814610328578063e8163dda14610323578063ef0035291461031e578063ef802613146103195763fa7a2e2a0361000e57612251565b6121b1565b61218b565b61213f565b611ca2565b611c03565b611ba6565b611b60565b611aeb565b611a9d565b611a42565b6119db565b6119be565b611991565b61193b565b6118ba565b611894565b61181f565b6117c1565b611738565b611699565b611653565b6115f0565b611588565b6114e6565b6114cc565b6113b8565b611365565b6112fd565b611281565b61123b565b6111dc565b611193565b611157565b6110ca565b611078565b61103b565b611015565b610fd4565b610f80565b610ea2565b610e4b565b610d86565b610d69565b610d20565b610cba565b610c9d565b610c65565b610c2d565b610c08565b610be0565b610b46565b610a9d565b610a4e565b610a28565b6109b4565b610992565b610975565b61091f565b610873565b6107a5565b6106c6565b610648565b610620565b610603565b6105c2565b61051a565b6104e2565b34610015576020366003190112610015576004356001600160a01b036011541633036104c957600a546104b0575b600a556201518042018042116104ab57600755005b6122c6565b60075442111561049657633ddfdb7f60e11b5f5260045ffd5b636587b01b60e11b5f5260045ffd5b5f91031261001557565b34610015575f366003190112610015576001600160a01b036011541633036104c95761051461ff001960185416601855565b5f601955005b34610015575f366003190112610015576105326123ca565b506060601054601654601754906040805161054c81612333565b8481526020810192835201918252604051928352516020830152516040820152f35b6001600160a01b0381160361001557565b60a4359061058c8261056e565b565b60c4359061058c8261056e565b6024359061058c8261056e565b6064359061058c8261056e565b60e4359061058c8261056e565b34610015576020366003190112610015576001600160a01b036004356105e78161056e565b165f526023602052602060ff60405f2054166040519015158152f35b34610015575f366003190112610015576020601054604051908152f35b34610015575f366003190112610015576001600160a01b036011541633036104c9575f601555005b34610015575f3660031901126100155760135442106106b7576001600160a01b03601254168033036106a8576106a6906106956040519161068883612333565b6001600160a01b03168252565b5f60208201525f60408201526123e8565b005b63036834cf60e51b5f5260045ffd5b633ec513fd60e01b5f5260045ffd5b346100155760203660031901126100155760206106ed6004356106e88161056e565b612451565b6040519015158152f35b805180835260209291819084018484015e5f828201840152601f01601f1916010190565b6020815261010060e061077661076061074086518560208801526101208701906106f7565b602087015160408701526040870151601f198783030160608801526106f7565b6060860151858203601f190160808701526106f7565b60808501516001600160a01b031660a08501529360a081015160c085015260c081015182850152015191015290565b34610015575f366003190112610015575f60e06040516107c481612353565b60608152826020820152606060408201526060808201528260808201528260a08201528260c0820152015261086f6107fa6123ab565b6108026124cf565b8152600a5460208201526108146125a4565b604082015261082161264b565b606082015261084b61083b600d546001600160a01b031690565b6001600160a01b03166080830152565b600e5460a0820152600f5460c082015260105460e08201526040519182918261071b565b0390f35b34610015576020366003190112610015576004356108908161056e565b6001600160a01b03601154168033036104c9576001600160a01b038216818115918215610915575b5050610906576201518042018042116104ab576108fc6106a6936108ec6108dd6123bb565b6001600160a01b039095168552565b6001600160a01b03166020840152565b60408201526123e8565b630f107a8160e11b5f5260045ffd5b149050815f6108b8565b34610015575f366003190112610015576001600160a01b036011541633036104c95760055442106106b75760048054600380546001600160a01b03199081166001600160a01b038416179091551690555f600555005b34610015575f366003190112610015576020600a54604051908152f35b34610015575f36600319011261001557602060ff601454166040519015158152f35b34610015575f366003190112610015576109cc6123ca565b506040516109d981612333565b6018546001600160f81b031960f882901b811680845260f09290921b81166020808501918252601954604095860190815285519485529151909216918301919091525191810191909152606090f35b34610015575f3660031901126100155760206001600160a01b03600d5416604051908152f35b346100155760203660031901126100155760206106ed600435610a708161056e565b6001600160a01b03165f908152601b602052604090205460f81b6001600160f81b031916600160f81b1490565b34610015575f3660031901126100155760206001600160a01b0360035416604051908152f35b9181601f84011215610015578235916001600160401b038311610015576020808501948460051b01011161001557565b8015150361001557565b610104359061058c82610af3565b610124359061058c82610af3565b9181601f84011215610015578235916001600160401b038311610015576020838186019501011161001557565b346100155761014036600319011261001557600435610b648161056e565b6024356001600160401b03811161001557610b83903690600401610ac3565b91604435610b908161056e565b606435608435610b9e61057f565b610ba661058e565b9160e43593610bb3610afd565b9561012435996001600160401b038b1161001557610bd86106a69b3690600401610b19565b9a90996128fd565b34610015575f366003190112610015576001600160a01b036011541633036104c9575f600655005b34610015575f3660031901126100155760206001600160a01b035f5416604051908152f35b34610015575f366003190112610015576001600160a01b036011541633036104c957600480546001600160a01b03191690555f600555005b34610015575f366003190112610015576001600160a01b036011541633036104c957601e80546001600160a01b03191690555f601f55005b34610015575f366003190112610015576020600e54604051908152f35b34610015576040366003190112610015576020610ce5600435610cdc8161056e565b60243590612bed565b6040516001600160f81b03199091168152f35b604090600319011261001557600435610d108161056e565b90602435610d1d81610af3565b90565b3461001557610d2e36610cf8565b6001600160a01b036011541633036104c9576001600160a01b036106a692165f52602460205260405f209060ff801983541691151516179055565b34610015575f366003190112610015576020600854604051908152f35b34610015575f36600319011261001557600e54600f549081811180610e40575b15610015578181039081116104ab57610dcb91610dc69160011c90612312565b600f55565b610ddf601054610dd96135ce565b90612c86565b610e2a610e22610e00336001600160a01b03165f52601c60205260405f2090565b600d546001600160a01b03165b6001600160a01b03165f5260205260405f2090565b918254612312565b90556106a6610e3b60105460011c90565b601055565b505f19811415610da6565b34610015575f366003190112610015576001600160a01b036011541633036104c95760065442106106b7575f19600e55005b604090600319011261001557600435610e958161056e565b90602435610d1d8161056e565b3461001557610eb036610e7d565b60ff601a541615610f71576001600160a01b038216158015610f60575b610f5157610ef8826001600160a01b036106a694166001600160601b0360a01b5f5416175f55613440565b610f33610f26610f0f5f546001600160a01b031690565b6001600160a01b03165f52601b60205260405f2090565b805460ff19166001179055565b6001600160a01b03166001600160601b0360a01b6002541617600255565b632582a64160e11b5f5260045ffd5b506001600160a01b03811615610ecd565b630169759360e61b5f5260045ffd5b34610015575f366003190112610015575f6020604051610f9f8161236f565b828152015260408051610fb18161236f565b60ff60145416151590818152602060155491019081528251918252516020820152f35b34610015576020366003190112610015576001600160a01b03600435610ff98161056e565b165f526024602052602060ff60405f2054166040519015158152f35b34610015575f3660031901126100155760206001600160a01b0360115416604051908152f35b34610015575f366003190112610015576001600160a01b036011541633036104c95760175442106106b7576016546010555f6016555f6017555f80f35b34610015575f3660031901126100155760206001600160a01b0360015416604051908152f35b6060906003190112610015576004356110b68161056e565b906024356110c38161056e565b9060443590565b34610015576110d83661109e565b919060ff60f81b60185460f81b16611149575b6001600160a01b0360025416330361113a576001600160a01b0361112b92165f52601c60205260405f20906001600160a01b03165f5260205260405f2090565b80549182018092116104ab5755005b63aab0382b60e01b5f5260045ffd5b61115281613366565b6110eb565b34610015576020366003190112610015576001600160a01b0360043561117c8161056e565b165f526022602052602060405f2054604051908152f35b34610015576111a136610cf8565b6001600160a01b036011541633036104c9576001600160a01b036106a692165f52602360205260405f209060ff801983541691151516179055565b34610015576111ea3661109e565b91906001600160a01b0360025416330361113a576001600160a01b0361122c92165f52601c60205260405f20906001600160a01b03165f5260205260405f2090565b80549182039182116104ab5755005b34610015575f366003190112610015576001600160a01b036011541633036104c95760195442106106b7576018805461ffff19811660089190911c60ff16179055610514565b34610015575f366003190112610015576001600160a01b036011541633036104c957600854600e549061270f820282810461270f14831517156104ab576127109004119081156112f2575b506112e3576201518042018042116104ab57600655005b633cfd42e960e01b5f5260045ffd5b5f191490505f6112cc565b34610015576020366003190112610015576004356001600160a01b036011541633036104c957600e545f1914801590611359575b61134a576016556201518042018042116104ab57601755005b633527678960e01b5f5260045ffd5b50601054811015611331565b34610015576040366003190112610015576004356113828161056e565b6001600160a01b0360243591165f52602160205260405f20905f5260205260206001600160a01b0360405f205416604051908152f35b34610015576040366003190112610015576004356024356113d88161056e565b6001600160a01b038116156114bd57335f526020805261140d6114068360405f20905f5260205260405f2090565b5460ff1690565b6114ae5761145c61145061144384611436336001600160a01b03165f52602160205260405f2090565b905f5260205260405f2090565b546001600160a01b031690565b6001600160a01b031690565b61149f576114826106a692611436336001600160a01b03165f52602160205260405f2090565b906001600160a01b03166001600160601b0360a01b825416179055565b632e81b29360e01b5f5260045ffd5b632a0c4a2360e01b5f5260045ffd5b635ece24d960e11b5f5260045ffd5b34610015575f3660031901126100155760206040515f8152f35b3461001557610160366003190112610015576004356115048161056e565b61150c61059b565b6044356001600160401b0381116100155761152b903690600401610b19565b6115369391936105a8565b60843560a43561154461058e565b9061154d6105b5565b92610104359461155b610b0b565b96610144359a6001600160401b038c11610015576115806106a69c3690600401610b19565b9b909a612ce2565b34610015575f366003190112610015576001600160a01b036011541633036104c957600854600e5461270f81029080820461270f14901517156104ab576127109004116115e1576201518042018042116104ab57601555005b63228f257f60e11b5f5260045ffd5b346100155760203660031901126100155760043561160d8161056e565b6001600160a01b036011541633036104c9576001600160a01b03168015610906576001600160601b0360a01b600454161760045562278d0042018042116104ab57600555005b34610015575f366003190112610015576001600160a01b036011541633036104c95760155442106106b75760145460ff80821615169060ff1916176014555f6015555f80f35b34610015576060366003190112610015576004356001600160401b0381116100155736602382011215610015578060040135906001600160401b038211610015573660248360061b83010111610015576106a691602435906116fa8261056e565b60246044359301612e6a565b91909160408060608301946001600160a01b0381511684526001600160a01b0360208201511660208501520151910152565b34610015575f366003190112610015576117506123ca565b5061086f60405161176081612333565b6001600160a01b036011541681526001600160a01b03601254166020820152601354604082015260405191829182611706565b602435906001600160f81b03198216820361001557565b600435906001600160f81b03198216820361001557565b34610015576040366003190112610015576004356117de8161056e565b6117e6611793565b6001600160a01b03600154163303610015576001600160a01b036106a692165f52601b60205260405f209060f81c60ff19825416179055565b34610015576020366003190112610015576118386117aa565b6001600160a01b036011541633036104c95760038160f81c1015611885576118739061ff00806018549260f01c16169061ff00191617601855565b6201518042018042116104ab57601955005b631fd8bc0560e11b5f5260045ffd5b34610015575f3660031901126100155760206001600160a01b03601d5416604051908152f35b34610015575f366003190112610015576001600160a01b03601154168033036104c9576001600160a01b03905f604080516118f481612333565b8381528260208201520152166001600160601b0360a01b60115416176011556119355f6001600160a01b03166001600160601b0360a01b6012541617601255565b5f601355005b34610015575f366003190112610015576001600160a01b036011541633036104c957601f5442106106b757601e8054601d80546001600160a01b03199081166001600160a01b038416179091551690555f601f55005b34610015575f366003190112610015576001600160a01b036011541633036104c9575f6016819055601755005b34610015575f366003190112610015576020600654604051908152f35b34610015576119e93661109e565b906119f333612451565b15611a3357611a029233613644565b335f908152601b602052604090205460f81b6001600160f81b031916600160f81b14611a2a57005b6106a6336134c5565b630296e8bf60e61b5f5260045ffd5b34610015575f36600319011261001557611a5a6123ca565b5061086f604051611a6a81612333565b6001600160a01b03601d541681526001600160a01b03601e54166020820152601f54604082015260405191829182611706565b3461001557604036600319011261001557600435611aba8161056e565b6001600160a01b0360243591165f526020805260405f20905f52602052602060ff60405f2054166040519015158152f35b34610015576001600160a01b03611b013661109e565b929091165f52601c602052611b2a8160405f20906001600160a01b03165f5260205260405f2090565b8054908382018092116104ab57556001600160a01b0380600d5416911614611b4e57005b6008549081018091116104ab57600855005b34610015576020611b9d6001600160a01b03611b7b36610e7d565b91165f52601c835260405f20906001600160a01b03165f5260205260405f2090565b54604051908152f35b34610015575f36600319011261001557611bbe6123ca565b5061086f6001600160a01b03600354166001600160a01b03600454166005549060405192611beb84612333565b83526020830152604082015260405191829182611706565b3461001557602036600319011261001557600435611c208161056e565b6001600160a01b036011541633036104c9576001600160a01b03166001600160601b0360a01b601e541617601e556201518042018042116104ab57601f55005b6060602091604081019381526040838201528451809452019201905f5b818110611c8a5750505090565b82511515845260209384019390920191600101611c7d565b34610015576020366003190112610015576004356001600160401b03811161001557611cd2903690600401610ac3565b335f908152601b60205260408120549192909160f81b6001600160f81b031916600160f81b1490611d0284612f84565b9373__$4eed29582e89dabffcea3de7fdb0d1406e$__905f5b818110611d495750505050611d3a575b61086f60405192839283611c60565b611d448133613528565b611d2b565b611d54818386612fb6565b611d5d816128ad565b611d6960c083016128ad565b6020830191611d77836128ad565b926040850190611d878287612867565b909360608801956020611d99886128ad565b938d60808c01359860a08d01359b611dc98d8c6040519a8b9788968796634c09e2c960e01b885260048801612ca8565b03915af4928315612039575f9361210f575b50611de860e08a016128ad565b916101008a013592611dfd6101208c01612fd9565b611e0b6101408d018d612867565b91303b15610015575f96611e3494604051998a988998637d3d171560e11b8a5260048a01612fe3565b038183305af190816120f5575b50611e6257505050505050805f611e5a6001938a613026565b525b01611d1b565b601854969b9660f81b600160f81b6001600160f81b031982161490816120c4575b811561207a575b5061205b578a1561207057611e9f8386612312565b611ece611ec5611eae896128ad565b6001600160a01b03165f52601c60205260405f2090565b610e0d876128ad565b541061205b57611f00611efc611eee611ee7858a612867565b3691612724565b611ef6612899565b90613413565b1590565b1561203e57506020611f4c91611f2d611f266114506114505f546001600160a01b031690565b9188612867565b604051630d3dcb9f60e01b8152948593928492839291600484016128d7565b03915afa908115612039575f9161200b575b506001600160a01b03811615611ff15791611f966001969492611fac96945b611f86866128ad565b90611f90856128ad565b91613644565b81151580611fea575b611fc5575b50505061303a565b95611fc0611fba828a613026565b60019052565b611e5c565b611fda611fd4611fe2946128ad565b916128ad565b903390613644565b5f8080611fa4565b5089611f9f565b505050505094805f6120056001938a613026565b52611e5c565b61202c915060203d8111612032575b612024818361238a565b8101906128e8565b5f611f5e565b503d61201a565b612446565b611fac959391506001969492612056611f96926128ad565b611f7d565b50505050505094805f6120056001938a613026565b611e9f835f612312565b6001600160f81b031916600160f91b14905080612098575b5f611e8a565b506120bf6114066120a8866128ad565b6001600160a01b03165f52602360205260405f2090565b612092565b90506120ef611efc6114066120d8886128ad565b6001600160a01b03165f52602460205260405f2090565b90611e83565b806121035f6121099361238a565b806104d8565b5f611e41565b61213191935060203d8111612138575b612129818361238a565b810190612c99565b915f611ddb565b503d61211f565b34610015576040366003190112610015576106a660043561215f8161056e565b6001600160a01b0361216f611793565b91165f52601b60205260405f209060f81c60ff19825416179055565b34610015575f36600319011261001557602060185460f81b6040519060ff60f81b168152f35b3461001557602036600319011261001557600435335f526020805260405f20815f5260205260ff60405f2054166114ae57335f5260216020526001600160a01b0361220a6114438360405f20905f5260205260405f2090565b1615612242576122326106a691611436336001600160a01b03165f52602160205260405f2090565b80546001600160a01b0319169055565b63eb54a44d60e01b5f5260045ffd5b346100155760e03660031901126100155760043561226e8161056e565b6024359061227b8261056e565b606435916122888361056e565b60a43560843561229782610af3565b60c435946001600160401b038611610015576122ba6106a6963690600401610b19565b95909460443591613048565b634e487b7160e01b5f52601160045260245ffd5b90600182018092116104ab57565b60020190816002116104ab57565b60030190816003116104ab57565b90600c82018092116104ab57565b919082018092116104ab57565b634e487b7160e01b5f52604160045260245ffd5b606081019081106001600160401b0382111761234e57604052565b61231f565b61010081019081106001600160401b0382111761234e57604052565b604081019081106001600160401b0382111761234e57604052565b90601f801991011681019081106001600160401b0382111761234e57604052565b6040519061058c6101008361238a565b6040519061058c60608361238a565b604051906123d782612333565b5f6040838281528260208201520152565b6040906001600160a01b038151166001600160601b0360a01b60115416176011556001600160a01b036020820151166001600160601b0360a01b60125416176012550151601355565b908160209103126100155751610d1d81610af3565b6040513d5f823e3d90fd5b6001600160a01b03601d541680156124c8576040516385c99e2b60e01b81526001600160a01b0392831660048201529160209183916024918391165afa908115612039575f9161249f575090565b610d1d915060203d6020116124c1575b6124b9818361238a565b810190612431565b503d6124af565b5050600190565b604051905f6009548060011c9160018216801561259a575b602084108114612586578386528592602084019190811561256d5750600114612518575b5061058c9250038361238a565b60095f90815291507f6e1540171b6c0c960b71a7020d9f60077f6af931a8bbf590da0223dacf75c7af5b848310612556575061058c9350015f61250b565b805482840152869350602090920191600101612542565b60ff191682525061058c93151560051b0190505f61250b565b634e487b7160e01b5f52602260045260245ffd5b92607f16926124e7565b604051905f600b548060011c91600182168015612641575b602084108114612586578386528592602084019190811561256d57506001146125ec575061058c9250038361238a565b600b5f90815291507f0175b7a638427703f0dbe7bb9bbf987a2551717b34e79f33b5b1008d1fa01db95b84831061262a575061058c9350015f61250b565b805482840152869350602090920191600101612616565b92607f16926125bc565b604051905f600c548060011c916001821680156126e8575b602084108114612586578386528592602084019190811561256d5750600114612693575061058c9250038361238a565b600c5f90815291507fdf6966c971051c3d54ec59162606531493a51404a002842f56009d7e5cf4a8c75b8483106126d1575061058c9350015f61250b565b8054828401528693506020909201916001016126bd565b92607f1692612663565b6001600160401b03811161234e5760051b60200190565b6001600160401b03811161234e57601f01601f191660200190565b92919261273082612709565b9161273e604051938461238a565b829481845281830111610015578281602093845f960137010152565b929192612766826126f2565b93612774604051958661238a565b602085848152019260051b8201918183116100155780935b83851061279a575050505050565b84356001600160401b0381116100155782019060608285031261001557604051916127c483612333565b8035835260208101356127d68161056e565b60208401526040810135906001600160401b03821161001557019084601f830112156100155760209261280f8684868096359101612724565b604082015281520194019361278c565b919082039182116104ab57565b634e487b7160e01b5f52603260045260245ffd5b91908110156128625760051b81013590605e1981360301821215610015570190565b61282c565b903590601e198136030182121561001557018035906001600160401b0382116100155760200191813603831361001557565b604051906128a860208361238a565b5f8252565b35610d1d8161056e565b908060209392818452848401375f828201840152601f01601f1916010190565b916020610d1d9381815201916128b7565b908160209103126100155751610d1d8161056e565b9681999296612925878761292c999f989c95979e978f90612920908d369161275a565b61327b565b9089613048565b335f908152601b602052604090205460f81b6001600160f81b031916600160f81b14936129848661296e856001600160a01b03165f52601c60205260405f2090565b906001600160a01b03165f5260205260405f2090565b548515612be457612996885b86612312565b11612bd55760185460f81b6001600160f81b031916612bc7575b5f928515612bb1576129f06129e88861296e6129d08c9796975b8a612312565b946001600160a01b03165f52601c60205260405f2090565b91825461281f565b90555f91825b828410612a44575050505003612a3557612a0e575050565b610e22612a3191612a1e336134c5565b335f908152601c6020526040902061296e565b9055565b63162908e360e11b5f5260045ffd5b90919293612a5e90612a57868686612840565b3590612312565b93612a80611efc611eee611ee7612a76858989612840565b6040810190612867565b15612b9157612a9c6114506114505f546001600160a01b031690565b612acb6020612aaf612a76858989612840565b6040516310d9158b60e31b8152938492839290600484016128d7565b0381855afa908115612039575f91612b73575b50612b22575b506001905b612af4818686612840565b35612b17610e228b61296e876001600160a01b03165f52601c60205260405f2090565b9055019291906129f6565b819250602090611f2d612a76612b39948888612840565b03915afa8015612039576001915f91612b55575b509190612ae4565b612b6d915060203d811161203257612024818361238a565b5f612b4d565b612b8b915060203d81116124c1576124b9818361238a565b5f612ade565b90506001612bab6020612ba5848787612840565b016128ad565b91612ae9565b6129f06129e88861296e6129d05f9796976129ca565b612bd086613366565b6129b0565b631e9acf1760e31b5f5260045ffd5b6129965f612990565b6001600160a01b0381165f526020805260405f20825f5260205260ff60405f2054165f14612c205750600160f81b919050565b612c3b906001600160a01b03165f52602160205260405f2090565b905f526020526001600160a01b03612c5e60405f206001600160a01b0390541690565b1615612c6c57600160f91b90565b5f90565b908160011b91808304600214901517156104ab57565b818102929181159184041417156104ab57565b90816020910312610015575190565b9260809497969592612cd2916001600160a01b03809416865260a0602087015260a08601916128b7565b9616604083015260608201520152565b9b92988598602084848a9f969b9a899f969a908f9a91612d17926040519c8d968796634c09e2c960e01b885260048801612ca8565b038173__$4eed29582e89dabffcea3de7fdb0d1406e$__5af48015612039578c988f612d4a985f93612e39575b50613048565b612d5b611efc611eee368887612724565b15612e2c575050612d9d92602091612d806114506114505f546001600160a01b031690565b9060405180968194829363063c696360e11b8452600484016128d7565b03915afa91821561203957612dbd9284915f91612e0d575b505b86613644565b335f908152601b602052604090205460f81b6001600160f81b031916600160f81b14612de857505050565b81612dfa575b50505061058c336134c5565b612e05923390613644565b5f8080612dee565b612e26915060203d60201161203257612024818361238a565b5f612db5565b909150612dbd9350612db7565b612e5391935060203d60201161213857612129818361238a565b915f612d44565b91908110156128625760061b0190565b60185460f81b6001600160f81b031916612f76575b333b15612f675783612ea68461296e336001600160a01b03165f52601c60205260405f2090565b5410612bd55791905f92612ecf8361296e336001600160a01b03165f52601c60205260405f2090565b612eda86825461281f565b90555f925b828410612f20575050505003612a3557335f908152601b602052604090205460f81b6001600160f81b031916600160f81b14612f1757565b61058c336134c5565b90919293612f35600191612a57878787612e5a565b94612f41818686612e5a565b35612f5c610e228561296e611eae6020612ba5888d8d612e5a565b905501929190612edf565b633d0c12e760e21b5f5260045ffd5b612f7f83613366565b612e7f565b90612f8e826126f2565b612f9b604051918261238a565b8281528092612fac601f19916126f2565b0190602036910137565b91908110156128625760051b8101359061015e1981360301821215610015570190565b35610d1d81610af3565b93610d1d9896936001600160a01b0360e0979481809516885216602087015260408601521660608401526080830152151560a08201528160c082015201916128b7565b80518210156128625760209160051b010190565b5f1981146104ab5760010190565b9590919396926001600160a01b0381168015159081613232575b50613223576001600160a01b0383168015159081613218575b50613209578588613096926130a49761309e96600a54613791565b923691612724565b906138a1565b6001600160a01b038084169116036131fa576130c2611efc83612451565b611a3357156131a5576130d58282612bed565b600160f81b6001600160f81b03196130ed8585612bed565b16146114ae576001600160f81b031916600160f91b148061313d575b61312e5761058c91611436610f26926001600160a01b03165f526020805260405f2090565b633d83838160e21b5f5260045ffd5b50336001600160a01b0361316961144385611436866001600160a01b03165f52602160205260405f2090565b161415806131095750326001600160a01b0361319d61144385611436866001600160a01b03165f52602160205260405f2090565b161415613109565b906131c1826001600160a01b03165f52602260205260405f2090565b54036131eb576131e2906001600160a01b03165f52602260205260405f2090565b80546001019055565b63193ec5c960e01b5f5260045ffd5b638baa579f60e01b5f5260045ffd5b631c92090760e01b5f5260045ffd5b90503314155f61307b565b63018cc8b960e11b5f5260045ffd5b90503214155f613062565b6003546001600160a01b0381161561326c575f8091368280378136915af43d5f803e15613268573d5ff35b3d5ffd5b6332cea9e160e11b5f5260045ffd5b919092604051928391602083019560a08752600b60c08501526a646973706572736550617960a81b60e0850152610100840160e06040860152835180915261012085019060206101208260051b8801019501915f905b82821061330c57505050506001600160a01b0316606084015261330693608084015260a083015203601f19810183528261238a565b51902090565b919394965091969460208061335260019361011f198d8203018652606060408d51805184526001600160a01b0386820151168685015201519181604082015201906106f7565b9901920192018896949391929795976132d1565b60185460f881901b6001600160f81b031916600160f81b149190826133f0575b82156133a4575b505061339557565b6379d0112560e11b5f5260045ffd5b6001600160f81b031960f89190911b16600160f91b149150816133ca575b505f8061338d565b6133ea9150611406906001600160a01b03165f52602360205260405f2090565b5f6133c2565b6001600160a01b0382165f9081526024602052604090205460ff16159250613386565b908151815190818114938461342a575b5050505090565b602092939450820120920120145f808080613423565b60ff601454161580156134b7575b6134b457601054906014820291808304601414901517156104ab5761058c916001600160a01b036134af92165f52601c60205261349a60405f20610e0d600d546001600160a01b031690565b6134a5828254612312565b9055600854612312565b600855565b50565b50600854600e54111561344e565b60ff6014541615801561351a575b6134b45760105490811582800460011417156104ab5761058c916001600160a01b036134af92165f52601c60205261349a60405f20610e0d600d546001600160a01b031690565b50600854600e5411156134d3565b9060ff601454161580156135a2575b61359e5761354f6001600160a01b0391601054612c86565b91165f52601c60205261358060405f206001600160a01b03600d54166001600160a01b03165f5260205260405f2090565b8054918083018093116104ab5761058c926134af9255600854612312565b5050565b50600854600e541115613537565b81156135ba570690565b634e487b7160e01b5f52601260045260245ffd5b5f1943014381116104ab5761363d610d1d915a6040519060208201924083524260408301524460608301523360601b60808301523260601b609483015260a882015260a8815261361f60c88261238a565b51902061363761363260016113db61281f565b6122da565b906135b0565b6001612312565b6018549192916001600160a01b03919060f81b6001600160f81b0319166136e6575b1691825f52601c60205261368e8260405f20906001600160a01b03165f5260205260405f2090565b5490848210612bd5578461296e926136de955f52601c602052036136c68460405f20906001600160a01b03165f5260205260405f2090565b556001600160a01b03165f52601c60205260405f2090565b908154019055565b6136ef83613366565b613666565b805191908290602001825e015f815290565b9391959492909560405196879560208701613720916136f4565b600b60fa1b8152600101613733916136f4565b600b60fa1b8152600101613746916136f4565b600b60fa1b8152600101613759916136f4565b600b60fa1b815260010161376c916136f4565b600b60fa1b815260010161377f916136f4565b03601f198101835261058c908361238a565b6137a56137ab919796949795939295613a13565b94613bdb565b6137b3613b69565b9160306137bf84613bad565b5360786137cb84613bba565b535f5b602081106137fd5750506137f76137f16137eb610d1d9899613bdb565b94613a13565b94613ccb565b94613706565b81811a61381e61381860f483901b600f60f81b165b60f81c90565b60ff1690565b90601082101561286257600f916f181899199a1a9b1b9c1cb0b131b232b360811b901a61385b61385561385086612c70565b6122e8565b88613bca565b5316906010821015612862576001916f181899199a1a9b1b9c1cb0b131b232b360811b901a61389a61389461388f84612c70565b6122f6565b87613bca565b53016137ce565b6138f36139016138b18351613a13565b926040519283916138ed60208401967f19457468657265756d205369676e6564204d6573736167653a0a0000000000008852603a8501906136f4565b906136f4565b03601f19810183528261238a565b51902060418251036139a657815f916020809401519160606040820151910151841a92601b841061398f575b906139719161394b60ff8616601b8114908115613984575b50613d27565b604051948594859094939260ff6060936080840197845216602083015260408201520152565b838052039060015afa15612039575f5190565b601c9150145f613945565b929061399d61397192613d15565b9390915061392d565b60405162461bcd60e51b815260206004820152601860248201527f496e76616c6964207369676e6174757265206c656e67746800000000000000006044820152606490fd5b906139f582612709565b613a02604051918261238a565b8281528092612fac601f1991612709565b805f9172184f03e93ff9f4daa797ed6e38ed64bf6a1f0160401b821015613b46575b806d04ee2d6d415b85acef8100000000600a921015613b2a575b662386f26fc10000811015613b15575b6305f5e100811015613b03575b612710811015613af3575b6064811015613ae4575b1015613ad9575b613ac46021613a99600185016139eb565b938401015b5f1901916f181899199a1a9b1b9c1cb0b131b232b360811b600a82061a8353600a900490565b8015613ad457613ac49091613a9e565b505090565b600190910190613a88565b60029060649004930192613a81565b6004906127109004930192613a77565b6008906305f5e1009004930192613a6c565b601090662386f26fc100009004930192613a5f565b6020906d04ee2d6d415b85acef81000000009004930192613a4f565b506040915072184f03e93ff9f4daa797ed6e38ed64bf6a1f0160401b8104613a35565b60405160809190613b7a838261238a565b6042815291601f1901366020840137565b60405160609190613b9c838261238a565b602a815291601f1901366020840137565b8051156128625760200190565b8051600110156128625760210190565b908151811015612862570160200190565b6001600160a01b0316613bec613b8b565b906030613bf883613bad565b536078613c0483613bba565b535f5b60148110613c1457505090565b613c1d81612304565b602081101561286257613c3f906138189084901a60f41b600f60f81b16613812565b6010811015612862576f181899199a1a9b1b9c1cb0b131b232b360811b901a613c73613c6d61385084612c70565b85613bca565b53613c7d81612304565b60208110156128625782600f911a16906010821015612862576001916f181899199a1a9b1b9c1cb0b131b232b360811b901a613cc4613cbe61388f84612c70565b86613bca565b5301613c07565b15613cf257604051613cde60408261238a565b60048152637472756560e01b602082015290565b604051613d0060408261238a565b600581526466616c736560d81b602082015290565b60ff601b9116019060ff82116104ab57565b15613d2e57565b60405162461bcd60e51b815260206004820152601760248201527f496e76616c6964207369676e61747572652076616c75650000000000000000006044820152606490fdfea2646970667358221220feaa3592c21e9294557b92cf22bc225736906f3c7c922eb1e93819f6e0e9e29e64736f6c63430008210033","linkReferences":{"src/library/utils/signature/CoreHashUtils.sol":{"CoreHashUtils":[{"start":9295,"length":20},{"start":13413,"length":20}]}}},"methodIdentifiers":{"acceptAdmin()":"0e18b681","acceptChangeBaseRewardAmount()":"6a230fb4","acceptChangeRewardFlowDistribution()":"a574aac4","acceptDeleteTotalSupply()":"54a12357","acceptImplementation()":"15ba56e5","acceptListStatusProposal()":"7797e97d","acceptUserValidatorProposal()":"b517ac7d","addAmountToUser(address,address,uint256)":"6c9fa638","addBalance(address,address,uint256)":"d3bca884","asyncNonceStatus(address,uint256)":"4b366ccc","batchPay((address,address,string,address,uint256,uint256,address,address,uint256,bool,bytes)[])":"e7816eb8","caPay(address,address,uint256)":"c898a6e9","canExecuteUserTransaction(address)":"0f1f38b2","cancelUserValidatorProposal()":"401dffee","disperseCaPay((uint256,address)[],address,uint256)":"a7a096f6","dispersePay(address,(uint256,address,string)[],address,uint256,uint256,address,address,uint256,bool,bytes)":"32e26fdc","getAllowListStatus(address)":"5a2cba27","getAsyncNonceReservation(address,uint256)":"862b3737","getBalance(address,address)":"d4fac45d","getChainHostCoinAddress()":"8e0c71ad","getCurrentAdmin()":"643d430c","getCurrentImplementation()":"29cca569","getCurrentListStatus()":"ef003529","getCurrentSupply()":"4f3e1efc","getDenyListStatus(address)":"08351bdd","getEvvmID()":"17c85152","getEvvmMetadata()":"0faff8e8","getFullDetailAdmin()":"ab82aa0a","getFullDetailImplementation()":"e08290ee","getFullDetailListStatus()":"25e3243b","getFullDetailReward()":"0761a3ad","getFullDetailRewardFlowDistribution()":"563b6170","getFullDetailUserValidator()":"cd654e3e","getIfUsedAsyncNonce(address,uint256)":"d0e3692d","getNameServiceAddress()":"3a8cd872","getNextCurrentSyncNonce(address)":"6cd30148","getPrincipalTokenAddress()":"280e32fb","getPrincipalTokenTotalSupply()":"47ecd0f6","getRewardAmount()":"09a69f57","getRewardFlowDistributionFlag()":"1d3a4e2d","getStakingContractAddress()":"6afe5795","getTimeToDeleteMaxSupply()":"be726ffd","getUserValidatorAddress()":"b139c797","initializeSystemContracts(address,address)":"55160ea6","isAddressStaker(address)":"286b4b44","pay(address,address,string,address,uint256,uint256,address,address,uint256,bool,bytes)":"90fcb4ee","pointStaker(address,bytes1)":"adb6233f","proposeAdmin(address)":"147bf6c4","proposeChangeBaseRewardAmount(uint256)":"804ef86f","proposeChangeRewardFlowDistribution()":"92ab1f24","proposeDeleteTotalSupply()":"7a975c80","proposeImplementation(address)":"9dd18c15","proposeListStatus(bytes1)":"ae63d1a7","proposeUserValidator(address)":"e4e3cfee","recalculateReward()":"5300e162","rejectChangeBaseRewardAmount()":"bd26035e","rejectChangeRewardFlowDistribution()":"09fc6971","rejectDeleteTotalSupply()":"3625c901","rejectListStatusProposal()":"0211de41","rejectProposalAdmin()":"b38c950a","rejectUpgrade()":"3f54542a","removeAmountFromUser(address,address,uint256)":"76e6eb7e","reserveAsyncNonce(uint256,address)":"8b62e507","revokeAsyncNonce(uint256)":"ef802613","setEvvmID(uint256)":"01ed3f51","setPointStaker(address,bytes1)":"e8163dda","setTokenStatusOnAllowList(address,bool)":"4c3b7bdb","setTokenStatusOnDenyList(address,bool)":"766dd07b","validateAndConsumeNonce(address,address,bytes32,address,uint256,bool,bytes)":"fa7a2e2a"},"id":62}