{
  "abi": [
    {
      "type": "constructor",
      "inputs": [
        {
          "name": "_initialOwner",
          "type": "address",
          "internalType": "address"
        },
        {
          "name": "_stakingContractAddress",
          "type": "address",
          "internalType": "address"
        },
        {
          "name": "_evvmMetadata",
          "type": "tuple",
          "internalType": "struct CoreStructs.EvvmMetadata",
          "components": [
            {
              "name": "EvvmName",
              "type": "string",
              "internalType": "string"
            },
            {
              "name": "EvvmID",
              "type": "uint256",
              "internalType": "uint256"
            },
            {
              "name": "principalTokenName",
              "type": "string",
              "internalType": "string"
            },
            {
              "name": "principalTokenSymbol",
              "type": "string",
              "internalType": "string"
            },
            {
              "name": "principalTokenAddress",
              "type": "address",
              "internalType": "address"
            },
            {
              "name": "totalSupply",
              "type": "uint256",
              "internalType": "uint256"
            },
            {
              "name": "eraTokens",
              "type": "uint256",
              "internalType": "uint256"
            },
            {
              "name": "reward",
              "type": "uint256",
              "internalType": "uint256"
            }
          ]
        }
      ],
      "stateMutability": "nonpayable"
    },
    {
      "type": "fallback",
      "stateMutability": "nonpayable"
    },
    {
      "type": "function",
      "name": "acceptAdmin",
      "inputs": [],
      "outputs": [],
      "stateMutability": "nonpayable"
    },
    {
      "type": "function",
      "name": "acceptImplementation",
      "inputs": [],
      "outputs": [],
      "stateMutability": "nonpayable"
    },
    {
      "type": "function",
      "name": "acceptUserValidatorProposal",
      "inputs": [],
      "outputs": [],
      "stateMutability": "nonpayable"
    },
    {
      "type": "function",
      "name": "addAmountToUser",
      "inputs": [
        {
          "name": "user",
          "type": "address",
          "internalType": "address"
        },
        {
          "name": "token",
          "type": "address",
          "internalType": "address"
        },
        {
          "name": "amount",
          "type": "uint256",
          "internalType": "uint256"
        }
      ],
      "outputs": [],
      "stateMutability": "nonpayable"
    },
    {
      "type": "function",
      "name": "addBalance",
      "inputs": [
        {
          "name": "user",
          "type": "address",
          "internalType": "address"
        },
        {
          "name": "token",
          "type": "address",
          "internalType": "address"
        },
        {
          "name": "quantity",
          "type": "uint256",
          "internalType": "uint256"
        }
      ],
      "outputs": [],
      "stateMutability": "nonpayable"
    },
    {
      "type": "function",
      "name": "asyncNonceStatus",
      "inputs": [
        {
          "name": "user",
          "type": "address",
          "internalType": "address"
        },
        {
          "name": "nonce",
          "type": "uint256",
          "internalType": "uint256"
        }
      ],
      "outputs": [
        {
          "name": "",
          "type": "bytes1",
          "internalType": "bytes1"
        }
      ],
      "stateMutability": "view"
    },
    {
      "type": "function",
      "name": "batchPay",
      "inputs": [
        {
          "name": "batchData",
          "type": "tuple[]",
          "internalType": "struct CoreStructs.BatchData[]",
          "components": [
            {
              "name": "from",
              "type": "address",
              "internalType": "address"
            },
            {
              "name": "to_address",
              "type": "address",
              "internalType": "address"
            },
            {
              "name": "to_identity",
              "type": "string",
              "internalType": "string"
            },
            {
              "name": "token",
              "type": "address",
              "internalType": "address"
            },
            {
              "name": "amount",
              "type": "uint256",
              "internalType": "uint256"
            },
            {
              "name": "priorityFee",
              "type": "uint256",
              "internalType": "uint256"
            },
            {
              "name": "senderExecutor",
              "type": "address",
              "internalType": "address"
            },
            {
              "name": "nonce",
              "type": "uint256",
              "internalType": "uint256"
            },
            {
              "name": "isAsyncExec",
              "type": "bool",
              "internalType": "bool"
            },
            {
              "name": "signature",
              "type": "bytes",
              "internalType": "bytes"
            }
          ]
        }
      ],
      "outputs": [
        {
          "name": "successfulTransactions",
          "type": "uint256",
          "internalType": "uint256"
        },
        {
          "name": "results",
          "type": "bool[]",
          "internalType": "bool[]"
        }
      ],
      "stateMutability": "nonpayable"
    },
    {
      "type": "function",
      "name": "caPay",
      "inputs": [
        {
          "name": "to",
          "type": "address",
          "internalType": "address"
        },
        {
          "name": "token",
          "type": "address",
          "internalType": "address"
        },
        {
          "name": "amount",
          "type": "uint256",
          "internalType": "uint256"
        }
      ],
      "outputs": [],
      "stateMutability": "nonpayable"
    },
    {
      "type": "function",
      "name": "cancelUserValidatorProposal",
      "inputs": [],
      "outputs": [],
      "stateMutability": "nonpayable"
    },
    {
      "type": "function",
      "name": "disperseCaPay",
      "inputs": [
        {
          "name": "toData",
          "type": "tuple[]",
          "internalType": "struct CoreStructs.DisperseCaPayMetadata[]",
          "components": [
            {
              "name": "amount",
              "type": "uint256",
              "internalType": "uint256"
            },
            {
              "name": "toAddress",
              "type": "address",
              "internalType": "address"
            }
          ]
        },
        {
          "name": "token",
          "type": "address",
          "internalType": "address"
        },
        {
          "name": "amount",
          "type": "uint256",
          "internalType": "uint256"
        }
      ],
      "outputs": [],
      "stateMutability": "nonpayable"
    },
    {
      "type": "function",
      "name": "dispersePay",
      "inputs": [
        {
          "name": "from",
          "type": "address",
          "internalType": "address"
        },
        {
          "name": "toData",
          "type": "tuple[]",
          "internalType": "struct CoreStructs.DispersePayMetadata[]",
          "components": [
            {
              "name": "amount",
              "type": "uint256",
              "internalType": "uint256"
            },
            {
              "name": "to_address",
              "type": "address",
              "internalType": "address"
            },
            {
              "name": "to_identity",
              "type": "string",
              "internalType": "string"
            }
          ]
        },
        {
          "name": "token",
          "type": "address",
          "internalType": "address"
        },
        {
          "name": "amount",
          "type": "uint256",
          "internalType": "uint256"
        },
        {
          "name": "priorityFee",
          "type": "uint256",
          "internalType": "uint256"
        },
        {
          "name": "senderExecutor",
          "type": "address",
          "internalType": "address"
        },
        {
          "name": "nonce",
          "type": "uint256",
          "internalType": "uint256"
        },
        {
          "name": "isAsyncExec",
          "type": "bool",
          "internalType": "bool"
        },
        {
          "name": "signature",
          "type": "bytes",
          "internalType": "bytes"
        }
      ],
      "outputs": [],
      "stateMutability": "nonpayable"
    },
    {
      "type": "function",
      "name": "getAsyncNonceReservation",
      "inputs": [
        {
          "name": "user",
          "type": "address",
          "internalType": "address"
        },
        {
          "name": "nonce",
          "type": "uint256",
          "internalType": "uint256"
        }
      ],
      "outputs": [
        {
          "name": "",
          "type": "address",
          "internalType": "address"
        }
      ],
      "stateMutability": "view"
    },
    {
      "type": "function",
      "name": "getBalance",
      "inputs": [
        {
          "name": "user",
          "type": "address",
          "internalType": "address"
        },
        {
          "name": "token",
          "type": "address",
          "internalType": "address"
        }
      ],
      "outputs": [
        {
          "name": "",
          "type": "uint256",
          "internalType": "uint256"
        }
      ],
      "stateMutability": "view"
    },
    {
      "type": "function",
      "name": "getChainHostCoinAddress",
      "inputs": [],
      "outputs": [
        {
          "name": "",
          "type": "address",
          "internalType": "address"
        }
      ],
      "stateMutability": "pure"
    },
    {
      "type": "function",
      "name": "getCurrentAdmin",
      "inputs": [],
      "outputs": [
        {
          "name": "",
          "type": "address",
          "internalType": "address"
        }
      ],
      "stateMutability": "view"
    },
    {
      "type": "function",
      "name": "getCurrentImplementation",
      "inputs": [],
      "outputs": [
        {
          "name": "",
          "type": "address",
          "internalType": "address"
        }
      ],
      "stateMutability": "view"
    },
    {
      "type": "function",
      "name": "getEraPrincipalToken",
      "inputs": [],
      "outputs": [
        {
          "name": "",
          "type": "uint256",
          "internalType": "uint256"
        }
      ],
      "stateMutability": "view"
    },
    {
      "type": "function",
      "name": "getEvvmID",
      "inputs": [],
      "outputs": [
        {
          "name": "",
          "type": "uint256",
          "internalType": "uint256"
        }
      ],
      "stateMutability": "view"
    },
    {
      "type": "function",
      "name": "getEvvmMetadata",
      "inputs": [],
      "outputs": [
        {
          "name": "",
          "type": "tuple",
          "internalType": "struct CoreStructs.EvvmMetadata",
          "components": [
            {
              "name": "EvvmName",
              "type": "string",
              "internalType": "string"
            },
            {
              "name": "EvvmID",
              "type": "uint256",
              "internalType": "uint256"
            },
            {
              "name": "principalTokenName",
              "type": "string",
              "internalType": "string"
            },
            {
              "name": "principalTokenSymbol",
              "type": "string",
              "internalType": "string"
            },
            {
              "name": "principalTokenAddress",
              "type": "address",
              "internalType": "address"
            },
            {
              "name": "totalSupply",
              "type": "uint256",
              "internalType": "uint256"
            },
            {
              "name": "eraTokens",
              "type": "uint256",
              "internalType": "uint256"
            },
            {
              "name": "reward",
              "type": "uint256",
              "internalType": "uint256"
            }
          ]
        }
      ],
      "stateMutability": "view"
    },
    {
      "type": "function",
      "name": "getIfUsedAsyncNonce",
      "inputs": [
        {
          "name": "user",
          "type": "address",
          "internalType": "address"
        },
        {
          "name": "nonce",
          "type": "uint256",
          "internalType": "uint256"
        }
      ],
      "outputs": [
        {
          "name": "",
          "type": "bool",
          "internalType": "bool"
        }
      ],
      "stateMutability": "view"
    },
    {
      "type": "function",
      "name": "getNameServiceAddress",
      "inputs": [],
      "outputs": [
        {
          "name": "",
          "type": "address",
          "internalType": "address"
        }
      ],
      "stateMutability": "view"
    },
    {
      "type": "function",
      "name": "getNextCurrentSyncNonce",
      "inputs": [
        {
          "name": "user",
          "type": "address",
          "internalType": "address"
        }
      ],
      "outputs": [
        {
          "name": "",
          "type": "uint256",
          "internalType": "uint256"
        }
      ],
      "stateMutability": "view"
    },
    {
      "type": "function",
      "name": "getNextFisherDepositNonce",
      "inputs": [
        {
          "name": "user",
          "type": "address",
          "internalType": "address"
        }
      ],
      "outputs": [
        {
          "name": "",
          "type": "uint256",
          "internalType": "uint256"
        }
      ],
      "stateMutability": "view"
    },
    {
      "type": "function",
      "name": "getPrincipalTokenAddress",
      "inputs": [],
      "outputs": [
        {
          "name": "",
          "type": "address",
          "internalType": "address"
        }
      ],
      "stateMutability": "view"
    },
    {
      "type": "function",
      "name": "getPrincipalTokenTotalSupply",
      "inputs": [],
      "outputs": [
        {
          "name": "",
          "type": "uint256",
          "internalType": "uint256"
        }
      ],
      "stateMutability": "view"
    },
    {
      "type": "function",
      "name": "getProposalAdmin",
      "inputs": [],
      "outputs": [
        {
          "name": "",
          "type": "address",
          "internalType": "address"
        }
      ],
      "stateMutability": "view"
    },
    {
      "type": "function",
      "name": "getProposalImplementation",
      "inputs": [],
      "outputs": [
        {
          "name": "",
          "type": "address",
          "internalType": "address"
        }
      ],
      "stateMutability": "view"
    },
    {
      "type": "function",
      "name": "getRewardAmount",
      "inputs": [],
      "outputs": [
        {
          "name": "",
          "type": "uint256",
          "internalType": "uint256"
        }
      ],
      "stateMutability": "view"
    },
    {
      "type": "function",
      "name": "getStakingContractAddress",
      "inputs": [],
      "outputs": [
        {
          "name": "",
          "type": "address",
          "internalType": "address"
        }
      ],
      "stateMutability": "view"
    },
    {
      "type": "function",
      "name": "getTimeToAcceptAdmin",
      "inputs": [],
      "outputs": [
        {
          "name": "",
          "type": "uint256",
          "internalType": "uint256"
        }
      ],
      "stateMutability": "view"
    },
    {
      "type": "function",
      "name": "getTimeToAcceptImplementation",
      "inputs": [],
      "outputs": [
        {
          "name": "",
          "type": "uint256",
          "internalType": "uint256"
        }
      ],
      "stateMutability": "view"
    },
    {
      "type": "function",
      "name": "getUserValidatorAddress",
      "inputs": [],
      "outputs": [
        {
          "name": "",
          "type": "address",
          "internalType": "address"
        }
      ],
      "stateMutability": "view"
    },
    {
      "type": "function",
      "name": "getUserValidatorAddressDetails",
      "inputs": [],
      "outputs": [
        {
          "name": "",
          "type": "tuple",
          "internalType": "struct ProposalStructs.AddressTypeProposal",
          "components": [
            {
              "name": "current",
              "type": "address",
              "internalType": "address"
            },
            {
              "name": "proposal",
              "type": "address",
              "internalType": "address"
            },
            {
              "name": "timeToAccept",
              "type": "uint256",
              "internalType": "uint256"
            }
          ]
        }
      ],
      "stateMutability": "view"
    },
    {
      "type": "function",
      "name": "getWhitelistTokenToBeAdded",
      "inputs": [],
      "outputs": [
        {
          "name": "",
          "type": "address",
          "internalType": "address"
        }
      ],
      "stateMutability": "view"
    },
    {
      "type": "function",
      "name": "getWhitelistTokenToBeAddedDateToSet",
      "inputs": [],
      "outputs": [
        {
          "name": "",
          "type": "uint256",
          "internalType": "uint256"
        }
      ],
      "stateMutability": "view"
    },
    {
      "type": "function",
      "name": "initializeSystemContracts",
      "inputs": [
        {
          "name": "_nameServiceAddress",
          "type": "address",
          "internalType": "address"
        },
        {
          "name": "_treasuryAddress",
          "type": "address",
          "internalType": "address"
        }
      ],
      "outputs": [],
      "stateMutability": "nonpayable"
    },
    {
      "type": "function",
      "name": "isAddressStaker",
      "inputs": [
        {
          "name": "user",
          "type": "address",
          "internalType": "address"
        }
      ],
      "outputs": [
        {
          "name": "",
          "type": "bool",
          "internalType": "bool"
        }
      ],
      "stateMutability": "view"
    },
    {
      "type": "function",
      "name": "pay",
      "inputs": [
        {
          "name": "from",
          "type": "address",
          "internalType": "address"
        },
        {
          "name": "to_address",
          "type": "address",
          "internalType": "address"
        },
        {
          "name": "to_identity",
          "type": "string",
          "internalType": "string"
        },
        {
          "name": "token",
          "type": "address",
          "internalType": "address"
        },
        {
          "name": "amount",
          "type": "uint256",
          "internalType": "uint256"
        },
        {
          "name": "priorityFee",
          "type": "uint256",
          "internalType": "uint256"
        },
        {
          "name": "senderExecutor",
          "type": "address",
          "internalType": "address"
        },
        {
          "name": "nonce",
          "type": "uint256",
          "internalType": "uint256"
        },
        {
          "name": "isAsyncExec",
          "type": "bool",
          "internalType": "bool"
        },
        {
          "name": "signature",
          "type": "bytes",
          "internalType": "bytes"
        }
      ],
      "outputs": [],
      "stateMutability": "nonpayable"
    },
    {
      "type": "function",
      "name": "pointStaker",
      "inputs": [
        {
          "name": "user",
          "type": "address",
          "internalType": "address"
        },
        {
          "name": "answer",
          "type": "bytes1",
          "internalType": "bytes1"
        }
      ],
      "outputs": [],
      "stateMutability": "nonpayable"
    },
    {
      "type": "function",
      "name": "proposeAdmin",
      "inputs": [
        {
          "name": "_newOwner",
          "type": "address",
          "internalType": "address"
        }
      ],
      "outputs": [],
      "stateMutability": "nonpayable"
    },
    {
      "type": "function",
      "name": "proposeImplementation",
      "inputs": [
        {
          "name": "_newImpl",
          "type": "address",
          "internalType": "address"
        }
      ],
      "outputs": [],
      "stateMutability": "nonpayable"
    },
    {
      "type": "function",
      "name": "proposeUserValidator",
      "inputs": [
        {
          "name": "newValidator",
          "type": "address",
          "internalType": "address"
        }
      ],
      "outputs": [],
      "stateMutability": "nonpayable"
    },
    {
      "type": "function",
      "name": "recalculateReward",
      "inputs": [],
      "outputs": [],
      "stateMutability": "nonpayable"
    },
    {
      "type": "function",
      "name": "rejectProposalAdmin",
      "inputs": [],
      "outputs": [],
      "stateMutability": "nonpayable"
    },
    {
      "type": "function",
      "name": "rejectUpgrade",
      "inputs": [],
      "outputs": [],
      "stateMutability": "nonpayable"
    },
    {
      "type": "function",
      "name": "removeAmountFromUser",
      "inputs": [
        {
          "name": "user",
          "type": "address",
          "internalType": "address"
        },
        {
          "name": "token",
          "type": "address",
          "internalType": "address"
        },
        {
          "name": "amount",
          "type": "uint256",
          "internalType": "uint256"
        }
      ],
      "outputs": [],
      "stateMutability": "nonpayable"
    },
    {
      "type": "function",
      "name": "reserveAsyncNonce",
      "inputs": [
        {
          "name": "nonce",
          "type": "uint256",
          "internalType": "uint256"
        },
        {
          "name": "serviceAddress",
          "type": "address",
          "internalType": "address"
        }
      ],
      "outputs": [],
      "stateMutability": "nonpayable"
    },
    {
      "type": "function",
      "name": "revokeAsyncNonce",
      "inputs": [
        {
          "name": "user",
          "type": "address",
          "internalType": "address"
        },
        {
          "name": "nonce",
          "type": "uint256",
          "internalType": "uint256"
        }
      ],
      "outputs": [],
      "stateMutability": "nonpayable"
    },
    {
      "type": "function",
      "name": "setEvvmID",
      "inputs": [
        {
          "name": "newEvvmID",
          "type": "uint256",
          "internalType": "uint256"
        }
      ],
      "outputs": [],
      "stateMutability": "nonpayable"
    },
    {
      "type": "function",
      "name": "setPointStaker",
      "inputs": [
        {
          "name": "user",
          "type": "address",
          "internalType": "address"
        },
        {
          "name": "answer",
          "type": "bytes1",
          "internalType": "bytes1"
        }
      ],
      "outputs": [],
      "stateMutability": "nonpayable"
    },
    {
      "type": "function",
      "name": "validateAndConsumeNonce",
      "inputs": [
        {
          "name": "user",
          "type": "address",
          "internalType": "address"
        },
        {
          "name": "hashPayload",
          "type": "bytes32",
          "internalType": "bytes32"
        },
        {
          "name": "originExecutor",
          "type": "address",
          "internalType": "address"
        },
        {
          "name": "nonce",
          "type": "uint256",
          "internalType": "uint256"
        },
        {
          "name": "isAsyncExec",
          "type": "bool",
          "internalType": "bool"
        },
        {
          "name": "signature",
          "type": "bytes",
          "internalType": "bytes"
        }
      ],
      "outputs": [],
      "stateMutability": "nonpayable"
    },
    {
      "type": "error",
      "name": "AddressCantBeZero",
      "inputs": []
    },
    {
      "type": "error",
      "name": "AsyncNonceAlreadyReserved",
      "inputs": []
    },
    {
      "type": "error",
      "name": "AsyncNonceAlreadyUsed",
      "inputs": []
    },
    {
      "type": "error",
      "name": "AsyncNonceIsReservedByAnotherService",
      "inputs": []
    },
    {
      "type": "error",
      "name": "AsyncNonceNotReserved",
      "inputs": []
    },
    {
      "type": "error",
      "name": "BreakerExploded",
      "inputs": []
    },
    {
      "type": "error",
      "name": "ImplementationIsNotActive",
      "inputs": []
    },
    {
      "type": "error",
      "name": "IncorrectAddressInput",
      "inputs": []
    },
    {
      "type": "error",
      "name": "InsufficientBalance",
      "inputs": []
    },
    {
      "type": "error",
      "name": "InvalidAmount",
      "inputs": []
    },
    {
      "type": "error",
      "name": "InvalidServiceAddress",
      "inputs": []
    },
    {
      "type": "error",
      "name": "InvalidSignature",
      "inputs": []
    },
    {
      "type": "error",
      "name": "MsgSenderIsNotAContract",
      "inputs": []
    },
    {
      "type": "error",
      "name": "NotAnCA",
      "inputs": []
    },
    {
      "type": "error",
      "name": "OriginIsNotTheOriginExecutor",
      "inputs": []
    },
    {
      "type": "error",
      "name": "ProposalForUserValidatorNotReady",
      "inputs": []
    },
    {
      "type": "error",
      "name": "SenderIsNotAdmin",
      "inputs": []
    },
    {
      "type": "error",
      "name": "SenderIsNotTheProposedAdmin",
      "inputs": []
    },
    {
      "type": "error",
      "name": "SenderIsNotTheSenderExecutor",
      "inputs": []
    },
    {
      "type": "error",
      "name": "SenderIsNotTreasury",
      "inputs": []
    },
    {
      "type": "error",
      "name": "SyncNonceMismatch",
      "inputs": []
    },
    {
      "type": "error",
      "name": "TimeLockNotExpired",
      "inputs": []
    },
    {
      "type": "error",
      "name": "UserCannotExecuteTransaction",
      "inputs": []
    },
    {
      "type": "error",
      "name": "WindowExpired",
      "inputs": []
    }
  ],
  "bytecode": {
    "object": "0x60806040523461064157613f728038038061001981610645565b928339810190606081830312610641576100328161066a565b61003e6020830161066a565b604083015190926001600160401b038211610641570161010081850312610641576040519361010085016001600160401b0381118682101761043b5760405281516001600160401b038111610641578161009991840161067e565b855260208281015190860190815260408301519091906001600160401b03811161064157816100c991850161067e565b60408701908152606084015190916001600160401b038211610641576100f091850161067e565b606087019081526101036080850161066a565b916080880192835260a08501519360a0890194855260e060c08701519660c08b0197885201519660e08a0197885260018060a01b03169889158015610630575b61062157518051906001600160401b03821161043b57600a5490600182811c92168015610617575b602083101461041d5781601f8493116105a9575b50602090601f8311600114610543575f92610538575b50508160011b915f199060031b1c191617600a555b51600b55518051906001600160401b03821161043b57600c5490600182811c9216801561052e575b602083101461041d5781601f8493116104c0575b50602090601f831160011461045a575f9261044f575b50508160011b915f199060031b1c191617600c555b518051906001600160401b03821161043b57600d5490600182811c92168015610431575b602083101461041d5781601f8493116103af575b50602090601f8311600114610349575f9261033e575b50508160011b915f199060031b1c191617600d555b51600e80546001600160a01b039283166001600160a01b0319918216179091559151600f55915160105591516011819055600180549490921693831684178255601280549093169490941790915590919081901b908082046002149015171561032a57815f52601760205260405f2060018060a01b03600e54165f5260205260405f20555f52601660205260405f20600160ff19825416179055600160ff1960155416176015556040516138a290816106d08239f35b634e487b7160e01b5f52601160045260245ffd5b015190505f8061025f565b600d5f9081528281209350601f198516905b818110610397575090846001959493921061037f575b505050811b01600d55610274565b01515f1960f88460031b161c191690555f8080610371565b9293602060018192878601518155019501930161035b565b600d5f529091507fd7b6990105719101dabeb77144f2a3385c8033acd3af97e9423a695e81ad1eb5601f840160051c81019160208510610413575b90601f859493920160051c01905b8181106104055750610249565b5f81558493506001016103f8565b90915081906103ea565b634e487b7160e01b5f52602260045260245ffd5b91607f1691610235565b634e487b7160e01b5f52604160045260245ffd5b015190505f806101fc565b600c5f9081528281209350601f198516905b8181106104a85750908460019594939210610490575b505050811b01600c55610211565b01515f1960f88460031b161c191690555f8080610482565b9293602060018192878601518155019501930161046c565b600c5f529091507fdf6966c971051c3d54ec59162606531493a51404a002842f56009d7e5cf4a8c7601f840160051c81019160208510610524575b90601f859493920160051c01905b81811061051657506101e6565b5f8155849350600101610509565b90915081906104fb565b91607f16916101d2565b015190505f80610195565b600a5f9081528281209350601f198516905b8181106105915750908460019594939210610579575b505050811b01600a556101aa565b01515f1960f88460031b161c191690555f808061056b565b92936020600181928786015181550195019301610555565b600a5f529091507fc65a7bb8d6351c1cf70c95a316cc6a92839c986682d98bc35f958f4883f9d2a8601f840160051c8101916020851061060d575b90601f859493920160051c01905b8181106105ff575061017f565b5f81558493506001016105f2565b90915081906105e4565b91607f169161016b565b632582a64160e11b5f5260045ffd5b506001600160a01b03891615610143565b5f80fd5b6040519190601f01601f191682016001600160401b0381118382101761043b57604052565b51906001600160a01b038216820361064157565b81601f82011215610641578051906001600160401b03821161043b576106ad601f8301601f1916602001610645565b928284526020838301011161064157815f9260208093018386015e830101529056fe60806040526004361015610019575b3415612ded575b5f80fd5b5f3560e01c806301ed3f511461034857806304af45f31461034357806309a69f571461033e5780630e18b681146103395780630faff8e814610334578063147bf6c41461032f57806315ba56e51461032a57806317c8515214610325578063280e32fb14610320578063286b4b441461031b57806329cca569146103165780633a8cd872146103115780633f54542a1461030c578063401dffee146103075780634234a7061461030257806347ecd0f6146102fd5780634b366ccc146102f85780634b4a293a146102f35780635300e162146102ee57806355160ea6146102e9578063643d430c146102e457806365f65057146102df5780636afe5795146102da5780636c9fa638146102d55780636cd30148146102d057806373d867f5146102cb57806376aefe77146102c657806376e6eb7e146102c15780637db6f4a2146102bc578063862b3737146102b75780638b62e507146102b25780638bf6b935146102ad5780638e0c71ad146102a857806391afcf5c146102a357806394e961c91461029e578063954236dc146102995780639d946ec3146102945780639dd18c151461028f578063a7a096f61461028a578063aca4390814610285578063adb6233f14610280578063b139c7971461027b578063b38c950a14610276578063b517ac7d14610271578063c898a6e91461026c578063d0e3692d14610267578063d3bca88414610262578063d4fac45d1461025d578063e4e3cfee14610258578063e8163dda146102535763eaa4d6ca0361000e57611bac565b611b77565b611b1a565b611ad4565b611a96565b611a47565b6119e7565b611982565b611901565b6118db565b611894565b6117cc565b61170f565b6116ac565b6115f5565b6115d8565b6115b2565b61158c565b611572565b611555565b611469565b611416565b6112cd565b61126e565b61103e565b611021565b610fe5565b610f77565b610f25565b610e8d565b610e67565b610d43565b610c6e565b610c48565b610c0a565b610bed565b610bb1565b610b79565b610b41565b610b1c565b610af6565b610a9d565b610a77565b610a5a565b610a04565b610958565b61088e565b610762565b610745565b6105ba565b34610015576020366003190112610015576004356001600160a01b036012541633036103a957600b54610390575b600b5562015180420180421161038b57600955005b611bc9565b60095442111561037657633ddfdb7f60e11b5f5260045ffd5b636587b01b60e11b5f5260045ffd5b634e487b7160e01b5f52604160045260245ffd5b606081019081106001600160401b038211176103e757604052565b6103b8565b61010081019081106001600160401b038211176103e757604052565b604081019081106001600160401b038211176103e757604052565b90601f801991011681019081106001600160401b038211176103e757604052565b6040519061045461014083610423565b565b6040519061045461010083610423565b60405190610454606083610423565b6001600160401b0381116103e75760051b60200190565b6001600160a01b0381160361001557565b604435906104548261048c565b60a435906104548261048c565b602435906104548261048c565b606435906104548261048c565b60c435906104548261048c565b35906104548261048c565b6001600160401b0381116103e757601f01601f191660200190565b81601f820112156100155760208135910161051e826104e9565b9261052c6040519485610423565b8284528282011161001557815f92602092838601378301015290565b8015150361001557565b60e4359061045482610548565b610104359061045482610548565b359061045482610548565b6060602091604081019381526040838201528451809452019201905f5b8181106105a25750505090565b82511515845260209384019390920191600101610595565b34610015576020366003190112610015576004356001600160401b0381116100155736602382011215610015578060040135906105f682610475565b906106046040519283610423565b8282526024602083019360051b820101903682116100155760248101935b8285106106465761063284611d69565b9061064260405192839283610578565b0390f35b84356001600160401b03811161001557820161014060231982360301126100155761066f610444565b9161067c602483016104de565b835261068a604483016104de565b602084015260648201356001600160401b038111610015576106b29060243691850101610504565b60408401526106c3608483016104de565b606084015260a4820135608084015260c482013560a08401526106e860e483016104de565b60c084015261010482013560e0840152610705610124830161056d565b610100840152610144820135926001600160401b03841161001557610734602094936024869536920101610504565b610120820152815201940193610622565b34610015575f366003190112610015576020601154604051908152f35b34610015575f3660031901126100155760145442106107d1576001600160a01b03601354168033036107c2576107c0906107af604051916107a2836103cc565b6001600160a01b03168252565b5f60208201525f60408201526122e1565b005b63036834cf60e51b5f5260045ffd5b63191f4d1b60e31b5f5260045ffd5b805180835260209291819084018484015e5f828201840152601f01601f1916010190565b6020815261010060e061085f61084961082986518560208801526101208701906107e0565b602087015160408701526040870151601f198783030160608801526107e0565b6060860151858203601f190160808701526107e0565b60808501516001600160a01b031660a08501529360a081015160c085015260c081015182850152015191015290565b34610015575f366003190112610015575f60e06040516108ad816103ec565b60608152826020820152606060408201526060808201528260808201528260a08201528260c082015201526106426108e3610456565b6108eb61232a565b8152600b5460208201526108fd6123ff565b604082015261090a6124a6565b6060820152610934610924600e546001600160a01b031690565b6001600160a01b03166080830152565b600f5460a082015260105460c082015260115460e082015260405191829182610804565b34610015576020366003190112610015576004356109758161048c565b6001600160a01b03601254168033036103a9576001600160a01b0382168181159182156109fa575b50506109eb5762015180420180421161038b576109e16107c0936109d16109c2610466565b6001600160a01b039095168552565b6001600160a01b03166020840152565b60408201526122e1565b630f107a8160e11b5f5260045ffd5b149050815f61099d565b34610015575f366003190112610015576001600160a01b036012541633036103a95760085442106107d15760078054600680546001600160a01b03199081166001600160a01b038416179091551690555f600855005b34610015575f366003190112610015576020600b54604051908152f35b34610015575f3660031901126100155760206001600160a01b03600e5416604051908152f35b34610015576020366003190112610015576020610aec600435610abf8161048c565b6001600160a01b03165f9081526016602052604090205460f81b6001600160f81b031916600160f81b1490565b6040519015158152f35b34610015575f3660031901126100155760206001600160a01b0360065416604051908152f35b34610015575f3660031901126100155760206001600160a01b035f5416604051908152f35b34610015575f366003190112610015576001600160a01b036012541633036103a957600780546001600160a01b03191690555f600855005b34610015575f366003190112610015576001600160a01b036012541633036103a957601a80546001600160a01b03191690555f601b55005b34610015576020366003190112610015576001600160a01b03600435610bd68161048c565b165f526018602052602060405f2054604051908152f35b34610015575f366003190112610015576020600f54604051908152f35b34610015576040366003190112610015576020610c35600435610c2c8161048c565b6024359061254d565b6040516001600160f81b03199091168152f35b34610015575f3660031901126100155760206001600160a01b0360075416604051908152f35b34610015575f36600319011261001557600f5460105490818111156100155781810390811161038b5760011c810180911161038b57601055610cba601154610cb46133c4565b906125f4565b610d05610cfd610cdb336001600160a01b03165f52601760205260405f2090565b600e546001600160a01b03165b6001600160a01b03165f5260205260405f2090565b918254611c07565b90556107c0610d1660115460011c90565b601155565b604090600319011261001557600435610d338161048c565b90602435610d408161048c565b90565b3461001557610d5136610d1b565b60155460f81b6001600160f81b03191615610e58576001600160a01b038216158015610e47575b610e3857610d9f6107c0926001600160a01b03166001600160601b0360a01b5f5416175f55565b610ddf610dd0610cdb610db95f546001600160a01b031690565b6001600160a01b03165f52601760205260405f2090565b69021e19e0c9bab24000009055565b610e1a610e0d610df65f546001600160a01b031690565b6001600160a01b03165f52601660205260405f2090565b805460ff19166001179055565b6001600160a01b03166001600160601b0360a01b6002541617600255565b632582a64160e11b5f5260045ffd5b506001600160a01b03811615610d78565b630169759360e61b5f5260045ffd5b34610015575f3660031901126100155760206001600160a01b0360125416604051908152f35b34610015575f366003190112610015575f60408051610eab816103cc565b8281528260208201520152610642604051610ec5816103cc565b6001600160a01b036019541681526001600160a01b03601a54166020820152601b5460408201526040519182918291909160408060608301946001600160a01b0381511684526001600160a01b0360208201511660208501520151910152565b34610015575f3660031901126100155760206001600160a01b0360015416604051908152f35b606090600319011261001557600435610f638161048c565b90602435610f708161048c565b9060443590565b3461001557610f8536610f4b565b91906001600160a01b03600254163303610fd6576001600160a01b03610fc792165f52601760205260405f20906001600160a01b03165f5260205260405f2090565b805491820180921161038b5755005b63aab0382b60e01b5f5260045ffd5b34610015576020366003190112610015576001600160a01b0360043561100a8161048c565b165f52601e602052602060405f2054604051908152f35b34610015575f366003190112610015576020601454604051908152f35b346100155760c03660031901126100155760043561105b8161048c565b604435906110688261048c565b606435916084359061107982610548565b60a4356001600160401b03811161001557611098903690600401610504565b333b156110a4565b1590565b61125f576110c3906110be84878560243533600b54612ec8565b612fd8565b6001600160a01b03808516911603611250576001600160a01b03168015159081611245575b50611236576110f96110a083613122565b61122757156111d25761110c828261254d565b600160f81b6001600160f81b0319611124858561254d565b16146111c3576001600160f81b031916600160f91b1480611182575b611173576107c091611166610e0d926001600160a01b03165f52601c60205260405f2090565b905f5260205260405f2090565b633d83838160e21b5f5260045ffd5b50336001600160a01b036111bb6111ae85611166866001600160a01b03165f52601d60205260405f2090565b546001600160a01b031690565b161415611140565b632a0c4a2360e01b5f5260045ffd5b906111ee826001600160a01b03165f52601e60205260405f2090565b54036112185761120f906001600160a01b03165f52601e60205260405f2090565b80546001019055005b63193ec5c960e01b5f5260045ffd5b630296e8bf60e61b5f5260045ffd5b63018cc8b960e11b5f5260045ffd5b90503214155f6110e8565b638baa579f60e01b5f5260045ffd5b632827ae1560e11b5f5260045ffd5b346100155761127c36610f4b565b91906001600160a01b03600254163303610fd6576001600160a01b036112be92165f52601760205260405f20906001600160a01b03165f5260205260405f2090565b805491820391821161038b5755005b3461001557610120366003190112610015576004356112eb8161048c565b6024356001600160401b038111610015576004019036601f8301121561001557813561131681610475565b926113246040519485610423565b81845260208085019260051b820101903682116100155760208101925b82841061139857858561135261049d565b6064356084356113606104aa565b9060c4359261136d610552565b9461010435976001600160401b038911610015576113926107c0993690600401610504565b9761261c565b83356001600160401b0381116100155782016060601f19823603011261001557604051916113c5836103cc565b6020820135835260408201356113da8161048c565b60208401526060820135926001600160401b038411610015576114066020949385809536920101610504565b6040820152815201930192611341565b34610015576040366003190112610015576004356114338161048c565b6001600160a01b0360243591165f52601d60205260405f20905f5260205260206001600160a01b0360405f205416604051908152f35b34610015576040366003190112610015576004356024356114898161048c565b6001600160a01b0381161561154657335f52601c6020526114bf6114b88360405f20905f5260205260405f2090565b5460ff1690565b6111c3576114f46114e86111ae84611166336001600160a01b03165f52601d60205260405f2090565b6001600160a01b031690565b6115375761151a6107c092611166336001600160a01b03165f52601d60205260405f2090565b906001600160a01b03166001600160601b0360a01b825416179055565b632e81b29360e01b5f5260045ffd5b635ece24d960e11b5f5260045ffd5b34610015575f366003190112610015576020600854604051908152f35b34610015575f3660031901126100155760206040515f8152f35b34610015575f3660031901126100155760206001600160a01b0360135416604051908152f35b34610015575f3660031901126100155760206001600160a01b0360035416604051908152f35b34610015575f366003190112610015576020600554604051908152f35b34610015576040366003190112610015576004356116128161048c565b602435906001600160a01b038116805f52601c60205260405f20835f5260205260ff60405f2054166111c3575f52601d6020526001600160a01b036116656111ae8460405f20905f5260205260405f2090565b161561169d576107c09161116661168d926001600160a01b03165f52601d60205260405f2090565b80546001600160a01b0319169055565b63eb54a44d60e01b5f5260045ffd5b34610015576020366003190112610015576004356116c98161048c565b6001600160a01b036012541633036103a9576001600160a01b031680156109eb576001600160601b0360a01b600754161760075562278d00420180421161038b57600855005b34610015576060366003190112610015576004356001600160401b03811161001557366023820112156100155780600401359061174b82610475565b906117596040519283610423565b8282526024602083019360061b8201019036821161001557602401925b818410611792576107c0836117896104b7565b60443591612a57565b60408436031261001557602060409182516117ac81610408565b86358152828701356117bd8161048c565b83820152815201930192611776565b3461001557610140366003190112610015576004356117ea8161048c565b602435906117f78261048c565b6044356001600160401b03811161001557611816903690600401610504565b61181e6104c4565b60843560a43561182c6104d1565b9160e4359361183961055f565b9561012435986001600160401b038a116100155761185e6107c09a3690600401610504565b98612b3a565b60409060031901126100155760043561187c8161048c565b906024356001600160f81b0319811681036100155790565b34610015576118a236611864565b6001600160a01b03600154163303610015576001600160a01b036107c092165f52601660205260405f209060f81c60ff19825416179055565b34610015575f3660031901126100155760206001600160a01b0360195416604051908152f35b34610015575f366003190112610015576001600160a01b03601254168033036103a9576001600160a01b03905f6040805161193b816103cc565b8381528260208201520152166001600160601b0360a01b601254161760125561197c5f6001600160a01b03166001600160601b0360a01b6013541617601355565b5f601455005b34610015575f366003190112610015576001600160a01b036012541633036103a957601b5442106119d857601a8054601980546001600160a01b03199081166001600160a01b038416179091551690555f601b55005b63c66f2c3760e01b5f5260045ffd5b34610015576119f536610f4b565b90333b15611a3857611a0792336131bd565b335f9081526016602052604090205460f81b6001600160f81b031916600160f81b14611a2f57005b6107c033613259565b633d0c12e760e21b5f5260045ffd5b3461001557604036600319011261001557600435611a648161048c565b6001600160a01b0360243591165f52601c60205260405f20905f52602052602060ff60405f2054166040519015158152f35b34610015576001600160a01b03610fc7611aaf36610f4b565b939091165f52601760205260405f20906001600160a01b03165f5260205260405f2090565b34610015576020611b116001600160a01b03611aef36610d1b565b91165f526017835260405f20906001600160a01b03165f5260205260405f2090565b54604051908152f35b3461001557602036600319011261001557600435611b378161048c565b6001600160a01b036012541633036103a9576001600160a01b03166001600160601b0360a01b601a541617601a5562015180420180421161038b57601b55005b34610015576107c06001600160a01b03611b9036611864565b91165f52601660205260405f209060f81c60ff19825416179055565b34610015575f366003190112610015576020601054604051908152f35b634e487b7160e01b5f52601160045260245ffd5b600201908160021161038b57565b600301908160031161038b57565b90600c820180921161038b57565b9190820180921161038b57565b6040519061014082018281106001600160401b038211176103e7576040526060610120835f81525f60208201528260408201525f838201525f60808201525f60a08201525f60c08201525f60e08201525f6101008201520152565b90611c7982610475565b611c866040519182610423565b8281528092611c97601f1991610475565b0190602036910137565b634e487b7160e01b5f52603260045260245ffd5b8051821015611cc95760209160051b010190565b611ca1565b90816020910312610015575190565b91611d066001600160a01b0391826080969998979416855260a0602086015260a08501906107e0565b9616604083015260608201520152565b6040513d5f823e3d90fd5b60405190611d30602083610423565b5f8252565b908160209103126100155751610d408161048c565b906020610d409281815201906107e0565b5f19811461038b5760010190565b335f908152601660205260408120549192909160f81b6001600160f81b031916600160f81b1492611d98611c14565b50611da38151611c6f565b905f9073__$4eed29582e89dabffcea3de7fdb0d1406e$__945b81518310156122c857611dd08383611cb5565b51600b546020820188611dea82516001600160a01b031690565b916040850190815160608701956020611e0a88516001600160a01b031690565b60808a019687519460a08c0199611e398b5160405198899687958695634c09e2c960e01b875260048701611cdd565b03915af4918215612111575f92612298575b5060c0880191611e95611e89611e6885516001600160a01b031690565b938b60e08101956101008751920195611e818751151590565b933090612ec8565b6101208b015190612fd8565b6001600160a01b03611eb16114e88c516001600160a01b031690565b91160361221157611ed46110a0611ecf8b516001600160a01b031690565b613122565b61221157511561222957611efa611ef289516001600160a01b031690565b82519061254d565b88516001600160a01b03168251600160f81b916001600160f81b031991611f209161254d565b1614612211576001600160f81b031916600160f91b14806121bf575b6121a857611f9491611f87610e0d6114e893611f79611f628d516001600160a01b031690565b6001600160a01b03165f52601c60205260405f2090565b90515f5260205260405f2090565b516001600160a01b031690565b801515908161219d575b508015612151575b61213c57611fc06110a08351611fba611d21565b90613190565b15612116575090602061200292611fe46114e86114e85f546001600160a01b031690565b9051906040518080968194630d3dcb9f60e01b835260048301611d4a565b03915afa918215612111575f926120e1575b506001600160a01b038216156120c75791612058600196949261207096945b85516001600160a01b03169161205086516001600160a01b031690565b9151926131bd565b5190811515806120c0575b61208b575b505050611d5b565b9261208461207e8287611cb5565b60019052565b0191611dbd565b6120b06120a26120b894516001600160a01b031690565b91516001600160a01b031690565b9033906131bd565b5f8080612068565b508b612063565b505050505091805f6120db60019387611cb5565b52612084565b61210391925060203d811161210a575b6120fb8183610423565b810190611d35565b905f612014565b503d6120f1565b611d16565b61207095939150600196949261213661205892516001600160a01b031690565b90612033565b50505050505091805f6120db60019387611cb5565b508c156121945761216684515b845190611c07565b61218d61217d610db989516001600160a01b031690565b87516001600160a01b0316610ce8565b5410611fa6565b6121665f61215e565b90503314155f611f9e565b505050505050505091805f6120db60019387611cb5565b506121eb6121d489516001600160a01b031690565b6001600160a01b03165f52601d60205260405f2090565b6001600160a01b036122096111ae309385515f5260205260405f2090565b161415611f3c565b50505050505050505091805f6120db60019387611cb5565b5161225561223e89516001600160a01b031690565b6001600160a01b03165f52601e60205260405f2090565b5403612282576114e8611f949161227661223e8a516001600160a01b031690565b80546001019055611f87565b5050505050505091805f6120db60019387611cb5565b6122ba91925060203d81116122c1575b6122b28183610423565b810190611cce565b905f611e4b565b503d6122a8565b9592945050506122d457565b6122de8333613307565b50565b6040906001600160a01b038151166001600160601b0360a01b60125416176012556001600160a01b036020820151166001600160601b0360a01b60135416176013550151601455565b604051905f600a548060011c916001821680156123f5575b6020841081146123e157838652859260208401919081156123c85750600114612373575b5061045492500383610423565b600a5f90815291507fc65a7bb8d6351c1cf70c95a316cc6a92839c986682d98bc35f958f4883f9d2a85b8483106123b157506104549350015f612366565b80548284015286935060209092019160010161239d565b60ff191682525061045493151560051b0190505f612366565b634e487b7160e01b5f52602260045260245ffd5b92607f1692612342565b604051905f600c548060011c9160018216801561249c575b6020841081146123e157838652859260208401919081156123c85750600114612447575061045492500383610423565b600c5f90815291507fdf6966c971051c3d54ec59162606531493a51404a002842f56009d7e5cf4a8c75b84831061248557506104549350015f612366565b805482840152869350602090920191600101612471565b92607f1692612417565b604051905f600d548060011c91600182168015612543575b6020841081146123e157838652859260208401919081156123c857506001146124ee575061045492500383610423565b600d5f90815291507fd7b6990105719101dabeb77144f2a3385c8033acd3af97e9423a695e81ad1eb55b84831061252c57506104549350015f612366565b805482840152869350602090920191600101612518565b92607f16926124be565b6001600160a01b0381165f52601c60205260405f20825f5260205260ff60405f2054165f146125815750600160f81b919050565b61259c906001600160a01b03165f52601d60205260405f2090565b905f526020526001600160a01b036125bf60405f206001600160a01b0390541690565b16156125cd57600160f91b90565b5f90565b9190820391821161038b57565b908160011b918083046002149015171561038b57565b8181029291811591840414171561038b57565b908160209103126100155751610d4081610548565b949198939690959297612649906110be8386868b8f8f8f9061264192600b54946133f9565b903090612ec8565b6001600160a01b03808716911603611250576126676110a086613122565b6112275715612a055761267a828561254d565b600160f81b6001600160f81b0319612692858861254d565b16146111c3576001600160f81b031916600160f91b14806129d1575b611173576126dc610e0d6001600160a01b0393611166876001600160a01b03165f52601c60205260405f2090565b1680151590816129c6575b506129b757335f9081526016602052604090205460f81b6001600160f81b031916600160f81b14936127448761272e856001600160a01b03165f52601760205260405f2090565b906001600160a01b03165f5260205260405f2090565b5485156129ae57612756825b88611c07565b1161299f575f92851561298c576127986127908961272e612778865b8c611c07565b946001600160a01b03165f52601760205260405f2090565b9182546125d1565b90555f945f935b855185101561293f576127be906127b68688611cb5565b515190611c07565b936127dc6110a060406127d1848a611cb5565b510151611fba611d21565b15612917576127f86114e86114e85f546001600160a01b031690565b61282660206040612809858b611cb5565b510151604051809381926310d9158b60e31b835260048301611d4a565b0381855afa908115612111575f916128e9575b5061287b575b506001905b61284e8188611cb5565b5151612872610cfd8c61272e8c6001600160a01b03165f52601760205260405f2090565b9055019361279f565b81975060209060406128906128af948a611cb5565b510151906040518080958194630d3dcb9f60e01b835260048301611d4a565b03915afa8015612111576001915f916128cb575b50969061283f565b6128e3915060203d811161210a576120fb8183610423565b5f6128c3565b61290a915060203d8111612910575b6129028183610423565b810190612607565b5f612839565b503d6128f8565b95506001612939602061292a8989611cb5565b5101516001600160a01b031690565b96612844565b9297955093509491500361297d57612955575050565b610cfd6129799161296533613259565b50335f90815260176020526040902061272e565b9055565b63162908e360e11b5f5260045ffd5b6127986127908961272e6127785f612772565b631e9acf1760e31b5f5260045ffd5b6127565f612750565b6309c1f99560e21b5f5260045ffd5b90503314155f6126e7565b50306001600160a01b036129fd6111ae85611166896001600160a01b03165f52601d60205260405f2090565b1614156126ae565b90612a21846001600160a01b03165f52601e60205260405f2090565b5403611218576001600160a01b0390612a4b846001600160a01b03165f52601e60205260405f2090565b805460010190556126dc565b9092333b15611a385782612a808561272e336001600160a01b03165f52601760205260405f2090565b541061299f575f90612aa78561272e336001600160a01b03165f52601760205260405f2090565b612ab28582546125d1565b90555f915b8351831015612aff57612ad06001916127b68587611cb5565b92612adb8186611cb5565b5151612af6610cfd8961272e610db9602061292a888d611cb5565b90550191612ab7565b92509350500361297d57335f9081526016602052604090205460f81b6001600160f81b031916600160f81b14612b3157565b6122de33613259565b600b54604051634c09e2c960e01b8152919a96999498939795969295939492909160208180612b708e8c8f8f8e60048701611cdd565b038173__$4eed29582e89dabffcea3de7fdb0d1406e$__5af480156121115786868692612baa966110be955f92612dcc575b503090612ec8565b6001600160a01b03808b1691160361125057612bc86110a08a613122565b6112275715612d7a57612bdb828961254d565b600160f81b6001600160f81b0319612bf3858c61254d565b16146111c3576001600160f81b031916600160f91b1480612d46575b61117357612c3d610e0d6001600160a01b03936111668b6001600160a01b03165f52601c60205260405f2090565b168015159081612d3b575b506129b7578390612c636110a0612c5d611d21565b86613190565b15612d315750506020612ca292612c876114e86114e85f546001600160a01b031690565b604051808096819463063c696360e11b835260048301611d4a565b03915afa91821561211157612cc29284915f91612d12575b505b866131bd565b335f9081526016602052604090205460f81b6001600160f81b031916600160f81b14612ced57505050565b81612cff575b5050506122de33613259565b612d0a9233906131bd565b5f8080612cf3565b612d2b915060203d60201161210a576120fb8183610423565b5f612cba565b612cc29350612cbc565b90503314155f612c48565b50306001600160a01b03612d726111ae856111668d6001600160a01b03165f52601d60205260405f2090565b161415612c0f565b90612d96886001600160a01b03165f52601e60205260405f2090565b5403611218576001600160a01b0390612dc0886001600160a01b03165f52601e60205260405f2090565b80546001019055612c3d565b612de691925060203d6020116122c1576122b28183610423565b905f612ba2565b6006546001600160a01b03811615612e1c575f8091368280378136915af43d5f803e15612e18573d5ff35b3d5ffd5b6332cea9e160e11b5f5260045ffd5b805191908290602001825e015f815290565b9391959492909560405196879560208701612e5791612e2b565b600b60fa1b8152600101612e6a91612e2b565b600b60fa1b8152600101612e7d91612e2b565b600b60fa1b8152600101612e9091612e2b565b600b60fa1b8152600101612ea391612e2b565b600b60fa1b8152600101612eb691612e2b565b03601f19810183526104549083610423565b612edc612ee291979694979593929561350c565b946136d4565b612eea613662565b916030612ef6846136a6565b536078612f02846136b3565b535f5b60208110612f34575050612f2e612f28612f22610d4098996136d4565b9461350c565b946137c4565b94612e3d565b81811a612f55612f4f60f483901b600f60f81b165b60f81c90565b60ff1690565b906010821015611cc957600f916f181899199a1a9b1b9c1cb0b131b232b360811b901a612f92612f8c612f87866125de565b611bdd565b886136c3565b5316906010821015611cc9576001916f181899199a1a9b1b9c1cb0b131b232b360811b901a612fd1612fcb612fc6846125de565b611beb565b876136c3565b5301612f05565b61302a613038612fe8835161350c565b9260405192839161302460208401967f19457468657265756d205369676e6564204d6573736167653a0a0000000000008852603a850190612e2b565b90612e2b565b03601f198101835282610423565b51902060418251036130dd57815f916020809401519160606040820151910151841a92601b84106130c6575b906130a89161308260ff8616601b81149081156130bb575b50613820565b604051948594859094939260ff6060936080840197845216602083015260408201520152565b838052039060015afa15612111575f5190565b601c9150145f61307c565b92906130d46130a89261380e565b93909150613064565b60405162461bcd60e51b815260206004820152601860248201527f496e76616c6964207369676e6174757265206c656e67746800000000000000006044820152606490fd5b6001600160a01b03601954168015613189576040516385c99e2b60e01b81526001600160a01b0392831660048201529160209183916024918391165afa908115612111575f91613170575090565b610d40915060203d602011612910576129028183610423565b5050600190565b90815181519081811493846131a7575b5050505090565b602092939450820120920120145f8080806131a0565b6001600160a01b03909291921691825f5260176020526131f18260405f20906001600160a01b03165f5260205260405f2090565b549084821061299f57846001600160a01b0392613251955f5260176020520361322e8460405f20906001600160a01b03165f5260205260405f2090565b55165f52601760205260405f20906001600160a01b03165f5260205260405f2090565b908154019055565b6011548015818004600114171561038b576001600160a01b038216805f52601760205260405f206132a76001600160a01b03600e54168092906001600160a01b03165f5260205260405f2090565b54928084019384811161038b57613302946132e46132ea94610cdb965f52601760205260405f20906001600160a01b03165f5260205260405f2090565b55611c07565b926001600160a01b03165f52601760205260405f2090565b541490565b90613314906011546125f4565b906001600160a01b038116805f52601760205260405f20916133536001600160a01b03600e54168094906001600160a01b03165f5260205260405f2090565b5493840180941161038b578361338b613302946133a3945f52601760205260405f20906001600160a01b03165f5260205260405f2090565b556001600160a01b03165f52601760205260405f2090565b6001600160a01b03600e54166001600160a01b03165f5260205260405f2090565b6113db6040516020810190428252446040820152604081526133e7606082610423565b519020066001018060011161038b5790565b919092604051928391602083019560a08752600b60c08501526a646973706572736550617960a81b60e0850152610100840160e06040860152835180915261012085019060206101208260051b8801019501915f905b82821061348a57505050506001600160a01b0316606084015261348493608084015260a083015203601f198101835282610423565b51902090565b91939496509196946020806134d060019361011f198d8203018652606060408d51805184526001600160a01b0386820151168685015201519181604082015201906107e0565b99019201920188969493919297959761344f565b906134ee826104e9565b6134fb6040519182610423565b8281528092611c97601f19916104e9565b805f9172184f03e93ff9f4daa797ed6e38ed64bf6a1f0160401b82101561363f575b806d04ee2d6d415b85acef8100000000600a921015613623575b662386f26fc1000081101561360e575b6305f5e1008110156135fc575b6127108110156135ec575b60648110156135dd575b10156135d2575b6135bd6021613592600185016134e4565b938401015b5f1901916f181899199a1a9b1b9c1cb0b131b232b360811b600a82061a8353600a900490565b80156135cd576135bd9091613597565b505090565b600190910190613581565b6002906064900493019261357a565b6004906127109004930192613570565b6008906305f5e1009004930192613565565b601090662386f26fc100009004930192613558565b6020906d04ee2d6d415b85acef81000000009004930192613548565b506040915072184f03e93ff9f4daa797ed6e38ed64bf6a1f0160401b810461352e565b604051608091906136738382610423565b6042815291601f1901366020840137565b604051606091906136958382610423565b602a815291601f1901366020840137565b805115611cc95760200190565b805160011015611cc95760210190565b908151811015611cc9570160200190565b6001600160a01b03166136e5613684565b9060306136f1836136a6565b5360786136fd836136b3565b535f5b6014811061370d57505090565b61371681611bf9565b6020811015611cc95761373890612f4f9084901a60f41b600f60f81b16612f49565b6010811015611cc9576f181899199a1a9b1b9c1cb0b131b232b360811b901a61376c613766612f87846125de565b856136c3565b5361377681611bf9565b6020811015611cc95782600f911a16906010821015611cc9576001916f181899199a1a9b1b9c1cb0b131b232b360811b901a6137bd6137b7612fc6846125de565b866136c3565b5301613700565b156137eb576040516137d7604082610423565b60048152637472756560e01b602082015290565b6040516137f9604082610423565b600581526466616c736560d81b602082015290565b60ff601b9116019060ff821161038b57565b1561382757565b60405162461bcd60e51b815260206004820152601760248201527f496e76616c6964207369676e61747572652076616c75650000000000000000006044820152606490fdfea26469706673582212200a4af843f8251f81f542d594675601b2370d35774f330c6994f841ff6d267b7964736f6c634300081e0033",
    "linkReferences": {
      "src/library/utils/signature/CoreHashUtils.sol": {
        "CoreHashUtils": [
          {
            "start": 9336,
            "length": 20
          },
          {
            "start": 12868,
            "length": 20
          }
        ]
      }
    }
  },
  "methodIdentifiers": {
    "acceptAdmin()": "0e18b681",
    "acceptImplementation()": "15ba56e5",
    "acceptUserValidatorProposal()": "b517ac7d",
    "addAmountToUser(address,address,uint256)": "6c9fa638",
    "addBalance(address,address,uint256)": "d3bca884",
    "asyncNonceStatus(address,uint256)": "4b366ccc",
    "batchPay((address,address,string,address,uint256,uint256,address,uint256,bool,bytes)[])": "04af45f3",
    "caPay(address,address,uint256)": "c898a6e9",
    "cancelUserValidatorProposal()": "401dffee",
    "disperseCaPay((uint256,address)[],address,uint256)": "a7a096f6",
    "dispersePay(address,(uint256,address,string)[],address,uint256,uint256,address,uint256,bool,bytes)": "7db6f4a2",
    "getAsyncNonceReservation(address,uint256)": "862b3737",
    "getBalance(address,address)": "d4fac45d",
    "getChainHostCoinAddress()": "8e0c71ad",
    "getCurrentAdmin()": "643d430c",
    "getCurrentImplementation()": "29cca569",
    "getEraPrincipalToken()": "eaa4d6ca",
    "getEvvmID()": "17c85152",
    "getEvvmMetadata()": "0faff8e8",
    "getIfUsedAsyncNonce(address,uint256)": "d0e3692d",
    "getNameServiceAddress()": "3a8cd872",
    "getNextCurrentSyncNonce(address)": "6cd30148",
    "getNextFisherDepositNonce(address)": "4234a706",
    "getPrincipalTokenAddress()": "280e32fb",
    "getPrincipalTokenTotalSupply()": "47ecd0f6",
    "getProposalAdmin()": "91afcf5c",
    "getProposalImplementation()": "4b4a293a",
    "getRewardAmount()": "09a69f57",
    "getStakingContractAddress()": "6afe5795",
    "getTimeToAcceptAdmin()": "73d867f5",
    "getTimeToAcceptImplementation()": "8bf6b935",
    "getUserValidatorAddress()": "b139c797",
    "getUserValidatorAddressDetails()": "65f65057",
    "getWhitelistTokenToBeAdded()": "94e961c9",
    "getWhitelistTokenToBeAddedDateToSet()": "954236dc",
    "initializeSystemContracts(address,address)": "55160ea6",
    "isAddressStaker(address)": "286b4b44",
    "pay(address,address,string,address,uint256,uint256,address,uint256,bool,bytes)": "aca43908",
    "pointStaker(address,bytes1)": "adb6233f",
    "proposeAdmin(address)": "147bf6c4",
    "proposeImplementation(address)": "9dd18c15",
    "proposeUserValidator(address)": "e4e3cfee",
    "recalculateReward()": "5300e162",
    "rejectProposalAdmin()": "b38c950a",
    "rejectUpgrade()": "3f54542a",
    "removeAmountFromUser(address,address,uint256)": "76e6eb7e",
    "reserveAsyncNonce(uint256,address)": "8b62e507",
    "revokeAsyncNonce(address,uint256)": "9d946ec3",
    "setEvvmID(uint256)": "01ed3f51",
    "setPointStaker(address,bytes1)": "e8163dda",
    "validateAndConsumeNonce(address,bytes32,address,uint256,bool,bytes)": "76aefe77"
  },
  "id": 62
}