{
  "abi": [
    {
      "type": "constructor",
      "inputs": [
        {
          "name": "_coreAddress",
          "type": "address",
          "internalType": "address"
        },
        {
          "name": "_initialOwner",
          "type": "address",
          "internalType": "address"
        }
      ],
      "stateMutability": "nonpayable"
    },
    {
      "type": "function",
      "name": "acceptChangeEvvmAddress",
      "inputs": [],
      "outputs": [],
      "stateMutability": "nonpayable"
    },
    {
      "type": "function",
      "name": "acceptOffer",
      "inputs": [
        {
          "name": "user",
          "type": "address",
          "internalType": "address"
        },
        {
          "name": "username",
          "type": "string",
          "internalType": "string"
        },
        {
          "name": "offerID",
          "type": "uint256",
          "internalType": "uint256"
        },
        {
          "name": "originExecutor",
          "type": "address",
          "internalType": "address"
        },
        {
          "name": "nonce",
          "type": "uint256",
          "internalType": "uint256"
        },
        {
          "name": "signature",
          "type": "bytes",
          "internalType": "bytes"
        },
        {
          "name": "priorityFeePay",
          "type": "uint256",
          "internalType": "uint256"
        },
        {
          "name": "noncePay",
          "type": "uint256",
          "internalType": "uint256"
        },
        {
          "name": "signaturePay",
          "type": "bytes",
          "internalType": "bytes"
        }
      ],
      "outputs": [],
      "stateMutability": "nonpayable"
    },
    {
      "type": "function",
      "name": "acceptProposeAdmin",
      "inputs": [],
      "outputs": [],
      "stateMutability": "nonpayable"
    },
    {
      "type": "function",
      "name": "addCustomMetadata",
      "inputs": [
        {
          "name": "user",
          "type": "address",
          "internalType": "address"
        },
        {
          "name": "identity",
          "type": "string",
          "internalType": "string"
        },
        {
          "name": "value",
          "type": "string",
          "internalType": "string"
        },
        {
          "name": "originExecutor",
          "type": "address",
          "internalType": "address"
        },
        {
          "name": "nonce",
          "type": "uint256",
          "internalType": "uint256"
        },
        {
          "name": "signature",
          "type": "bytes",
          "internalType": "bytes"
        },
        {
          "name": "priorityFeePay",
          "type": "uint256",
          "internalType": "uint256"
        },
        {
          "name": "noncePay",
          "type": "uint256",
          "internalType": "uint256"
        },
        {
          "name": "signaturePay",
          "type": "bytes",
          "internalType": "bytes"
        }
      ],
      "outputs": [],
      "stateMutability": "nonpayable"
    },
    {
      "type": "function",
      "name": "cancelChangeEvvmAddress",
      "inputs": [],
      "outputs": [],
      "stateMutability": "nonpayable"
    },
    {
      "type": "function",
      "name": "cancelProposeAdmin",
      "inputs": [],
      "outputs": [],
      "stateMutability": "nonpayable"
    },
    {
      "type": "function",
      "name": "cancelWithdrawPrincipalTokens",
      "inputs": [],
      "outputs": [],
      "stateMutability": "nonpayable"
    },
    {
      "type": "function",
      "name": "claimWithdrawPrincipalTokens",
      "inputs": [],
      "outputs": [],
      "stateMutability": "nonpayable"
    },
    {
      "type": "function",
      "name": "flushCustomMetadata",
      "inputs": [
        {
          "name": "user",
          "type": "address",
          "internalType": "address"
        },
        {
          "name": "identity",
          "type": "string",
          "internalType": "string"
        },
        {
          "name": "originExecutor",
          "type": "address",
          "internalType": "address"
        },
        {
          "name": "nonce",
          "type": "uint256",
          "internalType": "uint256"
        },
        {
          "name": "signature",
          "type": "bytes",
          "internalType": "bytes"
        },
        {
          "name": "priorityFeePay",
          "type": "uint256",
          "internalType": "uint256"
        },
        {
          "name": "noncePay",
          "type": "uint256",
          "internalType": "uint256"
        },
        {
          "name": "signaturePay",
          "type": "bytes",
          "internalType": "bytes"
        }
      ],
      "outputs": [],
      "stateMutability": "nonpayable"
    },
    {
      "type": "function",
      "name": "flushUsername",
      "inputs": [
        {
          "name": "user",
          "type": "address",
          "internalType": "address"
        },
        {
          "name": "username",
          "type": "string",
          "internalType": "string"
        },
        {
          "name": "originExecutor",
          "type": "address",
          "internalType": "address"
        },
        {
          "name": "nonce",
          "type": "uint256",
          "internalType": "uint256"
        },
        {
          "name": "signature",
          "type": "bytes",
          "internalType": "bytes"
        },
        {
          "name": "priorityFeePay",
          "type": "uint256",
          "internalType": "uint256"
        },
        {
          "name": "noncePay",
          "type": "uint256",
          "internalType": "uint256"
        },
        {
          "name": "signaturePay",
          "type": "bytes",
          "internalType": "bytes"
        }
      ],
      "outputs": [],
      "stateMutability": "nonpayable"
    },
    {
      "type": "function",
      "name": "getAdmin",
      "inputs": [],
      "outputs": [
        {
          "name": "",
          "type": "address",
          "internalType": "address"
        }
      ],
      "stateMutability": "view"
    },
    {
      "type": "function",
      "name": "getAdminFullDetails",
      "inputs": [],
      "outputs": [
        {
          "name": "currentAdmin",
          "type": "address",
          "internalType": "address"
        },
        {
          "name": "proposalAdmin",
          "type": "address",
          "internalType": "address"
        },
        {
          "name": "timeToAcceptAdmin",
          "type": "uint256",
          "internalType": "uint256"
        }
      ],
      "stateMutability": "view"
    },
    {
      "type": "function",
      "name": "getAmountOfCustomMetadata",
      "inputs": [
        {
          "name": "_username",
          "type": "string",
          "internalType": "string"
        }
      ],
      "outputs": [
        {
          "name": "",
          "type": "uint256",
          "internalType": "uint256"
        }
      ],
      "stateMutability": "view"
    },
    {
      "type": "function",
      "name": "getCoreAddress",
      "inputs": [],
      "outputs": [
        {
          "name": "",
          "type": "address",
          "internalType": "address"
        }
      ],
      "stateMutability": "view"
    },
    {
      "type": "function",
      "name": "getCoreAddressFullDetails",
      "inputs": [],
      "outputs": [
        {
          "name": "currentEvvmAddress",
          "type": "address",
          "internalType": "address"
        },
        {
          "name": "proposalEvvmAddress",
          "type": "address",
          "internalType": "address"
        },
        {
          "name": "timeToAcceptEvvmAddress",
          "type": "uint256",
          "internalType": "uint256"
        }
      ],
      "stateMutability": "view"
    },
    {
      "type": "function",
      "name": "getCustomMetadataMaxSlotsOfIdentity",
      "inputs": [
        {
          "name": "_username",
          "type": "string",
          "internalType": "string"
        }
      ],
      "outputs": [
        {
          "name": "",
          "type": "uint256",
          "internalType": "uint256"
        }
      ],
      "stateMutability": "view"
    },
    {
      "type": "function",
      "name": "getEvvmID",
      "inputs": [],
      "outputs": [
        {
          "name": "",
          "type": "uint256",
          "internalType": "uint256"
        }
      ],
      "stateMutability": "view"
    },
    {
      "type": "function",
      "name": "getExpireDateOfIdentity",
      "inputs": [
        {
          "name": "_identity",
          "type": "string",
          "internalType": "string"
        }
      ],
      "outputs": [
        {
          "name": "",
          "type": "uint256",
          "internalType": "uint256"
        }
      ],
      "stateMutability": "view"
    },
    {
      "type": "function",
      "name": "getFullCustomMetadataOfIdentity",
      "inputs": [
        {
          "name": "_username",
          "type": "string",
          "internalType": "string"
        }
      ],
      "outputs": [
        {
          "name": "",
          "type": "string[]",
          "internalType": "string[]"
        }
      ],
      "stateMutability": "view"
    },
    {
      "type": "function",
      "name": "getIdentityBasicMetadata",
      "inputs": [
        {
          "name": "_username",
          "type": "string",
          "internalType": "string"
        }
      ],
      "outputs": [
        {
          "name": "",
          "type": "address",
          "internalType": "address"
        },
        {
          "name": "",
          "type": "uint256",
          "internalType": "uint256"
        }
      ],
      "stateMutability": "view"
    },
    {
      "type": "function",
      "name": "getLengthOfOffersUsername",
      "inputs": [
        {
          "name": "_username",
          "type": "string",
          "internalType": "string"
        }
      ],
      "outputs": [
        {
          "name": "length",
          "type": "uint256",
          "internalType": "uint256"
        }
      ],
      "stateMutability": "view"
    },
    {
      "type": "function",
      "name": "getOffersOfUsername",
      "inputs": [
        {
          "name": "_username",
          "type": "string",
          "internalType": "string"
        }
      ],
      "outputs": [
        {
          "name": "offers",
          "type": "tuple[]",
          "internalType": "struct NameServiceStructs.OfferMetadata[]",
          "components": [
            {
              "name": "offerer",
              "type": "address",
              "internalType": "address"
            },
            {
              "name": "expirationDate",
              "type": "uint256",
              "internalType": "uint256"
            },
            {
              "name": "amount",
              "type": "uint256",
              "internalType": "uint256"
            }
          ]
        }
      ],
      "stateMutability": "view"
    },
    {
      "type": "function",
      "name": "getOwnerOfIdentity",
      "inputs": [
        {
          "name": "_username",
          "type": "string",
          "internalType": "string"
        }
      ],
      "outputs": [
        {
          "name": "",
          "type": "address",
          "internalType": "address"
        }
      ],
      "stateMutability": "view"
    },
    {
      "type": "function",
      "name": "getPriceOfRegistration",
      "inputs": [
        {
          "name": "username",
          "type": "string",
          "internalType": "string"
        }
      ],
      "outputs": [
        {
          "name": "",
          "type": "uint256",
          "internalType": "uint256"
        }
      ],
      "stateMutability": "view"
    },
    {
      "type": "function",
      "name": "getPriceToAddCustomMetadata",
      "inputs": [],
      "outputs": [
        {
          "name": "price",
          "type": "uint256",
          "internalType": "uint256"
        }
      ],
      "stateMutability": "view"
    },
    {
      "type": "function",
      "name": "getPriceToFlushCustomMetadata",
      "inputs": [
        {
          "name": "_identity",
          "type": "string",
          "internalType": "string"
        }
      ],
      "outputs": [
        {
          "name": "price",
          "type": "uint256",
          "internalType": "uint256"
        }
      ],
      "stateMutability": "view"
    },
    {
      "type": "function",
      "name": "getPriceToFlushUsername",
      "inputs": [
        {
          "name": "_identity",
          "type": "string",
          "internalType": "string"
        }
      ],
      "outputs": [
        {
          "name": "price",
          "type": "uint256",
          "internalType": "uint256"
        }
      ],
      "stateMutability": "view"
    },
    {
      "type": "function",
      "name": "getPriceToRemoveCustomMetadata",
      "inputs": [],
      "outputs": [
        {
          "name": "price",
          "type": "uint256",
          "internalType": "uint256"
        }
      ],
      "stateMutability": "view"
    },
    {
      "type": "function",
      "name": "getProposedWithdrawAmountFullDetails",
      "inputs": [],
      "outputs": [
        {
          "name": "proposalAmountToWithdrawTokens",
          "type": "uint256",
          "internalType": "uint256"
        },
        {
          "name": "timeToAcceptAmountToWithdrawTokens",
          "type": "uint256",
          "internalType": "uint256"
        }
      ],
      "stateMutability": "view"
    },
    {
      "type": "function",
      "name": "getSingleCustomMetadataOfIdentity",
      "inputs": [
        {
          "name": "_username",
          "type": "string",
          "internalType": "string"
        },
        {
          "name": "_key",
          "type": "uint256",
          "internalType": "uint256"
        }
      ],
      "outputs": [
        {
          "name": "",
          "type": "string",
          "internalType": "string"
        }
      ],
      "stateMutability": "view"
    },
    {
      "type": "function",
      "name": "getSingleOfferOfUsername",
      "inputs": [
        {
          "name": "_username",
          "type": "string",
          "internalType": "string"
        },
        {
          "name": "_offerID",
          "type": "uint256",
          "internalType": "uint256"
        }
      ],
      "outputs": [
        {
          "name": "offer",
          "type": "tuple",
          "internalType": "struct NameServiceStructs.OfferMetadata",
          "components": [
            {
              "name": "offerer",
              "type": "address",
              "internalType": "address"
            },
            {
              "name": "expirationDate",
              "type": "uint256",
              "internalType": "uint256"
            },
            {
              "name": "amount",
              "type": "uint256",
              "internalType": "uint256"
            }
          ]
        }
      ],
      "stateMutability": "view"
    },
    {
      "type": "function",
      "name": "hashUsername",
      "inputs": [
        {
          "name": "_username",
          "type": "string",
          "internalType": "string"
        },
        {
          "name": "_randomNumber",
          "type": "uint256",
          "internalType": "uint256"
        }
      ],
      "outputs": [
        {
          "name": "",
          "type": "bytes32",
          "internalType": "bytes32"
        }
      ],
      "stateMutability": "pure"
    },
    {
      "type": "function",
      "name": "isUsernameAvailable",
      "inputs": [
        {
          "name": "_username",
          "type": "string",
          "internalType": "string"
        }
      ],
      "outputs": [
        {
          "name": "",
          "type": "bool",
          "internalType": "bool"
        }
      ],
      "stateMutability": "view"
    },
    {
      "type": "function",
      "name": "makeOffer",
      "inputs": [
        {
          "name": "user",
          "type": "address",
          "internalType": "address"
        },
        {
          "name": "username",
          "type": "string",
          "internalType": "string"
        },
        {
          "name": "amount",
          "type": "uint256",
          "internalType": "uint256"
        },
        {
          "name": "expirationDate",
          "type": "uint256",
          "internalType": "uint256"
        },
        {
          "name": "originExecutor",
          "type": "address",
          "internalType": "address"
        },
        {
          "name": "nonce",
          "type": "uint256",
          "internalType": "uint256"
        },
        {
          "name": "signature",
          "type": "bytes",
          "internalType": "bytes"
        },
        {
          "name": "priorityFeePay",
          "type": "uint256",
          "internalType": "uint256"
        },
        {
          "name": "noncePay",
          "type": "uint256",
          "internalType": "uint256"
        },
        {
          "name": "signaturePay",
          "type": "bytes",
          "internalType": "bytes"
        }
      ],
      "outputs": [
        {
          "name": "offerID",
          "type": "uint256",
          "internalType": "uint256"
        }
      ],
      "stateMutability": "nonpayable"
    },
    {
      "type": "function",
      "name": "preRegistrationUsername",
      "inputs": [
        {
          "name": "user",
          "type": "address",
          "internalType": "address"
        },
        {
          "name": "hashPreRegisteredUsername",
          "type": "bytes32",
          "internalType": "bytes32"
        },
        {
          "name": "originExecutor",
          "type": "address",
          "internalType": "address"
        },
        {
          "name": "nonce",
          "type": "uint256",
          "internalType": "uint256"
        },
        {
          "name": "signature",
          "type": "bytes",
          "internalType": "bytes"
        },
        {
          "name": "priorityFeePay",
          "type": "uint256",
          "internalType": "uint256"
        },
        {
          "name": "noncePay",
          "type": "uint256",
          "internalType": "uint256"
        },
        {
          "name": "signaturePay",
          "type": "bytes",
          "internalType": "bytes"
        }
      ],
      "outputs": [],
      "stateMutability": "nonpayable"
    },
    {
      "type": "function",
      "name": "proposeAdmin",
      "inputs": [
        {
          "name": "_adminToPropose",
          "type": "address",
          "internalType": "address"
        }
      ],
      "outputs": [],
      "stateMutability": "nonpayable"
    },
    {
      "type": "function",
      "name": "proposeChangeEvvmAddress",
      "inputs": [
        {
          "name": "_newEvvmAddress",
          "type": "address",
          "internalType": "address"
        }
      ],
      "outputs": [],
      "stateMutability": "nonpayable"
    },
    {
      "type": "function",
      "name": "proposeWithdrawPrincipalTokens",
      "inputs": [
        {
          "name": "_amount",
          "type": "uint256",
          "internalType": "uint256"
        }
      ],
      "outputs": [],
      "stateMutability": "nonpayable"
    },
    {
      "type": "function",
      "name": "registrationUsername",
      "inputs": [
        {
          "name": "user",
          "type": "address",
          "internalType": "address"
        },
        {
          "name": "username",
          "type": "string",
          "internalType": "string"
        },
        {
          "name": "lockNumber",
          "type": "uint256",
          "internalType": "uint256"
        },
        {
          "name": "originExecutor",
          "type": "address",
          "internalType": "address"
        },
        {
          "name": "nonce",
          "type": "uint256",
          "internalType": "uint256"
        },
        {
          "name": "signature",
          "type": "bytes",
          "internalType": "bytes"
        },
        {
          "name": "priorityFeePay",
          "type": "uint256",
          "internalType": "uint256"
        },
        {
          "name": "noncePay",
          "type": "uint256",
          "internalType": "uint256"
        },
        {
          "name": "signaturePay",
          "type": "bytes",
          "internalType": "bytes"
        }
      ],
      "outputs": [],
      "stateMutability": "nonpayable"
    },
    {
      "type": "function",
      "name": "removeCustomMetadata",
      "inputs": [
        {
          "name": "user",
          "type": "address",
          "internalType": "address"
        },
        {
          "name": "identity",
          "type": "string",
          "internalType": "string"
        },
        {
          "name": "key",
          "type": "uint256",
          "internalType": "uint256"
        },
        {
          "name": "originExecutor",
          "type": "address",
          "internalType": "address"
        },
        {
          "name": "nonce",
          "type": "uint256",
          "internalType": "uint256"
        },
        {
          "name": "signature",
          "type": "bytes",
          "internalType": "bytes"
        },
        {
          "name": "priorityFeePay",
          "type": "uint256",
          "internalType": "uint256"
        },
        {
          "name": "noncePay",
          "type": "uint256",
          "internalType": "uint256"
        },
        {
          "name": "signaturePay",
          "type": "bytes",
          "internalType": "bytes"
        }
      ],
      "outputs": [],
      "stateMutability": "nonpayable"
    },
    {
      "type": "function",
      "name": "renewUsername",
      "inputs": [
        {
          "name": "user",
          "type": "address",
          "internalType": "address"
        },
        {
          "name": "username",
          "type": "string",
          "internalType": "string"
        },
        {
          "name": "originExecutor",
          "type": "address",
          "internalType": "address"
        },
        {
          "name": "nonce",
          "type": "uint256",
          "internalType": "uint256"
        },
        {
          "name": "signature",
          "type": "bytes",
          "internalType": "bytes"
        },
        {
          "name": "priorityFeePay",
          "type": "uint256",
          "internalType": "uint256"
        },
        {
          "name": "noncePay",
          "type": "uint256",
          "internalType": "uint256"
        },
        {
          "name": "signaturePay",
          "type": "bytes",
          "internalType": "bytes"
        }
      ],
      "outputs": [],
      "stateMutability": "nonpayable"
    },
    {
      "type": "function",
      "name": "seePriceToRenew",
      "inputs": [
        {
          "name": "_identity",
          "type": "string",
          "internalType": "string"
        }
      ],
      "outputs": [
        {
          "name": "price",
          "type": "uint256",
          "internalType": "uint256"
        }
      ],
      "stateMutability": "view"
    },
    {
      "type": "function",
      "name": "strictVerifyIfIdentityExist",
      "inputs": [
        {
          "name": "_username",
          "type": "string",
          "internalType": "string"
        }
      ],
      "outputs": [
        {
          "name": "",
          "type": "bool",
          "internalType": "bool"
        }
      ],
      "stateMutability": "view"
    },
    {
      "type": "function",
      "name": "verifyIfIdentityExists",
      "inputs": [
        {
          "name": "_identity",
          "type": "string",
          "internalType": "string"
        }
      ],
      "outputs": [
        {
          "name": "",
          "type": "bool",
          "internalType": "bool"
        }
      ],
      "stateMutability": "view"
    },
    {
      "type": "function",
      "name": "verifyStrictAndGetOwnerOfIdentity",
      "inputs": [
        {
          "name": "_username",
          "type": "string",
          "internalType": "string"
        }
      ],
      "outputs": [
        {
          "name": "answer",
          "type": "address",
          "internalType": "address"
        }
      ],
      "stateMutability": "view"
    },
    {
      "type": "function",
      "name": "withdrawOffer",
      "inputs": [
        {
          "name": "user",
          "type": "address",
          "internalType": "address"
        },
        {
          "name": "username",
          "type": "string",
          "internalType": "string"
        },
        {
          "name": "offerID",
          "type": "uint256",
          "internalType": "uint256"
        },
        {
          "name": "originExecutor",
          "type": "address",
          "internalType": "address"
        },
        {
          "name": "nonce",
          "type": "uint256",
          "internalType": "uint256"
        },
        {
          "name": "signature",
          "type": "bytes",
          "internalType": "bytes"
        },
        {
          "name": "priorityFeePay",
          "type": "uint256",
          "internalType": "uint256"
        },
        {
          "name": "noncePay",
          "type": "uint256",
          "internalType": "uint256"
        },
        {
          "name": "signaturePay",
          "type": "bytes",
          "internalType": "bytes"
        }
      ],
      "outputs": [],
      "stateMutability": "nonpayable"
    },
    {
      "type": "error",
      "name": "AmountMustBeGreaterThanZero",
      "inputs": []
    },
    {
      "type": "error",
      "name": "CannotBeBeforeCurrentTime",
      "inputs": []
    },
    {
      "type": "error",
      "name": "EmptyCustomMetadata",
      "inputs": []
    },
    {
      "type": "error",
      "name": "IdentityIsNotAUsername",
      "inputs": []
    },
    {
      "type": "error",
      "name": "InvalidAdminProposal",
      "inputs": []
    },
    {
      "type": "error",
      "name": "InvalidEvvmAddress",
      "inputs": []
    },
    {
      "type": "error",
      "name": "InvalidKey",
      "inputs": []
    },
    {
      "type": "error",
      "name": "InvalidUsername",
      "inputs": []
    },
    {
      "type": "error",
      "name": "InvalidWithdrawAmount",
      "inputs": []
    },
    {
      "type": "error",
      "name": "LockTimeNotExpired",
      "inputs": []
    },
    {
      "type": "error",
      "name": "OfferInactive",
      "inputs": []
    },
    {
      "type": "error",
      "name": "OwnershipExpired",
      "inputs": []
    },
    {
      "type": "error",
      "name": "PreRegistrationNotValid",
      "inputs": []
    },
    {
      "type": "error",
      "name": "RenewalTimeLimitExceeded",
      "inputs": []
    },
    {
      "type": "error",
      "name": "SenderIsNotAdmin",
      "inputs": []
    },
    {
      "type": "error",
      "name": "SenderIsNotProposedAdmin",
      "inputs": []
    },
    {
      "type": "error",
      "name": "UserIsNotOwnerOfIdentity",
      "inputs": []
    },
    {
      "type": "error",
      "name": "UserIsNotOwnerOfOffer",
      "inputs": []
    },
    {
      "type": "error",
      "name": "UsernameAlreadyRegistered",
      "inputs": []
    }
  ],
  "bytecode": {
    "object": "0x608034609657601f6142d838819003918201601f19168301916001600160401b03831184841017609a578084926040948552833981010312609657604b602060458360ae565b920160ae565b600680546001600160a01b03199081166001600160a01b039485169081179092556009805482169490931693909317909155600d805490921617905560405161421690816100c28239f35b5f80fd5b634e487b7160e01b5f52604160045260245ffd5b51906001600160a01b038216820360965756fe6080806040526004361015610012575f80fd5b5f905f3560e01c9081627802df14612f3a5750806307ade5b114612cb75780630c78d2c614612c3e5780630d3dcb9f14612bf3578063147bf6c414612b5e57806317c8515214612ad25780631f4131fb14612a975780632096b76814612a7057806322afca3814612a2b57806324866f15146129ef57806336e7a1b81461166757806343a82d671461295f578063457c3ff41461255157806348ffba55146124a657806353f41c79146121d857806354dc585d1461219d5780635548a76214612160578063570b245b146121235780635f1a673614611e30578063636996b914611a4c5780636b5bb1ca146116e35780636e9960c314611a255780637126b2a3146119ea57806375dab53b146119af5780637a1bc153146116e85780637bd9da7a146116e357806386c8ac58146116a857806388ecb91f1461166c57806399e7bac2146116675780639df57fe1146113b5578063a6ba51ca14611331578063aa0fb72714611093578063b19517dd14610eb2578063bc91a42814610e77578063bcd5a47c14610e55578063c7d5850c14610ad3578063c97da33e14610a64578063cf1dc14614610a27578063d2234a1a14610a02578063d7fd313414610881578063dbd1723c146104a7578063e7849f6214610454578063eba5e53e146103c4578063f69c6dec1461037f578063f6d0ecbe146102955763fe7ab68314610217575f80fd5b34610292576020366003190112610292576004356001600160401b03811161029057610247903690600401613188565b819060015b15610262575b61025c83926136a2565b9161024c565b604051806102708382613466565b039020828452602052600160408420015461025257602082604051908152f35b505b80fd5b5034610292576102b56102a736613296565b91906040519182918261344f565b039020908252602052604081209060405191818154916102d48361347d565b80865292600181169081156103555750600114610314575b610310856102fc81870382613167565b6040519182916020835260208301906133a0565b0390f35b815260208120939250905b80821061033b575090915081016020016102fc826103106102ec565b91926001816020925483858801015201910190929161031f565b869550610310969350602092506102fc94915060ff191682840152151560051b82010192936102ec565b503461029257602036600319011261029257600435906001600160401b0382116102925760206103ba6103b53660048601613188565b613d43565b6040519015158152f35b50346102925780600319360112610292576001600160a01b03600a541633810361044557600b5442106104365781604080516103ff8161311d565b83815282602082015201526001600160601b0360a01b60095416176009556001600160601b0360a01b600a5416600a5580600b5580f35b63018a18db60e51b8252600482fd5b632dba366760e21b8252600482fd5b50346102925780600319360112610292576001600160a01b03600954168033036104985760055442106104365760045461048d91613f57565b806004558060055580f35b636587b01b60e11b8252600482fd5b5034610292576104b6366132c7565b9391959490926001600160a01b03600d9a999a541690604051602081019060608252601460808201527f726567697374726174696f6e557365726e616d6500000000000000000000000060a082015260a060408201526105328161051e8d60c08301906133a0565b8b606083015203601f198101835282613167565b51902090823b1561087d57908a8c61056482969594604051988997889687956376aefe7760e01b8752600487016133fd565b03925af1801561087257908791610859575b50506001600160a01b0360095416966001600160a01b0381168098141580610849575b61083a576105a686613d43565b1561082b57926105cb6105d6936105d193876105db976105c58b613b98565b90613e7f565b85613c36565b613ffe565b613b21565b91846001600160a01b03604051806105f38782613438565b03902054161480159061080e575b6107ff576301e2850042018042116107eb578495600491604051916106258361314c565b8252602082019081526040820187815260608301918883526001600160a01b038061065d60808701988c8a5260405191829182613438565b039020955116166001600160601b0360a01b85541617845551600184015551600283015551600382015501905160f81c60ff198254161790556001600160a01b03600d5416604051630a1ad2d160e21b8152336004820152602081602481855afa9081156107e05785916107b1575b50610703575b50506106e660049160405191829182613438565b039020828155826001820155826002820155826003820155015580f35b600491929350602090604051928380926309a69f5760e01b82525afa9081156107a6578491610770575b508060320290603282040361075c5783926107566107506004946106e6946133e3565b33613f57565b916106d2565b634e487b7160e01b84526011600452602484fd5b90506020813d60201161079e575b8161078b60209383613167565b8101031261079a57515f61072d565b5f80fd5b3d915061077e565b6040513d86823e3d90fd5b6107d3915060203d6020116107d9575b6107cb8183613167565b81019061352d565b5f6106cc565b503d6107c1565b6040513d87823e3d90fd5b634e487b7160e01b85526011600452602485fd5b6321efd8cf60e11b8452600484fd5b5060016040518061081f8682613438565b03902001544210610601565b633efbb39b60e11b8752600487fd5b630a1de65160e31b8752600487fd5b50610853866140df565b15610599565b8161086391613167565b61086e57855f610576565b8580fd5b6040513d89823e3d90fd5b8a80fd5b5034610292576020366003190112610292576004356001600160401b038111610290576108b2903690600401613188565b6003604051806108c28482613438565b03902001546108d081613b59565b906108de6040519283613167565b8082526108ed601f1991613b59565b01835b8181106109eb575050825b60036040518061090b8682613438565b039020015481101561097d57600190604051806109288682613466565b039020818652602052604085206002604051916109448361311d565b6001600160a01b0381541683528481015460208401520154604082015261096b8285613b70565b526109768184613b70565b50016108fb565b8184604051918291602083016020845282518091526020604085019301915b8181106109aa575050500390f35b9193509160206060826109dd6001948851604080916001600160a01b038151168452602081015160208501520151910152565b01940191019184939261099c565b6020906109f6613641565b828286010152016108f0565b5034610292578060031936011261029257604060045460055482519182526020820152f35b50346102925780600319360112610292576001600160a01b03600954163303610a5557806004558060055580f35b636587b01b60e11b8152600490fd5b503461029257602036600319011261029257600435906001600160401b038211610292576040610a973660048501613188565b6001610ac26001600160a01b03845180610ab18682613438565b039020541692845191829182613438565b039020015482519182526020820152f35b50346102925780610ae3366132c7565b959697936001600160a01b03600d9a94939a969296541689604051610b6081610b4c602082019460608652601460808401527f72656d6f7665437573746f6d4d6574616461746100000000000000000000000060a084015260a0604084015260c08301906133a0565b8d606083015203601f198101835282613167565b51902092813b1561086e57858094610b8f604051978896879586946376aefe7760e01b86528d600487016133fd565b03925af18015610e4a57610e31575b50506001600160a01b0360405180610bb68882613438565b03902054166001600160a01b03821603610e225783600260405180610bdb8982613438565b03902001541115610e13579085610bf593926105c56135cc565b80600260405180610c068682613438565b039020015403610d4e57600291610c469160405180610c25848261344f565b039020908652602052610c3a604086206134de565b60405191829182613438565b039020018054801561075c575f190190556001600160a01b03600d5416604051630a1ad2d160e21b8152336004820152602081602481855afa9081156107a6578491610d2f575b50610c96578280f35b6020600491604051928380926309a69f5760e01b82525afa908115610d24578391610cf2575b5080600502906005820403610cde57610cd891610750916133e3565b5f808280f35b634e487b7160e01b83526011600452602483fd5b90506020813d602011610d1c575b81610d0d60209383613167565b8101031261079a57515f610cbc565b3d9150610d00565b6040513d85823e3d90fd5b610d48915060203d6020116107d9576107cb8183613167565b5f610c8d565b600260405180610d5e8582613438565b0390200154811015610dd15760405180610d78848261344f565b03902060018201808311610dbd5790600192918652602052610db76040862060405180610da5878261344f565b03902083885260205260408720613c6a565b01610d4e565b634e487b7160e01b86526011600452602486fd5b50610c4660029160405180610de6838261344f565b0390208360405180610df88582613438565b03902001548652602052610e0e604086206134de565b610c3a565b630eda9c3d60e31b8752600487fd5b6322de326160e11b8752600487fd5b81610e3b91613167565b610e4657865f610b9e565b8680fd5b6040513d84823e3d90fd5b5034610292576020610e6f610e6936613296565b90613c36565b604051908152f35b503461029257602036600319011261029257600435906001600160401b038211610292576020610e6f610ead3660048601613188565b613b98565b5034610292576020366003190112610292576004356001600160401b03811161029057610ee3903690600401613188565b600260405180610ef38482613438565b039020015491610f0283613b59565b92610f106040519485613167565b808452610f1f601f1991613b59565b01815b818110611082575050805b600260405180610f3d8682613438565b039020015481101561101a5760405180610f57858261344f565b03902081835260205260408220604051908390805490610f768261347d565b8085529160018116908115610ff35750600114610fbc575b505090610fa081600194930382613167565b610faa8287613b70565b52610fb58186613b70565b5001610f2d565b8552602085208592505b818310610fdd5750508101602001610fa082610f8e565b6001816020925483868801015201920191610fc6565b60ff191660208087019190915292151560051b85019092019250610fa09150839050610f8e565b5082906040519182916020830160208452825180915260408401602060408360051b870101940192905b82821061105357505050500390f35b919360019193955060206110728192603f198a820301865288516133a0565b9601920192018594939192611044565b806060602080938801015201610f22565b503461029257806110a3366132c7565b939196989290946001600160a01b03600d99979954168a604051611110818d6110fc602083019560608752600d60808501526c3bb4ba34323930bba7b33332b960991b60a085015260a0604085015260c08401906133a0565b90606083015203601f198101835282613167565b519020813b1561086e57858961113e8296604051988997889687956376aefe7760e01b8752600487016133fd565b03925af18015610e4a5761131c575b50506040518061115d8882613466565b0390208588526020526001600160a01b036040882054166001600160a01b0384160361130d57906111b69291846112fb575b50506040518061119f8782613466565b039020848752602052600260408720015490613f57565b604051806111c48582613466565b039020828552602052604084206001600160601b0360a01b8154169055600460206001600160a01b03600d5416604051928380926309a69f5760e01b82525afa9081156107e05785916112c9575b50604051806112218682613466565b039020838652602052600260408620015480800460011481151715610dbd57916112566107509261031c61125b9504906133e3565b6133e3565b604051806112698482613466565b03902081845260205261128a60026040852001549260405191829182613466565b039020908352602052600260408320015480800460011481151715610cde576112c49160c76112bd920460021c906133e3565b82546133f0565b815580f35b90506020813d6020116112f3575b816112e460209383613167565b8101031261079a57515f611212565b3d91506112d7565b611306918584613d8b565b5f8061118f565b630504ed8560e21b8752600487fd5b8161132691613167565b610e4657865f61114d565b50346102925760203660031901126102925761134b613107565b6001600160a01b03600954163303610498576001600160a01b031680156113a6576001600160601b0360a01b60075416176007556201518042018042116113925760085580f35b634e487b7160e01b82526011600452602482fd5b63203e99b760e21b8252600482fd5b503461029257610100366003190112610292576113d0613107565b602435604435916001600160a01b0383168303611663576084356001600160401b03811161165b57611406903690600401613188565b928460a4359460e4356001600160401b03811161165f5761142b903690600401613188565b926001600160a01b03600d5416604051602081019060408252601760608201527f707265526567697374726174696f6e557365726e616d6500000000000000000060808201528860408201526080815261148660a082613167565b51902090803b1561165b5784928388936114ba604051978896879586946376aefe7760e01b865260643592600487016133fd565b03925af18015610e4a57611646575b505083611632575b5061070842018042116107eb57906004916001600160a01b03604051926114f78461314c565b168252602082019081526040820186815260608301918783526001600160a01b0380611533610c3a6105d6608089019a600160f81b8c52613ffe565b039020955116166001600160601b0360a01b85541617845551600184015551600283015551600382015501905160f81c60ff198254161790556001600160a01b03600d5416604051630a1ad2d160e21b8152336004820152602081602481855afa9081156107a6578491611613575b506115ab578280f35b6020600491604051928380926309a69f5760e01b82525afa908115610d245783916115df575b50610cd891610750916133e3565b90506020813d60201161160b575b816115fa60209383613167565b8101031261079a5751610cd86115d1565b3d91506115ed565b61162c915060203d6020116107d9576107cb8183613167565b5f6115a2565b6116409060c4358584613d8b565b5f6114d1565b8161165091613167565b61165b57845f6114c9565b8480fd5b8280fd5b8380fd5b61327c565b50346102925780600319360112610292576001600160a01b03600954163303610a55576001600160601b0360a01b600a5416600a5580600b5580f35b503461029257602036600319011261029257600435906001600160401b0382116102925760206103ba6116de3660048601613188565b613a84565b613369565b503461029257806116f8366131db565b946001600160a01b03600d999492959398979954168960405161175d8161174f602082019460408652600d60608401526c72656e6577557365726e616d6560981b60808401526080604084015260a08301906133a0565b03601f198101835282613167565b519020813b1561086e57858961178b8296604051988997889687956376aefe7760e01b8752600487016133fd565b03925af18015610e4a5761199a575b50506001600160a01b03604051806117b28882613438565b03902054166001600160a01b0384160361198b57604051600160f81b906001600160f81b031990600490806117e78a82613438565b039020015460f81b161461197c576001604051806118058882613438565b039020015463bbf81e0042019081421161196857116119595790611834918461182d8761383f565b8095613e7f565b6001600160a01b03600d5416604051630a1ad2d160e21b8152336004820152602081602481855afa90811561194e57869161192f575b5061189e575b50505061188560019160405191829182613438565b039020018054906301e285008201809211610cde575580f35b906020600492604051938480926309a69f5760e01b82525afa9182156107e05785926118fb575b506032810290808204603214901517156107eb57610750611885936112566001969460646118f49504906133e3565b915f611870565b9091506020813d602011611927575b8161191760209383613167565b8101031261079a5751905f6118c5565b3d915061190a565b611948915060203d6020116107d9576107cb8183613167565b5f61186a565b6040513d88823e3d90fd5b6356657c2160e01b8652600486fd5b634e487b7160e01b88526011600452602488fd5b631591d30560e11b8652600486fd5b6322de326160e11b8652600486fd5b816119a491613167565b61086e57855f61179a565b503461029257602036600319011261029257600435906001600160401b038211610292576020610e6f6119e53660048601613188565b61383f565b503461029257602036600319011261029257600435906001600160401b0382116102925760206103ba611a203660048601613188565b61379d565b503461029257806003193601126102925760206001600160a01b0360095416604051908152f35b50346102925761014036600319011261029257611a67613107565b6024356001600160401b03811161165f57611a86903690600401613188565b60443560643590608435936001600160a01b038516850361086e5760c4356001600160401b038111610e4657611ac0903690600401613188565b9060e4359187610124356001600160401b03811161029057611ae6903690600401613188565b9181986001600160a01b03600d541689604051611b4d81611b33602082019460808652600960a08401526836b0b5b2a7b33332b960b91b60c084015260c0604084015260e08301906133a0565b8c60608301528d608083015203601f198101835282613167565b51902090803b1561165b578492838893611b81604051978896879586946376aefe7760e01b865260a43592600487016133fd565b03925af18015610e4a57611e17575b5050604051600160f81b906001600160f81b03199060049080611bb38b82613438565b039020015460f81b16148015611e07575b611df85742851115611de9578315611dda57611be9906101049792973584868a613e7f565b60405180611bf78782613466565b0390208188526020526001600160a01b0360408820541615611c2157611c1c906136a2565b611be9565b946103e383028381046103e303611968576103e860029104946001600160a01b0360405193611c4f8561311d565b16835260208301908152604083019086825260405180611c6f8a82613466565b039020898b526020526001600160a01b038060408c20955116166001600160601b0360a01b85541617845551600184015551910155600460206001600160a01b03600d5416604051928380926309a69f5760e01b82525afa908115610872578791611da8575b50607d8302838104607d0361196857611d1793611d09610750611d109561125660209c9996620186a06103209704906133e3565b04906133e3565b82546133e3565b9055600360405180611d298482613438565b0390200154821115611d5f57611d4760039160405191829182613438565b03902001611d5581546136a2565b9055604051908152f35b600360405180611d6f8482613438565b039020015415611d80575b50610e6f565b611d9260039160405191829182613438565b03902001611da081546136a2565b90555f611d7a565b90506020813d602011611dd2575b81611dc360209383613167565b8101031261079a57515f611cd5565b3d9150611db6565b635e85ae7360e01b8852600488fd5b632cce8b5d60e21b8852600488fd5b630a1de65160e31b8852600488fd5b50611e118661379d565b15611bc4565b81611e2191613167565b611e2c57875f611b90565b8780fd5b50346102925780611e40366132c7565b939196989290946001600160a01b03600d99979954168a604051611e97818d6110fc602083019560608752600b60808501526a30b1b1b2b83a27b33332b960a91b60a085015260a0604085015260c08401906133a0565b519020813b1561086e578589611ec58296604051988997889687956376aefe7760e01b8752600487016133fd565b03925af18015610e4a5761210e575b50506001600160a01b0360405180611eec8982613438565b03902054166001600160a01b03841603610e225760405180611f0e8882613466565b0390208588526020526001600160a01b036040882054161580156120e7575b6120d85790611f4c9291846112fb5750506040518061119f8782613466565b60405180611f5a8582613466565b0390208285526020526001600160a01b036040852054166001600160a01b0360405180611f878782613438565b03902091166001600160601b0360a01b82541617905560405180611fab8582613466565b039020828552602052604084206001600160601b0360a01b81541690556001600160a01b03600d5416604051630a1ad2d160e21b8152336004820152602081602481855afa90811561194e5786916120b9575b50612014575b5050604051806112698482613466565b6020600491604051928380926309a69f5760e01b82525afa9081156107e0578591612087575b50604051806120498682613466565b039020838652602052600260408620015480800460011481151715610dbd57916112566107509260c7612080950460021c906133e3565b5f80612004565b90506020813d6020116120b1575b816120a260209383613167565b8101031261079a57515f61203a565b3d9150612095565b6120d2915060203d6020116107d9576107cb8183613167565b5f611ffe565b631388464960e01b8752600487fd5b50604051806120f68882613466565b03902085885260205260016040882001544211611f2d565b8161211891613167565b610e4657865f611ed4565b5034610292578060031936011261029257600654600754600854604080516001600160a01b03948516815293909216602084015290820152606090f35b5034610292578060031936011261029257600954600a54600b54604080516001600160a01b03948516815293909216602084015290820152606090f35b503461029257602036600319011261029257600435906001600160401b038211610292576020610e6f6121d33660048601613188565b6136b0565b503461029257806121e8366131db565b9596936001600160a01b03600d999493999692965416604051602081019060408252600d60608201526c666c757368557365726e616d6560981b6080820152608060408201526122408161174f8d60a08301906133a0565b51902092813b1561086e5785809461226f604051978896879586946376aefe7760e01b86528d600487016133fd565b03925af18015610e4a57612491575b50506001600160a01b03604051806122968782613438565b03902054166001600160a01b0382160361198b576001604051806122ba8782613438565b039020015442101561248257604051600160f81b906001600160f81b031990600490806122e78982613438565b039020015460f81b161461197c57908461230593926105c5866136b0565b825b6002604051806123178582613438565b039020015481101561234f5760019060405180612334858261344f565b039020818652602052612349604086206134de565b01612307565b5090600460206001600160a01b03600d5416604051928380926309a69f5760e01b82525afa9081156107a6578491612450575b508060050290600582040361075c576123b791611256610750926002604051806123ac8982613438565b0390200154906134cb565b60046003604051806123c98582613438565b0390200154604051906123db8261314c565b848252602082018581526040830190868252606084019283526001600160a01b038061241460808701988a8a5260405191829182613438565b039020955116166001600160601b0360a01b85541617845551600184015551600283015551600382015501905160f81c60ff1982541617905580f35b90506020813d60201161247a575b8161246b60209383613167565b8101031261079a57515f612382565b3d915061245e565b637d3b450560e11b8652600486fd5b8161249b91613167565b61086e57855f61227e565b50346102925780600319360112610292576001600160a01b03600954163303610a55576008544210612542576001600160a01b036007541681604080516124ec8161311d565b83815282602082015201526001600160601b0360a01b60065416176006556001600160601b0360a01b60075416600755806008556001600160a01b03600654166001600160601b0360a01b600d541617600d5580f35b63018a18db60e51b8152600490fd5b5034610292576101203660031901126102925761256c613107565b906024356001600160401b0381116102905761258c903690600401613188565b6044356001600160401b03811161165f576125ab903690600401613188565b926064356001600160a01b03811681036116635760a4356001600160401b03811161165b576125de903690600401613188565b9160c43592610104356001600160401b038111610e4657612603903690600401613188565b926001600160a01b03600d5416906040516020810190606082526011608082015270616464437573746f6d4d6574616461746160781b60a082015260a0604082015261266d8161174f8d61265b8d60c08501906133a0565b838103601f19016060850152906133a0565b51902090823b1561295b57916126a39391898094604051968795869485936376aefe7760e01b8552608435918c600487016133fd565b03925af1801561194e57908691612946575b50506001600160a01b03604051806126cd8782613438565b03902054166001600160a01b038216036129375785511561292857906126fa918360e435916105c56135cc565b6001600160a01b03600d5416604051630a1ad2d160e21b8152336004820152602081602481855afa9081156107e0578591612909575b5061286b575b505060405180612746838261344f565b0390206002604051806127598582613438565b039020015483526020526040822083516001600160401b0381116128575761278b81612785845461347d565b8461365f565b6020601f82116001146127ee57816127d09493926127c2928798600298926127e3575b50508160011b915f199060031b1c19161790565b905560405191829182613438565b039020016127de81546136a2565b905580f35b015190505f806127ae565b82855280852095601f198316865b81811061283f57509660019284926127d09796956002999a10612827575b505050811b019055610c3a565b01515f1960f88460031b161c191690555f808061281a565b838301518955600190980197602093840193016127fc565b634e487b7160e01b84526041600452602484fd5b6020600491604051928380926309a69f5760e01b82525afa9081156107a65784916128d7575b508060050290600582040361075c576128a86135cc565b6032810290808204603214901517156107eb57916112566107509260646128d09504906133e3565b5f80612736565b90506020813d602011612901575b816128f260209383613167565b8101031261079a57515f612891565b3d91506128e5565b612922915060203d6020116107d9576107cb8183613167565b5f612730565b6334b7a09160e01b8552600485fd5b6322de326160e11b8552600485fd5b8161295091613167565b61165b57845f6126b5565b8880fd5b503461029257604060609161298c61297636613296565b9190612980613641565b50845191829182613466565b039020908252602052206002604051916129a58361311d565b6001600160a01b03815416835260018101546020840152015460408201526129ed6040518092604080916001600160a01b038151168452602081015160208501520151910152565bf35b50346102925780600319360112610292576001600160a01b03600954163303610a55576001600160601b0360a01b600754166007558060085580f35b503461029257602036600319011261029257600435906001600160401b0382116102925760206001612a63610c3a3660048701613188565b0390200154604051908152f35b503461029257806003193601126102925760206001600160a01b0360065416604051908152f35b503461029257602036600319011261029257600435906001600160401b038211610292576020610e6f612acd3660048601613188565b613545565b503461029257806003193601126102925760049060206001600160a01b03600d541660405193848092630be428a960e11b82525afa908115612b525790612b1f575b602090604051908152f35b506020813d602011612b4a575b81612b3960209383613167565b8101031261079a5760209051612b14565b3d9150612b2c565b604051903d90823e3d90fd5b503461029257602036600319011261029257612b78613107565b6001600160a01b036009541690813303612be4576001600160a01b0316908115908115612bda575b50612bcb576001600160601b0360a01b600a541617600a5562015180420180421161139257600b5580f35b6394aca82b60e01b8252600482fd5b905081145f612ba0565b636587b01b60e11b8352600483fd5b503461029257602036600319011261029257600435906001600160401b0382116102925760206001600160a01b03612c31610c3a3660048701613188565b0390205416604051908152f35b5034610292576020366003190112610292576004356001600160401b0381116102905790612c726020923690600401613188565b612c7b81613a84565b612c92575b506001600160a01b0360405191168152f35b6001600160a01b039150612cac9060405191829182613438565b03902054165f612c80565b503461079a57612cc6366131db565b9490936001600160a01b03600d9894939854166040516020810190604082526013606082015272666c757368437573746f6d4d6574616461746160681b608082015260806040820152612d208161174f60a082018d6133a0565b51902092813b1561079a575f8094612d4f604051978896879586946376aefe7760e01b86528c600487016133fd565b03925af18015612f2f57612f1a575b506001600160a01b0360405180612d758782613438565b03902054166001600160a01b0382160361198b57600260405180612d998782613438565b039020015415612f0b579084612db393926105c586613545565b825b83600260405180612dc68682613438565b0390200154821015612dff575060019060405180612de4858261344f565b039020818652602052612df9604086206134de565b01612db5565b9290506001600160a01b03600d5416604051630a1ad2d160e21b8152336004820152602081602481855afa9081156107e0578591612eec575b50612e5a575b5050612e5260029160405191829182613438565b039020015580f35b600491929350602090604051928380926309a69f5760e01b82525afa9081156107a6578491612eba575b508060050290600582040361075c578392612eb4610750600294611256612e529587604051806123ac8982613438565b91612e3e565b90506020813d602011612ee4575b81612ed560209383613167565b8101031261079a57515f612e84565b3d9150612ec8565b612f05915060203d6020116107d9576107cb8183613167565b5f612e38565b6334b7a09160e01b8652600486fd5b612f279196505f90613167565b5f945f612d5e565b6040513d5f823e3d90fd5b3461079a57602036600319011261079a57600435906001600160a01b036009541633036130f857600d5463280e32fb60e01b82526001600160a01b0316602082600481845afa918215612f2f575f926130c7575b506001600160a01b036040519263d4fac45d60e01b8452306004850152166024830152602082604481845afa918215612f2f575f92613092575b506020600491604051928380926309a69f5760e01b82525afa908115612f2f575f91613060575b506113db01806113db1161303557829161300e613014925f54906133e3565b906133f0565b108015613058575b6130495760045562015180420180421161303557600555005b634e487b7160e01b5f52601160045260245ffd5b630db73cdf60e41b5f5260045ffd5b50801561301c565b90506020813d60201161308a575b8161307b60209383613167565b8101031261079a575183612fef565b3d915061306e565b9091506020813d6020116130bf575b816130ae60209383613167565b8101031261079a5751906020612fc8565b3d91506130a1565b6130ea91925060203d6020116130f1575b6130e28183613167565b8101906133c4565b9083612f8e565b503d6130d8565b636587b01b60e11b5f5260045ffd5b600435906001600160a01b038216820361079a57565b606081019081106001600160401b0382111761313857604052565b634e487b7160e01b5f52604160045260245ffd5b60a081019081106001600160401b0382111761313857604052565b90601f801991011681019081106001600160401b0382111761313857604052565b81601f8201121561079a576020813591016001600160401b03821161313857604051926131bf601f8401601f191660200185613167565b8284528282011161079a57815f92602092838601378301015290565b9061010060031983011261079a576004356001600160a01b038116810361079a57916024356001600160401b03811161079a578161321b91600401613188565b916044356001600160a01b038116810361079a5791606435916084356001600160401b03811161079a578261325291600401613188565b9160a4359160c4359160e435906001600160401b03821161079a5761327991600401613188565b90565b3461079a575f36600319011261079a576020610e6f6135cc565b604060031982011261079a57600435906001600160401b03821161079a576132c091600401613188565b9060243590565b61012060031982011261079a576004356001600160a01b038116810361079a57916024356001600160401b03811161079a578261330691600401613188565b91604435916064356001600160a01b038116810361079a57916084359160a4356001600160401b03811161079a578261334191600401613188565b9160c4359160e4359161010435906001600160401b03821161079a5761327991600401613188565b3461079a57602036600319011261079a576004356001600160401b03811161079a576002612a63610c3a6020933690600401613188565b805180835260209291819084018484015e5f828201840152601f01601f1916010190565b9081602091031261079a57516001600160a01b038116810361079a5790565b9190820180921161303557565b9190820391821161303557565b9160c0936001600160a01b03918261327998979416855260208501521660408301526060820152600160808201528160a082015201906133a0565b602091908291805192839101825e01600c81520190565b602091908291805192839101825e01600281520190565b602091908291805192839101825e01600181520190565b90600182811c921680156134ab575b602083101461349757565b634e487b7160e01b5f52602260045260245ffd5b91607f169161348c565b8181106134c0575050565b5f81556001016134b5565b8181029291811591840414171561303557565b6134e8815461347d565b90816134f2575050565b81601f5f93116001146135045750555b565b8183526020832061352091601f0160051c8101906001016134b5565b8082528160208120915555565b9081602091031261079a5751801515810361079a5790565b600460206001600160a01b03600d5416604051928380926309a69f5760e01b82525afa908115612f2f575f9161359a575b5080600a0290600a8204036130355760026123ac6132799360405191829182613438565b90506020813d6020116135c4575b816135b560209383613167565b8101031261079a57515f613576565b3d91506135a8565b600460206001600160a01b03600d5416604051928380926309a69f5760e01b82525afa908115612f2f575f9161360f575b5080600a0290600a8204036130355790565b90506020813d602011613639575b8161362a60209383613167565b8101031261079a57515f6135fd565b3d915061361d565b6040519061364e8261311d565b5f6040838281528260208201520152565b9190601f811161366e57505050565b613502925f5260205f20906020601f840160051c83019310613698575b601f0160051c01906134b5565b909150819061368b565b5f1981146130355760010190565b6001600160a01b03600d54166040516309a69f5760e01b8152602081600481855afa908115612f2f575f9161376b575b5080600a0290600a8204036130355761370960209160026123ac60049660405191829182613438565b91604051938480926309a69f5760e01b82525afa908115612f2f575f91613735575b61327992506133e3565b90506020823d602011613763575b8161375060209383613167565b8101031261079a5761327991519061372b565b3d9150613743565b90506020813d602011613795575b8161378660209383613167565b8101031261079a57515f6136e0565b3d9150613779565b604051600160f81b906001600160f81b031990600490806137be8682613438565b039020015460f81b1603613820576001600160a01b03604051806137e28482613438565b0390205416159081156137ff575b50156137fa575f90565b600190565b600191506138139060405191829182613438565b039020015415155f6137f0565b61383260019160405191829182613438565b03902001546137fa575f90565b5f906001604051806138518482613438565b03902001544211613a09576040518061386a8382613466565b0390205f8052602052600160405f200154613931575b50806138945750681b1ae4d6e2ef50000090565b60049060206001600160a01b03600d5416604051938480926309a69f5760e01b82525afa918215612f2f575f926138fd575b5060058102908104600503613035576103e89004816207a12002916207a12083040361303557818111156138f8575090565b905090565b9091506020813d602011613929575b8161391960209383613167565b8101031261079a5751905f6138c6565b3d915061390c565b5f5b6003604051806139438582613438565b0390200154811015613a01576040518061395d8482613466565b039020815f5260205242600160405f20015411806139d4575b613983575b600101613933565b604051806139918482613466565b039020815f5260205282600260405f200154111561397b579150604051806139b98382613466565b039020825f526020526001600260405f20015492905061397b565b50604051806139e38482613466565b039020815f526020526001600160a01b0360405f2054161515613976565b50505f613880565b5050600460206001600160a01b03600d5416604051928380926309a69f5760e01b82525afa908115612f2f575f91613a52575b50806207a12002906207a1208204036130355790565b90506020813d602011613a7c575b81613a6d60209383613167565b8101031261079a57515f613a3c565b3d9150613a60565b604051600160f81b906001600160f81b03199060049080613aa58682613438565b039020015460f81b1603613b02576001600160a01b0360405180613ac98482613438565b039020541615908115613ae1575b50156137fa575f80fd5b60019150613af59060405191829182613438565b039020015415155f613ad7565b613b1460019160405191829182613438565b03902001546137fa575f80fd5b906135026021602093604051948591600160fe1b828401528051918291018484015e81015f838201520301601f198101845283613167565b6001600160401b0381116131385760051b60200190565b8051821015613b845760209160051b010190565b634e487b7160e01b5f52603260045260245ffd5b600360405180613ba88482613438565b039020015415613bbb576132799061383f565b50600460206001600160a01b03600d5416604051928380926309a69f5760e01b82525afa908115612f2f575f91613c04575b506064810290808204606414901517156130355790565b90506020813d602011613c2e575b81613c1f60209383613167565b8101031261079a57515f613bed565b3d9150613c12565b90613c6460206040518093828080840197805191829101895e8301019081520301601f198101835282613167565b51902090565b919091828114613d3e57613c7e835461347d565b6001600160401b03811161313857613c9a81612785845461347d565b5f93601f8211600114613cd857613cc992939482915f92613ccd5750508160011b915f199060031b1c19161790565b9055565b015490505f806127ae565b601f198216905f5260205f2094835f5260205f20915f5b818110613d2657509583600195969710613d0e575b505050811b019055565b01545f1960f88460031b161c191690555f8080613d04565b9192600180602092868b015481550194019201613cef565b509050565b600160405180613d538482613438565b0390200154613d625750600190565b613d7460019160405191829182613438565b0390200154624f1a00810180911161303557421190565b929190916001600160a01b03600d5416906040519263280e32fb60e01b8452602084600481865afa938415612f2f575f94613e5e575b50823b1561079a576001600160a01b0395613e4387935f979388946040519a8b998a988997631594872160e31b895216600488015230602488015261014060448801528761014488015216606486015285608486015260a48501523060c485015260e484015260016101048401526101606101248401526101648301906133a0565b03925af18015612f2f57613e545750565b5f61350291613167565b613e7891945060203d6020116130f1576130e28183613167565b925f613dc1565b919093926001600160a01b03600d5416916040519363280e32fb60e01b8552602085600481875afa948515612f2f575f95613f36575b50833b1561079a57613e435f966001600160a01b03989488948a966040519b8c9a8b998a98631594872160e31b8a52166004890152306024890152610140604489015288610144890152166064870152608486015260a48501523060c485015260e484015260016101048401526101606101248401526101648301906133a0565b613f5091955060203d6020116130f1576130e28183613167565b935f613eb5565b600d5460405163280e32fb60e01b815292906001600160a01b0316602084600481845afa938415612f2f575f94613fcc575b50803b1561079a5760405163c898a6e960e01b81526001600160a01b03938416600482015293909216602484015260448301525f90829081838160648101613e43565b613fe691945060203d6020116130f1576130e28183613167565b925f613f89565b908151811015613b84570160200190565b6040519061400d608083613167565b60428252602082016060368237825115613b845760309053815160011015613b8457607860218301535f5b6020811061404557505090565b81811a90600482901c600f166010811015613b84578160011b928284046002148315171561303557836002018060021161303557600f926f181899199a1a9b1b9c1cb0b131b232b360811b901a9061409d9088613fed565b5316916010831015613b845760030180600311613035576001926f181899199a1a9b1b9c1cb0b131b232b360811b901a906140d89086613fed565b5301614038565b80516004811061414e5715613b84576020810151614106906001600160f81b031916614193565b1561418e575f5b8151811015614187576001600160f81b03196141298284613fed565b5116600360fc1b8110159081614178575b501580614154575b61414e5760010161410d565b50505f90565b506141726001600160f81b031961416b8385613fed565b5116614193565b15614142565b603960f81b101590505f61413a565b5050600190565b505f90565b60ff60f81b16604160f81b81101590816141d1575b81156141b2575090565b606160f81b8110159150816141c5575090565b603d60f91b1015905090565b602d60f91b81111591506141a856fea2646970667358221220fcf768cb6a598e1b06e19fa95f18ddce5f183adbaa940c6ffe393d47cf398e2864736f6c634300081e0033",
    "linkReferences": {}
  },
  "methodIdentifiers": {
    "acceptChangeEvvmAddress()": "48ffba55",
    "acceptOffer(address,string,uint256,address,uint256,bytes,uint256,uint256,bytes)": "5f1a6736",
    "acceptProposeAdmin()": "eba5e53e",
    "addCustomMetadata(address,string,string,address,uint256,bytes,uint256,uint256,bytes)": "457c3ff4",
    "cancelChangeEvvmAddress()": "24866f15",
    "cancelProposeAdmin()": "88ecb91f",
    "cancelWithdrawPrincipalTokens()": "cf1dc146",
    "claimWithdrawPrincipalTokens()": "e7849f62",
    "flushCustomMetadata(address,string,address,uint256,bytes,uint256,uint256,bytes)": "07ade5b1",
    "flushUsername(address,string,address,uint256,bytes,uint256,uint256,bytes)": "53f41c79",
    "getAdmin()": "6e9960c3",
    "getAdminFullDetails()": "5548a762",
    "getAmountOfCustomMetadata(string)": "6b5bb1ca",
    "getCoreAddress()": "2096b768",
    "getCoreAddressFullDetails()": "570b245b",
    "getCustomMetadataMaxSlotsOfIdentity(string)": "7bd9da7a",
    "getEvvmID()": "17c85152",
    "getExpireDateOfIdentity(string)": "22afca38",
    "getFullCustomMetadataOfIdentity(string)": "b19517dd",
    "getIdentityBasicMetadata(string)": "c97da33e",
    "getLengthOfOffersUsername(string)": "fe7ab683",
    "getOffersOfUsername(string)": "d7fd3134",
    "getOwnerOfIdentity(string)": "0d3dcb9f",
    "getPriceOfRegistration(string)": "bc91a428",
    "getPriceToAddCustomMetadata()": "36e7a1b8",
    "getPriceToFlushCustomMetadata(string)": "1f4131fb",
    "getPriceToFlushUsername(string)": "54dc585d",
    "getPriceToRemoveCustomMetadata()": "99e7bac2",
    "getProposedWithdrawAmountFullDetails()": "d2234a1a",
    "getSingleCustomMetadataOfIdentity(string,uint256)": "f6d0ecbe",
    "getSingleOfferOfUsername(string,uint256)": "43a82d67",
    "hashUsername(string,uint256)": "bcd5a47c",
    "isUsernameAvailable(string)": "f69c6dec",
    "makeOffer(address,string,uint256,uint256,address,uint256,bytes,uint256,uint256,bytes)": "636996b9",
    "preRegistrationUsername(address,bytes32,address,uint256,bytes,uint256,uint256,bytes)": "9df57fe1",
    "proposeAdmin(address)": "147bf6c4",
    "proposeChangeEvvmAddress(address)": "a6ba51ca",
    "proposeWithdrawPrincipalTokens(uint256)": "007802df",
    "registrationUsername(address,string,uint256,address,uint256,bytes,uint256,uint256,bytes)": "dbd1723c",
    "removeCustomMetadata(address,string,uint256,address,uint256,bytes,uint256,uint256,bytes)": "c7d5850c",
    "renewUsername(address,string,address,uint256,bytes,uint256,uint256,bytes)": "7a1bc153",
    "seePriceToRenew(string)": "75dab53b",
    "strictVerifyIfIdentityExist(string)": "86c8ac58",
    "verifyIfIdentityExists(string)": "7126b2a3",
    "verifyStrictAndGetOwnerOfIdentity(string)": "0c78d2c6",
    "withdrawOffer(address,string,uint256,address,uint256,bytes,uint256,uint256,bytes)": "aa0fb727"
  },
  "id": 64
}