{"abi":[{"type":"constructor","inputs":[{"name":"_coreAddress","type":"address","internalType":"address"},{"name":"_initialOwner","type":"address","internalType":"address"}],"stateMutability":"nonpayable"},{"type":"function","name":"acceptChangeEvvmAddress","inputs":[],"outputs":[],"stateMutability":"nonpayable"},{"type":"function","name":"acceptOffer","inputs":[{"name":"user","type":"address","internalType":"address"},{"name":"username","type":"string","internalType":"string"},{"name":"offerID","type":"uint256","internalType":"uint256"},{"name":"senderExecutor","type":"address","internalType":"address"},{"name":"originExecutor","type":"address","internalType":"address"},{"name":"nonce","type":"uint256","internalType":"uint256"},{"name":"signature","type":"bytes","internalType":"bytes"},{"name":"priorityFeePay","type":"uint256","internalType":"uint256"},{"name":"noncePay","type":"uint256","internalType":"uint256"},{"name":"signaturePay","type":"bytes","internalType":"bytes"}],"outputs":[],"stateMutability":"nonpayable"},{"type":"function","name":"acceptProposeAdmin","inputs":[],"outputs":[],"stateMutability":"nonpayable"},{"type":"function","name":"addCustomMetadata","inputs":[{"name":"user","type":"address","internalType":"address"},{"name":"identity","type":"string","internalType":"string"},{"name":"value","type":"string","internalType":"string"},{"name":"senderExecutor","type":"address","internalType":"address"},{"name":"originExecutor","type":"address","internalType":"address"},{"name":"nonce","type":"uint256","internalType":"uint256"},{"name":"signature","type":"bytes","internalType":"bytes"},{"name":"priorityFeePay","type":"uint256","internalType":"uint256"},{"name":"noncePay","type":"uint256","internalType":"uint256"},{"name":"signaturePay","type":"bytes","internalType":"bytes"}],"outputs":[],"stateMutability":"nonpayable"},{"type":"function","name":"cancelChangeEvvmAddress","inputs":[],"outputs":[],"stateMutability":"nonpayable"},{"type":"function","name":"cancelProposeAdmin","inputs":[],"outputs":[],"stateMutability":"nonpayable"},{"type":"function","name":"cancelWithdrawPrincipalTokens","inputs":[],"outputs":[],"stateMutability":"nonpayable"},{"type":"function","name":"claimWithdrawPrincipalTokens","inputs":[],"outputs":[],"stateMutability":"nonpayable"},{"type":"function","name":"flushCustomMetadata","inputs":[{"name":"user","type":"address","internalType":"address"},{"name":"identity","type":"string","internalType":"string"},{"name":"senderExecutor","type":"address","internalType":"address"},{"name":"originExecutor","type":"address","internalType":"address"},{"name":"nonce","type":"uint256","internalType":"uint256"},{"name":"signature","type":"bytes","internalType":"bytes"},{"name":"priorityFeePay","type":"uint256","internalType":"uint256"},{"name":"noncePay","type":"uint256","internalType":"uint256"},{"name":"signaturePay","type":"bytes","internalType":"bytes"}],"outputs":[],"stateMutability":"nonpayable"},{"type":"function","name":"flushUsername","inputs":[{"name":"user","type":"address","internalType":"address"},{"name":"username","type":"string","internalType":"string"},{"name":"senderExecutor","type":"address","internalType":"address"},{"name":"originExecutor","type":"address","internalType":"address"},{"name":"nonce","type":"uint256","internalType":"uint256"},{"name":"signature","type":"bytes","internalType":"bytes"},{"name":"priorityFeePay","type":"uint256","internalType":"uint256"},{"name":"noncePay","type":"uint256","internalType":"uint256"},{"name":"signaturePay","type":"bytes","internalType":"bytes"}],"outputs":[],"stateMutability":"nonpayable"},{"type":"function","name":"getAdmin","inputs":[],"outputs":[{"name":"","type":"address","internalType":"address"}],"stateMutability":"view"},{"type":"function","name":"getAdminFullDetails","inputs":[],"outputs":[{"name":"currentAdmin","type":"address","internalType":"address"},{"name":"proposalAdmin","type":"address","internalType":"address"},{"name":"timeToAcceptAdmin","type":"uint256","internalType":"uint256"}],"stateMutability":"view"},{"type":"function","name":"getAmountOfCustomMetadata","inputs":[{"name":"_username","type":"string","internalType":"string"}],"outputs":[{"name":"","type":"uint256","internalType":"uint256"}],"stateMutability":"view"},{"type":"function","name":"getCoreAddress","inputs":[],"outputs":[{"name":"","type":"address","internalType":"address"}],"stateMutability":"view"},{"type":"function","name":"getCoreAddressFullDetails","inputs":[],"outputs":[{"name":"currentEvvmAddress","type":"address","internalType":"address"},{"name":"proposalEvvmAddress","type":"address","internalType":"address"},{"name":"timeToAcceptEvvmAddress","type":"uint256","internalType":"uint256"}],"stateMutability":"view"},{"type":"function","name":"getCustomMetadataMaxSlotsOfIdentity","inputs":[{"name":"_username","type":"string","internalType":"string"}],"outputs":[{"name":"","type":"uint256","internalType":"uint256"}],"stateMutability":"view"},{"type":"function","name":"getEvvmID","inputs":[],"outputs":[{"name":"","type":"uint256","internalType":"uint256"}],"stateMutability":"view"},{"type":"function","name":"getExpireDateOfIdentity","inputs":[{"name":"_identity","type":"string","internalType":"string"}],"outputs":[{"name":"","type":"uint256","internalType":"uint256"}],"stateMutability":"view"},{"type":"function","name":"getFullCustomMetadataOfIdentity","inputs":[{"name":"_username","type":"string","internalType":"string"}],"outputs":[{"name":"","type":"string[]","internalType":"string[]"}],"stateMutability":"view"},{"type":"function","name":"getIdentityBasicMetadata","inputs":[{"name":"_username","type":"string","internalType":"string"}],"outputs":[{"name":"","type":"address","internalType":"address"},{"name":"","type":"uint256","internalType":"uint256"}],"stateMutability":"view"},{"type":"function","name":"getLengthOfOffersUsername","inputs":[{"name":"_username","type":"string","internalType":"string"}],"outputs":[{"name":"length","type":"uint256","internalType":"uint256"}],"stateMutability":"view"},{"type":"function","name":"getOffersOfUsername","inputs":[{"name":"_username","type":"string","internalType":"string"}],"outputs":[{"name":"offers","type":"tuple[]","internalType":"struct NameServiceStructs.OfferMetadata[]","components":[{"name":"offerer","type":"address","internalType":"address"},{"name":"expirationDate","type":"uint256","internalType":"uint256"},{"name":"amount","type":"uint256","internalType":"uint256"}]}],"stateMutability":"view"},{"type":"function","name":"getOwnerOfIdentity","inputs":[{"name":"_username","type":"string","internalType":"string"}],"outputs":[{"name":"","type":"address","internalType":"address"}],"stateMutability":"view"},{"type":"function","name":"getPriceOfRegistration","inputs":[{"name":"username","type":"string","internalType":"string"}],"outputs":[{"name":"","type":"uint256","internalType":"uint256"}],"stateMutability":"view"},{"type":"function","name":"getPriceToAddCustomMetadata","inputs":[],"outputs":[{"name":"price","type":"uint256","internalType":"uint256"}],"stateMutability":"view"},{"type":"function","name":"getPriceToFlushCustomMetadata","inputs":[{"name":"_identity","type":"string","internalType":"string"}],"outputs":[{"name":"price","type":"uint256","internalType":"uint256"}],"stateMutability":"view"},{"type":"function","name":"getPriceToFlushUsername","inputs":[{"name":"_identity","type":"string","internalType":"string"}],"outputs":[{"name":"price","type":"uint256","internalType":"uint256"}],"stateMutability":"view"},{"type":"function","name":"getPriceToRemoveCustomMetadata","inputs":[],"outputs":[{"name":"price","type":"uint256","internalType":"uint256"}],"stateMutability":"view"},{"type":"function","name":"getProposedWithdrawAmountFullDetails","inputs":[],"outputs":[{"name":"proposalAmountToWithdrawTokens","type":"uint256","internalType":"uint256"},{"name":"timeToAcceptAmountToWithdrawTokens","type":"uint256","internalType":"uint256"}],"stateMutability":"view"},{"type":"function","name":"getSingleCustomMetadataOfIdentity","inputs":[{"name":"_username","type":"string","internalType":"string"},{"name":"_key","type":"uint256","internalType":"uint256"}],"outputs":[{"name":"","type":"string","internalType":"string"}],"stateMutability":"view"},{"type":"function","name":"getSingleOfferOfUsername","inputs":[{"name":"_username","type":"string","internalType":"string"},{"name":"_offerID","type":"uint256","internalType":"uint256"}],"outputs":[{"name":"offer","type":"tuple","internalType":"struct NameServiceStructs.OfferMetadata","components":[{"name":"offerer","type":"address","internalType":"address"},{"name":"expirationDate","type":"uint256","internalType":"uint256"},{"name":"amount","type":"uint256","internalType":"uint256"}]}],"stateMutability":"view"},{"type":"function","name":"hashUsername","inputs":[{"name":"_username","type":"string","internalType":"string"},{"name":"_randomNumber","type":"uint256","internalType":"uint256"}],"outputs":[{"name":"","type":"bytes32","internalType":"bytes32"}],"stateMutability":"pure"},{"type":"function","name":"isUsernameAvailable","inputs":[{"name":"_username","type":"string","internalType":"string"}],"outputs":[{"name":"","type":"bool","internalType":"bool"}],"stateMutability":"view"},{"type":"function","name":"makeOffer","inputs":[{"name":"user","type":"address","internalType":"address"},{"name":"username","type":"string","internalType":"string"},{"name":"amount","type":"uint256","internalType":"uint256"},{"name":"expirationDate","type":"uint256","internalType":"uint256"},{"name":"senderExecutor","type":"address","internalType":"address"},{"name":"originExecutor","type":"address","internalType":"address"},{"name":"nonce","type":"uint256","internalType":"uint256"},{"name":"signature","type":"bytes","internalType":"bytes"},{"name":"priorityFeePay","type":"uint256","internalType":"uint256"},{"name":"noncePay","type":"uint256","internalType":"uint256"},{"name":"signaturePay","type":"bytes","internalType":"bytes"}],"outputs":[{"name":"offerID","type":"uint256","internalType":"uint256"}],"stateMutability":"nonpayable"},{"type":"function","name":"preRegistrationUsername","inputs":[{"name":"user","type":"address","internalType":"address"},{"name":"hashPreRegisteredUsername","type":"bytes32","internalType":"bytes32"},{"name":"senderExecutor","type":"address","internalType":"address"},{"name":"originExecutor","type":"address","internalType":"address"},{"name":"nonce","type":"uint256","internalType":"uint256"},{"name":"signature","type":"bytes","internalType":"bytes"},{"name":"priorityFeePay","type":"uint256","internalType":"uint256"},{"name":"noncePay","type":"uint256","internalType":"uint256"},{"name":"signaturePay","type":"bytes","internalType":"bytes"}],"outputs":[],"stateMutability":"nonpayable"},{"type":"function","name":"proposeAdmin","inputs":[{"name":"_adminToPropose","type":"address","internalType":"address"}],"outputs":[],"stateMutability":"nonpayable"},{"type":"function","name":"proposeChangeEvvmAddress","inputs":[{"name":"_newEvvmAddress","type":"address","internalType":"address"}],"outputs":[],"stateMutability":"nonpayable"},{"type":"function","name":"proposeWithdrawPrincipalTokens","inputs":[{"name":"_amount","type":"uint256","internalType":"uint256"}],"outputs":[],"stateMutability":"nonpayable"},{"type":"function","name":"registrationUsername","inputs":[{"name":"user","type":"address","internalType":"address"},{"name":"username","type":"string","internalType":"string"},{"name":"lockNumber","type":"uint256","internalType":"uint256"},{"name":"senderExecutor","type":"address","internalType":"address"},{"name":"originExecutor","type":"address","internalType":"address"},{"name":"nonce","type":"uint256","internalType":"uint256"},{"name":"signature","type":"bytes","internalType":"bytes"},{"name":"priorityFeePay","type":"uint256","internalType":"uint256"},{"name":"noncePay","type":"uint256","internalType":"uint256"},{"name":"signaturePay","type":"bytes","internalType":"bytes"}],"outputs":[],"stateMutability":"nonpayable"},{"type":"function","name":"removeCustomMetadata","inputs":[{"name":"user","type":"address","internalType":"address"},{"name":"identity","type":"string","internalType":"string"},{"name":"key","type":"uint256","internalType":"uint256"},{"name":"senderExecutor","type":"address","internalType":"address"},{"name":"originExecutor","type":"address","internalType":"address"},{"name":"nonce","type":"uint256","internalType":"uint256"},{"name":"signature","type":"bytes","internalType":"bytes"},{"name":"priorityFeePay","type":"uint256","internalType":"uint256"},{"name":"noncePay","type":"uint256","internalType":"uint256"},{"name":"signaturePay","type":"bytes","internalType":"bytes"}],"outputs":[],"stateMutability":"nonpayable"},{"type":"function","name":"renewUsername","inputs":[{"name":"user","type":"address","internalType":"address"},{"name":"username","type":"string","internalType":"string"},{"name":"senderExecutor","type":"address","internalType":"address"},{"name":"originExecutor","type":"address","internalType":"address"},{"name":"nonce","type":"uint256","internalType":"uint256"},{"name":"signature","type":"bytes","internalType":"bytes"},{"name":"priorityFeePay","type":"uint256","internalType":"uint256"},{"name":"noncePay","type":"uint256","internalType":"uint256"},{"name":"signaturePay","type":"bytes","internalType":"bytes"}],"outputs":[],"stateMutability":"nonpayable"},{"type":"function","name":"seePriceToRenew","inputs":[{"name":"_identity","type":"string","internalType":"string"}],"outputs":[{"name":"price","type":"uint256","internalType":"uint256"}],"stateMutability":"view"},{"type":"function","name":"strictVerifyIfIdentityExist","inputs":[{"name":"_username","type":"string","internalType":"string"}],"outputs":[{"name":"","type":"bool","internalType":"bool"}],"stateMutability":"view"},{"type":"function","name":"verifyIfIdentityExists","inputs":[{"name":"_identity","type":"string","internalType":"string"}],"outputs":[{"name":"","type":"bool","internalType":"bool"}],"stateMutability":"view"},{"type":"function","name":"verifyStrictAndGetOwnerOfIdentity","inputs":[{"name":"_username","type":"string","internalType":"string"}],"outputs":[{"name":"answer","type":"address","internalType":"address"}],"stateMutability":"view"},{"type":"function","name":"withdrawOffer","inputs":[{"name":"user","type":"address","internalType":"address"},{"name":"username","type":"string","internalType":"string"},{"name":"offerID","type":"uint256","internalType":"uint256"},{"name":"senderExecutor","type":"address","internalType":"address"},{"name":"originExecutor","type":"address","internalType":"address"},{"name":"nonce","type":"uint256","internalType":"uint256"},{"name":"signature","type":"bytes","internalType":"bytes"},{"name":"priorityFeePay","type":"uint256","internalType":"uint256"},{"name":"noncePay","type":"uint256","internalType":"uint256"},{"name":"signaturePay","type":"bytes","internalType":"bytes"}],"outputs":[],"stateMutability":"nonpayable"},{"type":"error","name":"AmountMustBeGreaterThanZero","inputs":[]},{"type":"error","name":"CannotBeBeforeCurrentTime","inputs":[]},{"type":"error","name":"EmptyCustomMetadata","inputs":[]},{"type":"error","name":"IdentityIsNotAUsername","inputs":[]},{"type":"error","name":"InvalidAdminProposal","inputs":[]},{"type":"error","name":"InvalidEvvmAddress","inputs":[]},{"type":"error","name":"InvalidKey","inputs":[]},{"type":"error","name":"InvalidUsername","inputs":[]},{"type":"error","name":"InvalidWithdrawAmount","inputs":[]},{"type":"error","name":"LockTimeNotExpired","inputs":[]},{"type":"error","name":"OfferInactive","inputs":[]},{"type":"error","name":"OwnershipExpired","inputs":[]},{"type":"error","name":"PreRegistrationNotValid","inputs":[]},{"type":"error","name":"RenewalTimeLimitExceeded","inputs":[]},{"type":"error","name":"SenderIsNotAdmin","inputs":[]},{"type":"error","name":"SenderIsNotProposedAdmin","inputs":[]},{"type":"error","name":"UserIsNotOwnerOfIdentity","inputs":[]},{"type":"error","name":"UserIsNotOwnerOfOffer","inputs":[]},{"type":"error","name":"UsernameAlreadyRegistered","inputs":[]}],"bytecode":{"object":"0x608034609657601f6146e938819003918201601f19168301916001600160401b03831184841017609a578084926040948552833981010312609657604b602060458360ae565b920160ae565b600680546001600160a01b03199081166001600160a01b039485169081179092556009805482169490931693909317909155600d805490921617905560405161462790816100c28239f35b5f80fd5b634e487b7160e01b5f52604160045260245ffd5b51906001600160a01b038216820360965756fe6080806040526004361015610012575f80fd5b5f905f3560e01c9081627802df14613260575080630c78d2c6146131e25780630d3dcb9f14613188578063147bf6c4146130e157806317c85152146130635780631f4131fb146130285780632096b7681461300257806322abdafa14612d2c57806322afca3814612cd757806324866f1514612c9b57806336e7a1b81461180057806343a82d6714612c0757806348ffba5514612b5c57806353462f82146127a257806354dc585d146127665780635548a76214612729578063570b245b146126ec5780635f94da09146123ea5780636b5bb1ca14611efa5780636e9960c3146123c35780637126b2a31461238757806371e604f814611f3b57806375dab53b14611eff5780637bd9da7a14611efa5780637d0d960814611c4357806386c8ac5814611c0757806388ecb91f14611bcb5780638ffe264e1461180557806399e7bac214611800578063a6ba51ca1461177c578063b0bf2e1014611349578063b19517dd1461115c578063bc91a42814611120578063bcd5a47c146110fe578063c97da33e14611086578063cf1dc14614611049578063d2234a1a14611024578063d7fd313414610e97578063e7849f6214610e44578063eba5e53e14610db4578063ebee75fc14610aac578063ecdc7aff146106f5578063f5e993f5146103cd578063f69c6dec14610387578063f6d0ecbe146102995763fe7ab68314610217575f80fd5b34610296576020366003190112610296576004356001600160401b0381116102945761024790369060040161340a565b829160015b15610262575b61025c8493613c1b565b9261024c565b604051828282376020818481016001815203019020838552602052600160408520015461025257602083604051908152f35b505b80fd5b50346102965760206102aa36613493565b92909182604051938492833781016002815203019020908252602052604081209060405191818154916102dc83613a77565b808652926001811690811561035d575060011461031c575b61031885610304818703826136e2565b604051918291602083526020830190613674565b0390f35b815260208120939250905b80821061034357509091508101602001610304826103186102f4565b919260018160209254838588010152019101909291610327565b8695506103189693506020925061030494915060ff191682840152151560051b82010192936102f4565b503461029657602036600319011261029657600435906001600160401b0382116102965760206103c36103bd366004860161340a565b90614134565b6040519015158152f35b503461029657806103dd366134c5565b9697998b9d9491969295939a8a829d9b9e9b600d546001600160a01b031693369061040792613933565b90604051809160208201936060855260808301600d905260a083016c3bb4ba34323930bba7b33332b960991b90526040830160a0905260c0830161044a91613674565b90606083015203601f198101825261046290826136e2565b51902092823b156106f1578b6104958896928d9888946040519a8b998a988997637d3d171560e11b89526004890161380b565b03925af180156106e6576106cd575b5050604051878a82376020818981016001815203019020888b526020526001600160a01b0360408b2054166001600160a01b038616036106be579061051994939291866106aa575b5050505060405184878237602081868101600181520301902085885260205260026040882001549061445a565b604051828582376020818481016001815203019020838652602052604085206001600160601b0360a01b8154169055600460206001600160a01b03600d5416604051928380926309a69f5760e01b82525afa90811561069f578691610669575b5060405183868237602081858101600181520301902084875260205260026040872001548080046001148115171561065557916105c16105c69261031c6105cc950490613722565b613722565b3361445a565b6040518184823760208183810160018152030190208285526020526020600260408620015493826040519384928337810160018152030190209083526020526002604083200154808004600114811517156106415761063c9160c7610635920460021c90613722565b825461372f565b815580f35b634e487b7160e01b83526011600452602483fd5b634e487b7160e01b87526011600452602487fd5b90506020813d602011610697575b81610684602093836136e2565b8101031261069357515f610579565b5f80fd5b3d9150610677565b6040513d88823e3d90fd5b6106b5938786614188565b5f8080806104ec565b630504ed8560e21b8a5260048afd5b816106d7916136e2565b6106e257895f6104a4565b8980fd5b6040513d84823e3d90fd5b8680fd5b5034610296578061072b610708366134c5565b999b95929d949391978b9d8d929a9c6001600160a01b03600d5416933691613933565b8c610792604051809261077e602083019560608752601460808501527f72656d6f7665437573746f6d4d6574616461746100000000000000000000000060a085015260a0604085015260c0840190613674565b90606083015203601f1981018352826136e2565b51902092823b156106f157876107c58896928b9888946040519a8b998a988997637d3d171560e11b89526004890161380b565b03925af180156106e657610a97575b50506001600160a01b03604051888a82376020818a8101600c81520301902054166001600160a01b03821603610a8857856002604051898b82376020818b8101600c81520301902001541115610a7957908861083b959493926108356138a0565b90614286565b80600260405184868237602081868101600c8152030190200154145f146109b95760029260209160405184838237838186810188815203019020908752825261088660408720613aca565b8260405193849283378101600c81520301902001805480156109a5575f190190556001600160a01b03600d5416604051630a1ad2d160e21b8152336004820152602081602481855afa90811561099a57849161096b575b506108e6578280f35b6020600491604051928380926309a69f5760e01b82525afa90811561096057839161092e575b508060050290600582040361064157610928916105c691613722565b5f808280f35b90506020813d602011610958575b81610949602093836136e2565b8101031261069357515f61090c565b3d915061093c565b6040513d85823e3d90fd5b61098d915060203d602011610993575b61098581836136e2565b810190613888565b5f6108dd565b503d61097b565b6040513d86823e3d90fd5b634e487b7160e01b84526011600452602484fd5b600260405183858237602081858101600c8152030190200154811015610a3457604051828482376020818481016002815203019020600182018083116106555790600192918752602052610a2e6040872060405185878237602081878101600281520301902083895260205260408820614055565b016109b9565b5060206002926040518382823782818581018781520301902084604051858482378481878101600c815203019020015487528252610a7460408720613aca565b610886565b630eda9c3d60e31b8a5260048afd5b6322de326160e11b8a5260048afd5b81610aa1916136e2565b6106e257895f6107d4565b50346102965780610abc36613587565b97988a9b99610ae3829e96939997959c6001600160a01b03600d9a969a5416933691613933565b604051610b3281610b24602082019460408652600d60608401526c72656e6577557365726e616d6560981b60808401526080604084015260a0830190613674565b03601f1981018352826136e2565b51902092823b156106f1578b610b658896928a9888946040519a8b998a988997637d3d171560e11b89526004890161380b565b03925af180156106e657610d9b575b50506001600160a01b03604051898982376020818b8101600c81520301902054166001600160a01b03861603610d8c5760405188888237600c818a0190815281900360200190206004015460f81b6001600160f81b031916600160f81b14610d7d576001604051898982376020818b8101600c815203019020015463bbf81e00420190814211610d695711610d5a5790610c1c93929186610c158a8a613c29565b8097614286565b6001600160a01b03600d5416604051630a1ad2d160e21b8152336004820152602081602481855afa908115610d4f578791610d30575b50610c8a575b5050509060206001928260405193849283378101600c815203019020018054906301e285008201809211610641575580f35b906020600492604051938480926309a69f5760e01b82525afa91821561069f578692610cfc575b50603281029080820460321490151715610ce8576105c66020936105c160019796946064610ce0950490613722565b91925f610c58565b634e487b7160e01b86526011600452602486fd5b9091506020813d602011610d28575b81610d18602093836136e2565b810103126106935751905f610cb1565b3d9150610d0b565b610d49915060203d6020116109935761098581836136e2565b5f610c52565b6040513d89823e3d90fd5b6356657c2160e01b8952600489fd5b634e487b7160e01b8b52601160045260248bfd5b631591d30560e11b8952600489fd5b6322de326160e11b8952600489fd5b81610da5916136e2565b610db057885f610b74565b8880fd5b50346102965780600319360112610296576001600160a01b03600a5416338103610e3557600b544210610e26578160408051610def816136c7565b83815282602082015201526001600160601b0360a01b60095416176009556001600160601b0360a01b600a5416600a5580600b5580f35b63018a18db60e51b8252600482fd5b632dba366760e21b8252600482fd5b50346102965780600319360112610296576001600160a01b0360095416803303610e88576005544210610e2657600454610e7d9161445a565b806004558060055580f35b636587b01b60e11b8252600482fd5b5034610296576020366003190112610296576004356001600160401b03811161029457610ec890369060040161340a565b600360405182848237602081848101600c815203019020015490610eeb82613f41565b91610ef960405193846136e2565b808352610f08601f1991613f41565b01845b81811061100d575050835b600360405183868237602081858101600c8152030190200154811015610f9f57600190604051838682376020818581018581520301902081875260205260408620600260405191610f66836136c7565b6001600160a01b03815416835284810154602084015201546040820152610f8d8286613f58565b52610f988185613f58565b5001610f16565b8285604051918291602083016020845282518091526020604085019301915b818110610fcc575050500390f35b919350916020606082610fff6001948851604080916001600160a01b038151168452602081015160208501520151910152565b019401910191849392610fbe565b602090611018613915565b82828701015201610f0b565b5034610296578060031936011261029657604060045460055482519182526020820152f35b50346102965780600319360112610296576001600160a01b0360095416330361107757806004558060055580f35b636587b01b60e11b8152600490fd5b503461029657602036600319011261029657600435906001600160401b03821161029657604060016110bb366004860161340a565b60206001600160a01b038594939451838682378281858101600c81520301902054169382865193849283378101600c815203019020015482519182526020820152f35b503461029657602061111861111236613493565b91614026565b604051908152f35b503461029657602036600319011261029657600435906001600160401b038211610296576020611118611156366004860161340a565b90613f80565b5034610296576020366003190112610296576004356001600160401b0381116102945761118d90369060040161340a565b91600260405184848237602081868101600c8152030190200154926111b184613f41565b936111bf60405195866136e2565b8085526111ce601f1991613f41565b01825b818110611338575050815b600260405183868237602081858101600c81520301902001548110156112d1576040518285823760208184810160028152030190208184526020526040832060405190849080549061122d82613a77565b80855291600181169081156112aa5750600114611273575b505090611257816001949303826136e2565b6112618288613f58565b5261126c8187613f58565b50016111dc565b8652602086208692505b818310611294575050810160200161125782611245565b600181602092548386880101520192019161127d565b60ff191660208087019190915292151560051b850190920192506112579150839050611245565b84836040519182916020830160208452825180915260408401602060408360051b870101940192905b82821061130957505050500390f35b919360019193955060206113288192603f198a82030186528851613674565b96019201920185949391926112fa565b8060606020809389010152016111d1565b50346102965761016036600319011261029657611364613437565b6024356001600160401b0381116117785761138390369060040161340a565b61138b613463565b9260a435936001600160a01b03851685036117745760e4356001600160401b0381116106f1576113bf90369060040161340a565b91909587610144356001600160401b038111610294576113e390369060040161340a565b94909382996001600160a01b03600d54166113ff368b8d613933565b60405161145a8161143c602082019460808652600960a08401526836b0b5b2a7b33332b960b91b60c084015260c0604084015260e0830190613674565b6044356060830152606435608083015203601f1981018352826136e2565b519020813b156117745785809461148f8c978a96604051998a9889978896637d3d171560e11b885260c435936004890161380b565b03925af180156106e65761175b575b505060405185878237600c81870190815281900360200190206004015460f81b6001600160f81b031916600160f81b14801561174a575b61173b5742606435111561172c576044351561171d579061150692916101249794973590610104356044358a614286565b6040518284823760208184810160018152030190208186526020526001600160a01b03604086205416156115425761153d90613c1b565b611506565b926103e36044350260443581046103e303610ce8576103e89004906001600160a01b0360405191611572836136c7565b16815260026020820160643581526040830190848252604051868882376020818881016001815203019020888a526020526001600160a01b038060408b20955116166001600160601b0360a01b85541617845551600184015551910155600460206001600160a01b03600d5416604051928380926309a69f5760e01b82525afa90811561069f5786916116eb575b50607d60443502906044358204607d0361065557602096926116396105c661164d946105c161164695620186a061010435930490613722565b6103206044350490613722565b8254613722565b90556003604051828482378581848101600c815203019020015483115f1461169b57836003928260405193849283378101600c815203019020016116918154613c1b565b9055604051908152f35b6003604051828482378581848101600c8152030190200154156116c0575b5050611118565b836003928260405193849283378101600c815203019020016116e28154613c1b565b90555f806116b9565b90506020813d602011611715575b81611706602093836136e2565b8101031261069357515f611600565b3d91506116f9565b635e85ae7360e01b8852600488fd5b632cce8b5d60e21b8852600488fd5b630a1de65160e31b8852600488fd5b506117558587613b19565b156114d5565b81611765916136e2565b61177057875f61149e565b8780fd5b8580fd5b8280fd5b503461029657602036600319011261029657611796613437565b6001600160a01b03600954163303610e88576001600160a01b031680156117f1576001600160601b0360a01b60075416176007556201518042018042116117dd5760085580f35b634e487b7160e01b82526011600452602482fd5b63203e99b760e21b8252600482fd5b613479565b50346102965761183b90611818366134c5565b979195939096948b9e8b9d9c6001600160a01b03600d9d969d5416953691613933565b60405161188d818d61077e602083019560608752601460808501527f726567697374726174696f6e557365726e616d6500000000000000000000000060a085015260a0604085015260c0840190613674565b51902094843b15611bc7578c8f95936118c3908998969488946040519a8b998a988997637d3d171560e11b89526004890161380b565b03925af18015611bbc57908a91611ba7575b50506001600160a01b0360095416966001600160a01b0381168098141580611b8d575b611b7e57611906898c614134565b15611b6f57936119309361193a96936119299389611935988f8e61083591613f80565b8689614026565b614379565b61384e565b9160405193816001600160a01b0385519660208181890199808b835e8101600c815203019020541614801590611b4d575b611b3e576301e2850042018042116106555791869760049288946040519361199285613698565b8452602084019081526001600160a01b03806040860193888552602060608801968a8852608089019a8b528260405193849283378101600c815203019020955116166001600160601b0360a01b85541617845551600184015551600283015551600382015501905160f81c60ff198254161790556001600160a01b03600d5416604051630a1ad2d160e21b8152336004820152602081602481855afa90811561069f578691611b1f575b50611a79575b5050906020600492604051928391518091835e8101600c815203019020828155826001820155826002820155826003820155015580f35b60049192939450602090604051928380926309a69f5760e01b82525afa908115611b14578591611ae2575b5080603202906032820403611ace57600492611ac76105c6879694602094613722565b9192611a42565b634e487b7160e01b85526011600452602485fd5b90506020813d602011611b0c575b81611afd602093836136e2565b8101031261069357515f611aa4565b3d9150611af0565b6040513d87823e3d90fd5b611b38915060203d6020116109935761098581836136e2565b5f611a3c565b6321efd8cf60e11b8652600486fd5b5060016040516020818751808a835e8101600c8152030190200154421061196b565b633efbb39b60e11b8a5260048afd5b630a1de65160e31b8a5260048afd5b50611ba1611b9c368b8e613933565b6144f0565b156118f8565b81611bb1916136e2565b610db057885f6118d5565b6040513d8c823e3d90fd5b8e80fd5b50346102965780600319360112610296576001600160a01b03600954163303611077576001600160601b0360a01b600a5416600a5580600b5580f35b503461029657602036600319011261029657600435906001600160401b0382116102965760206103c3611c3d366004860161340a565b90613e91565b50346102965780611c5336613587565b98809b95939c949198611c788c6001600160a01b03600d9b9a969b5416933691613933565b604051611cbf81610b246020820194604086526013606084015272666c757368437573746f6d4d6574616461746160681b60808401526080604084015260a0830190613674565b51902092823b156106f15787611cf28896928b9888946040519a8b998a988997637d3d171560e11b89526004890161380b565b03925af180156106e657611ee5575b50506001600160a01b03604051888882376020818a8101600c81520301902054166001600160a01b03821603610d8c576002604051888882376020818a8101600c815203019020015415611ed6579087611d6295949392610835898961374f565b835b84600260405185858237602081878101600c8152030190200154821015611db65750600190604051848482376020818681016002815203019020818752602052611db060408720613aca565b01611d64565b9390506001600160a01b03600d5416604051630a1ad2d160e21b8152336004820152602081602481855afa90811561069f578691611eb7575b50611e15575b50509060206002928260405193849283378101600c815203019020015580f35b60049192939450602090604051928380926309a69f5760e01b82525afa908115611b14578591611e85575b5080600502906005820403611ace57600292611e7e6105c68796946105c1602095886040518988823788818b8101600c81520301902001549061373c565b9192611df5565b90506020813d602011611eaf575b81611ea0602093836136e2565b8101031261069357515f611e40565b3d9150611e93565b611ed0915060203d6020116109935761098581836136e2565b5f611def565b6334b7a09160e01b8952600489fd5b81611eef916136e2565b610db057885f611d01565b61363f565b503461029657602036600319011261029657600435906001600160401b038211610296576020611118611f35366004860161340a565b90613c29565b50346102965761014036600319011261029657611f56613437565b6024356001600160401b03811161177857611f7590369060040161340a565b916044356001600160401b03811161238357611f9590369060040161340a565b9091611f9f61344d565b611fa7613463565b9060c4356001600160401b038111610db057611fc790369060040161340a565b9390928960e4359561012435946001600160401b03861161177857612019968c8a610b246120778f9a8f61200261202192369060040161340a565b9e909d6001600160a01b03600d5416973691613933565b943691613933565b6040519283916120656020840196606088526011608086015270616464437573746f6d4d6574616461746160781b60a086015260a0604086015260c0850190613674565b838103601f1901606085015290613674565b519020813b15611774578580946120ac8a978a96604051998a9889978896637d3d171560e11b885260a435936004890161380b565b03925af180156106e65761236e575b50506001600160a01b036040518a8a82376020818c8101600c81520301902054166001600160a01b03831603610a8857851561235f57906121069392918561010435926108356138a0565b6001600160a01b03600d5416604051630a1ad2d160e21b8152336004820152602081602481855afa908115612354578891612335575b50612283575b5050604051848482376020818681016002815203019020600260405186868237602081888101600c8152030190200154865260205260408520916001600160401b03821161226f5761219e826121988554613a77565b85613bce565b8590601f831160011461220557826002969593602095936121d4938a926121fa575b50508160011b915f199060031b1c19161790565b90555b8260405193849283378101600c815203019020016121f58154613c1b565b905580f35b013590505f806121c0565b8387526020872091601f198416885b81811061225757509260019285926002999896602098961061223e575b505050811b0190556121d7565b01355f19600384901b60f8161c191690555f8080612231565b91936020600181928787013581550195019201612214565b634e487b7160e01b86526041600452602486fd5b6020600491604051928380926309a69f5760e01b82525afa908115610d4f578791612303575b5080600502906005820403610655576122c06138a0565b6032810290808204603214901517156122ef57916105c16105c69260646122e8950490613722565b5f80612142565b634e487b7160e01b88526011600452602488fd5b90506020813d60201161232d575b8161231e602093836136e2565b8101031261069357515f6122a9565b3d9150612311565b61234e915060203d6020116109935761098581836136e2565b5f61213c565b6040513d8a823e3d90fd5b6334b7a09160e01b8a5260048afd5b81612378916136e2565b6106e257895f6120bb565b8480fd5b503461029657602036600319011261029657600435906001600160401b0382116102965760206103c36123bd366004860161340a565b90613b19565b503461029657806003193601126102965760206001600160a01b0360095416604051908152f35b503461029657806123fa36613587565b98809b95939c94919861241f8c6001600160a01b03600d9b9a969b5416933691613933565b60405161246081610b24602082019460408652600d60608401526c666c757368557365726e616d6560981b60808401526080604084015260a0830190613674565b51902092823b156106f157876124938896928b9888946040519a8b998a988997637d3d171560e11b89526004890161380b565b03925af180156106e6576126d7575b50506001600160a01b03604051888882376020818a8101600c81520301902054166001600160a01b03821603610d8c576001604051888882376020818a8101600c81520301902001544210156126c85760405187878237600c81890190815281900360200190206004015460f81b6001600160f81b031916600160f81b14610d7d579087612537959493926108358989613978565b835b600260405184848237602081868101600c81520301902001548110156125895760019060405184848237602081868101600281520301902081875260205261258360408720613aca565b01612539565b5091600460206001600160a01b03600d5416604051928380926309a69f5760e01b82525afa908115611b14578591612696575b5080600502906005820403611ace576105c6600493926105c16125f8936002604051878a8237602081898101600c81520301902001549061373c565b600360405182858237602081848101600c81520301902001546040519161261e83613698565b858352602083018681526001600160a01b0380604086019389855260608701958652602060808801998b8b528260405193849283378101600c815203019020955116166001600160601b0360a01b85541617845551600184015551600283015551600382015501905160f81c60ff1982541617905580f35b90506020813d6020116126c0575b816126b1602093836136e2565b8101031261069357515f6125bc565b3d91506126a4565b637d3b450560e11b8952600489fd5b816126e1916136e2565b610db057885f6124a2565b5034610296578060031936011261029657600654600754600854604080516001600160a01b03948516815293909216602084015290820152606090f35b5034610296578060031936011261029657600954600a54600b54604080516001600160a01b03948516815293909216602084015290820152606090f35b503461029657602036600319011261029657600435906001600160401b03821161029657602061111861279c366004860161340a565b90613978565b503461029657806127b2366134c5565b9697998b9d9491969295939a8a829d9b9e9b600d546001600160a01b03169336906127dc92613933565b90604051809160208201936060855260808301600b905260a083016a30b1b1b2b83a27b33332b960a91b90526040830160a0905260c0830161281d91613674565b90606083015203601f198101825261283590826136e2565b51902092823b156106f1578b6128688896928d9888946040519a8b998a988997637d3d171560e11b89526004890161380b565b03925af180156106e657612b47575b50506001600160a01b03604051888b82376020818a8101600c81520301902054166001600160a01b03861603610a8857604051878a82376020818981016001815203019020888b526020526001600160a01b0360408b205416158015612b1c575b612b0d579061291694939291866106aa575050505060405184878237602081868101600181520301902085885260205260026040882001549061445a565b6040518285823760208184810160018152030190208386526020526001600160a01b036040862054166001600160a01b0360405184878237602081868101600c81520301902091166001600160601b0360a01b825416179055604051828582376020818481016001815203019020838652602052604085206001600160601b0360a01b81541690556001600160a01b03600d5416604051630a1ad2d160e21b8152336004820152602081602481855afa908115610d4f578791612aee575b50612a45575b50506040518184823760208183810160018152030190208285526020526020600260408620015493826040519384928337810160018152030190209083526020526002604083200154808004600114811517156106415761063c9160c7610635920460021c90613722565b6020600491604051928380926309a69f5760e01b82525afa90811561069f578691612abc575b5060405183868237602081858101600181520301902084875260205260026040872001548080046001148115171561065557916105c16105c69260c7612ab5950460021c90613722565b5f806129da565b90506020813d602011612ae6575b81612ad7602093836136e2565b8101031261069357515f612a6b565b3d9150612aca565b612b07915060203d6020116109935761098581836136e2565b5f6129d4565b631388464960e01b8a5260048afd5b50604051878a82376020818981016001815203019020888b52602052600160408b20015442116128d8565b81612b51916136e2565b6106e257895f612877565b50346102965780600319360112610296576001600160a01b03600954163303611077576008544210612bf8576001600160a01b03600754168160408051612ba2816136c7565b83815282602082015201526001600160601b0360a01b60065416176006556001600160601b0360a01b60075416600755806008556001600160a01b03600654166001600160601b0360a01b600d541617600d5580f35b63018a18db60e51b8152600490fd5b50346102965760406060916020612c1d36613493565b929091612c28613915565b5082865193849283378101600181520301902090825260205220600260405191612c51836136c7565b6001600160a01b0381541683526001810154602084015201546040820152612c996040518092604080916001600160a01b038151168452602081015160208501520151910152565bf35b50346102965780600319360112610296576001600160a01b03600954163303611077576001600160601b0360a01b600754166007558060085580f35b503461029657602036600319011261029657600435906001600160401b038211610296576020600181612d0d366004870161340a565b91908260405193849283378101600c8152030190200154604051908152f35b50346106935761012036600319011261069357612d47613437565b602435604435916001600160a01b038316830361069357612d6661344d565b60a4356001600160401b03811161069357612d8590369060040161340a565b949060c43595610104356001600160401b03811161069357612dab90369060040161340a565b9390926001600160a01b03600d5416604051602081019060408252601760608201527f707265526567697374726174696f6e557365726e616d6500000000000000000060808201528a604082015260808152612e0860a0826136e2565b519020813b15610693575f8094612e3d8b978b96604051998a9889978896637d3d171560e11b8852608435936004890161380b565b03925af18015612ff757612fe2575b5085612fcb575b5050506107084201804211611ace57906004916001600160a01b0360405192612e7b84613698565b168252602082019081526040820186815260608301918783526001600160a01b0380602080612eb761193560808a019b600160f81b8d52614379565b604051928184925191829101835e8101600c815203019020955116166001600160601b0360a01b85541617845551600184015551600283015551600382015501905160f81c60ff198254161790556001600160a01b03600d5416604051630a1ad2d160e21b8152336004820152602081602481855afa90811561099a578491612fac575b50612f44578280f35b6020600491604051928380926309a69f5760e01b82525afa908115610960578391612f78575b50610928916105c691613722565b90506020813d602011612fa4575b81612f93602093836136e2565b810103126106935751610928612f6a565b3d9150612f86565b612fc5915060203d6020116109935761098581836136e2565b5f612f3b565b612fda9260e435908786614188565b5f8080612e53565b612fef9197505f906136e2565b5f955f612e4c565b6040513d5f823e3d90fd5b34610693575f3660031901126106935760206001600160a01b0360065416604051908152f35b34610693576020366003190112610693576004356001600160401b0381116106935761111861305d602092369060040161340a565b9061374f565b34610693575f36600319011261069357600460206001600160a01b03600d541660405192838092630be428a960e11b82525afa8015612ff7575f906130ae575b602090604051908152f35b506020813d6020116130d9575b816130c8602093836136e2565b8101031261069357602090516130a3565b3d91506130bb565b34610693576020366003190112610693576130fa613437565b6001600160a01b036009541690813303613179576001600160a01b031690811590811561316f575b50613160576001600160601b0360a01b600a541617600a5562015180420180421161314c57600b55005b634e487b7160e01b5f52601160045260245ffd5b6394aca82b60e01b5f5260045ffd5b9050811482613122565b636587b01b60e11b5f5260045ffd5b34610693576020366003190112610693576004356001600160401b038111610693576001600160a01b0360206131c38193369060040161340a565b91908260405193849283378101600c8152030190205416604051908152f35b34610693576020366003190112610693576004356001600160401b03811161069357613214602091369060040161340a565b5f916132208282613e91565b613238575b50506001600160a01b0360405191168152f35b6001600160a01b03925083908260405193849283378101600c81520301902054168280613225565b3461069357602036600319011261069357600435906001600160a01b0360095416330361317957600d5463280e32fb60e01b82526001600160a01b0316602082600481845afa918215612ff7575f926133d9575b506001600160a01b036040519263d4fac45d60e01b8452306004850152166024830152602082604481845afa918215612ff7575f926133a4575b506020600491604051928380926309a69f5760e01b82525afa908115612ff7575f91613372575b506113db01806113db1161314c57829161333461333a925f5490613722565b9061372f565b10801561336a575b61335b5760045562015180420180421161314c57600555005b630db73cdf60e41b5f5260045ffd5b508015613342565b90506020813d60201161339c575b8161338d602093836136e2565b81010312610693575183613315565b3d9150613380565b9091506020813d6020116133d1575b816133c0602093836136e2565b8101031261069357519060206132ee565b3d91506133b3565b6133fc91925060203d602011613403575b6133f481836136e2565b810190613703565b90836132b4565b503d6133ea565b9181601f84011215610693578235916001600160401b038311610693576020838186019501011161069357565b600435906001600160a01b038216820361069357565b606435906001600160a01b038216820361069357565b608435906001600160a01b038216820361069357565b34610693575f3660031901126106935760206111186138a0565b604060031982011261069357600435906001600160401b038211610693576134bd9160040161340a565b909160243590565b90610140600319830112610693576004356001600160a01b038116810361069357916024356001600160401b03811161069357816135059160040161340a565b92909291604435916064356001600160a01b038116810361069357916084356001600160a01b0381168103610693579160a4359160c4356001600160401b03811161069357816135579160040161340a565b9290929160e43591610104359161012435906001600160401b038211610693576135839160040161340a565b9091565b610120600319820112610693576004356001600160a01b038116810361069357916024356001600160401b03811161069357826135c69160040161340a565b929092916044356001600160a01b038116810361069357916064356001600160a01b038116810361069357916084359160a4356001600160401b03811161069357816136149160040161340a565b9290929160c4359160e4359161010435906001600160401b038211610693576135839160040161340a565b34610693576020366003190112610693576004356001600160401b0381116106935760026020612d0d8193369060040161340a565b805180835260209291819084018484015e5f828201840152601f01601f1916010190565b60a081019081106001600160401b038211176136b357604052565b634e487b7160e01b5f52604160045260245ffd5b606081019081106001600160401b038211176136b357604052565b90601f801991011681019081106001600160401b038211176136b357604052565b9081602091031261069357516001600160a01b03811681036106935790565b9190820180921161314c57565b9190820391821161314c57565b8181029291811591840414171561314c57565b60049060206001600160a01b03600d5416604051938480926309a69f5760e01b82525afa918215612ff7575f926137b7575b5081600a0291600a83040361314c578260206002926137b49560405193849283378101600c81520301902001549061373c565b90565b9091506020813d6020116137e3575b816137d3602093836136e2565b810103126106935751905f613781565b3d91506137c6565b908060209392818452848401375f828201840152601f01601f1916010190565b929360e0946001600160a01b036137b499979481809516875216602086015260408501521660608301526080820152600160a08201528160c082015201916137eb565b906138866021602093604051948591600160fe1b828401528051918291018484015e81015f838201520301601f1981018452836136e2565b565b90816020910312610693575180151581036106935790565b600460206001600160a01b03600d5416604051928380926309a69f5760e01b82525afa908115612ff7575f916138e3575b5080600a0290600a82040361314c5790565b90506020813d60201161390d575b816138fe602093836136e2565b8101031261069357515f6138d1565b3d91506138f1565b60405190613922826136c7565b5f6040838281528260208201520152565b9291926001600160401b0382116136b3576040519161395c601f8201601f1916602001846136e2565b829481845281830111610693578281602093845f960137010152565b6001600160a01b03600d541690604051926309a69f5760e01b8452602084600481865afa938415612ff7575f94613a43575b5083600a0293600a85040361314c57600493600282602080956139e19560405193849283378101600c81520301902001549061373c565b91604051938480926309a69f5760e01b82525afa908115612ff7575f91613a0d575b6137b49250613722565b90506020823d602011613a3b575b81613a28602093836136e2565b81010312610693576137b4915190613a03565b3d9150613a1b565b9093506020813d602011613a6f575b81613a5f602093836136e2565b810103126106935751925f6139aa565b3d9150613a52565b90600182811c92168015613aa5575b6020831014613a9157565b634e487b7160e01b5f52602260045260245ffd5b91607f1691613a86565b5f5b828110613abd57505050565b5f82820155600101613ab1565b613ad48154613a77565b9081613ade575050565b81601f5f9311600114613aef575055565b81835260208320613b0c91601f0160051c84190190600101613aaf565b8082528160208120915555565b9060405181838237600c81830190815281900360200190206004015460f81b6001600160f81b031916600160f81b03613ba9576001600160a01b0360405182848237602081848101600c815203019020541615918215613b84575b505015613b7f575f90565b600190565b600192506020908260405193849283378101600c815203019020015415155f80613b74565b60206001928260405193849283378101600c8152030190200154155f14613b7f575f90565b91601f8211613bdc57505050565b808211613be857505050565b613886925f5260205f20916020601f830160051c9210613c13575b601f82910160051c039101613aaf565b5f9150613c03565b5f19811461314c5760010190565b905f91600160405183838237600c848201908152819003602001902001544211613e15576040518282823760208184810160018152030190205f8052602052600160405f200154613d27575b505080613c8a5750681b1ae4d6e2ef50000090565b60049060206001600160a01b03600d5416604051938480926309a69f5760e01b82525afa918215612ff7575f92613cf3575b506005810290810460050361314c576103e89004816207a12002916207a12083040361314c5781811115613cee575090565b905090565b9091506020813d602011613d1f575b81613d0f602093836136e2565b810103126106935751905f613cbc565b3d9150613d02565b5f5b600360405184848237602081868101600c8152030190200154811015613e0b57604051838382376020818581016001815203019020815f5260205242600160405f2001541180613dda575b613d81575b600101613d29565b604051838382376020818581016001815203019020815f5260205283600260405f2001541115613d79579250604051828282376020818481016001815203019020835f526020526001600260405f200154939050613d79565b50604051838382376020818581016001815203019020815f526020526001600160a01b0360405f2054161515613d74565b5050505f80613c75565b505050600460206001600160a01b03600d5416604051928380926309a69f5760e01b82525afa908115612ff7575f91613e5f575b50806207a12002906207a12082040361314c5790565b90506020813d602011613e89575b81613e7a602093836136e2565b8101031261069357515f613e49565b3d9150613e6d565b9060405181838237600c81830190815281900360200190206004015460f81b6001600160f81b031916600160f81b03613f1c576001600160a01b0360405182848237602081848101600c815203019020541615918215613ef7575b505015613b7f575f80fd5b600192506020908260405193849283378101600c815203019020015415155f80613eec565b60206001928260405193849283378101600c8152030190200154155f14613b7f575f80fd5b6001600160401b0381116136b35760051b60200190565b8051821015613f6c5760209160051b010190565b634e487b7160e01b5f52603260045260245ffd5b90600360405182848237600c8382019081528190036020019020015415613faa576137b491613c29565b5050600460206001600160a01b03600d5416604051928380926309a69f5760e01b82525afa908115612ff7575f91613ff4575b5060648102908082046064149015171561314c5790565b90506020813d60201161401e575b8161400f602093836136e2565b8101031261069357515f613fdd565b3d9150614002565b919060208061404f926040519481869284840198893782019083820152030180845201826136e2565b51902090565b91909182811461412f576140698354613a77565b6001600160401b0381116136b35761408b816140858454613a77565b84613bce565b5f93601f82116001146140c9576140ba92939482915f926140be5750508160011b915f199060031b1c19161790565b9055565b015490505f806121c0565b601f198216905f5260205f2094835f5260205f20915f5b818110614117575095836001959697106140ff575b505050811b019055565b01545f1960f88460031b161c191690555f80806140f5565b9192600180602092868b0154815501940192016140e0565b509050565b90600160405182848237602081848101600c8152030190200154155f1461415c575050600190565b60206001928260405193849283378101600c8152030190200154624f1a00810180911161314c57421190565b9192909493946001600160a01b03600d5416926040519463280e32fb60e01b8652602086600481885afa958615612ff7575f96614265575b50843b15610693576001600160a01b03975f9789958661424a948b976040519d8e9c8d9b8c9a63487e5a7760e11b8c521660048b01523060248b015261016060448b01528a6101648b015216606489015288608489015260a48801523060c48801521660e486015261010485015260016101248501526101806101448501526101848401916137eb565b03925af18015612ff75761425b5750565b5f613886916136e2565b61427f91965060203d602011613403576133f481836136e2565b945f6141c0565b600d5460405163280e32fb60e01b815295966001600160a01b0390911694929390602087600481895afa968715612ff7575f97614347575b50853b15610693576001600160a01b03985f988a8a9661424a9582996040519e8f9d8e9c8d9b63487e5a7760e11b8d521660048c01523060248c015261016060448c01528b6101648c01521660648a0152608489015260a48801523060c48801521660e486015261010485015260016101248501526101806101448501526101848401916137eb565b61436191975060203d602011613403576133f481836136e2565b955f6142be565b908151811015613f6c570160200190565b604051906143886080836136e2565b60428252602082016060368237825115613f6c5760309053815160011015613f6c57607860218301535f5b602081106143c057505090565b81811a90600482901c600f166010811015613f6c578160011b928284046002148315171561314c57836002018060021161314c57600f926f181899199a1a9b1b9c1cb0b131b232b360811b901a906144189088614368565b5316916010831015613f6c576003018060031161314c576001926f181899199a1a9b1b9c1cb0b131b232b360811b901a906144539086614368565b53016143b3565b600d5460405163280e32fb60e01b815292906001600160a01b0316602084600481845afa938415612ff7575f946144cf575b50803b156106935760405163c898a6e960e01b81526001600160a01b03938416600482015293909216602484015260448301525f9082908183816064810161424a565b6144e991945060203d602011613403576133f481836136e2565b925f61448c565b80516004811061455f5715613f6c576020810151614517906001600160f81b0319166145a4565b1561459f575f5b8151811015614598576001600160f81b031961453a8284614368565b5116600360fc1b8110159081614589575b501580614565575b61455f5760010161451e565b50505f90565b506145836001600160f81b031961457c8385614368565b51166145a4565b15614553565b603960f81b101590505f61454b565b5050600190565b505f90565b60ff60f81b16604160f81b81101590816145e2575b81156145c3575090565b606160f81b8110159150816145d6575090565b603d60f91b1015905090565b602d60f91b81111591506145b956fea26469706673582212200394b24bebc7e0da5e621acd9bc3d368bceba007a21ed83a6b3d974ef6028fef64736f6c63430008210033","linkReferences":{}},"methodIdentifiers":{"acceptChangeEvvmAddress()":"48ffba55","acceptOffer(address,string,uint256,address,address,uint256,bytes,uint256,uint256,bytes)":"53462f82","acceptProposeAdmin()":"eba5e53e","addCustomMetadata(address,string,string,address,address,uint256,bytes,uint256,uint256,bytes)":"71e604f8","cancelChangeEvvmAddress()":"24866f15","cancelProposeAdmin()":"88ecb91f","cancelWithdrawPrincipalTokens()":"cf1dc146","claimWithdrawPrincipalTokens()":"e7849f62","flushCustomMetadata(address,string,address,address,uint256,bytes,uint256,uint256,bytes)":"7d0d9608","flushUsername(address,string,address,address,uint256,bytes,uint256,uint256,bytes)":"5f94da09","getAdmin()":"6e9960c3","getAdminFullDetails()":"5548a762","getAmountOfCustomMetadata(string)":"6b5bb1ca","getCoreAddress()":"2096b768","getCoreAddressFullDetails()":"570b245b","getCustomMetadataMaxSlotsOfIdentity(string)":"7bd9da7a","getEvvmID()":"17c85152","getExpireDateOfIdentity(string)":"22afca38","getFullCustomMetadataOfIdentity(string)":"b19517dd","getIdentityBasicMetadata(string)":"c97da33e","getLengthOfOffersUsername(string)":"fe7ab683","getOffersOfUsername(string)":"d7fd3134","getOwnerOfIdentity(string)":"0d3dcb9f","getPriceOfRegistration(string)":"bc91a428","getPriceToAddCustomMetadata()":"36e7a1b8","getPriceToFlushCustomMetadata(string)":"1f4131fb","getPriceToFlushUsername(string)":"54dc585d","getPriceToRemoveCustomMetadata()":"99e7bac2","getProposedWithdrawAmountFullDetails()":"d2234a1a","getSingleCustomMetadataOfIdentity(string,uint256)":"f6d0ecbe","getSingleOfferOfUsername(string,uint256)":"43a82d67","hashUsername(string,uint256)":"bcd5a47c","isUsernameAvailable(string)":"f69c6dec","makeOffer(address,string,uint256,uint256,address,address,uint256,bytes,uint256,uint256,bytes)":"b0bf2e10","preRegistrationUsername(address,bytes32,address,address,uint256,bytes,uint256,uint256,bytes)":"22abdafa","proposeAdmin(address)":"147bf6c4","proposeChangeEvvmAddress(address)":"a6ba51ca","proposeWithdrawPrincipalTokens(uint256)":"007802df","registrationUsername(address,string,uint256,address,address,uint256,bytes,uint256,uint256,bytes)":"8ffe264e","removeCustomMetadata(address,string,uint256,address,address,uint256,bytes,uint256,uint256,bytes)":"ecdc7aff","renewUsername(address,string,address,address,uint256,bytes,uint256,uint256,bytes)":"ebee75fc","seePriceToRenew(string)":"75dab53b","strictVerifyIfIdentityExist(string)":"86c8ac58","verifyIfIdentityExists(string)":"7126b2a3","verifyStrictAndGetOwnerOfIdentity(string)":"0c78d2c6","withdrawOffer(address,string,uint256,address,address,uint256,bytes,uint256,uint256,bytes)":"f5e993f5"},"id":64}