{"abi":[{"type":"constructor","inputs":[{"name":"_coreAddress","type":"address","internalType":"address"},{"name":"_stakingAddress","type":"address","internalType":"address"},{"name":"_owner","type":"address","internalType":"address"}],"stateMutability":"nonpayable"},{"type":"function","name":"acceptFillFixedPercentage","inputs":[],"outputs":[],"stateMutability":"nonpayable"},{"type":"function","name":"acceptFillPropotionalPercentage","inputs":[],"outputs":[],"stateMutability":"nonpayable"},{"type":"function","name":"acceptMaxLimitFillFixedFee","inputs":[],"outputs":[],"stateMutability":"nonpayable"},{"type":"function","name":"acceptOwner","inputs":[],"outputs":[],"stateMutability":"nonpayable"},{"type":"function","name":"acceptPercentageFee","inputs":[],"outputs":[],"stateMutability":"nonpayable"},{"type":"function","name":"acceptWithdrawal","inputs":[],"outputs":[],"stateMutability":"nonpayable"},{"type":"function","name":"addBalance","inputs":[{"name":"_token","type":"address","internalType":"address"},{"name":"_amount","type":"uint256","internalType":"uint256"}],"outputs":[],"stateMutability":"nonpayable"},{"type":"function","name":"cancelOrder","inputs":[{"name":"user","type":"address","internalType":"address"},{"name":"tokenA","type":"address","internalType":"address"},{"name":"tokenB","type":"address","internalType":"address"},{"name":"orderId","type":"uint256","internalType":"uint256"},{"name":"senderExecutor","type":"address","internalType":"address"},{"name":"originExecutor","type":"address","internalType":"address"},{"name":"nonce","type":"uint256","internalType":"uint256"},{"name":"signature","type":"bytes","internalType":"bytes"},{"name":"priorityFeePay","type":"uint256","internalType":"uint256"},{"name":"noncePay","type":"uint256","internalType":"uint256"},{"name":"signaturePay","type":"bytes","internalType":"bytes"}],"outputs":[],"stateMutability":"nonpayable"},{"type":"function","name":"dispatchOrder_fillFixedFee","inputs":[{"name":"user","type":"address","internalType":"address"},{"name":"tokenA","type":"address","internalType":"address"},{"name":"tokenB","type":"address","internalType":"address"},{"name":"orderId","type":"uint256","internalType":"uint256"},{"name":"amountOfTokenBToFill","type":"uint256","internalType":"uint256"},{"name":"senderExecutor","type":"address","internalType":"address"},{"name":"originExecutor","type":"address","internalType":"address"},{"name":"nonce","type":"uint256","internalType":"uint256"},{"name":"signature","type":"bytes","internalType":"bytes"},{"name":"priorityFeePay","type":"uint256","internalType":"uint256"},{"name":"noncePay","type":"uint256","internalType":"uint256"},{"name":"signaturePay","type":"bytes","internalType":"bytes"},{"name":"maxFillFixedFee","type":"uint256","internalType":"uint256"}],"outputs":[],"stateMutability":"nonpayable"},{"type":"function","name":"dispatchOrder_fillPropotionalFee","inputs":[{"name":"user","type":"address","internalType":"address"},{"name":"tokenA","type":"address","internalType":"address"},{"name":"tokenB","type":"address","internalType":"address"},{"name":"orderId","type":"uint256","internalType":"uint256"},{"name":"amountOfTokenBToFill","type":"uint256","internalType":"uint256"},{"name":"senderExecutor","type":"address","internalType":"address"},{"name":"originExecutor","type":"address","internalType":"address"},{"name":"nonce","type":"uint256","internalType":"uint256"},{"name":"signature","type":"bytes","internalType":"bytes"},{"name":"priorityFeePay","type":"uint256","internalType":"uint256"},{"name":"noncePay","type":"uint256","internalType":"uint256"},{"name":"signaturePay","type":"bytes","internalType":"bytes"}],"outputs":[],"stateMutability":"nonpayable"},{"type":"function","name":"findMarket","inputs":[{"name":"tokenA","type":"address","internalType":"address"},{"name":"tokenB","type":"address","internalType":"address"}],"outputs":[{"name":"","type":"uint256","internalType":"uint256"}],"stateMutability":"view"},{"type":"function","name":"getAllMarketOrders","inputs":[{"name":"market","type":"uint256","internalType":"uint256"}],"outputs":[{"name":"orders","type":"tuple[]","internalType":"struct P2PSwapStructs.OrderForGetter[]","components":[{"name":"marketId","type":"uint256","internalType":"uint256"},{"name":"orderId","type":"uint256","internalType":"uint256"},{"name":"seller","type":"address","internalType":"address"},{"name":"amountA","type":"uint256","internalType":"uint256"},{"name":"amountB","type":"uint256","internalType":"uint256"}]}],"stateMutability":"view"},{"type":"function","name":"getAllMarketsMetadata","inputs":[],"outputs":[{"name":"","type":"tuple[]","internalType":"struct P2PSwapStructs.MarketInformation[]","components":[{"name":"tokenA","type":"address","internalType":"address"},{"name":"tokenB","type":"address","internalType":"address"},{"name":"maxSlot","type":"uint256","internalType":"uint256"},{"name":"ordersAvailable","type":"uint256","internalType":"uint256"}]}],"stateMutability":"view"},{"type":"function","name":"getBalanceOfContract","inputs":[{"name":"token","type":"address","internalType":"address"}],"outputs":[{"name":"","type":"uint256","internalType":"uint256"}],"stateMutability":"view"},{"type":"function","name":"getEvvmID","inputs":[],"outputs":[{"name":"","type":"uint256","internalType":"uint256"}],"stateMutability":"view"},{"type":"function","name":"getIfUsedAsyncNonce","inputs":[{"name":"user","type":"address","internalType":"address"},{"name":"nonce","type":"uint256","internalType":"uint256"}],"outputs":[{"name":"","type":"bool","internalType":"bool"}],"stateMutability":"view"},{"type":"function","name":"getMarketMetadata","inputs":[{"name":"market","type":"uint256","internalType":"uint256"}],"outputs":[{"name":"","type":"tuple","internalType":"struct P2PSwapStructs.MarketInformation","components":[{"name":"tokenA","type":"address","internalType":"address"},{"name":"tokenB","type":"address","internalType":"address"},{"name":"maxSlot","type":"uint256","internalType":"uint256"},{"name":"ordersAvailable","type":"uint256","internalType":"uint256"}]}],"stateMutability":"view"},{"type":"function","name":"getMaxLimitFillFixedFee","inputs":[],"outputs":[{"name":"","type":"uint256","internalType":"uint256"}],"stateMutability":"view"},{"type":"function","name":"getMaxLimitFillFixedFeeProposal","inputs":[],"outputs":[{"name":"","type":"uint256","internalType":"uint256"}],"stateMutability":"view"},{"type":"function","name":"getMyOrdersInSpecificMarket","inputs":[{"name":"user","type":"address","internalType":"address"},{"name":"market","type":"uint256","internalType":"uint256"}],"outputs":[{"name":"orders","type":"tuple[]","internalType":"struct P2PSwapStructs.OrderForGetter[]","components":[{"name":"marketId","type":"uint256","internalType":"uint256"},{"name":"orderId","type":"uint256","internalType":"uint256"},{"name":"seller","type":"address","internalType":"address"},{"name":"amountA","type":"uint256","internalType":"uint256"},{"name":"amountB","type":"uint256","internalType":"uint256"}]}],"stateMutability":"view"},{"type":"function","name":"getNextCurrentSyncNonce","inputs":[{"name":"user","type":"address","internalType":"address"}],"outputs":[{"name":"","type":"uint256","internalType":"uint256"}],"stateMutability":"view"},{"type":"function","name":"getOrder","inputs":[{"name":"market","type":"uint256","internalType":"uint256"},{"name":"orderId","type":"uint256","internalType":"uint256"}],"outputs":[{"name":"order","type":"tuple","internalType":"struct P2PSwapStructs.Order","components":[{"name":"seller","type":"address","internalType":"address"},{"name":"amountA","type":"uint256","internalType":"uint256"},{"name":"amountB","type":"uint256","internalType":"uint256"}]}],"stateMutability":"view"},{"type":"function","name":"getOwner","inputs":[],"outputs":[{"name":"","type":"address","internalType":"address"}],"stateMutability":"view"},{"type":"function","name":"getOwnerProposal","inputs":[],"outputs":[{"name":"","type":"address","internalType":"address"}],"stateMutability":"view"},{"type":"function","name":"getOwnerTimeToAccept","inputs":[],"outputs":[{"name":"","type":"uint256","internalType":"uint256"}],"stateMutability":"view"},{"type":"function","name":"getPercentageFee","inputs":[],"outputs":[{"name":"","type":"uint256","internalType":"uint256"}],"stateMutability":"view"},{"type":"function","name":"getPrincipalTokenAddress","inputs":[],"outputs":[{"name":"","type":"address","internalType":"address"}],"stateMutability":"view"},{"type":"function","name":"getProposalPercentageFee","inputs":[],"outputs":[{"name":"","type":"uint256","internalType":"uint256"}],"stateMutability":"view"},{"type":"function","name":"getProposedWithdrawal","inputs":[],"outputs":[{"name":"","type":"address","internalType":"address"},{"name":"","type":"uint256","internalType":"uint256"},{"name":"","type":"address","internalType":"address"},{"name":"","type":"uint256","internalType":"uint256"}],"stateMutability":"view"},{"type":"function","name":"getRewardPercentage","inputs":[],"outputs":[{"name":"","type":"tuple","internalType":"struct P2PSwapStructs.Percentage","components":[{"name":"seller","type":"uint256","internalType":"uint256"},{"name":"service","type":"uint256","internalType":"uint256"},{"name":"mateStaker","type":"uint256","internalType":"uint256"}]}],"stateMutability":"view"},{"type":"function","name":"getRewardPercentageProposal","inputs":[],"outputs":[{"name":"","type":"tuple","internalType":"struct P2PSwapStructs.Percentage","components":[{"name":"seller","type":"uint256","internalType":"uint256"},{"name":"service","type":"uint256","internalType":"uint256"},{"name":"mateStaker","type":"uint256","internalType":"uint256"}]}],"stateMutability":"view"},{"type":"function","name":"makeOrder","inputs":[{"name":"user","type":"address","internalType":"address"},{"name":"tokenA","type":"address","internalType":"address"},{"name":"tokenB","type":"address","internalType":"address"},{"name":"amountA","type":"uint256","internalType":"uint256"},{"name":"amountB","type":"uint256","internalType":"uint256"},{"name":"senderExecutor","type":"address","internalType":"address"},{"name":"originExecutor","type":"address","internalType":"address"},{"name":"nonce","type":"uint256","internalType":"uint256"},{"name":"signature","type":"bytes","internalType":"bytes"},{"name":"priorityFeePay","type":"uint256","internalType":"uint256"},{"name":"noncePay","type":"uint256","internalType":"uint256"},{"name":"signaturePay","type":"bytes","internalType":"bytes"}],"outputs":[{"name":"market","type":"uint256","internalType":"uint256"},{"name":"orderId","type":"uint256","internalType":"uint256"}],"stateMutability":"nonpayable"},{"type":"function","name":"proposeFillFixedPercentage","inputs":[{"name":"_seller","type":"uint256","internalType":"uint256"},{"name":"_service","type":"uint256","internalType":"uint256"},{"name":"_mateStaker","type":"uint256","internalType":"uint256"}],"outputs":[],"stateMutability":"nonpayable"},{"type":"function","name":"proposeFillPropotionalPercentage","inputs":[{"name":"_seller","type":"uint256","internalType":"uint256"},{"name":"_service","type":"uint256","internalType":"uint256"},{"name":"_mateStaker","type":"uint256","internalType":"uint256"}],"outputs":[],"stateMutability":"nonpayable"},{"type":"function","name":"proposeMaxLimitFillFixedFee","inputs":[{"name":"_maxLimitFillFixedFee","type":"uint256","internalType":"uint256"}],"outputs":[],"stateMutability":"nonpayable"},{"type":"function","name":"proposeOwner","inputs":[{"name":"_owner","type":"address","internalType":"address"}],"outputs":[],"stateMutability":"nonpayable"},{"type":"function","name":"proposePercentageFee","inputs":[{"name":"_percentageFee","type":"uint256","internalType":"uint256"}],"outputs":[],"stateMutability":"nonpayable"},{"type":"function","name":"proposeWithdrawal","inputs":[{"name":"_tokenToWithdraw","type":"address","internalType":"address"},{"name":"_amountToWithdraw","type":"uint256","internalType":"uint256"},{"name":"_to","type":"address","internalType":"address"}],"outputs":[],"stateMutability":"nonpayable"},{"type":"function","name":"rejectProposeFillFixedPercentage","inputs":[],"outputs":[],"stateMutability":"nonpayable"},{"type":"function","name":"rejectProposeFillPropotionalPercentage","inputs":[],"outputs":[],"stateMutability":"nonpayable"},{"type":"function","name":"rejectProposeMaxLimitFillFixedFee","inputs":[],"outputs":[],"stateMutability":"nonpayable"},{"type":"function","name":"rejectProposeOwner","inputs":[],"outputs":[],"stateMutability":"nonpayable"},{"type":"function","name":"rejectProposePercentageFee","inputs":[],"outputs":[],"stateMutability":"nonpayable"},{"type":"function","name":"rejectProposeWithdrawal","inputs":[],"outputs":[],"stateMutability":"nonpayable"},{"type":"function","name":"stake","inputs":[{"name":"amount","type":"uint256","internalType":"uint256"}],"outputs":[],"stateMutability":"nonpayable"},{"type":"function","name":"unstake","inputs":[{"name":"amount","type":"uint256","internalType":"uint256"}],"outputs":[],"stateMutability":"nonpayable"},{"type":"error","name":"InvalidServiceSignature","inputs":[]}],"bytecode":{"object":"0x60806040523461011957604051601f612d6c38819003918201601f19168301916001600160401b03831184841017610105578084926060946040528339810103126101195761004d8161011d565b90610066604061005f6020840161011d565b920161011d565b5f80546001600160a01b039485166001600160a01b03199182161790915560018054938516938216939093179092556002805491909316911617905566038d7ea4c68000600f556101f4600c55604051606081018181106001600160401b03821117610105576103e89160409182526113888152610fa060208201520152611388600555610fa06006556103e8600755604051612c3a90816101328239f35b634e487b7160e01b5f52604160045260245ffd5b5f80fd5b51906001600160a01b03821682036101195756fe6080806040526004361015610012575f80fd5b5f905f3560e01c9081630a96865b1461217a575080631128a79a1461213f578063144384281461208f57806316790f8114611f5e57806317857d9d14611efa57806317c8515214611eb15780631ea43a7d14611d905780631f80982114611d7357806321e5383a14611d2357806326415c7114611cd1578063280e32fb14611c6057806328b44b4b14611c285780632e17de7814611baa57806335287eaf14611b6b57806335b2c22c146119e757806354282704146119825780635dc220751461153e5780635e1a3573146114c15780636b6445b61461144f5780636cd30148146113b25780636cdbf9271461136c5780637280ff351461132f57806374efedc9146112f057806376a75a2914610fe9578063775f3f7e146112d25780637b8ad14914611015578063893d20e814610fee5780638eb163d314610fe957806392aa42c914610e37578063952469d014610a385780639610067114610e195780639c34866614610df25780639dc2060714610dd4578063a694fc3a14610a7a578063a936e0d114610a3d578063af5cecc014610a38578063b3d4fd79146109fb578063b54cfef0146105b6578063b5ed298a14610557578063b7ac72ff146104b1578063c721316314610447578063cfb35fd0146103b2578063d0e3692d14610312578063d89ea03c146102c9578063db7ccd631461027b5763ebbc496514610218575f80fd5b346102785780600319360112610278576003546001600160a01b03811680331480159061026d575b610269576001600160601b0360a01b60025416176002556001600160601b0360a01b1660035580f35b8280fd5b506004544211610240565b80fd5b5034610278576040366003190112610278576001600160a01b03604061029f612202565b92826102a9612218565b9416815260176020522091165f52602052602060405f2054604051908152f35b503461027857806003193601126102785760806001600160a01b03601254166013546001600160a01b036014541660155491604051938452602084015260408301526060820152f35b50346102785760403660031901126102785761032c612202565b60206001600160a01b0360448185541693604051948593849263d0e3692d60e01b845216600483015260243560248301525afa9081156103a7576020929161037a575b506040519015158152f35b61039a9150823d84116103a0575b61039281836124b6565b8101906126f6565b5f61036f565b503d610388565b6040513d84823e3d90fd5b5034610278576103c136612288565b916001600160a01b03600254163314801590610429575b6104255782604080516103ea81612462565b8381528460208201520152600855600955600a5562015180420180421161041157600b5580f35b634e487b7160e01b82526011600452602482fd5b8380fd5b506127106104408461043b8585612425565b612425565b14156103d8565b50346102785780600319360112610278576104606125ab565b50506104ad60405161047181612462565b60055481526006546020820152600754604082015260405191829182919091604080606083019480518452602081015160208501520151910152565b0390f35b5034610278576060366003190112610278576104cb612202565b6024356104d661222e565b906001600160a01b03600254163314801590610539575b610425576001600160a01b038093166001600160601b0360a01b6012541617601255601355166001600160601b0360a01b60145416176014556201518042018042116104115760155580f35b506001600160a01b0383168452601a602052604084205481116104ed565b503461027857602036600319011261027857610571612202565b6001600160a01b036002541633036105b2576001600160a01b03166001600160601b0360a01b60035416176003556201518042018042116104115760045580f35b5080fd5b503461027857806105c636612300565b93899f9b9e9891958f9397949d8c9f9b819d8c546001600160a01b031696604051936020850160a0905260c085016009905260e085016836b0b5b2a7b93232b960b91b90526001600160a01b031660408501526001600160a01b03166060840152608083015260a082015260e08152610641610100826124b6565b8051906020012094843b156109f7578b61067a8f96948c98969488946040519a8b998a988997637d3d171560e11b895260048901612655565b03925af180156109ec579089916109d3575b50506106a993929161069f9136916126b0565b91888a8888612786565b6001600160a01b03831684526017602052604084206001600160a01b0388165f5260205260405f20549687156108fc575b508684526018602052600260408520015487855260186020526003604086200154145f146108595750600260249787855260186020528160408620016107208154612514565b905587855260186020526003604086200161073b8154612514565b9055878552601860205281604086200154965b6001600160a01b036040519461076386612462565b16845260208401908152604084019182528886526019602052604086208887526020526001600160a01b038060408820955116166001600160601b0360a01b8554161784555160018401555191015560206001600160a01b0383541660405197888092630a1ad2d160e21b82523360048301525afa80156103a757604096839161083a575b5061081c575b5050156108105761080460ff60035b1633612890565b82519182526020820152f35b61080460ff60026107fd565b8280610829575b506107ee565b6108339133612721565b5f82610823565b610853915060203d6020116103a05761039281836124b6565b5f6107e8565b9660015b87855260186020526002604086200154600181018091116108e85781116108db578785526019602052604085208186526020526001600160a01b03604086205416156108b1576108ac90612514565b61085d565b6024985090600291965b8886526018602052600360408720016108d48154612514565b905561074e565b50600290602498966108bb565b634e487b7160e01b86526011600452602486fd5b90965061090a601654612514565b806016556001600160a01b03841685526017602052604085206001600160a01b0383165f5260205260405f20556003604051916109468361247e565b6001600160a01b03851683526001600160a01b036020840191168152604083018681526001600160a01b03606085019288845260165489526018602052818060408b20975116166001600160601b0360a01b87541617865551166001600160a01b036001860191166001600160601b0360a01b82541617905551600284015551910155601654955f6106da565b816109dd916124b6565b6109e857875f61068c565b8780fd5b6040513d8b823e3d90fd5b8d80fd5b5034610278576020366003190112610278576001600160a01b0360025416330361027857600435600d5562015180420180421161041157600e5580f35b6123cf565b50346102785780600319360112610278576001600160a01b03600254163314801590610a6f575b6102785780600d5580f35b50600e544211610a64565b503461027857602036600319011261027857806004356001600160a01b03600254163314801590610d4b575b610c40576001600160a01b0360015416803b15610d47578280916024604051809481936399b4c3ef60e01b83528760048401525af1908115610d3c578391610d27575b50506001600160a01b0360015416604051630412d6ed60e31b8152602081600481855afa8015610d1c576001600160a01b03918591610cfd575b501660405192630412d6ed60e31b8452602084600481865afa938415610cd5576001600160a01b03946020918791610ce0575b5060046040518097819363280e32fb60e01b8352165afa938415610cd5578594610ca4575b50604051631961201760e31b8152602081600481875afa908115610c99578691610c5c575b5090610bab9161270e565b90803b15610c585760405163c898a6e960e01b81526001600160a01b039384166004820152939092166024840152604483015282908290606490829084905af180156103a757610c43575b506001600160a01b0360015416803b15610c405781809160046040518094819363c9d2beb160e01b83525af180156103a757610c2f5750f35b81610c39916124b6565b6102785780f35b50fd5b81610c4d916124b6565b61027857805f610bf6565b8480fd5b919550506020813d602011610c91575b81610c79602093836124b6565b81010312610c8d5751859490610bab610ba0565b5f80fd5b3d9150610c6c565b6040513d88823e3d90fd5b610cc791945060203d602011610cce575b610cbf81836124b6565b810190612636565b925f610b7b565b503d610cb5565b6040513d87823e3d90fd5b610cf79150823d8411610cce57610cbf81836124b6565b5f610b56565b610d16915060203d602011610cce57610cbf81836124b6565b5f610b23565b6040513d86823e3d90fd5b81610d31916124b6565b610c4057815f610ae9565b6040513d85823e3d90fd5b5050fd5b50600460206001600160a01b036001541660405192838092631961201760e31b82525afa908115610d3c578391610d9c575b50610d88908261270e565b60018352601a602052604083205410610aa6565b9250506020823d602011610dcc575b81610db8602093836124b6565b81010312610c8d57610d8883925190610d7d565b3d9150610dab565b50346102785780600319360112610278576020601054604051908152f35b503461027857806003193601126102785760206001600160a01b0360035416604051908152f35b50346102785780600319360112610278576020600c54604051908152f35b50346102785780610e4736612300565b969a959194929b97998e94919a819e9a9f6001600160a01b03610e6e91541692898c6129b0565b92823b15610fe5578b610e9f8f979289979388946040519a8b998a988997637d3d171560e11b895260048901612655565b03925af180156103a757610fcc575b50506001600160a01b0384168b52601760205260408b206001600160a01b0383165f5260205260405f205497610ee48a8a612a0a565b928c60028501998a5491508d610f0a612710610f02600c548661270e565b048094612425565b809110610f87578e610f789f8b610f5b98610f4595610f639f610f3e948a60019f8d93610f389136916126b0565b95612786565b848b612a38565b9954906001600160a01b03865416913393612a5a565b015491612721565b15610f7b57610f73600533612890565b61284c565b80f35b610f7360ff60046107fd565b60405162461bcd60e51b815260206004820152601f60248201527f496e737566696369656e7420616d6f756e744f66546f6b656e546f46696c6c006044820152606490fd5b81610fd6916124b6565b610fe1578a5f610eae565b8a80fd5b8680fd5b6122a2565b503461027857806003193601126102785760206001600160a01b0360025416604051908152f35b5034610278576101a036600319011261027857611030612202565b611038612218565b61104061222e565b6064359260843592611050612244565b9160c435916001600160a01b03831683036109e8576101043567ffffffffffffffff81116112ce5761108690369060040161225a565b969094610124358a610164359967ffffffffffffffff8b116105b2576110b18c9b369060040161225a565b9490998b6110cf610184359f6001600160a01b03875416928b6129b0565b813b156112ca578580946111018d978f96604051998a9889978896637d3d171560e11b885260e4359360048901612655565b03925af180156103a7576112b5575b50506001600160a01b0384168b52601760205260408b206001600160a01b0389165f5260205260405f2054976111468a8a612a0a565b9360028501988d8d8b54918091612710611162600c548661270e565b04111561128f5750508d6103e88102908082046103e8149015171561127a576127109004969594939291906111ab8f5b6111a58a6111a08386612425565b612418565b92612425565b908310611236578f9e610f789f6111f760019a8f610f639f8f8a906111ea928d610f5b9f6111df610f459d8f9236916126b0565b946101443594612786565b5492506111a08484612425565b6112018383612425565b90861015908161122c575b50156112255761121d915084612418565b92848b612a38565b5092610f3e565b905085105f61120c565b606460405162461bcd60e51b815260206004820152602060248201527f496e737566696369656e7420616d6f756e744f66546f6b656e42546f46696c6c6044820152fd5b50634e487b7160e01b8f52601160045260248ffd5b6111ab9f50979695949392919097506127106112ad600c548361270e565b049e8f611192565b816112bf916124b6565b610fe1578a5f611110565b8580fd5b8880fd5b50346102785780600319360112610278576020600454604051908152f35b50346102785780600319360112610278576001600160a01b03600254163314801590611324575b61027857601054600f5580f35b506011544211611317565b5034610278576020366003190112610278576001600160a01b03600254163303610278576004356010556201518042018042116104115760115580f35b50346102785761137b36612288565b916001600160a01b036002541633036104255761271061139f8461043b8585612425565b036104255782604080516103ea81612462565b5034610278576020366003190112610278576113cc612202565b9060206001600160a01b03602481845416946040519586938492630d9a602960e31b84521660048301525afa9081156114435790611410575b602090604051908152f35b506020813d60201161143b575b8161142a602093836124b6565b81010312610c8d5760209051611405565b3d915061141d565b604051903d90823e3d90fd5b50346102785760203660031901126102785761148260406080926114716124f0565b506004358152601860205220612567565b6114bf6040518092606080916001600160a01b0381511684526001600160a01b036020820151166020850152604081015160408501520151910152565bf35b50346102785760403660031901126102785760406060916114e06125ab565b506004358152601960205281812060243582526020522060405161150381612462565b6001600160a01b0382541691828252604060026001830154926020850193845201549201918252604051928352516020830152516040820152f35b50346102785761016036600319011261027857611559612202565b611561612218565b9061156a61222e565b90606435608435936001600160a01b03851685036112ca5761158a612244565b9060e43567ffffffffffffffff81116109e8576115ab90369060040161225a565b90956101043596896101443567ffffffffffffffff81116105b2576115d490369060040161225a565b94909a6001600160a01b0383541693604051946020860160808152600b60a08801526a31b0b731b2b627b93232b960a91b60c08801526001600160a01b038a16968760408201526001600160a01b03891660608201528c608082015260c0815261163f60e0826124b6565b519020813b156112ca578580946116748f978e96604051998a9889978896637d3d171560e11b885260c4359360048901612655565b03925af180156103a757611969575b505260176020526001600160a01b0360408a2091165f5260205260405f20549283158015611937575b61190257889187151598896117c3575b50505093610f7391836116e79652601960205260408920858a52602052600160408a20015491612721565b6001600160a01b0383541690604051630a1ad2d160e21b8152336004820152602081602481865afa908115610cd55785916117a4575b508061179d575b611747575b50501561173b57610f78600333612890565b610f7860ff60026107fd565b60206004926040519384809263280e32fb60e01b82525afa8015610d1c5761177792859161177e575b5033612721565b5f80611729565b611797915060203d602011610cce57610cbf81836124b6565b5f611770565b5082611724565b6117bd915060203d6020116103a05761039281836124b6565b5f61171d565b60049060206001600160a01b038654166040519384809263280e32fb60e01b82525afa918215610cd55785926118df575b50611801919236916126b0565b906001600160a01b03845416803b15610c58576001600160a01b03856101a48b602083978f869a87916040519c8d9b8c9a8b9863487e5a7760e11b8a5216600489015230602489015261016060448901528961016489015216606487015287608487015260a48601523060c48601521660e4840152610124356101048401526001610124840152610180610144840152805191829182610184860152018484015e8181018301849052601f01601f191681010301925af180156103a7576118ca575b80806116bc565b816118d4916124b6565b610fe557865f6118c3565b61180192506118fc9060203d602011610cce57610cbf81836124b6565b916117f4565b60405162461bcd60e51b815260206004820152600d60248201526c24b73b30b634b21037b93232b960991b6044820152606490fd5b50838952601960205260408920858a526020526001600160a01b0360408a2054166001600160a01b03871614156116ac565b81611973916124b6565b61197e57895f611683565b8980fd5b50346102785780600319360112610278576001600160a01b036002541633148015906119dc575b610278576001600160601b0360a01b60125416601255806013556001600160601b0360a01b601454166014558060155580f35b5060155442116119a9565b503461027857604036600319011261027857611a01612202565b6024358083526018602052600260408420015460018101809111611b5757611a28906125c9565b906001600160a01b0360019316925b81855260186020526002604086200154600181018091116108e8578111611b4957818552601960205260408520818652602052836001600160a01b0360408720541614611a8d575b611a8890612514565b611a37565b8185526019602052604085208186526020526001600160a01b03604086205416828652601960205260408620828752602052600160408720015483875260196020526040872083885260205260026040882001549060405192611aef84612432565b8584528460208501526040840152606083015260808201525f19820190828211611b355781611b2d91611b26611a88959488612553565b5285612553565b509050611a7f565b634e487b7160e01b87526011600452602487fd5b604051806104ad8582612194565b634e487b7160e01b84526011600452602484fd5b50346102785780600319360112610278576001600160a01b03600254163314801590611b9f575b61027857600d54600c5580f35b50600e544211611b92565b5034610c8d576020366003190112610c8d576001600160a01b03600254163303610c8d576001600160a01b0360015416803b15610c8d575f80916024604051809481936320a719f560e21b835260043560048401525af18015611c1d57611c0f575080f35b611c1b91505f906124b6565b005b6040513d5f823e3d90fd5b34610c8d576020366003190112610c8d576001600160a01b03611c49612202565b165f52601a602052602060405f2054604051908152f35b34610c8d575f366003190112610c8d57600460206001600160a01b035f54166040519283809263280e32fb60e01b82525afa8015611c1d576020915f91611cb4575b506001600160a01b0360405191168152f35b611ccb9150823d8411610cce57610cbf81836124b6565b82611ca2565b34610c8d575f366003190112610c8d576003546001600160a01b0381163314801590611d18575b610c8d5773ffffffffffffffffffffffffffffffffffffffff1916600355005b506004544211611cf8565b34610c8d576040366003190112610c8d57611d3c612202565b6001600160a01b03600254163303610c8d576001600160a01b03165f52601a60205260405f20611d6f6024358254612425565b9055005b34610c8d575f366003190112610c8d576020600f54604051908152f35b34610c8d576020366003190112610c8d57600435805f526018602052600260405f20015460018101809111611e9d57611dc8906125c9565b9060015b815f526018602052600260405f20015460018101809111611e9d578111611b4957815f52601960205260405f20815f526020526001600160a01b0360405f205416611e20575b611e1b90612514565b611dcc565b5f82815260196020908152604080832084845290915290819020805460018201546002909201549251939291906001600160a01b0316611e5f85612432565b8585528360208601526040850152606084015260808301525f19810191818311611e9d5782611e9591611b26611e1b9588612553565b509050611e12565b634e487b7160e01b5f52601160045260245ffd5b34610c8d575f366003190112610c8d57600460206001600160a01b035f541660405192838092630be428a960e11b82525afa8015611c1d575f9061141057602090604051908152f35b34610c8d575f366003190112610c8d57611f126125ab565b506104ad604051611f2281612462565b60085481526009546020820152600a54604082015260405191829182919091604080606083019480518452602081015160208501520151910152565b34610c8d575f366003190112610c8d576016546001810190818111611e9d57611f86826124d8565b91611f9460405193846124b6565b808352611fa3601f19916124d8565b015f5b81811061207857505060015b8181111561203a57826040518091602082016020835281518091526020604084019201905f5b818110611fe6575050500390f35b91935091602060808261202c6001948851606080916001600160a01b0381511684526001600160a01b036020820151166020850152604081015160408501520151910152565b019401910191849392611fd8565b805f52601860205260405f20905f19810191818311611e9d576120739261206361206d92612567565b611b268288612553565b50612514565b611fb2565b6020906120836124f0565b82828701015201611fa6565b34610c8d575f366003190112610c8d576001600160a01b03600254163314801590612134575b610c8d576120dd6001600160a01b03601454166001600160a01b036012541660135491612721565b6013546001600160a01b03601254165f52601a60205261210260405f20918254612418565b90556001600160601b0360a01b601254166012555f6013556001600160601b0360a01b601454166014555f6015555f80f35b5060155442116120b5565b34610c8d575f366003190112610c8d576001600160a01b0360025416331480159061216f575b610c8d575f601055005b506011544211612165565b34610c8d575f366003190112610c8d57602090600d548152f35b60206040818301928281528451809452019201905f5b8181106121b75750505090565b909192602060a0600192608087518051835284810151858401526001600160a01b036040820151166040840152606081015160608401520151608082015201940191019190916121aa565b600435906001600160a01b0382168203610c8d57565b602435906001600160a01b0382168203610c8d57565b604435906001600160a01b0382168203610c8d57565b60a435906001600160a01b0382168203610c8d57565b9181601f84011215610c8d5782359167ffffffffffffffff8311610c8d5760208381860195010111610c8d57565b6060906003190112610c8d57600435906024359060443590565b34610c8d575f366003190112610c8d576001600160a01b036002541633148015906122f5575b610c8d575f604080516122da81612462565b82815282602082015201525f6008555f6009555f600a555f80f35b50600b5442116122c8565b610180600319820112610c8d576004356001600160a01b0381168103610c8d57916024356001600160a01b0381168103610c8d57916044356001600160a01b0381168103610c8d5791606435916084359160a4356001600160a01b0381168103610c8d579160c4356001600160a01b0381168103610c8d579160e435916101043567ffffffffffffffff8111610c8d578161239d9160040161225a565b9290929161012435916101443591610164359067ffffffffffffffff8211610c8d576123cb9160040161225a565b9091565b34610c8d575f366003190112610c8d576001600160a01b0360025416331480159061240d575b610c8d57600854600555600954600655600a54600755005b50600b5442116123f5565b91908203918211611e9d57565b91908201809211611e9d57565b60a0810190811067ffffffffffffffff82111761244e57604052565b634e487b7160e01b5f52604160045260245ffd5b6060810190811067ffffffffffffffff82111761244e57604052565b6080810190811067ffffffffffffffff82111761244e57604052565b6040810190811067ffffffffffffffff82111761244e57604052565b90601f8019910116810190811067ffffffffffffffff82111761244e57604052565b67ffffffffffffffff811161244e5760051b60200190565b604051906124fd8261247e565b5f6060838281528260208201528260408201520152565b5f198114611e9d5760010190565b80511561252f5760200190565b634e487b7160e01b5f52603260045260245ffd5b80516001101561252f5760400190565b805182101561252f5760209160051b010190565b906040516125748161247e565b6060600382946001600160a01b0381541684526001600160a01b036001820154166020850152600281015460408501520154910152565b604051906125b882612462565b5f6040838281528260208201520152565b906125d3826124d8565b6125e060405191826124b6565b82815280926125f1601f19916124d8565b01905f5b82811061260157505050565b60209060405161261081612432565b5f81525f838201525f60408201525f60608201525f6080820152828285010152016125f5565b90816020910312610c8d57516001600160a01b0381168103610c8d5790565b959293879592946001600160a01b036101009996818095168a5216602089015260408801521660608601526080850152600160a085015260e060c08501528160e0850152848401375f828201840152601f01601f1916010190565b92919267ffffffffffffffff821161244e57604051916126da601f8201601f1916602001846124b6565b829481845281830111610c8d578281602093845f960137010152565b90816020910312610c8d57518015158103610c8d5790565b81810292918115918404141715611e9d57565b90916001600160a01b035f5416803b15610c8d5760405163c898a6e960e01b81526001600160a01b03938416600482015293909216602484015260448301525f908290606490829084905af18015611c1d5761277a5750565b5f612784916124b6565b565b9295949190936001600160a01b035f541693843b15610c8d5760205f976001600160a01b0399958a6101a49581988c986040519e8f9d8e9c8d9a63487e5a7760e11b8c521660048b01523060248b015261016060448b01528b6101648b0152166064890152608488015260a48701523060c48701521660e48501526101048401526001610124840152610180610144840152805191829182610184860152018484015e8181018301849052601f01601f191681010301925af18015611c1d5761277a5750565b90815f52601960205260405f20905f5260205260405f206001600160601b0360a01b81541690555f526018602052600360405f200180548015611e9d575f19019055565b6001600160a01b035f5416604051630a1ad2d160e21b81526001600160a01b0383166004820152602081602481855afa908115611c1d575f91612991575b506128d857505050565b60405163280e32fb60e01b815290602082600481845afa918215611c1d575f9261296c575b506020600491604051928380926309a69f5760e01b82525afa908115611c1d575f91612938575b50612784936129329161270e565b91612721565b90506020813d602011612964575b81612953602093836124b6565b81010312610c8d5751612784612924565b3d9150612946565b6004919250612989602091823d8411610cce57610cbf81836124b6565b9291506128fd565b6129aa915060203d6020116103a05761039281836124b6565b5f6128ce565b916001600160a01b036040519281602085019560808752600d60a08701526c3234b9b830ba31b427b93232b960991b60c0870152166040850152166060830152608082015260c08152612a0460e0826124b6565b51902090565b8015611902575f52601960205260405f20905f5260205260405f20906001600160a01b038254161561190257565b91838111612a4857505050505f90565b612a559361293291612418565b600190565b949190612a7d612a8d91959495612710612a766005548661270e565b0490612425565b92612710612a766007548561270e565b9260405194612a9d6060876124b6565b6002865260405f5b818110612be1575050612b23612b459594936001600160a01b0393612710938560405191612ad28361249a565b888352166020820152612ae48a612522565b52612aee89612522565b508460405191612afd8361249a565b888352166020820152612b0f89612543565b52612b1988612543565b506006549061270e565b04951694855f52601a602052612b3e60405f20918254612425565b9055612425565b906001600160a01b035f541691823b15610c8d5792906040519384926353d04b7b60e11b8452606484016060600486015283518091526020608486019401905f5b818110612bb357505050835f9593819387936024840152604483015203925af18015611c1d5761277a5750565b8251805187526020908101516001600160a01b03168188015289975060409096019590920191600101612b86565b602090604051612bf08161249a565b5f81525f8382015282828b01015201612aa556fea26469706673582212202ce3de043b14261a3291a1fde70c7d34ff790f6a8b685b6974bf8d1ad45d3f3364736f6c63430008210033","linkReferences":{}},"methodIdentifiers":{"acceptFillFixedPercentage()":"af5cecc0","acceptFillPropotionalPercentage()":"952469d0","acceptMaxLimitFillFixedFee()":"74efedc9","acceptOwner()":"ebbc4965","acceptPercentageFee()":"35287eaf","acceptWithdrawal()":"14438428","addBalance(address,uint256)":"21e5383a","cancelOrder(address,address,address,uint256,address,address,uint256,bytes,uint256,uint256,bytes)":"5dc22075","dispatchOrder_fillFixedFee(address,address,address,uint256,uint256,address,address,uint256,bytes,uint256,uint256,bytes,uint256)":"7b8ad149","dispatchOrder_fillPropotionalFee(address,address,address,uint256,uint256,address,address,uint256,bytes,uint256,uint256,bytes)":"92aa42c9","findMarket(address,address)":"db7ccd63","getAllMarketOrders(uint256)":"1ea43a7d","getAllMarketsMetadata()":"16790f81","getBalanceOfContract(address)":"28b44b4b","getEvvmID()":"17c85152","getIfUsedAsyncNonce(address,uint256)":"d0e3692d","getMarketMetadata(uint256)":"6b6445b6","getMaxLimitFillFixedFee()":"1f809821","getMaxLimitFillFixedFeeProposal()":"9dc20607","getMyOrdersInSpecificMarket(address,uint256)":"35b2c22c","getNextCurrentSyncNonce(address)":"6cd30148","getOrder(uint256,uint256)":"5e1a3573","getOwner()":"893d20e8","getOwnerProposal()":"9c348666","getOwnerTimeToAccept()":"775f3f7e","getPercentageFee()":"96100671","getPrincipalTokenAddress()":"280e32fb","getProposalPercentageFee()":"0a96865b","getProposedWithdrawal()":"d89ea03c","getRewardPercentage()":"c7213163","getRewardPercentageProposal()":"17857d9d","makeOrder(address,address,address,uint256,uint256,address,address,uint256,bytes,uint256,uint256,bytes)":"b54cfef0","proposeFillFixedPercentage(uint256,uint256,uint256)":"6cdbf927","proposeFillPropotionalPercentage(uint256,uint256,uint256)":"cfb35fd0","proposeMaxLimitFillFixedFee(uint256)":"7280ff35","proposeOwner(address)":"b5ed298a","proposePercentageFee(uint256)":"b3d4fd79","proposeWithdrawal(address,uint256,address)":"b7ac72ff","rejectProposeFillFixedPercentage()":"76a75a29","rejectProposeFillPropotionalPercentage()":"8eb163d3","rejectProposeMaxLimitFillFixedFee()":"1128a79a","rejectProposeOwner()":"26415c71","rejectProposePercentageFee()":"a936e0d1","rejectProposeWithdrawal()":"54282704","stake(uint256)":"a694fc3a","unstake(uint256)":"2e17de78"},"id":66}