{
  "abi": [
    {
      "type": "constructor",
      "inputs": [
        {
          "name": "_coreAddress",
          "type": "address",
          "internalType": "address"
        },
        {
          "name": "_stakingAddress",
          "type": "address",
          "internalType": "address"
        },
        {
          "name": "_owner",
          "type": "address",
          "internalType": "address"
        }
      ],
      "stateMutability": "nonpayable"
    },
    {
      "type": "function",
      "name": "acceptFillFixedPercentage",
      "inputs": [],
      "outputs": [],
      "stateMutability": "nonpayable"
    },
    {
      "type": "function",
      "name": "acceptFillPropotionalPercentage",
      "inputs": [],
      "outputs": [],
      "stateMutability": "nonpayable"
    },
    {
      "type": "function",
      "name": "acceptMaxLimitFillFixedFee",
      "inputs": [],
      "outputs": [],
      "stateMutability": "nonpayable"
    },
    {
      "type": "function",
      "name": "acceptOwner",
      "inputs": [],
      "outputs": [],
      "stateMutability": "nonpayable"
    },
    {
      "type": "function",
      "name": "acceptPercentageFee",
      "inputs": [],
      "outputs": [],
      "stateMutability": "nonpayable"
    },
    {
      "type": "function",
      "name": "acceptWithdrawal",
      "inputs": [],
      "outputs": [],
      "stateMutability": "nonpayable"
    },
    {
      "type": "function",
      "name": "addBalance",
      "inputs": [
        {
          "name": "_token",
          "type": "address",
          "internalType": "address"
        },
        {
          "name": "_amount",
          "type": "uint256",
          "internalType": "uint256"
        }
      ],
      "outputs": [],
      "stateMutability": "nonpayable"
    },
    {
      "type": "function",
      "name": "cancelOrder",
      "inputs": [
        {
          "name": "user",
          "type": "address",
          "internalType": "address"
        },
        {
          "name": "metadata",
          "type": "tuple",
          "internalType": "struct P2PSwapStructs.MetadataCancelOrder",
          "components": [
            {
              "name": "nonce",
              "type": "uint256",
              "internalType": "uint256"
            },
            {
              "name": "originExecutor",
              "type": "address",
              "internalType": "address"
            },
            {
              "name": "tokenA",
              "type": "address",
              "internalType": "address"
            },
            {
              "name": "tokenB",
              "type": "address",
              "internalType": "address"
            },
            {
              "name": "orderId",
              "type": "uint256",
              "internalType": "uint256"
            },
            {
              "name": "signature",
              "type": "bytes",
              "internalType": "bytes"
            }
          ]
        },
        {
          "name": "priorityFeePay",
          "type": "uint256",
          "internalType": "uint256"
        },
        {
          "name": "noncePay",
          "type": "uint256",
          "internalType": "uint256"
        },
        {
          "name": "signaturePay",
          "type": "bytes",
          "internalType": "bytes"
        }
      ],
      "outputs": [],
      "stateMutability": "nonpayable"
    },
    {
      "type": "function",
      "name": "dispatchOrder_fillFixedFee",
      "inputs": [
        {
          "name": "user",
          "type": "address",
          "internalType": "address"
        },
        {
          "name": "metadata",
          "type": "tuple",
          "internalType": "struct P2PSwapStructs.MetadataDispatchOrder",
          "components": [
            {
              "name": "nonce",
              "type": "uint256",
              "internalType": "uint256"
            },
            {
              "name": "originExecutor",
              "type": "address",
              "internalType": "address"
            },
            {
              "name": "tokenA",
              "type": "address",
              "internalType": "address"
            },
            {
              "name": "tokenB",
              "type": "address",
              "internalType": "address"
            },
            {
              "name": "orderId",
              "type": "uint256",
              "internalType": "uint256"
            },
            {
              "name": "amountOfTokenBToFill",
              "type": "uint256",
              "internalType": "uint256"
            },
            {
              "name": "signature",
              "type": "bytes",
              "internalType": "bytes"
            }
          ]
        },
        {
          "name": "priorityFeePay",
          "type": "uint256",
          "internalType": "uint256"
        },
        {
          "name": "noncePay",
          "type": "uint256",
          "internalType": "uint256"
        },
        {
          "name": "signaturePay",
          "type": "bytes",
          "internalType": "bytes"
        },
        {
          "name": "maxFillFixedFee",
          "type": "uint256",
          "internalType": "uint256"
        }
      ],
      "outputs": [],
      "stateMutability": "nonpayable"
    },
    {
      "type": "function",
      "name": "dispatchOrder_fillPropotionalFee",
      "inputs": [
        {
          "name": "user",
          "type": "address",
          "internalType": "address"
        },
        {
          "name": "metadata",
          "type": "tuple",
          "internalType": "struct P2PSwapStructs.MetadataDispatchOrder",
          "components": [
            {
              "name": "nonce",
              "type": "uint256",
              "internalType": "uint256"
            },
            {
              "name": "originExecutor",
              "type": "address",
              "internalType": "address"
            },
            {
              "name": "tokenA",
              "type": "address",
              "internalType": "address"
            },
            {
              "name": "tokenB",
              "type": "address",
              "internalType": "address"
            },
            {
              "name": "orderId",
              "type": "uint256",
              "internalType": "uint256"
            },
            {
              "name": "amountOfTokenBToFill",
              "type": "uint256",
              "internalType": "uint256"
            },
            {
              "name": "signature",
              "type": "bytes",
              "internalType": "bytes"
            }
          ]
        },
        {
          "name": "priorityFeePay",
          "type": "uint256",
          "internalType": "uint256"
        },
        {
          "name": "noncePay",
          "type": "uint256",
          "internalType": "uint256"
        },
        {
          "name": "signaturePay",
          "type": "bytes",
          "internalType": "bytes"
        }
      ],
      "outputs": [],
      "stateMutability": "nonpayable"
    },
    {
      "type": "function",
      "name": "findMarket",
      "inputs": [
        {
          "name": "tokenA",
          "type": "address",
          "internalType": "address"
        },
        {
          "name": "tokenB",
          "type": "address",
          "internalType": "address"
        }
      ],
      "outputs": [
        {
          "name": "",
          "type": "uint256",
          "internalType": "uint256"
        }
      ],
      "stateMutability": "view"
    },
    {
      "type": "function",
      "name": "getAllMarketOrders",
      "inputs": [
        {
          "name": "market",
          "type": "uint256",
          "internalType": "uint256"
        }
      ],
      "outputs": [
        {
          "name": "orders",
          "type": "tuple[]",
          "internalType": "struct P2PSwapStructs.OrderForGetter[]",
          "components": [
            {
              "name": "marketId",
              "type": "uint256",
              "internalType": "uint256"
            },
            {
              "name": "orderId",
              "type": "uint256",
              "internalType": "uint256"
            },
            {
              "name": "seller",
              "type": "address",
              "internalType": "address"
            },
            {
              "name": "amountA",
              "type": "uint256",
              "internalType": "uint256"
            },
            {
              "name": "amountB",
              "type": "uint256",
              "internalType": "uint256"
            }
          ]
        }
      ],
      "stateMutability": "view"
    },
    {
      "type": "function",
      "name": "getAllMarketsMetadata",
      "inputs": [],
      "outputs": [
        {
          "name": "",
          "type": "tuple[]",
          "internalType": "struct P2PSwapStructs.MarketInformation[]",
          "components": [
            {
              "name": "tokenA",
              "type": "address",
              "internalType": "address"
            },
            {
              "name": "tokenB",
              "type": "address",
              "internalType": "address"
            },
            {
              "name": "maxSlot",
              "type": "uint256",
              "internalType": "uint256"
            },
            {
              "name": "ordersAvailable",
              "type": "uint256",
              "internalType": "uint256"
            }
          ]
        }
      ],
      "stateMutability": "view"
    },
    {
      "type": "function",
      "name": "getBalanceOfContract",
      "inputs": [
        {
          "name": "token",
          "type": "address",
          "internalType": "address"
        }
      ],
      "outputs": [
        {
          "name": "",
          "type": "uint256",
          "internalType": "uint256"
        }
      ],
      "stateMutability": "view"
    },
    {
      "type": "function",
      "name": "getIfUsedAsyncNonce",
      "inputs": [
        {
          "name": "user",
          "type": "address",
          "internalType": "address"
        },
        {
          "name": "nonce",
          "type": "uint256",
          "internalType": "uint256"
        }
      ],
      "outputs": [
        {
          "name": "",
          "type": "bool",
          "internalType": "bool"
        }
      ],
      "stateMutability": "view"
    },
    {
      "type": "function",
      "name": "getMarketMetadata",
      "inputs": [
        {
          "name": "market",
          "type": "uint256",
          "internalType": "uint256"
        }
      ],
      "outputs": [
        {
          "name": "",
          "type": "tuple",
          "internalType": "struct P2PSwapStructs.MarketInformation",
          "components": [
            {
              "name": "tokenA",
              "type": "address",
              "internalType": "address"
            },
            {
              "name": "tokenB",
              "type": "address",
              "internalType": "address"
            },
            {
              "name": "maxSlot",
              "type": "uint256",
              "internalType": "uint256"
            },
            {
              "name": "ordersAvailable",
              "type": "uint256",
              "internalType": "uint256"
            }
          ]
        }
      ],
      "stateMutability": "view"
    },
    {
      "type": "function",
      "name": "getMaxLimitFillFixedFee",
      "inputs": [],
      "outputs": [
        {
          "name": "",
          "type": "uint256",
          "internalType": "uint256"
        }
      ],
      "stateMutability": "view"
    },
    {
      "type": "function",
      "name": "getMaxLimitFillFixedFeeProposal",
      "inputs": [],
      "outputs": [
        {
          "name": "",
          "type": "uint256",
          "internalType": "uint256"
        }
      ],
      "stateMutability": "view"
    },
    {
      "type": "function",
      "name": "getMyOrdersInSpecificMarket",
      "inputs": [
        {
          "name": "user",
          "type": "address",
          "internalType": "address"
        },
        {
          "name": "market",
          "type": "uint256",
          "internalType": "uint256"
        }
      ],
      "outputs": [
        {
          "name": "orders",
          "type": "tuple[]",
          "internalType": "struct P2PSwapStructs.OrderForGetter[]",
          "components": [
            {
              "name": "marketId",
              "type": "uint256",
              "internalType": "uint256"
            },
            {
              "name": "orderId",
              "type": "uint256",
              "internalType": "uint256"
            },
            {
              "name": "seller",
              "type": "address",
              "internalType": "address"
            },
            {
              "name": "amountA",
              "type": "uint256",
              "internalType": "uint256"
            },
            {
              "name": "amountB",
              "type": "uint256",
              "internalType": "uint256"
            }
          ]
        }
      ],
      "stateMutability": "view"
    },
    {
      "type": "function",
      "name": "getNextCurrentSyncNonce",
      "inputs": [
        {
          "name": "user",
          "type": "address",
          "internalType": "address"
        }
      ],
      "outputs": [
        {
          "name": "",
          "type": "uint256",
          "internalType": "uint256"
        }
      ],
      "stateMutability": "view"
    },
    {
      "type": "function",
      "name": "getOrder",
      "inputs": [
        {
          "name": "market",
          "type": "uint256",
          "internalType": "uint256"
        },
        {
          "name": "orderId",
          "type": "uint256",
          "internalType": "uint256"
        }
      ],
      "outputs": [
        {
          "name": "order",
          "type": "tuple",
          "internalType": "struct P2PSwapStructs.Order",
          "components": [
            {
              "name": "seller",
              "type": "address",
              "internalType": "address"
            },
            {
              "name": "amountA",
              "type": "uint256",
              "internalType": "uint256"
            },
            {
              "name": "amountB",
              "type": "uint256",
              "internalType": "uint256"
            }
          ]
        }
      ],
      "stateMutability": "view"
    },
    {
      "type": "function",
      "name": "getOwner",
      "inputs": [],
      "outputs": [
        {
          "name": "",
          "type": "address",
          "internalType": "address"
        }
      ],
      "stateMutability": "view"
    },
    {
      "type": "function",
      "name": "getOwnerProposal",
      "inputs": [],
      "outputs": [
        {
          "name": "",
          "type": "address",
          "internalType": "address"
        }
      ],
      "stateMutability": "view"
    },
    {
      "type": "function",
      "name": "getOwnerTimeToAccept",
      "inputs": [],
      "outputs": [
        {
          "name": "",
          "type": "uint256",
          "internalType": "uint256"
        }
      ],
      "stateMutability": "view"
    },
    {
      "type": "function",
      "name": "getPercentageFee",
      "inputs": [],
      "outputs": [
        {
          "name": "",
          "type": "uint256",
          "internalType": "uint256"
        }
      ],
      "stateMutability": "view"
    },
    {
      "type": "function",
      "name": "getProposalPercentageFee",
      "inputs": [],
      "outputs": [
        {
          "name": "",
          "type": "uint256",
          "internalType": "uint256"
        }
      ],
      "stateMutability": "view"
    },
    {
      "type": "function",
      "name": "getProposedWithdrawal",
      "inputs": [],
      "outputs": [
        {
          "name": "",
          "type": "address",
          "internalType": "address"
        },
        {
          "name": "",
          "type": "uint256",
          "internalType": "uint256"
        },
        {
          "name": "",
          "type": "address",
          "internalType": "address"
        },
        {
          "name": "",
          "type": "uint256",
          "internalType": "uint256"
        }
      ],
      "stateMutability": "view"
    },
    {
      "type": "function",
      "name": "getRewardPercentage",
      "inputs": [],
      "outputs": [
        {
          "name": "",
          "type": "tuple",
          "internalType": "struct P2PSwapStructs.Percentage",
          "components": [
            {
              "name": "seller",
              "type": "uint256",
              "internalType": "uint256"
            },
            {
              "name": "service",
              "type": "uint256",
              "internalType": "uint256"
            },
            {
              "name": "mateStaker",
              "type": "uint256",
              "internalType": "uint256"
            }
          ]
        }
      ],
      "stateMutability": "view"
    },
    {
      "type": "function",
      "name": "getRewardPercentageProposal",
      "inputs": [],
      "outputs": [
        {
          "name": "",
          "type": "tuple",
          "internalType": "struct P2PSwapStructs.Percentage",
          "components": [
            {
              "name": "seller",
              "type": "uint256",
              "internalType": "uint256"
            },
            {
              "name": "service",
              "type": "uint256",
              "internalType": "uint256"
            },
            {
              "name": "mateStaker",
              "type": "uint256",
              "internalType": "uint256"
            }
          ]
        }
      ],
      "stateMutability": "view"
    },
    {
      "type": "function",
      "name": "makeOrder",
      "inputs": [
        {
          "name": "user",
          "type": "address",
          "internalType": "address"
        },
        {
          "name": "metadata",
          "type": "tuple",
          "internalType": "struct P2PSwapStructs.MetadataMakeOrder",
          "components": [
            {
              "name": "nonce",
              "type": "uint256",
              "internalType": "uint256"
            },
            {
              "name": "originExecutor",
              "type": "address",
              "internalType": "address"
            },
            {
              "name": "tokenA",
              "type": "address",
              "internalType": "address"
            },
            {
              "name": "tokenB",
              "type": "address",
              "internalType": "address"
            },
            {
              "name": "amountA",
              "type": "uint256",
              "internalType": "uint256"
            },
            {
              "name": "amountB",
              "type": "uint256",
              "internalType": "uint256"
            }
          ]
        },
        {
          "name": "signature",
          "type": "bytes",
          "internalType": "bytes"
        },
        {
          "name": "priorityFeePay",
          "type": "uint256",
          "internalType": "uint256"
        },
        {
          "name": "noncePay",
          "type": "uint256",
          "internalType": "uint256"
        },
        {
          "name": "signaturePay",
          "type": "bytes",
          "internalType": "bytes"
        }
      ],
      "outputs": [
        {
          "name": "market",
          "type": "uint256",
          "internalType": "uint256"
        },
        {
          "name": "orderId",
          "type": "uint256",
          "internalType": "uint256"
        }
      ],
      "stateMutability": "nonpayable"
    },
    {
      "type": "function",
      "name": "proposeFillFixedPercentage",
      "inputs": [
        {
          "name": "_seller",
          "type": "uint256",
          "internalType": "uint256"
        },
        {
          "name": "_service",
          "type": "uint256",
          "internalType": "uint256"
        },
        {
          "name": "_mateStaker",
          "type": "uint256",
          "internalType": "uint256"
        }
      ],
      "outputs": [],
      "stateMutability": "nonpayable"
    },
    {
      "type": "function",
      "name": "proposeFillPropotionalPercentage",
      "inputs": [
        {
          "name": "_seller",
          "type": "uint256",
          "internalType": "uint256"
        },
        {
          "name": "_service",
          "type": "uint256",
          "internalType": "uint256"
        },
        {
          "name": "_mateStaker",
          "type": "uint256",
          "internalType": "uint256"
        }
      ],
      "outputs": [],
      "stateMutability": "nonpayable"
    },
    {
      "type": "function",
      "name": "proposeMaxLimitFillFixedFee",
      "inputs": [
        {
          "name": "_maxLimitFillFixedFee",
          "type": "uint256",
          "internalType": "uint256"
        }
      ],
      "outputs": [],
      "stateMutability": "nonpayable"
    },
    {
      "type": "function",
      "name": "proposeOwner",
      "inputs": [
        {
          "name": "_owner",
          "type": "address",
          "internalType": "address"
        }
      ],
      "outputs": [],
      "stateMutability": "nonpayable"
    },
    {
      "type": "function",
      "name": "proposePercentageFee",
      "inputs": [
        {
          "name": "_percentageFee",
          "type": "uint256",
          "internalType": "uint256"
        }
      ],
      "outputs": [],
      "stateMutability": "nonpayable"
    },
    {
      "type": "function",
      "name": "proposeWithdrawal",
      "inputs": [
        {
          "name": "_tokenToWithdraw",
          "type": "address",
          "internalType": "address"
        },
        {
          "name": "_amountToWithdraw",
          "type": "uint256",
          "internalType": "uint256"
        },
        {
          "name": "_to",
          "type": "address",
          "internalType": "address"
        }
      ],
      "outputs": [],
      "stateMutability": "nonpayable"
    },
    {
      "type": "function",
      "name": "rejectProposeFillFixedPercentage",
      "inputs": [],
      "outputs": [],
      "stateMutability": "nonpayable"
    },
    {
      "type": "function",
      "name": "rejectProposeFillPropotionalPercentage",
      "inputs": [],
      "outputs": [],
      "stateMutability": "nonpayable"
    },
    {
      "type": "function",
      "name": "rejectProposeMaxLimitFillFixedFee",
      "inputs": [],
      "outputs": [],
      "stateMutability": "nonpayable"
    },
    {
      "type": "function",
      "name": "rejectProposeOwner",
      "inputs": [],
      "outputs": [],
      "stateMutability": "nonpayable"
    },
    {
      "type": "function",
      "name": "rejectProposePercentageFee",
      "inputs": [],
      "outputs": [],
      "stateMutability": "nonpayable"
    },
    {
      "type": "function",
      "name": "rejectProposeWithdrawal",
      "inputs": [],
      "outputs": [],
      "stateMutability": "nonpayable"
    },
    {
      "type": "function",
      "name": "reserveAsyncNonceToService",
      "inputs": [
        {
          "name": "nonce",
          "type": "uint256",
          "internalType": "uint256"
        }
      ],
      "outputs": [],
      "stateMutability": "nonpayable"
    },
    {
      "type": "function",
      "name": "revokeAsyncNonceToService",
      "inputs": [
        {
          "name": "user",
          "type": "address",
          "internalType": "address"
        },
        {
          "name": "nonce",
          "type": "uint256",
          "internalType": "uint256"
        }
      ],
      "outputs": [],
      "stateMutability": "nonpayable"
    },
    {
      "type": "function",
      "name": "stake",
      "inputs": [
        {
          "name": "amount",
          "type": "uint256",
          "internalType": "uint256"
        }
      ],
      "outputs": [],
      "stateMutability": "nonpayable"
    },
    {
      "type": "function",
      "name": "unstake",
      "inputs": [
        {
          "name": "amount",
          "type": "uint256",
          "internalType": "uint256"
        }
      ],
      "outputs": [],
      "stateMutability": "nonpayable"
    },
    {
      "type": "error",
      "name": "InvalidServiceSignature",
      "inputs": []
    }
  ],
  "bytecode": {
    "object": "0x60806040523461011957604051601f612e0438819003918201601f19168301916001600160401b03831184841017610105578084926060946040528339810103126101195761004d8161011d565b90610066604061005f6020840161011d565b920161011d565b5f80546001600160a01b039485166001600160a01b03199182161790915560018054938516938216939093179092556002805491909316911617905566038d7ea4c68000600f556101f4600c55604051606081018181106001600160401b03821117610105576103e89160409182526113888152610fa060208201520152611388600555610fa06006556103e8600755604051612cd290816101328239f35b634e487b7160e01b5f52604160045260245ffd5b5f80fd5b51906001600160a01b03821682036101195756fe6080806040526004361015610012575f80fd5b5f905f3560e01c9081630a96865b14612251575080631128a79a14612216578063144384281461216657806316790f811461203557806317857d9d14611fd15780631ea43a7d14611eb05780631f80982114611e9357806321e5383a14611e4357806326415c7114611df157806328b44b4b14611db95780632c81eef914611b065780632e17de7814611aa157806335287eaf14611a6257806335b2c22c146118de5780633b5b2c741461188657806354282704146118215780635e1a3573146117a45780636b6445b6146117325780636cd30148146116955780636cdbf9271461164f5780637280ff351461161257806374efedc9146115d357806376a75a2914611589578063775f3f7e146115b5578063893d20e81461158e5780638eb163d314611589578063952469d0146111ae578063961006711461156b5780639c348666146115445780639dc2060714611526578063a694fc3a146111f0578063a936e0d1146111b3578063af5cecc0146111ae578063b3d4fd7914611171578063b5ed298a14611116578063b7ac72ff14611070578063c721316314611006578063cfb35fd014610f75578063d0e3692d14610eda578063d0f6918f14610cb5578063d4903153146107a1578063d89ea03c14610758578063db7ccd63146106f9578063e68ca10614610308578063ebbc4965146102a75763f1f59a1214610218575f80fd5b3461029557604036600319011261029557806102326122d9565b6001600160a01b03825416803b156102a357604051639d946ec360e01b81526001600160a01b03929092166004830152602480359083015282908290604490829084905af18015610298576102845750f35b8161028e916123b4565b6102955780f35b80fd5b6040513d84823e3d90fd5b5050fd5b50346102955780600319360112610295576003546001600160a01b0381168033148015906102fd575b6102f9576001600160601b0360a01b60025416176002556001600160601b0360a01b1660035580f35b8280fd5b5060045442116102d0565b50346102955760a0366003190112610295576103226122d9565b6024356001600160401b0381116102f95760c060031982360301126102f9576040519161034e83612363565b8160040135835261036160248301612305565b916020840192835261037560448201612305565b906040850191825261038960648201612305565b606086019081528660808701926084810135845260a4810135906001600160401b0382116102f95760046103c092369201016123d5565b60a08801908152604435966084356001600160401b0381116106f5576103ea9036906004016123d5565b986001600160a01b038454166001600160a01b038089511681885116895160405191602083019360808552600b60a08501526a31b0b731b2b627b93232b960a91b60c085015260408401526060830152608082015260c0815261044e60e0826123b4565b5190209351169151935192813b156106f157858a6104848296604051988997889687956376aefe7760e01b875260048701612722565b03925af18015610298576106dc575b50506104ae906001600160a01b03808551169151169061278b565b91815183159081156106a8575b50610673578685151596876105be575b5050610507936001600160a01b0361050092511684895260196020526040892084518a52602052600160408a2001549161281d565b5190612c39565b602460206001600160a01b0385541660405192838092630a1ad2d160e21b82523360048301525afa9081156105b3578491610584575b508061057d575b61056d575b50156105615761055e60ff60035b1633612b64565b80f35b61055e60ff6002610557565b61057790336127b6565b5f610549565b5081610544565b6105a6915060203d6020116105ac575b61059e81836123b4565b810190612773565b5f61053d565b503d610594565b6040513d86823e3d90fd5b6001600160a01b03825416803b156102f9578783916001600160a01b03838a61064b60405197889687958694631594872160e31b86521660048501523060248501526101406044850152846101448501526001606485015284608485015260a48401523060c484015260643560e484015260016101048401526101606101248401526101648301906126fe565b03925af1801561029857156104cb5781610664916123b4565b61066f57865f6104cb565b8680fd5b60405162461bcd60e51b815260206004820152600d60248201526c24b73b30b634b21037b93232b960991b6044820152606490fd5b90508388526019602052604088209088526020526001600160a01b036040882054166001600160a01b03851614155f6104bb565b816106e6916123b4565b61066f57865f610493565b8580fd5b8380fd5b5034610295576040366003190112610295576107136122d9565b90602435916001600160a01b0383168303610754576001600160a01b03918260409216815260176020522091165f52602052602060405f2054604051908152f35b5080fd5b503461029557806003193601126102955760806001600160a01b03601254166013546001600160a01b036014541660155491604051938452602084015260408301526060820152f35b503461029557610160366003190112610295576107bc6122d9565b9060c036602319011261029557604051916107d683612363565b60243583526107e36122ef565b6020840152606435906001600160a01b03821682036102f95760408401918252608435926001600160a01b03841684036102955760608501938452608085019260a435845260a086019560c435875260e4356001600160401b0381116106f5576108519036906004016123d5565b6101043594610144356001600160401b0381116106f1576108769036906004016123d5565b9085926001600160a01b038754166001600160a01b038751166001600160a01b038c51168d8c5190519060405192602084019460a08652600960c08601526836b0b5b2a7b93232b960b91b60e086015260408501526060840152608083015260a082015260e081526108ea610100826123b4565b5190209551813b15610cb15791889161094a93836040518096819582946376aefe7760e01b84526001600160a01b038b169d8e6004860152602485015284604485015260648401526001608484015260c060a484015260c48301906126fe565b03925af18015610ca657908791610c91575b50509061097d91876001600160a01b038751169161012435928b5191612901565b61099c6001600160a01b038451166001600160a01b038951169061278b565b968715610bc7575b508684526018602052600260408520015487855260186020526003604086200154145f14610b245750600260249787855260186020528160408620016109ea81546125dc565b9055878552601860205260036040862001610a0581546125dc565b9055878552601860205281604086200154965b5190519060405193610a2985612348565b845260208401908152604084019182528886526019602052604086208887526020526001600160a01b038060408820955116166001600160601b0360a01b8554161784555160018401555191015560206001600160a01b0383541660405197888092630a1ad2d160e21b82523360048301525afa8015610298576040968391610b05575b50610add575b505015610ad157610ac5600333612b64565b82519182526020820152f35b610ac560ff6002610557565b8280610aea575b50610ab3565b6001600160a01b03610afe9251163361281d565b5f82610ae4565b610b1e915060203d6020116105ac5761059e81836123b4565b5f610aad565b9660015b8785526018602052600260408620015460018101809111610bb3578111610ba6578785526019602052604085208186526020526001600160a01b0360408620541615610b7c57610b77906125dc565b610b28565b6024985090600291965b888652601860205260036040872001610b9f81546125dc565b9055610a18565b5060029060249896610b86565b634e487b7160e01b86526011600452602486fd5b90965060036001600160a01b0380855116925116610be66016546125dc565b806016558387526017602052604087206001600160a01b0383165f5260205260405f205560405192610c178461237e565b835260208301908152604083018681526001600160a01b03606085019288845260165489526018602052818060408b20975116166001600160601b0360a01b87541617865551166001600160a01b036001860191166001600160601b0360a01b82541617905551600284015551910155601654955f6109a4565b81610c9b916123b4565b6106f157855f61095c565b6040513d89823e3d90fd5b8880fd5b50346102955760a036600319011261029557610ccf6122d9565b6024356001600160401b0381116102f957610cee90369060040161242a565b604435906084356001600160401b038111610ed657610d119036906004016123d5565b906001600160a01b038554169060408101946001600160a01b0386511693876060840194610d516001600160a01b03875116976080870198895191612879565b6001600160a01b0360208701511686519260c088015192813b156106f1578588610d938296604051988997889687956376aefe7760e01b875260048701612722565b03925af1801561029857610ebd575b5050610dc36001600160a01b038851166001600160a01b038651169061278b565b95610dcf8651886128d3565b91600283019889549560a0610df4612710610dec600c548b612760565b048099612594565b91019381855110610e785761055e9b610e5c986001600160a01b03610e3f610e5195600199838f610e348f9c839d8b858551169160643592885191612901565b51169051908d612992565b9b5116915490868954169133936129ba565b51169101549161281d565b15610e6c57610500600533612b64565b61050060ff6004610557565b60405162461bcd60e51b815260206004820152601f60248201527f496e737566696369656e7420616d6f756e744f66546f6b656e546f46696c6c006044820152606490fd5b81610ec7916123b4565b610ed257875f610da2565b8780fd5b8480fd5b503461029557604036600319011261029557610f396020610ef96122d9565b6001600160a01b03845416604051808095819463d0e3692d60e01b83526024359060048401602090939291936001600160a01b0360408201951681520152565b03915afa9081156102985760209291610f58575b506040519015158152f35b610f6f9150823d84116105ac5761059e81836123b4565b5f610f4d565b503461029557610f84366124c6565b916001600160a01b03600254163314801590610fe8575b6106f5578260408051610fad81612348565b8381528460208201520152600855600955600a55620151804201804211610fd457600b5580f35b634e487b7160e01b82526011600452602482fd5b50612710610fff84610ffa8585612594565b612594565b1415610f9b565b503461029557806003193601126102955761101f612673565b505061106c60405161103081612348565b60055481526006546020820152600754604082015260405191829182919091604080606083019480518452602081015160208501520151910152565b0390f35b50346102955760603660031901126102955761108a6122d9565b6024356110956122ef565b906001600160a01b036002541633148015906110f8575b6106f5576001600160a01b038093166001600160601b0360a01b6012541617601255601355166001600160601b0360a01b6014541617601455620151804201804211610fd45760155580f35b506001600160a01b0383168452601a602052604084205481116110ac565b5034610295576020366003190112610295576111306122d9565b6001600160a01b03600254163303610754576001600160a01b03166001600160601b0360a01b6003541617600355620151804201804211610fd45760045580f35b5034610295576020366003190112610295576001600160a01b0360025416330361029557600435600d55620151804201804211610fd457600e5580f35b61253e565b50346102955780600319360112610295576001600160a01b036002541633148015906111e5575b6102955780600d5580f35b50600e5442116111da565b503461029557602036600319011261029557806004356001600160a01b0360025416331480159061149d575b6113a5576001600160a01b0360015416803b156102a3578280916024604051809481936399b4c3ef60e01b83528760048401525af190811561149257839161147d575b50506001600160a01b0360015416604051630412d6ed60e31b8152602081600481855afa80156105b3576001600160a01b0391859161145e575b501660405192630412d6ed60e31b8452602084600481865afa938415611436576001600160a01b03946020918791611441575b5060046040518097819363280e32fb60e01b8352165afa938415611436578594611405575b50604051631961201760e31b8152602081600481875afa9081156113fa5786916113bd575b509061132191612760565b90803b15610ed65760405163c898a6e960e01b81526001600160a01b039384166004820152939092166024840152604483015282908290606490829084905af18015610298576113a8575b506001600160a01b0360015416803b156113a55781809160046040518094819363c9d2beb160e01b83525af18015610298576102845750f35b50fd5b816113b2916123b4565b61029557805f61136c565b919550506020813d6020116113f2575b816113da602093836123b4565b810103126113ee5751859490611321611316565b5f80fd5b3d91506113cd565b6040513d88823e3d90fd5b61142891945060203d60201161142f575b61142081836123b4565b810190612c7d565b925f6112f1565b503d611416565b6040513d87823e3d90fd5b6114589150823d841161142f5761142081836123b4565b5f6112cc565b611477915060203d60201161142f5761142081836123b4565b5f611299565b81611487916123b4565b6113a557815f61125f565b6040513d85823e3d90fd5b50600460206001600160a01b036001541660405192838092631961201760e31b82525afa9081156114925783916114ee575b506114da9082612760565b60018352601a60205260408320541061121c565b9250506020823d60201161151e575b8161150a602093836123b4565b810103126113ee576114da839251906114cf565b3d91506114fd565b50346102955780600319360112610295576020601054604051908152f35b503461029557806003193601126102955760206001600160a01b0360035416604051908152f35b50346102955780600319360112610295576020600c54604051908152f35b6124e0565b503461029557806003193601126102955760206001600160a01b0360025416604051908152f35b50346102955780600319360112610295576020600454604051908152f35b50346102955780600319360112610295576001600160a01b03600254163314801590611607575b61029557601054600f5580f35b5060115442116115fa565b5034610295576020366003190112610295576001600160a01b0360025416330361029557600435601055620151804201804211610fd45760115580f35b50346102955761165e366124c6565b916001600160a01b036002541633036106f55761271061168284610ffa8585612594565b036106f5578260408051610fad81612348565b5034610295576020366003190112610295576116af6122d9565b9060206001600160a01b03602481845416946040519586938492630d9a602960e31b84521660048301525afa90811561172657906116f3575b602090604051908152f35b506020813d60201161171e575b8161170d602093836123b4565b810103126113ee57602090516116e8565b3d9150611700565b604051903d90823e3d90fd5b50346102955760203660031901126102955761176560406080926117546125b8565b50600435815260186020522061262f565b6117a26040518092606080916001600160a01b0381511684526001600160a01b036020820151166020850152604081015160408501520151910152565bf35b50346102955760403660031901126102955760406060916117c3612673565b50600435815260196020528181206024358252602052206040516117e681612348565b6001600160a01b0382541691828252604060026001830154926020850193845201549201918252604051928352516020830152516040820152f35b50346102955780600319360112610295576001600160a01b0360025416331480159061187b575b610295576001600160601b0360a01b60125416601255806013556001600160601b0360a01b601454166014558060155580f35b506015544211611848565b503461029557602036600319011261029557806001600160a01b03815416803b156113a557818091604460405180948193638b62e50760e01b835260043560048401523060248401525af18015610298576102845750f35b5034610295576040366003190112610295576118f86122d9565b6024358083526018602052600260408420015460018101809111611a4e5761191f90612691565b906001600160a01b0360019316925b8185526018602052600260408620015460018101809111610bb3578111611a4057818552601960205260408520818652602052836001600160a01b0360408720541614611984575b61197f906125dc565b61192e565b8185526019602052604085208186526020526001600160a01b036040862054168286526019602052604086208287526020526001604087200154838752601960205260408720838852602052600260408820015490604051926119e684612319565b8584528460208501526040840152606083015260808201525f19820190828211611a2c5781611a2491611a1d61197f95948861261b565b528561261b565b509050611976565b634e487b7160e01b87526011600452602487fd5b6040518061106c858261226b565b634e487b7160e01b84526011600452602484fd5b50346102955780600319360112610295576001600160a01b03600254163314801590611a96575b61029557600d54600c5580f35b50600e544211611a89565b5034610295576020366003190112610295576001600160a01b0360025416330361029557806001600160a01b0360015416803b156113a5578180916024604051809481936320a719f560e21b835260043560048401525af18015610298576102845750f35b50346113ee5760c03660031901126113ee57611b206122d9565b6024356001600160401b0381116113ee57611b3f90369060040161242a565b906044356084356001600160401b0381116113ee57611b629036906004016123d5565b9160a435936001600160a01b035f54169160408201946001600160a01b03865116946060840194611ba56001600160a01b03875116976080870198895191612879565b6001600160a01b0360208701511686519260c088015192813b156113ee575f88611be78296604051988997889687956376aefe7760e01b875260048701612722565b03925af18015611dae57611d99575b50611c166001600160a01b038851166001600160a01b038751169061278b565b96611c228751896128d3565b9260028401928354938c8c612710611c3c600c5489612760565b041115611d7657508b6103e88102908082046103e81490151715611d62576127109004949392919060a0611c848e5b611c7e89611c79838b612594565b612587565b97612594565b990194855110611d1e57896001600160a01b038f61055e9f9b829883610e5c9e610e3f948f9d611cc760019f9c610e519d8d878d511691606435928a5191612901565b611cdb8551918b549350611c798585612594565b611ce58484612594565b908210159081611d14575b5015611d0c57611d009250612587565b9551169051908d612992565b505095610e34565b905081105f611cf0565b606460405162461bcd60e51b815260206004820152602060248201527f496e737566696369656e7420616d6f756e744f66546f6b656e42546f46696c6c6044820152fd5b634e487b7160e01b8e52601160045260248efd5b9493929190611c849c5060a0612710611d91600c5488612760565b049d8e611c6b565b611da69199505f906123b4565b5f975f611bf6565b6040513d5f823e3d90fd5b346113ee5760203660031901126113ee576001600160a01b03611dda6122d9565b165f52601a602052602060405f2054604051908152f35b346113ee575f3660031901126113ee576003546001600160a01b0381163314801590611e38575b6113ee5773ffffffffffffffffffffffffffffffffffffffff1916600355005b506004544211611e18565b346113ee5760403660031901126113ee57611e5c6122d9565b6001600160a01b036002541633036113ee576001600160a01b03165f52601a60205260405f20611e8f6024358254612594565b9055005b346113ee575f3660031901126113ee576020600f54604051908152f35b346113ee5760203660031901126113ee57600435805f526018602052600260405f20015460018101809111611fbd57611ee890612691565b9060015b815f526018602052600260405f20015460018101809111611fbd578111611a4057815f52601960205260405f20815f526020526001600160a01b0360405f205416611f40575b611f3b906125dc565b611eec565b5f82815260196020908152604080832084845290915290819020805460018201546002909201549251939291906001600160a01b0316611f7f85612319565b8585528360208601526040850152606084015260808301525f19810191818311611fbd5782611fb591611a1d611f3b958861261b565b509050611f32565b634e487b7160e01b5f52601160045260245ffd5b346113ee575f3660031901126113ee57611fe9612673565b5061106c604051611ff981612348565b60085481526009546020820152600a54604082015260405191829182919091604080606083019480518452602081015160208501520151910152565b346113ee575f3660031901126113ee576016546001810190818111611fbd5761205d826125a1565b9161206b60405193846123b4565b80835261207a601f19916125a1565b015f5b81811061214f57505060015b8181111561211157826040518091602082016020835281518091526020604084019201905f5b8181106120bd575050500390f35b9193509160206080826121036001948851606080916001600160a01b0381511684526001600160a01b036020820151166020850152604081015160408501520151910152565b0194019101918493926120af565b805f52601860205260405f20905f19810191818311611fbd5761214a9261213a6121449261262f565b611a1d828861261b565b506125dc565b612089565b60209061215a6125b8565b8282870101520161207d565b346113ee575f3660031901126113ee576001600160a01b0360025416331480159061220b575b6113ee576121b46001600160a01b03601454166001600160a01b03601254166013549161281d565b6013546001600160a01b03601254165f52601a6020526121d960405f20918254612587565b90556001600160601b0360a01b601254166012555f6013556001600160601b0360a01b601454166014555f6015555f80f35b50601554421161218c565b346113ee575f3660031901126113ee576001600160a01b03600254163314801590612246575b6113ee575f601055005b50601154421161223c565b346113ee575f3660031901126113ee57602090600d548152f35b60206040818301928281528451809452019201905f5b81811061228e5750505090565b909192602060a0600192608087518051835284810151858401526001600160a01b03604082015116604084015260608101516060840152015160808201520194019101919091612281565b600435906001600160a01b03821682036113ee57565b604435906001600160a01b03821682036113ee57565b35906001600160a01b03821682036113ee57565b60a081019081106001600160401b0382111761233457604052565b634e487b7160e01b5f52604160045260245ffd5b606081019081106001600160401b0382111761233457604052565b60c081019081106001600160401b0382111761233457604052565b608081019081106001600160401b0382111761233457604052565b604081019081106001600160401b0382111761233457604052565b90601f801991011681019081106001600160401b0382111761233457604052565b81601f820112156113ee578035906001600160401b0382116123345760405192612409601f8401601f1916602001856123b4565b828452602083830101116113ee57815f926020809301838601378301015290565b919060e0838203126113ee576040519060e082018281106001600160401b038211176123345760405281938035835261246560208201612305565b602084015261247660408201612305565b604084015261248760608201612305565b60608401526080810135608084015260a081013560a084015260c0810135916001600160401b0383116113ee5760c0926124c192016123d5565b910152565b60609060031901126113ee57600435906024359060443590565b346113ee575f3660031901126113ee576001600160a01b03600254163314801590612533575b6113ee575f6040805161251881612348565b82815282602082015201525f6008555f6009555f600a555f80f35b50600b544211612506565b346113ee575f3660031901126113ee576001600160a01b0360025416331480159061257c575b6113ee57600854600555600954600655600a54600755005b50600b544211612564565b91908203918211611fbd57565b91908201809211611fbd57565b6001600160401b0381116123345760051b60200190565b604051906125c58261237e565b5f6060838281528260208201528260408201520152565b5f198114611fbd5760010190565b8051156125f75760200190565b634e487b7160e01b5f52603260045260245ffd5b8051600110156125f75760400190565b80518210156125f75760209160051b010190565b9060405161263c8161237e565b6060600382946001600160a01b0381541684526001600160a01b036001820154166020850152600281015460408501520154910152565b6040519061268082612348565b5f6040838281528260208201520152565b9061269b826125a1565b6126a860405191826123b4565b82815280926126b9601f19916125a1565b01905f5b8281106126c957505050565b6020906040516126d881612319565b5f81525f838201525f60408201525f60608201525f6080820152828285010152016126bd565b805180835260209291819084018484015e5f828201840152601f01601f1916010190565b9160c0936001600160a01b03918261275d98979416855260208501521660408301526060820152600160808201528160a082015201906126fe565b90565b81810292918115918404141715611fbd57565b908160209103126113ee575180151581036113ee5790565b6001600160a01b03165f5260176020526001600160a01b0360405f2091165f5260205260405f205490565b906001600160a01b035f541691823b156113ee5760405163c898a6e960e01b81526001600160a01b039091166004820152600160248201526044810191909152905f908290606490829084905af18015611dae576128115750565b5f61281b916123b4565b565b90916001600160a01b035f5416803b156113ee5760405163c898a6e960e01b81526001600160a01b03938416600482015293909216602484015260448301525f908290818381606481015b03925af18015611dae576128115750565b916001600160a01b036040519281602085019560808752600d60a08701526c3234b9b830ba31b427b93232b960991b60c0870152166040850152166060830152608082015260c081526128cd60e0826123b4565b51902090565b8015610673575f52601960205260405f20905f5260205260405f20906001600160a01b038254161561067357565b91949390926001600160a01b035f541692833b156113ee576128685f966001600160a01b03989488948a966040519b8c9a8b998a98631594872160e31b8a52166004890152306024890152610140604489015288610144890152166064870152608486015260a48501523060c485015260e484015260016101048401526101606101248401526101648301906126fe565b918381116129a257505050505f90565b6129b5936129af91612587565b9161281d565b600190565b9491906129dd6129ed919594956127106129d660055486612760565b0490612594565b926127106129d660075485612760565b92604051946129fd6060876123b4565b6002865260405f5b818110612b41575050612a83612aa59594936001600160a01b0393612710938560405191612a3283612399565b888352166020820152612a448a6125ea565b52612a4e896125ea565b508460405191612a5d83612399565b888352166020820152612a6f8961260b565b52612a798861260b565b5060065490612760565b04951694855f52601a602052612a9e60405f20918254612594565b9055612594565b906001600160a01b035f541691823b156113ee5792906040519384926353d04b7b60e11b8452606484016060600486015283518091526020608486019401905f5b818110612b1357505050835f9593819387936024840152604483015203925af18015611dae576128115750565b8251805187526020908101516001600160a01b03168188015289975060409096019590920191600101612ae6565b602090604051612b5081612399565b5f81525f8382015282828b01015201612a05565b6001600160a01b035f5416604051630a1ad2d160e21b81526001600160a01b0383166004820152602081602481855afa908115611dae575f91612c1a575b50612bac57505050565b6020600491604051928380926309a69f5760e01b82525afa908115611dae575f91612be6575b5061281b92612be091612760565b906127b6565b90506020813d602011612c12575b81612c01602093836123b4565b810103126113ee575161281b612bd2565b3d9150612bf4565b612c33915060203d6020116105ac5761059e81836123b4565b5f612ba2565b90815f52601960205260405f20905f5260205260405f206001600160601b0360a01b81541690555f526018602052600360405f200180548015611fbd575f19019055565b908160209103126113ee57516001600160a01b03811681036113ee579056fea264697066735822122097ba46feb7048d59311d9ddc8807f4a437599f4a8ea07534507e88cf3a897b8a64736f6c634300081e0033",
    "linkReferences": {}
  },
  "methodIdentifiers": {
    "acceptFillFixedPercentage()": "af5cecc0",
    "acceptFillPropotionalPercentage()": "952469d0",
    "acceptMaxLimitFillFixedFee()": "74efedc9",
    "acceptOwner()": "ebbc4965",
    "acceptPercentageFee()": "35287eaf",
    "acceptWithdrawal()": "14438428",
    "addBalance(address,uint256)": "21e5383a",
    "cancelOrder(address,(uint256,address,address,address,uint256,bytes),uint256,uint256,bytes)": "e68ca106",
    "dispatchOrder_fillFixedFee(address,(uint256,address,address,address,uint256,uint256,bytes),uint256,uint256,bytes,uint256)": "2c81eef9",
    "dispatchOrder_fillPropotionalFee(address,(uint256,address,address,address,uint256,uint256,bytes),uint256,uint256,bytes)": "d0f6918f",
    "findMarket(address,address)": "db7ccd63",
    "getAllMarketOrders(uint256)": "1ea43a7d",
    "getAllMarketsMetadata()": "16790f81",
    "getBalanceOfContract(address)": "28b44b4b",
    "getIfUsedAsyncNonce(address,uint256)": "d0e3692d",
    "getMarketMetadata(uint256)": "6b6445b6",
    "getMaxLimitFillFixedFee()": "1f809821",
    "getMaxLimitFillFixedFeeProposal()": "9dc20607",
    "getMyOrdersInSpecificMarket(address,uint256)": "35b2c22c",
    "getNextCurrentSyncNonce(address)": "6cd30148",
    "getOrder(uint256,uint256)": "5e1a3573",
    "getOwner()": "893d20e8",
    "getOwnerProposal()": "9c348666",
    "getOwnerTimeToAccept()": "775f3f7e",
    "getPercentageFee()": "96100671",
    "getProposalPercentageFee()": "0a96865b",
    "getProposedWithdrawal()": "d89ea03c",
    "getRewardPercentage()": "c7213163",
    "getRewardPercentageProposal()": "17857d9d",
    "makeOrder(address,(uint256,address,address,address,uint256,uint256),bytes,uint256,uint256,bytes)": "d4903153",
    "proposeFillFixedPercentage(uint256,uint256,uint256)": "6cdbf927",
    "proposeFillPropotionalPercentage(uint256,uint256,uint256)": "cfb35fd0",
    "proposeMaxLimitFillFixedFee(uint256)": "7280ff35",
    "proposeOwner(address)": "b5ed298a",
    "proposePercentageFee(uint256)": "b3d4fd79",
    "proposeWithdrawal(address,uint256,address)": "b7ac72ff",
    "rejectProposeFillFixedPercentage()": "76a75a29",
    "rejectProposeFillPropotionalPercentage()": "8eb163d3",
    "rejectProposeMaxLimitFillFixedFee()": "1128a79a",
    "rejectProposeOwner()": "26415c71",
    "rejectProposePercentageFee()": "a936e0d1",
    "rejectProposeWithdrawal()": "54282704",
    "reserveAsyncNonceToService(uint256)": "3b5b2c74",
    "revokeAsyncNonceToService(address,uint256)": "f1f59a12",
    "stake(uint256)": "a694fc3a",
    "unstake(uint256)": "2e17de78"
  },
  "id": 66
}