{"abi":[{"type":"constructor","inputs":[{"name":"initialAdmin","type":"address","internalType":"address"},{"name":"initialGoldenFisher","type":"address","internalType":"address"}],"stateMutability":"nonpayable"},{"type":"function","name":"acceptNewAdmin","inputs":[],"outputs":[],"stateMutability":"nonpayable"},{"type":"function","name":"acceptNewEstimator","inputs":[],"outputs":[],"stateMutability":"nonpayable"},{"type":"function","name":"acceptNewGoldenFisher","inputs":[],"outputs":[],"stateMutability":"nonpayable"},{"type":"function","name":"acceptSetSecondsToUnlockStaking","inputs":[],"outputs":[],"stateMutability":"nonpayable"},{"type":"function","name":"addPresaleStaker","inputs":[{"name":"_staker","type":"address","internalType":"address"}],"outputs":[],"stateMutability":"nonpayable"},{"type":"function","name":"addPresaleStakers","inputs":[{"name":"_stakers","type":"address[]","internalType":"address[]"}],"outputs":[],"stateMutability":"nonpayable"},{"type":"function","name":"cancelChangeAllowPresaleStaking","inputs":[],"outputs":[],"stateMutability":"nonpayable"},{"type":"function","name":"cancelChangeAllowPublicStaking","inputs":[],"outputs":[],"stateMutability":"nonpayable"},{"type":"function","name":"cancelSetSecondsToUnllockFullUnstaking","inputs":[],"outputs":[],"stateMutability":"nonpayable"},{"type":"function","name":"confirmChangeAllowPresaleStaking","inputs":[],"outputs":[],"stateMutability":"nonpayable"},{"type":"function","name":"confirmChangeAllowPublicStaking","inputs":[],"outputs":[],"stateMutability":"nonpayable"},{"type":"function","name":"confirmServiceStaking","inputs":[],"outputs":[],"stateMutability":"nonpayable"},{"type":"function","name":"confirmSetSecondsToUnllockFullUnstaking","inputs":[],"outputs":[],"stateMutability":"nonpayable"},{"type":"function","name":"getAddressHistory","inputs":[{"name":"_account","type":"address","internalType":"address"}],"outputs":[{"name":"","type":"tuple[]","internalType":"struct StakingStructs.HistoryMetadata[]","components":[{"name":"transactionType","type":"bytes32","internalType":"bytes32"},{"name":"amount","type":"uint256","internalType":"uint256"},{"name":"timestamp","type":"uint256","internalType":"uint256"},{"name":"totalStaked","type":"uint256","internalType":"uint256"}]}],"stateMutability":"view"},{"type":"function","name":"getAddressHistoryByIndex","inputs":[{"name":"_account","type":"address","internalType":"address"},{"name":"_index","type":"uint256","internalType":"uint256"}],"outputs":[{"name":"","type":"tuple","internalType":"struct StakingStructs.HistoryMetadata","components":[{"name":"transactionType","type":"bytes32","internalType":"bytes32"},{"name":"amount","type":"uint256","internalType":"uint256"},{"name":"timestamp","type":"uint256","internalType":"uint256"},{"name":"totalStaked","type":"uint256","internalType":"uint256"}]}],"stateMutability":"view"},{"type":"function","name":"getAllowPresaleStaking","inputs":[],"outputs":[{"name":"","type":"tuple","internalType":"struct ProposalStructs.BoolTypeProposal","components":[{"name":"flag","type":"bool","internalType":"bool"},{"name":"timeToAccept","type":"uint256","internalType":"uint256"}]}],"stateMutability":"view"},{"type":"function","name":"getAllowPublicStaking","inputs":[],"outputs":[{"name":"","type":"tuple","internalType":"struct ProposalStructs.BoolTypeProposal","components":[{"name":"flag","type":"bool","internalType":"bool"},{"name":"timeToAccept","type":"uint256","internalType":"uint256"}]}],"stateMutability":"view"},{"type":"function","name":"getCoreAddress","inputs":[],"outputs":[{"name":"","type":"address","internalType":"address"}],"stateMutability":"view"},{"type":"function","name":"getEstimatorAddress","inputs":[],"outputs":[{"name":"","type":"address","internalType":"address"}],"stateMutability":"view"},{"type":"function","name":"getEstimatorProposal","inputs":[],"outputs":[{"name":"","type":"address","internalType":"address"}],"stateMutability":"view"},{"type":"function","name":"getEvvmID","inputs":[],"outputs":[{"name":"","type":"uint256","internalType":"uint256"}],"stateMutability":"view"},{"type":"function","name":"getGoldenFisher","inputs":[],"outputs":[{"name":"","type":"address","internalType":"address"}],"stateMutability":"view"},{"type":"function","name":"getGoldenFisherProposal","inputs":[],"outputs":[{"name":"","type":"address","internalType":"address"}],"stateMutability":"view"},{"type":"function","name":"getIfUsedAsyncNonce","inputs":[{"name":"user","type":"address","internalType":"address"},{"name":"nonce","type":"uint256","internalType":"uint256"}],"outputs":[{"name":"","type":"bool","internalType":"bool"}],"stateMutability":"view"},{"type":"function","name":"getMateAddress","inputs":[],"outputs":[{"name":"","type":"address","internalType":"address"}],"stateMutability":"view"},{"type":"function","name":"getOwner","inputs":[],"outputs":[{"name":"","type":"address","internalType":"address"}],"stateMutability":"view"},{"type":"function","name":"getPresaleStaker","inputs":[{"name":"_account","type":"address","internalType":"address"}],"outputs":[{"name":"","type":"bool","internalType":"bool"},{"name":"","type":"uint256","internalType":"uint256"}],"stateMutability":"view"},{"type":"function","name":"getPresaleStakerCount","inputs":[],"outputs":[{"name":"","type":"uint256","internalType":"uint256"}],"stateMutability":"view"},{"type":"function","name":"getSecondsToUnlockFullUnstaking","inputs":[],"outputs":[{"name":"","type":"uint256","internalType":"uint256"}],"stateMutability":"view"},{"type":"function","name":"getSecondsToUnlockStaking","inputs":[],"outputs":[{"name":"","type":"uint256","internalType":"uint256"}],"stateMutability":"view"},{"type":"function","name":"getSizeOfAddressHistory","inputs":[{"name":"_account","type":"address","internalType":"address"}],"outputs":[{"name":"","type":"uint256","internalType":"uint256"}],"stateMutability":"view"},{"type":"function","name":"getTimeToUserUnlockFullUnstakingTime","inputs":[{"name":"_account","type":"address","internalType":"address"}],"outputs":[{"name":"","type":"uint256","internalType":"uint256"}],"stateMutability":"view"},{"type":"function","name":"getTimeToUserUnlockStakingTime","inputs":[{"name":"_account","type":"address","internalType":"address"}],"outputs":[{"name":"","type":"uint256","internalType":"uint256"}],"stateMutability":"view"},{"type":"function","name":"getUserAmountStaked","inputs":[{"name":"_account","type":"address","internalType":"address"}],"outputs":[{"name":"","type":"uint256","internalType":"uint256"}],"stateMutability":"view"},{"type":"function","name":"gimmeYiel","inputs":[{"name":"user","type":"address","internalType":"address"}],"outputs":[{"name":"epochAnswer","type":"bytes32","internalType":"bytes32"},{"name":"tokenToBeRewarded","type":"address","internalType":"address"},{"name":"amountTotalToBeRewarded","type":"uint256","internalType":"uint256"},{"name":"idToOverwriteUserHistory","type":"uint256","internalType":"uint256"},{"name":"timestampToBeOverwritten","type":"uint256","internalType":"uint256"}],"stateMutability":"nonpayable"},{"type":"function","name":"goldenStaking","inputs":[{"name":"isStaking","type":"bool","internalType":"bool"},{"name":"amountOfStaking","type":"uint256","internalType":"uint256"},{"name":"signaturePay","type":"bytes","internalType":"bytes"}],"outputs":[],"stateMutability":"nonpayable"},{"type":"function","name":"initializeSystemContracts","inputs":[{"name":"_estimator","type":"address","internalType":"address"},{"name":"_core","type":"address","internalType":"address"}],"outputs":[],"stateMutability":"nonpayable"},{"type":"function","name":"prepareChangeAllowPresaleStaking","inputs":[],"outputs":[],"stateMutability":"nonpayable"},{"type":"function","name":"prepareChangeAllowPublicStaking","inputs":[],"outputs":[],"stateMutability":"nonpayable"},{"type":"function","name":"prepareServiceStaking","inputs":[{"name":"amountOfStaking","type":"uint256","internalType":"uint256"}],"outputs":[],"stateMutability":"nonpayable"},{"type":"function","name":"prepareSetSecondsToUnllockFullUnstaking","inputs":[{"name":"_secondsToUnllockFullUnstaking","type":"uint256","internalType":"uint256"}],"outputs":[],"stateMutability":"nonpayable"},{"type":"function","name":"presaleStaking","inputs":[{"name":"user","type":"address","internalType":"address"},{"name":"isStaking","type":"bool","internalType":"bool"},{"name":"senderExecutor","type":"address","internalType":"address"},{"name":"originExecutor","type":"address","internalType":"address"},{"name":"nonce","type":"uint256","internalType":"uint256"},{"name":"signature","type":"bytes","internalType":"bytes"},{"name":"priorityFeePay","type":"uint256","internalType":"uint256"},{"name":"noncePay","type":"uint256","internalType":"uint256"},{"name":"signaturePay","type":"bytes","internalType":"bytes"}],"outputs":[],"stateMutability":"nonpayable"},{"type":"function","name":"priceOfStaking","inputs":[],"outputs":[{"name":"","type":"uint256","internalType":"uint256"}],"stateMutability":"pure"},{"type":"function","name":"proposeAdmin","inputs":[{"name":"_newAdmin","type":"address","internalType":"address"}],"outputs":[],"stateMutability":"nonpayable"},{"type":"function","name":"proposeEstimator","inputs":[{"name":"_estimator","type":"address","internalType":"address"}],"outputs":[],"stateMutability":"nonpayable"},{"type":"function","name":"proposeGoldenFisher","inputs":[{"name":"_goldenFisher","type":"address","internalType":"address"}],"outputs":[],"stateMutability":"nonpayable"},{"type":"function","name":"proposeSetSecondsToUnlockStaking","inputs":[{"name":"_secondsToUnlockStaking","type":"uint256","internalType":"uint256"}],"outputs":[],"stateMutability":"nonpayable"},{"type":"function","name":"publicStaking","inputs":[{"name":"user","type":"address","internalType":"address"},{"name":"isStaking","type":"bool","internalType":"bool"},{"name":"amountOfStaking","type":"uint256","internalType":"uint256"},{"name":"senderExecutor","type":"address","internalType":"address"},{"name":"originExecutor","type":"address","internalType":"address"},{"name":"nonce","type":"uint256","internalType":"uint256"},{"name":"signature","type":"bytes","internalType":"bytes"},{"name":"priorityFeePay","type":"uint256","internalType":"uint256"},{"name":"noncePay","type":"uint256","internalType":"uint256"},{"name":"signaturePay","type":"bytes","internalType":"bytes"}],"outputs":[],"stateMutability":"nonpayable"},{"type":"function","name":"rejectProposalAdmin","inputs":[],"outputs":[],"stateMutability":"nonpayable"},{"type":"function","name":"rejectProposalEstimator","inputs":[],"outputs":[],"stateMutability":"nonpayable"},{"type":"function","name":"rejectProposalGoldenFisher","inputs":[],"outputs":[],"stateMutability":"nonpayable"},{"type":"function","name":"rejectProposalSetSecondsToUnlockStaking","inputs":[],"outputs":[],"stateMutability":"nonpayable"},{"type":"function","name":"serviceUnstaking","inputs":[{"name":"amountOfStaking","type":"uint256","internalType":"uint256"}],"outputs":[],"stateMutability":"nonpayable"},{"type":"error","name":"AddressIsNotAService","inputs":[]},{"type":"error","name":"AddressMismatch","inputs":[]},{"type":"error","name":"AddressMustWaitToFullUnstake","inputs":[]},{"type":"error","name":"AddressMustWaitToStakeAgain","inputs":[]},{"type":"error","name":"LimitPresaleStakersExceeded","inputs":[]},{"type":"error","name":"PresaleStakingDisabled","inputs":[]},{"type":"error","name":"PublicStakingDisabled","inputs":[]},{"type":"error","name":"SenderIsNotAdmin","inputs":[]},{"type":"error","name":"SenderIsNotGoldenFisher","inputs":[]},{"type":"error","name":"SenderIsNotProposedAdmin","inputs":[]},{"type":"error","name":"ServiceDoesNotFulfillCorrectStakingAmount","inputs":[{"name":"requiredAmount","type":"uint256","internalType":"uint256"}]},{"type":"error","name":"ServiceDoesNotStakeInSameTx","inputs":[]},{"type":"error","name":"TimeToAcceptProposalNotReached","inputs":[]},{"type":"error","name":"UserIsNotPresaleStaker","inputs":[]},{"type":"error","name":"UserPresaleStakerLimitExceeded","inputs":[]}],"bytecode":{"object":"0x60803460ba57601f613d0538819003918201601f19168301916001600160401b0383118484101760be57808492604094855283398101031260ba57604b602060458360d2565b920160d2565b9060018060a01b031660018060a01b0319600254161760025560018060a01b031660018060a01b03196005541617600555600160ff19601354161760135560ff19601154166011555f600b5562069780600e55600160ff19601a541617601a55604051613c1f90816100e68239f35b5f80fd5b634e487b7160e01b5f52604160045260245ffd5b51906001600160a01b038216820360ba5756fe60806040526004361015610011575f80fd5b5f5f3560e01c8063147bf6c41461352657806317c85152146134a85780631e9c210f146134625780632096b7681461343d57806327be05571461340957806334dd90d6146133975780633900738a1461333e5780633d8ff69a146132e0578063475c31ff14612cbb578063489c5ad414612c6057806355160ea614612bba57806358b71cb414612406578063602c4fb414612111578063610a0476146120d45780636254300b146120ad57806366d161aa14612086578063681f02ac1461202a5780636b2933a214611fed5780636c58f77b14611f685780636fa7ff1714611ef15780637068dc6514611ec75780637c25faef14611e995780637f8da59114611e72578063829c67d414611a8357806383e512ab14611362578063893d20e81461133b57806389a75af8146112e35780638f4b3f28146112975780639053a2581461120557806396ae4e451461116557806399b4c3ef14610f045780639cde1d3e14610ee05780639e41123314610ebc578063a06831ba14610e80578063a84e9f2314610e44578063b384c57414610e16578063b38c950a14610dda578063b996b6c414610db0578063be10034514610cca578063c130a71914610c78578063c9d2beb114610643578063cb0900b81461061e578063cd6b5460146105a9578063d0e3692d14610508578063d5bbacd5146104dc578063dfb2b3a414610483578063e6cbd0a61461045c578063e6f2ebe41461043e578063e7dc0756146103e2578063f5c1af1c146103c4578063fa6215f3146103a6578063fabd08e81461029b5763fc2feab214610261575f80fd5b346102985760203660031901126102985760406020916001600160a01b0361028761357f565b168152601c83522054604051908152f35b80fd5b5034610298576020366003190112610298576001600160a01b036102bd61357f565b168152601c60205260408120805467ffffffffffffffff811161039257604051906102ee60208260051b0183613641565b80825260208201809385526020852085915b83831061037457868587604051928392602084019060208552518091526040840192915b818110610332575050500390f35b9193509160206080826103666001948851606080918051845260208101516020850152604081015160408501520151910152565b019401910191849392610324565b6004602060019261038485613790565b815201920192019190610300565b634e487b7160e01b83526041600452602483fd5b50346102985780600319360112610298576020600154604051908152f35b50346102985780600319360112610298576020600e54604051908152f35b50346102985780600319360112610298576103fb613778565b505061043a60405161040c816135f5565b60115460ff161515808252601254602092830190815260408051928352905192820192909252918291820190565b0390f35b50346102985780600319360112610298576020600b54604051908152f35b503461029857806003193601126102985760206001600160a01b0360095416604051908152f35b50346102985780600319360112610298576001600160a01b036002541633036104cd576201518042018042116104b95760125580f35b634e487b7160e01b82526011600452602482fd5b636587b01b60e11b8152600490fd5b50346102985760203660031901126102985760206105006104fb61357f565b61387c565b604051908152f35b50346102985760403660031901126102985761052261357f565b60206001600160a01b03604481601d541693604051948593849263d0e3692d60e01b845216600483015260243560248301525afa90811561059e5760209291610571575b506040519015158152f35b6105919150823d8411610597575b6105898183613641565b810190613752565b5f610566565b503d61057f565b6040513d84823e3d90fd5b50346102985780600319360112610298576003546001600160a01b03811680330361060f576004544210610600576001600160601b0360a01b60025416176002556001600160601b0360a01b166003558060045580f35b6384fa847560e01b8352600483fd5b632dba366760e21b8352600483fd5b503461029857806003193601126102985760206040516901138ccba11c9e8c00008152f35b5034610298578060031936011261029857333b15610c6957601754806901138ccba11c9e8c000002906901138ccba11c9e8c00008204810361091a5761068b82601854613704565b6001600160a01b03601d5416906040519063280e32fb60e01b8252602082600481865afa918215610bea578692610c29575b5060405163d4fac45d60e01b81523360048201526001600160a01b03909216602483015260208280604481015b0381865afa918215610bea578692610bf5575b5014159081610af2575b50610ade576016544203610acf57336001600160a01b036015541603610ac05760405190610734826135f5565b3382526020820191600183526020936040516107508682613641565b868152426107676001600160a01b0385511661380d565b11610ab15786855115610a92575b9150506001600160a01b03601d54166001600160a01b03835116813b15610a8e57829160448392604051948593849263adb6233f60e01b84526004840152600160f81b60248401525af1801561059e57610a75575b505080516001600160a01b03168552601c84526040852054610a04576001600160a01b0382915b51168552601c8452604085206040519261080a84613625565b60018452858401908152604084019142835260608501938452805490600160401b8210156109f0579061084291600182018155613725565b9490946109dc5751845551600184015551600283015551600390910155601d54604051630a1ad2d160e21b81523360048201526001600160a01b03909116918382602481865afa9182156109d15785926109b2575b50816109a8575b506108a7578280f35b60405163280e32fb60e01b81528281600481855afa908115610962578390859261096d575b506040516309a69f5760e01b81529192829060049082905afa92831561096257849361092e575b50508160011b918083046002149015171561091a5790610914913390613925565b5f808280f35b634e487b7160e01b83526011600452602483fd5b9080929350813d831161095b575b6109468183613641565b810103126109575751905f806108f3565b5f80fd5b503d61093c565b6040513d86823e3d90fd5b809250813d83116109a1575b6109838183613641565b8101031261099d5782610997600492613711565b916108cc565b8380fd5b503d610979565b905051155f61089e565b6109ca919250843d8611610597576105898183613641565b905f610897565b6040513d87823e3d90fd5b634e487b7160e01b88526004889052602488fd5b634e487b7160e01b89526041600452602489fd5b6001600160a01b038151168552601c8452604085206001600160a01b038251168652601c85526040862054905f198201918211610a6157836003610a536001600160a01b0394610a5b94613725565b5001546135e8565b916107f1565b634e487b7160e01b87526011600452602487fd5b81610a7f91613641565b610a8a57845f6107ca565b8480fd5b8280fd5b808080610aa9956001600160a01b03885116613ab1565b5f8086610775565b632df062b560e21b8752600487fd5b634cd87fb560e01b8352600483fd5b635ac7600960e11b8352600483fd5b630387e0bb60e21b83526004829052602483fd5b9050610b00836019546135e8565b60405163280e32fb60e01b8152602081600481865afa908115610bea578691610ba4575b5060405163d4fac45d60e01b81523060048201526001600160a01b0390911660248201529160209083908180604481015b03915afa9182156109d1578592610b70575b5014155f610707565b9091506020813d602011610b9c575b81610b8c60209383613641565b810103126109575751905f610b67565b3d9150610b7f565b90506020813d602011610be2575b81610bbf60209383613641565b81010312610bde57610b5592610bd6602092613711565b915092610b24565b8580fd5b3d9150610bb2565b6040513d88823e3d90fd5b9091506020813d602011610c21575b81610c1160209383613641565b810103126109575751905f6106fd565b3d9150610c04565b91506020823d602011610c61575b81610c4460209383613641565b81010312610bde576020610c5a6106ea93613711565b92506106bd565b3d9150610c37565b634a340e9d60e01b8152600490fd5b5034610298576020366003190112610298576040906001826001600160a01b03610ca061357f565b1692838152601b60205260ff8282205416938152601b602052200154825191151582526020820152f35b50346102985760203660031901126102985760043567ffffffffffffffff8111610dac5736602382011215610dac5780600401359067ffffffffffffffff8211610a8e573660248360051b83010111610a8e576001600160a01b03600254163303610d9d57825b82811015610d995761032060015411610d8a5760248160051b83010135906001600160a01b038216809203610a8a576001918552601b602052604085208260ff19825416179055610d82825461376a565b825501610d31565b63d646f8c560e01b8452600484fd5b8380f35b636587b01b60e11b8352600483fd5b5080fd5b50346102985780600319360112610298576001600160a01b036002541633036104cd578060145580f35b50346102985780600319360112610298576001600160a01b036002541633036104cd576001600160601b0360a01b600354166003558060045580f35b50346102985780600319360112610298576001600160a01b036002541633036104cd5780600f558060105580f35b50346102985780600319360112610298576001600160a01b036002541633036104cd576001600160601b0360a01b600654166006558060075580f35b50346102985780600319360112610298576001600160a01b036002541633036104cd576001600160601b0360a01b6009541660095580600a5580f35b5034610298576020366003190112610298576020610500610edb61357f565b61380d565b5034610298576020366003190112610298576020610500610eff61357f565b6137c2565b503461029857602036600319011261029857600435333b15611156576001600160a01b03601d5416906040519063280e32fb60e01b8252602082600481865afa918215610962578492611116575b5060405163d4fac45d60e01b81523360048201526001600160a01b03909216602483015260208280604481015b0381865afa9182156109625784926110e2575b5060405163280e32fb60e01b8152602081600481875afa9081156109d15785916110a0575b5060405163d4fac45d60e01b81523060048201526001600160a01b0390911660248201529260209084908180604481015b03915afa92831561096257849361106c575b5060405160a0810181811067ffffffffffffffff8211176110585784916080916040523381524260208201528360408201528460608201520152336001600160601b0360a01b60155416176015554260165560175560185560195580f35b634e487b7160e01b86526041600452602486fd5b9092506020813d602011611098575b8161108860209383613641565b810103126109575751915f610ffa565b3d915061107b565b90506020813d6020116110da575b816110bb60209383613641565b81010312610a8a57610fe8936110d2602092613711565b915093610fb7565b3d91506110ae565b9091506020813d60201161110e575b816110fe60209383613641565b810103126109575751905f610f92565b3d91506110f1565b91506020823d60201161114e575b8161113160209383613641565b8101031261099d576020611147610f7f93613711565b9250610f52565b3d9150611124565b634a340e9d60e01b8252600482fd5b503461029857806003193601126102985760049060206001600160a01b03601d54166040519384809263280e32fb60e01b82525afa9081156111f95780916111bc575b6020826001600160a01b0360405191168152f35b90506020823d6020116111f1575b816111d760209383613641565b8101031261029857506111eb602091613711565b5f6111a8565b3d91506111ca565b604051903d90823e3d90fd5b50346102985760403660031901126102985761126a6112646080926001600160a01b0361123061357f565b82606060405161123f81613625565b8281528260208201528260408201520152168152601c60205260406024359120613725565b50613790565b6112956040518092606080918051845260208101516020850152604081015160408501520151910152565bf35b50346102985780600319360112610298576001600160a01b036002541633036104cd5760105442106112d457600f54600e5580600f558060105580f35b6384fa847560e01b8152600490fd5b50346102985780600319360112610298576112fc613778565b505061043a60405161130d816135f5565b60135460ff161515808252601454602092830190815260408051928352905192820192909252918291820190565b503461029857806003193601126102985760206001600160a01b0360025416604051908152f35b5034610298576101403660031901126102985761137d61357f565b6113856135ab565b604435611390613595565b92608435926001600160a01b0384168403610bde5760c43567ffffffffffffffff8111611a7f576113c59036906004016135ba565b60e435959161010435916101243567ffffffffffffffff8111611a7b576113f09036906004016135ba565b99909260ff6013541615611a6c57908b92916001600160a01b03601d5416604051602081019060608252600d60808201526c7075626c69635374616b696e6760981b60a08201528a151560408201528c606082015260a0815261145460c082613641565b519020813b15610bde578580946114898d978c96604051998a9889978896637d3d171560e11b885260a43593600489016136a9565b03925af1801561059e57611a57575b50506114c5906001600160a01b03604051966114b3886135f5565b16865260208601988a8a523691613663565b918315611843576114df6001600160a01b0386511661380d565b4210611834578751156117dc575b505050856001600160a01b03601d54166001600160a01b03845116813b15610a8e57829160448392604051948593849263adb6233f60e01b84526004840152600160f81b60248401525af1801561059e576117c7575b505081516001600160a01b03168652601c602052604086205461175d576001600160a01b03835b925b51168652601c602052604086209015611755576001925b6040519361159085613625565b845260208401908152604084019142835260608501938452805490600160401b8210156109f057906115c791600182018155613725565b9490946109dc5751845551600184015551600283015551600390910155601d54604051630a1ad2d160e21b81523360048201526001600160a01b0390911692602082602481875afa9182156109d1578592611734575b508161172a575b5061162d578280f35b60405163280e32fb60e01b815291602083600481845afa9283156109625784936116e9575b506020600491604051928380926309a69f5760e01b82525afa9081156109625784916116b7575b508060011b90808204600214901517156116a357610914929161169b916135e8565b903390613925565b634e487b7160e01b84526011600452602484fd5b90506020813d6020116116e1575b816116d260209383613641565b8101031261095757515f611679565b3d91506116c5565b9092506020813d602011611722575b8161170560209383613641565b8101031261099d57602061171a600492613711565b939150611652565b3d91506116f8565b905051155f611624565b61174e91925060203d602011610597576105898183613641565b905f61161d565b600292611583565b6001600160a01b038251168652601c602052604086206001600160a01b038351168752601c6020526040872054905f1982019182116117b357846003610a536001600160a01b03946117ae94613725565b61156a565b634e487b7160e01b88526011600452602488fd5b816117d191613641565b610bde57855f611543565b6001600160a01b03855116866901138ccba11c9e8c000002906901138ccba11c9e8c000082048803611820579188611818959492600194613ab1565b5f80806114ed565b634e487b7160e01b8b52601160045260248bfd5b632df062b560e21b8952600489fd5b6118596001600160a01b038694939451166137c2565b86146119c0575b861515806119b7575b611997575b5050506001600160a01b038251168652601c602052604086206001600160a01b038351168752601c6020526040872054905f1982019182116117b35760036118ba6118c2938793613725565b500154613704565b91600460206001600160a01b03601d54166040519283809263280e32fb60e01b82525afa90811561198c57889161194e575b506001600160a01b03825116856901138ccba11c9e8c000002916901138ccba11c9e8c00008304870361193a5791611935916001600160a01b039493613925565b61156c565b634e487b7160e01b8a52601160045260248afd5b90506020813d602011611984575b8161196960209383613641565b810103126119805761197a90613711565b5f6118f4565b8780fd5b3d915061195c565b6040513d8a823e3d90fd5b6119af92600191886001600160a01b03885116613987565b5f808061186e565b50875115611869565b6119d36001600160a01b0386511661387c565b4210611a4857886001600160a01b03601d54166001600160a01b03875116813b15610a8e57829160448392604051948593849263adb6233f60e01b845260048401528160248401525af1801561059e57611a2f575b5050611860565b81611a3991613641565b611a4457885f611a28565b8880fd5b636b0ed46d60e01b8952600489fd5b81611a6191613641565b611a4457885f611498565b6333a374eb60e11b8c5260048cfd5b8a80fd5b8680fd5b503461029857602036600319011261029857600435333b1561115657604051611aab816135f5565b338152602081019160018352602091604051611ac78482613641565b85815285611ade6001600160a01b038451166137c2565b8414611ddb575b611dbd575b506001600160a01b038151168552601c8352604085206001600160a01b038251168652601c84526040862054905f198201918211610a615760036118ba611b32938693613725565b906004846001600160a01b03601d54166040519283809263280e32fb60e01b82525afa908115611db2578791611d7d575b506001600160a01b03825116846901138ccba11c9e8c000002916901138ccba11c9e8c000083048603611d695791611ba4916001600160a01b039493613925565b51168552601c8352604085208515611d61576001925b60405193611bc785613625565b8452848401908152604084019142835260608501938452805490600160401b8210156109f05790611bfd91600182018155613725565b9490946109dc5751845551600184015551600283015551600390910155601d54604051630a1ad2d160e21b81523360048201526001600160a01b03909116928282602481875afa9182156109d1578592611d42575b5081611d38575b50611c62578280f35b60405163280e32fb60e01b8152918183600481845afa928315610962578493611cfd575b5081600491604051928380926309a69f5760e01b82525afa918215610962578492611ccf575b50508060011b908082046002149015171561091a579061169b83610914936135e8565b90809250813d8311611cf6575b611ce68183613641565b8101031261095757515f80611cac565b503d611cdc565b9092508181813d8311611d31575b611d158183613641565b8101031261099d5781611d29600492613711565b939150611c86565b503d611d0b565b905051155f611c59565b611d5a919250833d8511610597576105898183613641565b905f611c52565b600292611bba565b634e487b7160e01b89526011600452602489fd5b90508481813d8311611dab575b611d948183613641565b81010312611a7f57611da590613711565b5f611b63565b503d611d8a565b6040513d89823e3d90fd5b611dd590868080806001600160a01b03875116613987565b5f611aea565b50611def6001600160a01b0383511661387c565b4210611e6357856001600160a01b03601d54166001600160a01b03845116813b15610a8e57829160448392604051948593849263adb6233f60e01b845260048401528160248401525af190811561059e578291611e4e575b5050611ae5565b81611e5891613641565b61029857805f611e47565b636b0ed46d60e01b8652600486fd5b503461029857806003193601126102985760206001600160a01b0360055416604051908152f35b50346102985780600319360112610298576001600160a01b036002541633036104cd5780600c5580600d5580f35b50346102985780600319360112610298576001600160a01b036002541633036104cd578060125580f35b50346102985780600319360112610298576001600160a01b036002541633036104cd57600a5442106112d4576009546001600160a01b03811690816001600160601b0360a01b60085416176008556001600160601b0360a01b1660095581600a556001600160601b0360a01b601e541617601e5580f35b503461029857602036600319011261029857611f8261357f565b6001600160a01b03600254163303611fde5761032060015411611fcf576001600160a01b03168152601b60205260408120600160ff19825416179055611fc960015461376a565b60015580f35b63d646f8c560e01b8252600482fd5b636587b01b60e11b8252600482fd5b5034610298576020366003190112610298576001600160a01b036002541633036104cd57600435600c556201518042018042116104b957600d5580f35b50346102985780600319360112610298576001600160a01b036002541633036104cd5760145442106112d45760ff601354161581602060405161206c816135f5565b838152015260ff8019601354169116176013558060145580f35b503461029857806003193601126102985760206001600160a01b0360085416604051908152f35b503461029857806003193601126102985760206001600160a01b0360065416604051908152f35b50346102985780600319360112610298576001600160a01b036002541633036104cd57600d5442106112d457600c54600b5580600c5580600d5580f35b50346102985760203660031901126102985761212b61357f565b90808092818291836001600160a01b038216808252601c602052604082205461217a575b5050506001600160a01b0360a095604051958652166020850152604084015260608301526080820152f35b94509450945050508160a06001600160a01b03601e541660246040518094819363f702720760e01b83528760048401525af19283156111f9578080948193829083926123ac575b50819581958095899a819a836121dc575b505050505061214f565b916121f08460029795936122319795613925565b828852601c6020526122058460408a20613725565b5055818752601c602052600161221e8460408a20613725565b5001558552601c60205260408520613725565b5001556001600160a01b03601d541690604051630a1ad2d160e21b8152336004820152602081602481865afa90811561059e57829161238d575b5061227c575b8080808080806121d2565b60405163280e32fb60e01b815290602082600481865afa91821561233d57819261234a575b506020600493604051948580926309a69f5760e01b82525afa92831561233d578193612309575b50828004600114831517156122f55750956122ef6001600160a01b039260a0983390613925565b95612271565b634e487b7160e01b81526011600452602490fd5b9092506020813d602011612335575b8161232560209383613641565b810103126109575751915f6122c8565b3d9150612318565b50604051903d90823e3d90fd5b9091506020813d602011612385575b8161236660209383613641565b81010312610dac5790602061237d60049493613711565b9293506122a1565b3d9150612359565b6123a6915060203d602011610597576105898183613641565b5f61226b565b9450505093505060a0813d60a0116123fe575b816123cc60a09383613641565b81010312610a8e578051926123e360208301613711565b9060408301519460806060850151940151909295935f6121c1565b3d91506123bf565b5034610298576101203660031901126102985761242161357f565b6124296135ab565b90604435916001600160a01b038316830361099d57612446613595565b9060a43567ffffffffffffffff8111610bde576124679036906004016135ba565b60c4359460e435916101043567ffffffffffffffff8111612bb6576124909036906004016135ba565b98909460ff60115416158015612baa575b612b9b57908a92916001600160a01b03601d5416604051602081019060608252600e60808201526d70726573616c655374616b696e6760901b60a08201528a151560408201526001606082015260a081526124fd60c082613641565b519020813b15610bde5785809461253289978e96604051998a9889978896637d3d171560e11b885260843593600489016136a9565b03925af1801561059e57612b86575b50506001600160a01b031691828852601b60205260ff60408920541615612b7757828852601b60205260408820600101548415612b705760028110155b612b61578415612b4c5760018101809111611d6957906125c7915b848a52601b602052600160408b200155604051936125b6856135f5565b845260208401978989523691613663565b908794845f14612956576125e46001600160a01b0385511661380d565b421061294757875115612915575b5050506001600160a01b03601d54166001600160a01b03825116813b15610a8a57849160448392604051948593849263adb6233f60e01b84526004840152600160f81b60248401525af180156109625784906128fe575b505080516001600160a01b03168352601c6020526040832054612889576001600160a01b0360015b915b51168352601c602052604083209115612881576001915b6040519261269784613625565b83526020830160018152604084019142835260608501938452805490600160401b82101561286d57906126cf91600182018155613725565b9490946128595751845551600184015551600283015551600390910155601d54604051630a1ad2d160e21b81523360048201526001600160a01b0390911693602082602481885afa91821561284e57839261282d575b5081612823575b50612735578380f35b60405163280e32fb60e01b815292602084600481845afa93841561059e5782946127e0575b50906020600492604051938480926309a69f5760e01b82525afa91821561233d5781926127ac575b508160011b91808304600214901517156122f557506127a5929161169b916135e8565b5f80808380f35b9091506020813d6020116127d8575b816127c860209383613641565b810103126109575751905f612782565b3d91506127bb565b9093506020813d60201161281b575b816127fc60209383613641565b81010312610dac57906020612812600493613711565b9491925061275a565b3d91506127ef565b905051155f61272c565b61284791925060203d602011610597576105898183613641565b905f612725565b6040513d85823e3d90fd5b634e487b7160e01b86526004869052602486fd5b634e487b7160e01b87526041600452602487fd5b60029161268a565b6001600160a01b038151168352601c602052604083206001600160a01b038251168452601c6020526040842054905f1982019182116128ea576003916128ce91613725565b50015460018101809111610a61576001600160a01b0390612671565b634e487b7160e01b85526011600452602485fd5b61290791613641565b828612610a8e575f83612649565b83516001600160a01b031686610a615791600191886901138ccba11c9e8c000061293f9695613ab1565b5f80806125f2565b632df062b560e21b8652600486fd5b909293945061296e6001600160a01b038551166137c2565b600114612ab9575b85151580612ab0575b612a90575b5050506001600160a01b038151168552601c602052604085206001600160a01b038251168652601c6020526040862054905f198201918211610a61576003916129cc91613725565b5001545f198101908111612a7c57601d5460405163280e32fb60e01b8152939290602090859060049082906001600160a01b03165afa938415611db2578794612a38575b5080612a336901138ccba11c9e8c00006001600160a01b03809451168a97613925565b612673565b9093506020813d602011612a74575b81612a5460209383613641565b81010312611a7f57612a6d6001600160a01b0391613711565b9390612a10565b3d9150612a47565b634e487b7160e01b86526011600452602486fd5b612aa892600191876001600160a01b03875116613987565b5f8080612984565b5086511561297f565b612acc6001600160a01b0385511661387c565b4210612b3d57876001600160a01b03601d54166001600160a01b03865116813b15610a8e57829160448392604051948593849263adb6233f60e01b845260048401528160248401525af1801561059e57612b28575b5050612976565b81612b3291613641565b61198057875f612b21565b636b0ed46d60e01b8852600488fd5b5f198101908111611d6957906125c791612599565b636b3af2e560e01b8952600489fd5b801561257e565b63f706524f60e01b8852600488fd5b81612b9091613641565b61198057875f612541565b63098e23b360e41b8b5260048bfd5b5060ff601354166124a1565b8980fd5b503461029857604036600319011261029857612bd461357f565b6024356001600160a01b038116809103610a8e57601a549160f883901b6001600160f81b0319161561099d576001600160a01b031690816001600160601b0360a01b6008541617600855806001600160601b0360a01b8554161784556001600160601b0360a01b601d541617601d556001600160601b0360a01b601e541617601e5560ff1916601a5580f35b503461029857602036600319011261029857612c7a61357f565b6001600160a01b03600254163303611fde576001600160a01b03166001600160601b0360a01b60065416176006556201518042018042116104b95760075580f35b50346109575760603660031901126109575760043580151581036109575760243560443567ffffffffffffffff811161095757612cfc9036906004016135ba565b90926001600160a01b0360055416918233036132d15760405192612d1f846135f5565b8352602460208401955f875260206001600160a01b03601d541660405193848092630d9a602960e31b82523360048301525afa918215613281575f9261329b575b50612d6d91923691613663565b9082156130bf57612d876001600160a01b0385511661380d565b4210610ab15785511561307d575b5050846001600160a01b03601d54166001600160a01b03845116813b15610a8e57829160448392604051948593849263adb6233f60e01b84526004840152600160f81b60248401525af1801561059e57613068575b505081516001600160a01b03168552601c6020526040852054613012576001600160a01b03835b925b51168552601c60205260408520901561300a576001925b60405193612e3785613625565b845260208401908152604084019142835260608501938452805490600160401b821015612ff65790612e6e91600182018155613725565b949094612fe25751845551600184015551600283015551600390910155601d54604051630a1ad2d160e21b81523360048201526001600160a01b0390911691602082602481865afa918215610962578492612fc1575b5081612fb7575b50612ed4575080f35b60405163280e32fb60e01b815290602082600481845afa91821561284e578392612f78575b50906020600492604051938480926309a69f5760e01b82525afa91821561284e578392612f44575b508160011b918083046002149015171561091a5790612f41913390613925565b80f35b9091506020813d602011612f70575b81612f6060209383613641565b810103126109575751905f612f21565b3d9150612f53565b91506020823d602011612faf575b81612f9360209383613641565b81010312610a8e576020612fa8600493613711565b9250612ef9565b3d9150612f86565b905051155f612ecb565b612fdb91925060203d602011610597576105898183613641565b905f612ec4565b634e487b7160e01b87526004879052602487fd5b634e487b7160e01b88526041600452602488fd5b600292612e2a565b6001600160a01b038251168552601c602052604085206001600160a01b038351168652601c6020526040862054905f198201918211610a6157846003610a536001600160a01b039461306394613725565b612e11565b8161307291613641565b610a8a57845f612dea565b6001600160a01b03845116856901138ccba11c9e8c000002906901138ccba11c9e8c000082048703611d695791888080936130b89695613ab1565b5f80612d95565b90866130d46001600160a01b038651166137c2565b86146131fd575b806131df575b5050506001600160a01b038251168552601c602052604085206001600160a01b038351168652601c6020526040862054905f198201918211610a615760036118ba61312d938793613725565b91600460206001600160a01b03601d54166040519283809263280e32fb60e01b82525afa908115611db25787916131a5575b506001600160a01b03825116856901138ccba11c9e8c000002916901138ccba11c9e8c000083048703611d6957916131a0916001600160a01b039493613925565b612e13565b90506020813d6020116131d7575b816131c060209383613641565b81010312611a7f576131d190613711565b5f61315f565b3d91506131b3565b6131f59281806001600160a01b03885116613987565b5f80866130e1565b506132116001600160a01b0385511661387c565b421061328c576001600160a01b03601d54166001600160a01b03855116813b15610957575f9160448392604051948593849263adb6233f60e01b845260048401528160248401525af180156132815761326c575b50866130db565b6132799197505f90613641565b5f955f613265565b6040513d5f823e3d90fd5b636b0ed46d60e01b5f5260045ffd5b91506020823d6020116132c9575b816132b660209383613641565b8101031261095757612d6d915191612d60565b3d91506132a9565b630d9974d560e11b5f5260045ffd5b34610957576020366003190112610957576001600160a01b0360025416330361332f57600435600f5562015180420180421161331b57601055005b634e487b7160e01b5f52601160045260245ffd5b636587b01b60e11b5f5260045ffd5b346109575760203660031901126109575761335761357f565b6001600160a01b0360025416330361332f576001600160a01b03166001600160601b0360a01b600954161760095562015180420180421161331b57600a55005b34610957575f366003190112610957576001600160a01b0360025416330361332f5760075442106133fa57600680546005805473ffffffffffffffffffffffffffffffffffffffff199081166001600160a01b038416179091551690555f600755005b6384fa847560e01b5f5260045ffd5b34610957575f366003190112610957576001600160a01b0360025416330361332f5762015180420180421161331b57601455005b34610957575f3660031901126109575760206001600160a01b035f5416604051908152f35b34610957575f366003190112610957576001600160a01b0360025416330361332f5760125442106133fa5760115460ff80821615169060ff1916176011555f6012555f80f35b34610957575f36600319011261095757600460206001600160a01b03601d541660405192838092630be428a960e11b82525afa8015613281575f906134f3575b602090604051908152f35b506020813d60201161351e575b8161350d60209383613641565b8101031261095757602090516134e8565b3d9150613500565b346109575760203660031901126109575761353f61357f565b6001600160a01b0360025416330361332f576001600160a01b03166001600160601b0360a01b600354161760035562015180420180421161331b57600455005b600435906001600160a01b038216820361095757565b606435906001600160a01b038216820361095757565b60243590811515820361095757565b9181601f840112156109575782359167ffffffffffffffff8311610957576020838186019501011161095757565b9190820180921161331b57565b6040810190811067ffffffffffffffff82111761361157604052565b634e487b7160e01b5f52604160045260245ffd5b6080810190811067ffffffffffffffff82111761361157604052565b90601f8019910116810190811067ffffffffffffffff82111761361157604052565b92919267ffffffffffffffff8211613611576040519161368d601f8201601f191660200184613641565b829481845281830111610957578281602093845f960137010152565b959293879592946001600160a01b036101009996818095168a5216602089015260408801521660608601526080850152600160a085015260e060c08501528160e0850152848401375f828201840152601f01601f1916010190565b9190820391821161331b57565b51906001600160a01b038216820361095757565b805482101561373e575f5260205f209060021b01905f90565b634e487b7160e01b5f52603260045260245ffd5b90816020910312610957575180151581036109575790565b5f19811461331b5760010190565b60405190613785826135f5565b5f6020838281520152565b9060405161379d81613625565b6060600382948054845260018101546020850152600281015460408501520154910152565b6001600160a01b0316805f52601c60205260405f2054908115613807575f52601c60205260405f205f19820191821161331b5760039161380191613725565b50015490565b50505f90565b6001600160a01b0316805f52601c60205260405f2054801561380757815f52601c60205260405f205f19820191821161331b5761384c82600392613725565b5001546138075761386d600291613879935f52601c60205260405f20613725565b500154600b54906135e8565b90565b6001600160a01b0316805f52601c60205260405f2054805b6138c157505f52601c60205260405f2080541561373e575f52613879600260205f200154600e54906135e8565b815f52601c60205260405f205f1982019082821161331b576138e582600392613725565b500154156138fd5750801561331b575f190180613894565b6002915061391990613879935f52601c60205260405f20613725565b500154600e54906135e8565b916001600160a01b03601d5416803b15610957575f92836064926001600160a01b039485604051988997889663c898a6e960e01b885216600487015216602485015260448401525af180156132815761397b5750565b5f61398591613641565b565b9294939091946001600160a01b03601d5416926040519463280e32fb60e01b8652602086600481885afa958615613281575f96613a75575b50843b156109575760205f976001600160a01b03999589958b80986101a4976040519e8f9d8e9c8d9a63487e5a7760e11b8c521660048b01523060248b015261016060448b01528b6101648b015216606489015289608489015260a48801523060c48801521660e48601526101048501521515610124840152610180610144840152805191829182610184860152018484015e8181018301849052601f01601f191681010301925af180156132815761397b5750565b9095506020813d602011613aa9575b81613a9160209383613641565b8101031261095757613aa290613711565b945f6139bf565b3d9150613a84565b9294909591936001600160a01b03601d5416956040519563280e32fb60e01b87526020876004818b5afa968715613281575f97613bad575b50873b1561095757604051988997889763487e5a7760e11b89526001600160a01b0316600489015230602489015260448801610160905261016488015f90526001600160a01b03166064880152608487015260a48601523060c48601526001600160a01b031660e485015261010484015215156101248301526101448201610180905280518091816101848501526020016101a484015e8082016101a4015f9052601f1990601f01168101036101a401815a5f948591f180156132815761397b5750565b9096506020813d602011613be1575b81613bc960209383613641565b8101031261095757613bda90613711565b955f613ae9565b3d9150613bbc56fea26469706673582212203f36372fc2fd7e757456018c2e018229202e994c8f254a0a196ce9dda08c4d5f64736f6c63430008210033","linkReferences":{}},"methodIdentifiers":{"acceptNewAdmin()":"cd6b5460","acceptNewEstimator()":"6fa7ff17","acceptNewGoldenFisher()":"34dd90d6","acceptSetSecondsToUnlockStaking()":"610a0476","addPresaleStaker(address)":"6c58f77b","addPresaleStakers(address[])":"be100345","cancelChangeAllowPresaleStaking()":"7068dc65","cancelChangeAllowPublicStaking()":"b996b6c4","cancelSetSecondsToUnllockFullUnstaking()":"b384c574","confirmChangeAllowPresaleStaking()":"1e9c210f","confirmChangeAllowPublicStaking()":"681f02ac","confirmServiceStaking()":"c9d2beb1","confirmSetSecondsToUnllockFullUnstaking()":"8f4b3f28","getAddressHistory(address)":"fabd08e8","getAddressHistoryByIndex(address,uint256)":"9053a258","getAllowPresaleStaking()":"e7dc0756","getAllowPublicStaking()":"89a75af8","getCoreAddress()":"2096b768","getEstimatorAddress()":"66d161aa","getEstimatorProposal()":"e6cbd0a6","getEvvmID()":"17c85152","getGoldenFisher()":"7f8da591","getGoldenFisherProposal()":"6254300b","getIfUsedAsyncNonce(address,uint256)":"d0e3692d","getMateAddress()":"96ae4e45","getOwner()":"893d20e8","getPresaleStaker(address)":"c130a719","getPresaleStakerCount()":"fa6215f3","getSecondsToUnlockFullUnstaking()":"f5c1af1c","getSecondsToUnlockStaking()":"e6f2ebe4","getSizeOfAddressHistory(address)":"fc2feab2","getTimeToUserUnlockFullUnstakingTime(address)":"d5bbacd5","getTimeToUserUnlockStakingTime(address)":"9e411233","getUserAmountStaked(address)":"9cde1d3e","gimmeYiel(address)":"602c4fb4","goldenStaking(bool,uint256,bytes)":"475c31ff","initializeSystemContracts(address,address)":"55160ea6","prepareChangeAllowPresaleStaking()":"dfb2b3a4","prepareChangeAllowPublicStaking()":"27be0557","prepareServiceStaking(uint256)":"99b4c3ef","prepareSetSecondsToUnllockFullUnstaking(uint256)":"3d8ff69a","presaleStaking(address,bool,address,address,uint256,bytes,uint256,uint256,bytes)":"58b71cb4","priceOfStaking()":"cb0900b8","proposeAdmin(address)":"147bf6c4","proposeEstimator(address)":"3900738a","proposeGoldenFisher(address)":"489c5ad4","proposeSetSecondsToUnlockStaking(uint256)":"6b2933a2","publicStaking(address,bool,uint256,address,address,uint256,bytes,uint256,uint256,bytes)":"83e512ab","rejectProposalAdmin()":"b38c950a","rejectProposalEstimator()":"a06831ba","rejectProposalGoldenFisher()":"a84e9f23","rejectProposalSetSecondsToUnlockStaking()":"7c25faef","serviceUnstaking(uint256)":"829c67d4"},"id":68}