{
  "abi": [
    {
      "type": "constructor",
      "inputs": [
        {
          "name": "initialAdmin",
          "type": "address",
          "internalType": "address"
        },
        {
          "name": "initialGoldenFisher",
          "type": "address",
          "internalType": "address"
        }
      ],
      "stateMutability": "nonpayable"
    },
    {
      "type": "function",
      "name": "acceptNewAdmin",
      "inputs": [],
      "outputs": [],
      "stateMutability": "nonpayable"
    },
    {
      "type": "function",
      "name": "acceptNewEstimator",
      "inputs": [],
      "outputs": [],
      "stateMutability": "nonpayable"
    },
    {
      "type": "function",
      "name": "acceptNewGoldenFisher",
      "inputs": [],
      "outputs": [],
      "stateMutability": "nonpayable"
    },
    {
      "type": "function",
      "name": "acceptSetSecondsToUnlockStaking",
      "inputs": [],
      "outputs": [],
      "stateMutability": "nonpayable"
    },
    {
      "type": "function",
      "name": "addPresaleStaker",
      "inputs": [
        {
          "name": "_staker",
          "type": "address",
          "internalType": "address"
        }
      ],
      "outputs": [],
      "stateMutability": "nonpayable"
    },
    {
      "type": "function",
      "name": "addPresaleStakers",
      "inputs": [
        {
          "name": "_stakers",
          "type": "address[]",
          "internalType": "address[]"
        }
      ],
      "outputs": [],
      "stateMutability": "nonpayable"
    },
    {
      "type": "function",
      "name": "cancelChangeAllowPresaleStaking",
      "inputs": [],
      "outputs": [],
      "stateMutability": "nonpayable"
    },
    {
      "type": "function",
      "name": "cancelChangeAllowPublicStaking",
      "inputs": [],
      "outputs": [],
      "stateMutability": "nonpayable"
    },
    {
      "type": "function",
      "name": "cancelSetSecondsToUnllockFullUnstaking",
      "inputs": [],
      "outputs": [],
      "stateMutability": "nonpayable"
    },
    {
      "type": "function",
      "name": "confirmChangeAllowPresaleStaking",
      "inputs": [],
      "outputs": [],
      "stateMutability": "nonpayable"
    },
    {
      "type": "function",
      "name": "confirmChangeAllowPublicStaking",
      "inputs": [],
      "outputs": [],
      "stateMutability": "nonpayable"
    },
    {
      "type": "function",
      "name": "confirmServiceStaking",
      "inputs": [],
      "outputs": [],
      "stateMutability": "nonpayable"
    },
    {
      "type": "function",
      "name": "confirmSetSecondsToUnllockFullUnstaking",
      "inputs": [],
      "outputs": [],
      "stateMutability": "nonpayable"
    },
    {
      "type": "function",
      "name": "getAddressHistory",
      "inputs": [
        {
          "name": "_account",
          "type": "address",
          "internalType": "address"
        }
      ],
      "outputs": [
        {
          "name": "",
          "type": "tuple[]",
          "internalType": "struct StakingStructs.HistoryMetadata[]",
          "components": [
            {
              "name": "transactionType",
              "type": "bytes32",
              "internalType": "bytes32"
            },
            {
              "name": "amount",
              "type": "uint256",
              "internalType": "uint256"
            },
            {
              "name": "timestamp",
              "type": "uint256",
              "internalType": "uint256"
            },
            {
              "name": "totalStaked",
              "type": "uint256",
              "internalType": "uint256"
            }
          ]
        }
      ],
      "stateMutability": "view"
    },
    {
      "type": "function",
      "name": "getAddressHistoryByIndex",
      "inputs": [
        {
          "name": "_account",
          "type": "address",
          "internalType": "address"
        },
        {
          "name": "_index",
          "type": "uint256",
          "internalType": "uint256"
        }
      ],
      "outputs": [
        {
          "name": "",
          "type": "tuple",
          "internalType": "struct StakingStructs.HistoryMetadata",
          "components": [
            {
              "name": "transactionType",
              "type": "bytes32",
              "internalType": "bytes32"
            },
            {
              "name": "amount",
              "type": "uint256",
              "internalType": "uint256"
            },
            {
              "name": "timestamp",
              "type": "uint256",
              "internalType": "uint256"
            },
            {
              "name": "totalStaked",
              "type": "uint256",
              "internalType": "uint256"
            }
          ]
        }
      ],
      "stateMutability": "view"
    },
    {
      "type": "function",
      "name": "getAllowPresaleStaking",
      "inputs": [],
      "outputs": [
        {
          "name": "",
          "type": "tuple",
          "internalType": "struct ProposalStructs.BoolTypeProposal",
          "components": [
            {
              "name": "flag",
              "type": "bool",
              "internalType": "bool"
            },
            {
              "name": "timeToAccept",
              "type": "uint256",
              "internalType": "uint256"
            }
          ]
        }
      ],
      "stateMutability": "view"
    },
    {
      "type": "function",
      "name": "getAllowPublicStaking",
      "inputs": [],
      "outputs": [
        {
          "name": "",
          "type": "tuple",
          "internalType": "struct ProposalStructs.BoolTypeProposal",
          "components": [
            {
              "name": "flag",
              "type": "bool",
              "internalType": "bool"
            },
            {
              "name": "timeToAccept",
              "type": "uint256",
              "internalType": "uint256"
            }
          ]
        }
      ],
      "stateMutability": "view"
    },
    {
      "type": "function",
      "name": "getCoreAddress",
      "inputs": [],
      "outputs": [
        {
          "name": "",
          "type": "address",
          "internalType": "address"
        }
      ],
      "stateMutability": "view"
    },
    {
      "type": "function",
      "name": "getEstimatorAddress",
      "inputs": [],
      "outputs": [
        {
          "name": "",
          "type": "address",
          "internalType": "address"
        }
      ],
      "stateMutability": "view"
    },
    {
      "type": "function",
      "name": "getEstimatorProposal",
      "inputs": [],
      "outputs": [
        {
          "name": "",
          "type": "address",
          "internalType": "address"
        }
      ],
      "stateMutability": "view"
    },
    {
      "type": "function",
      "name": "getEvvmID",
      "inputs": [],
      "outputs": [
        {
          "name": "",
          "type": "uint256",
          "internalType": "uint256"
        }
      ],
      "stateMutability": "view"
    },
    {
      "type": "function",
      "name": "getGoldenFisher",
      "inputs": [],
      "outputs": [
        {
          "name": "",
          "type": "address",
          "internalType": "address"
        }
      ],
      "stateMutability": "view"
    },
    {
      "type": "function",
      "name": "getGoldenFisherProposal",
      "inputs": [],
      "outputs": [
        {
          "name": "",
          "type": "address",
          "internalType": "address"
        }
      ],
      "stateMutability": "view"
    },
    {
      "type": "function",
      "name": "getIfUsedAsyncNonce",
      "inputs": [
        {
          "name": "user",
          "type": "address",
          "internalType": "address"
        },
        {
          "name": "nonce",
          "type": "uint256",
          "internalType": "uint256"
        }
      ],
      "outputs": [
        {
          "name": "",
          "type": "bool",
          "internalType": "bool"
        }
      ],
      "stateMutability": "view"
    },
    {
      "type": "function",
      "name": "getMateAddress",
      "inputs": [],
      "outputs": [
        {
          "name": "",
          "type": "address",
          "internalType": "address"
        }
      ],
      "stateMutability": "view"
    },
    {
      "type": "function",
      "name": "getOwner",
      "inputs": [],
      "outputs": [
        {
          "name": "",
          "type": "address",
          "internalType": "address"
        }
      ],
      "stateMutability": "view"
    },
    {
      "type": "function",
      "name": "getPresaleStaker",
      "inputs": [
        {
          "name": "_account",
          "type": "address",
          "internalType": "address"
        }
      ],
      "outputs": [
        {
          "name": "",
          "type": "bool",
          "internalType": "bool"
        },
        {
          "name": "",
          "type": "uint256",
          "internalType": "uint256"
        }
      ],
      "stateMutability": "view"
    },
    {
      "type": "function",
      "name": "getPresaleStakerCount",
      "inputs": [],
      "outputs": [
        {
          "name": "",
          "type": "uint256",
          "internalType": "uint256"
        }
      ],
      "stateMutability": "view"
    },
    {
      "type": "function",
      "name": "getSecondsToUnlockFullUnstaking",
      "inputs": [],
      "outputs": [
        {
          "name": "",
          "type": "uint256",
          "internalType": "uint256"
        }
      ],
      "stateMutability": "view"
    },
    {
      "type": "function",
      "name": "getSecondsToUnlockStaking",
      "inputs": [],
      "outputs": [
        {
          "name": "",
          "type": "uint256",
          "internalType": "uint256"
        }
      ],
      "stateMutability": "view"
    },
    {
      "type": "function",
      "name": "getSizeOfAddressHistory",
      "inputs": [
        {
          "name": "_account",
          "type": "address",
          "internalType": "address"
        }
      ],
      "outputs": [
        {
          "name": "",
          "type": "uint256",
          "internalType": "uint256"
        }
      ],
      "stateMutability": "view"
    },
    {
      "type": "function",
      "name": "getTimeToUserUnlockFullUnstakingTime",
      "inputs": [
        {
          "name": "_account",
          "type": "address",
          "internalType": "address"
        }
      ],
      "outputs": [
        {
          "name": "",
          "type": "uint256",
          "internalType": "uint256"
        }
      ],
      "stateMutability": "view"
    },
    {
      "type": "function",
      "name": "getTimeToUserUnlockStakingTime",
      "inputs": [
        {
          "name": "_account",
          "type": "address",
          "internalType": "address"
        }
      ],
      "outputs": [
        {
          "name": "",
          "type": "uint256",
          "internalType": "uint256"
        }
      ],
      "stateMutability": "view"
    },
    {
      "type": "function",
      "name": "getUserAmountStaked",
      "inputs": [
        {
          "name": "_account",
          "type": "address",
          "internalType": "address"
        }
      ],
      "outputs": [
        {
          "name": "",
          "type": "uint256",
          "internalType": "uint256"
        }
      ],
      "stateMutability": "view"
    },
    {
      "type": "function",
      "name": "gimmeYiel",
      "inputs": [
        {
          "name": "user",
          "type": "address",
          "internalType": "address"
        }
      ],
      "outputs": [
        {
          "name": "epochAnswer",
          "type": "bytes32",
          "internalType": "bytes32"
        },
        {
          "name": "tokenToBeRewarded",
          "type": "address",
          "internalType": "address"
        },
        {
          "name": "amountTotalToBeRewarded",
          "type": "uint256",
          "internalType": "uint256"
        },
        {
          "name": "idToOverwriteUserHistory",
          "type": "uint256",
          "internalType": "uint256"
        },
        {
          "name": "timestampToBeOverwritten",
          "type": "uint256",
          "internalType": "uint256"
        }
      ],
      "stateMutability": "nonpayable"
    },
    {
      "type": "function",
      "name": "goldenStaking",
      "inputs": [
        {
          "name": "isStaking",
          "type": "bool",
          "internalType": "bool"
        },
        {
          "name": "amountOfStaking",
          "type": "uint256",
          "internalType": "uint256"
        },
        {
          "name": "signaturePay",
          "type": "bytes",
          "internalType": "bytes"
        }
      ],
      "outputs": [],
      "stateMutability": "nonpayable"
    },
    {
      "type": "function",
      "name": "initializeSystemContracts",
      "inputs": [
        {
          "name": "_estimator",
          "type": "address",
          "internalType": "address"
        },
        {
          "name": "_core",
          "type": "address",
          "internalType": "address"
        }
      ],
      "outputs": [],
      "stateMutability": "nonpayable"
    },
    {
      "type": "function",
      "name": "prepareChangeAllowPresaleStaking",
      "inputs": [],
      "outputs": [],
      "stateMutability": "nonpayable"
    },
    {
      "type": "function",
      "name": "prepareChangeAllowPublicStaking",
      "inputs": [],
      "outputs": [],
      "stateMutability": "nonpayable"
    },
    {
      "type": "function",
      "name": "prepareServiceStaking",
      "inputs": [
        {
          "name": "amountOfStaking",
          "type": "uint256",
          "internalType": "uint256"
        }
      ],
      "outputs": [],
      "stateMutability": "nonpayable"
    },
    {
      "type": "function",
      "name": "prepareSetSecondsToUnllockFullUnstaking",
      "inputs": [
        {
          "name": "_secondsToUnllockFullUnstaking",
          "type": "uint256",
          "internalType": "uint256"
        }
      ],
      "outputs": [],
      "stateMutability": "nonpayable"
    },
    {
      "type": "function",
      "name": "presaleStaking",
      "inputs": [
        {
          "name": "user",
          "type": "address",
          "internalType": "address"
        },
        {
          "name": "isStaking",
          "type": "bool",
          "internalType": "bool"
        },
        {
          "name": "originExecutor",
          "type": "address",
          "internalType": "address"
        },
        {
          "name": "nonce",
          "type": "uint256",
          "internalType": "uint256"
        },
        {
          "name": "signature",
          "type": "bytes",
          "internalType": "bytes"
        },
        {
          "name": "priorityFeePay",
          "type": "uint256",
          "internalType": "uint256"
        },
        {
          "name": "noncePay",
          "type": "uint256",
          "internalType": "uint256"
        },
        {
          "name": "signaturePay",
          "type": "bytes",
          "internalType": "bytes"
        }
      ],
      "outputs": [],
      "stateMutability": "nonpayable"
    },
    {
      "type": "function",
      "name": "priceOfStaking",
      "inputs": [],
      "outputs": [
        {
          "name": "",
          "type": "uint256",
          "internalType": "uint256"
        }
      ],
      "stateMutability": "pure"
    },
    {
      "type": "function",
      "name": "proposeAdmin",
      "inputs": [
        {
          "name": "_newAdmin",
          "type": "address",
          "internalType": "address"
        }
      ],
      "outputs": [],
      "stateMutability": "nonpayable"
    },
    {
      "type": "function",
      "name": "proposeEstimator",
      "inputs": [
        {
          "name": "_estimator",
          "type": "address",
          "internalType": "address"
        }
      ],
      "outputs": [],
      "stateMutability": "nonpayable"
    },
    {
      "type": "function",
      "name": "proposeGoldenFisher",
      "inputs": [
        {
          "name": "_goldenFisher",
          "type": "address",
          "internalType": "address"
        }
      ],
      "outputs": [],
      "stateMutability": "nonpayable"
    },
    {
      "type": "function",
      "name": "proposeSetSecondsToUnlockStaking",
      "inputs": [
        {
          "name": "_secondsToUnlockStaking",
          "type": "uint256",
          "internalType": "uint256"
        }
      ],
      "outputs": [],
      "stateMutability": "nonpayable"
    },
    {
      "type": "function",
      "name": "publicStaking",
      "inputs": [
        {
          "name": "user",
          "type": "address",
          "internalType": "address"
        },
        {
          "name": "isStaking",
          "type": "bool",
          "internalType": "bool"
        },
        {
          "name": "amountOfStaking",
          "type": "uint256",
          "internalType": "uint256"
        },
        {
          "name": "originExecutor",
          "type": "address",
          "internalType": "address"
        },
        {
          "name": "nonce",
          "type": "uint256",
          "internalType": "uint256"
        },
        {
          "name": "signature",
          "type": "bytes",
          "internalType": "bytes"
        },
        {
          "name": "priorityFeePay",
          "type": "uint256",
          "internalType": "uint256"
        },
        {
          "name": "noncePay",
          "type": "uint256",
          "internalType": "uint256"
        },
        {
          "name": "signaturePay",
          "type": "bytes",
          "internalType": "bytes"
        }
      ],
      "outputs": [],
      "stateMutability": "nonpayable"
    },
    {
      "type": "function",
      "name": "rejectProposalAdmin",
      "inputs": [],
      "outputs": [],
      "stateMutability": "nonpayable"
    },
    {
      "type": "function",
      "name": "rejectProposalEstimator",
      "inputs": [],
      "outputs": [],
      "stateMutability": "nonpayable"
    },
    {
      "type": "function",
      "name": "rejectProposalGoldenFisher",
      "inputs": [],
      "outputs": [],
      "stateMutability": "nonpayable"
    },
    {
      "type": "function",
      "name": "rejectProposalSetSecondsToUnlockStaking",
      "inputs": [],
      "outputs": [],
      "stateMutability": "nonpayable"
    },
    {
      "type": "function",
      "name": "serviceUnstaking",
      "inputs": [
        {
          "name": "amountOfStaking",
          "type": "uint256",
          "internalType": "uint256"
        }
      ],
      "outputs": [],
      "stateMutability": "nonpayable"
    },
    {
      "type": "error",
      "name": "AddressIsNotAService",
      "inputs": []
    },
    {
      "type": "error",
      "name": "AddressMismatch",
      "inputs": []
    },
    {
      "type": "error",
      "name": "AddressMustWaitToFullUnstake",
      "inputs": []
    },
    {
      "type": "error",
      "name": "AddressMustWaitToStakeAgain",
      "inputs": []
    },
    {
      "type": "error",
      "name": "LimitPresaleStakersExceeded",
      "inputs": []
    },
    {
      "type": "error",
      "name": "PresaleStakingDisabled",
      "inputs": []
    },
    {
      "type": "error",
      "name": "PublicStakingDisabled",
      "inputs": []
    },
    {
      "type": "error",
      "name": "SenderIsNotAdmin",
      "inputs": []
    },
    {
      "type": "error",
      "name": "SenderIsNotGoldenFisher",
      "inputs": []
    },
    {
      "type": "error",
      "name": "SenderIsNotProposedAdmin",
      "inputs": []
    },
    {
      "type": "error",
      "name": "ServiceDoesNotFulfillCorrectStakingAmount",
      "inputs": [
        {
          "name": "requiredAmount",
          "type": "uint256",
          "internalType": "uint256"
        }
      ]
    },
    {
      "type": "error",
      "name": "ServiceDoesNotStakeInSameTx",
      "inputs": []
    },
    {
      "type": "error",
      "name": "TimeToAcceptProposalNotReached",
      "inputs": []
    },
    {
      "type": "error",
      "name": "UserIsNotPresaleStaker",
      "inputs": []
    },
    {
      "type": "error",
      "name": "UserPresaleStakerLimitExceeded",
      "inputs": []
    }
  ],
  "bytecode": {
    "object": "0x60803460ba57601f613bfc38819003918201601f19168301916001600160401b0383118484101760be57808492604094855283398101031260ba57604b602060458360d2565b920160d2565b9060018060a01b031660018060a01b0319600254161760025560018060a01b031660018060a01b03196005541617600555600160ff19601354161760135560ff19601154166011555f600b5562069780600e55600160ff19601a541617601a55604051613b1690816100e68239f35b5f80fd5b634e487b7160e01b5f52604160045260245ffd5b51906001600160a01b038216820360ba5756fe60806040526004361015610011575f80fd5b5f5f3560e01c8063147bf6c4146134b557806317c85152146134375780631e9c210f146133e25780632096b768146133bd57806327be0557146133665780632a9d07cc14612bd957806334dd90d614612b775780633900738a14612b1c5780633d8ff69a14612adf578063475c31ff146124cc578063489c5ad41461247157806355160ea6146123cb578063602c4fb4146120d6578063610a0476146120995780636254300b1461207257806366d161aa1461204b578063681f02ac14611fef5780636b2933a214611fb25780636c58f77b14611f2d5780636fa7ff1714611eb65780637068dc6514611e8c5780637c25faef14611e5e5780637f8da59114611e37578063829c67d414611a49578063893d20e814611a2257806389a75af8146119ca5780638f4b3f281461197e5780639033b585146112965780639053a2581461120457806396ae4e451461116457806399b4c3ef14610f035780639cde1d3e14610edf5780639e41123314610ebb578063a06831ba14610e7f578063a84e9f2314610e43578063b384c57414610e15578063b38c950a14610dd9578063b996b6c414610daf578063be10034514610cc9578063c130a71914610c77578063c9d2beb114610643578063cb0900b81461061e578063cd6b5460146105a9578063d0e3692d14610508578063d5bbacd5146104dc578063dfb2b3a414610483578063e6cbd0a61461045c578063e6f2ebe41461043e578063e7dc0756146103e2578063f5c1af1c146103c4578063fa6215f3146103a6578063fabd08e81461029b5763fc2feab214610261575f80fd5b346102985760203660031901126102985760406020916001600160a01b0361028761350e565b168152601c83522054604051908152f35b80fd5b5034610298576020366003190112610298576001600160a01b036102bd61350e565b168152601c60205260408120805467ffffffffffffffff811161039257604051906102ee60208260051b018361357f565b80825260208201809385526020852085915b83831061037457868587604051928392602084019060208552518091526040840192915b818110610332575050500390f35b9193509160206080826103666001948851606080918051845260208101516020850152604081015160408501520151910152565b019401910191849392610324565b60046020600192610384856136f2565b815201920192019190610300565b634e487b7160e01b83526041600452602483fd5b50346102985780600319360112610298576020600154604051908152f35b50346102985780600319360112610298576020600e54604051908152f35b50346102985780600319360112610298576103fb6136da565b505061043a60405161040c81613533565b60115460ff161515808252601254602092830190815260408051928352905192820192909252918291820190565b0390f35b50346102985780600319360112610298576020600b54604051908152f35b503461029857806003193601126102985760206001600160a01b0360095416604051908152f35b50346102985780600319360112610298576001600160a01b036002541633036104cd576201518042018042116104b95760125580f35b634e487b7160e01b82526011600452602482fd5b636587b01b60e11b8152600490fd5b50346102985760203660031901126102985760206105006104fb61350e565b6137db565b604051908152f35b50346102985760403660031901126102985761052261350e565b60206001600160a01b03604481601d541693604051948593849263d0e3692d60e01b845216600483015260243560248301525afa90811561059e5760209291610571575b506040519015158152f35b6105919150823d8411610597575b610589818361357f565b8101906136b4565b5f610566565b503d61057f565b6040513d84823e3d90fd5b50346102985780600319360112610298576003546001600160a01b03811680330361060f576004544210610600576001600160601b0360a01b60025416176002556001600160601b0360a01b166003558060045580f35b6384fa847560e01b8352600483fd5b632dba366760e21b8352600483fd5b503461029857806003193601126102985760206040516901138ccba11c9e8c00008152f35b5034610298578060031936011261029857333b15610c6857601754806901138ccba11c9e8c000002906901138ccba11c9e8c00008204810361091a5761068b82601854613666565b6001600160a01b03601d5416906040519063280e32fb60e01b8252602082600481865afa918215610be9578692610c28575b5060405163d4fac45d60e01b81523360048201526001600160a01b03909216602483015260208280604481015b0381865afa918215610be9578692610bf4575b5014159081610af1575b50610add576016544203610ace57336001600160a01b036015541603610abf576040519061073482613533565b338252602082019160018352602093604051610750868261357f565b868152426107676001600160a01b0385511661376f565b11610ab05786855115610a92575b9150506001600160a01b03601d54166001600160a01b03835116813b15610a8e57829160448392604051948593849263adb6233f60e01b84526004840152600160f81b60248401525af1801561059e57610a75575b505080516001600160a01b03168552601c84526040852054610a04576001600160a01b0382915b51168552601c8452604085206040519261080a84613563565b60018452858401908152604084019142835260608501938452805490600160401b8210156109f0579061084291600182018155613687565b9490946109dc5751845551600184015551600283015551600390910155601d54604051630a1ad2d160e21b81523360048201526001600160a01b03909116918382602481865afa9182156109d15785926109b2575b50816109a8575b506108a7578280f35b60405163280e32fb60e01b81528281600481855afa908115610962578390859261096d575b506040516309a69f5760e01b81529192829060049082905afa92831561096257849361092e575b50508160011b918083046002149015171561091a5790610914913390613884565b5f808280f35b634e487b7160e01b83526011600452602483fd5b9080929350813d831161095b575b610946818361357f565b810103126109575751905f806108f3565b5f80fd5b503d61093c565b6040513d86823e3d90fd5b809250813d83116109a1575b610983818361357f565b8101031261099d5782610997600492613673565b916108cc565b8380fd5b503d610979565b905051155f61089e565b6109ca919250843d861161059757610589818361357f565b905f610897565b6040513d87823e3d90fd5b634e487b7160e01b88526004889052602488fd5b634e487b7160e01b89526041600452602489fd5b6001600160a01b038151168552601c8452604085206001600160a01b038251168652601c85526040862054905f198201918211610a6157836003610a536001600160a01b0394610a5b94613687565b5001546135f7565b916107f1565b634e487b7160e01b87526011600452602487fd5b81610a7f9161357f565b610a8a57845f6107ca565b8480fd5b8280fd5b8080610aa8946001600160a01b038751166139ec565b5f8086610775565b632df062b560e21b8752600487fd5b634cd87fb560e01b8352600483fd5b635ac7600960e11b8352600483fd5b630387e0bb60e21b83526004829052602483fd5b9050610aff836019546135f7565b60405163280e32fb60e01b8152602081600481865afa908115610be9578691610ba3575b5060405163d4fac45d60e01b81523060048201526001600160a01b0390911660248201529160209083908180604481015b03915afa9182156109d1578592610b6f575b5014155f610707565b9091506020813d602011610b9b575b81610b8b6020938361357f565b810103126109575751905f610b66565b3d9150610b7e565b90506020813d602011610be1575b81610bbe6020938361357f565b81010312610bdd57610b5492610bd5602092613673565b915092610b23565b8580fd5b3d9150610bb1565b6040513d88823e3d90fd5b9091506020813d602011610c20575b81610c106020938361357f565b810103126109575751905f6106fd565b3d9150610c03565b91506020823d602011610c60575b81610c436020938361357f565b81010312610bdd576020610c596106ea93613673565b92506106bd565b3d9150610c36565b634a340e9d60e01b8152600490fd5b5034610298576020366003190112610298576040906001826001600160a01b03610c9f61350e565b1692838152601b60205260ff8282205416938152601b602052200154825191151582526020820152f35b50346102985760203660031901126102985760043567ffffffffffffffff8111610dab5736602382011215610dab5780600401359067ffffffffffffffff8211610a8e573660248360051b83010111610a8e576001600160a01b03600254163303610d9c57825b82811015610d985761032060015411610d895760248160051b83010135906001600160a01b038216809203610a8a576001918552601b602052604085208260ff19825416179055610d8182546136cc565b825501610d30565b63d646f8c560e01b8452600484fd5b8380f35b636587b01b60e11b8352600483fd5b5080fd5b50346102985780600319360112610298576001600160a01b036002541633036104cd578060145580f35b50346102985780600319360112610298576001600160a01b036002541633036104cd576001600160601b0360a01b600354166003558060045580f35b50346102985780600319360112610298576001600160a01b036002541633036104cd5780600f558060105580f35b50346102985780600319360112610298576001600160a01b036002541633036104cd576001600160601b0360a01b600654166006558060075580f35b50346102985780600319360112610298576001600160a01b036002541633036104cd576001600160601b0360a01b6009541660095580600a5580f35b5034610298576020366003190112610298576020610500610eda61350e565b61376f565b5034610298576020366003190112610298576020610500610efe61350e565b613724565b503461029857602036600319011261029857600435333b15611155576001600160a01b03601d5416906040519063280e32fb60e01b8252602082600481865afa918215610962578492611115575b5060405163d4fac45d60e01b81523360048201526001600160a01b03909216602483015260208280604481015b0381865afa9182156109625784926110e1575b5060405163280e32fb60e01b8152602081600481875afa9081156109d157859161109f575b5060405163d4fac45d60e01b81523060048201526001600160a01b0390911660248201529260209084908180604481015b03915afa92831561096257849361106b575b5060405160a0810181811067ffffffffffffffff8211176110575784916080916040523381524260208201528360408201528460608201520152336001600160601b0360a01b60155416176015554260165560175560185560195580f35b634e487b7160e01b86526041600452602486fd5b9092506020813d602011611097575b816110876020938361357f565b810103126109575751915f610ff9565b3d915061107a565b90506020813d6020116110d9575b816110ba6020938361357f565b81010312610a8a57610fe7936110d1602092613673565b915093610fb6565b3d91506110ad565b9091506020813d60201161110d575b816110fd6020938361357f565b810103126109575751905f610f91565b3d91506110f0565b91506020823d60201161114d575b816111306020938361357f565b8101031261099d576020611146610f7e93613673565b9250610f51565b3d9150611123565b634a340e9d60e01b8252600482fd5b503461029857806003193601126102985760049060206001600160a01b03601d54166040519384809263280e32fb60e01b82525afa9081156111f85780916111bb575b6020826001600160a01b0360405191168152f35b90506020823d6020116111f0575b816111d66020938361357f565b8101031261029857506111ea602091613673565b5f6111a7565b3d91506111c9565b604051903d90823e3d90fd5b5034610298576040366003190112610298576112696112636080926001600160a01b0361122f61350e565b82606060405161123e81613563565b8281528260208201528260408201520152168152601c60205260406024359120613687565b506136f2565b6112946040518092606080918051845260208101516020850152604081015160408501520151910152565bf35b503461029857610120366003190112610298576112b161350e565b6112b9613524565b90604435606435916001600160a01b0383168303610a8a5760a43567ffffffffffffffff8111610bdd576112f19036906004016135a1565b9360c4359360e435956101043567ffffffffffffffff811161197a5761131b9036906004016135a1565b9160ff601354161561196b579088916001600160a01b03601d5416604051602081019060608252600d60808201526c7075626c69635374616b696e6760981b60a0820152871515604082015289606082015260a0815261137c60c08261357f565b51902090803b15610a8a5784928389936113b0604051978896879586946376aefe7760e01b86526084359260048701613628565b03925af1801561059e57611952575b50506001600160a01b03604051936113d685613533565b1683526020830187815295821561175b576113fa6001600160a01b0385511661376f565b421061174c578651156116f6575b5050856001600160a01b03601d54166001600160a01b03845116813b15610a8e57829160448392604051948593849263adb6233f60e01b84526004840152600160f81b60248401525af1801561059e576116e1575b505081516001600160a01b03168652601c6020526040862054611677576001600160a01b03835b925b51168652601c60205260408620901561166f576001925b604051936114aa85613563565b845260208401908152604084019142835260608501938452805490600160401b8210156109f057906114e191600182018155613687565b9490946109dc5751845551600184015551600283015551600390910155601d54604051630a1ad2d160e21b81523360048201526001600160a01b0390911692602082602481875afa9182156109d157859261164e575b5081611644575b50611547578280f35b60405163280e32fb60e01b815291602083600481845afa928315610962578493611603575b506020600491604051928380926309a69f5760e01b82525afa9081156109625784916115d1575b508060011b90808204600214901517156115bd5761091492916115b5916135f7565b903390613884565b634e487b7160e01b84526011600452602484fd5b90506020813d6020116115fb575b816115ec6020938361357f565b8101031261095757515f611593565b3d91506115df565b9092506020813d60201161163c575b8161161f6020938361357f565b8101031261099d576020611634600492613673565b93915061156c565b3d9150611612565b905051155f61153e565b61166891925060203d60201161059757610589818361357f565b905f611537565b60029261149d565b6001600160a01b038251168652601c602052604086206001600160a01b038351168752601c6020526040872054905f1982019182116116cd57846003610a536001600160a01b03946116c894613687565b611484565b634e487b7160e01b88526011600452602488fd5b816116eb9161357f565b610bdd57855f61145d565b6001600160a01b03845116856901138ccba11c9e8c000002906901138ccba11c9e8c00008204870361173857876117319493926001926139ec565b5f80611408565b634e487b7160e01b8a52601160045260248afd5b632df062b560e21b8852600488fd5b9061176f6001600160a01b03855116613724565b85146118bf575b851515806118b6575b611898575b50506001600160a01b038251168652601c602052604086206001600160a01b038351168752601c6020526040872054905f1982019182116116cd5760036117cf6117d7938793613687565b500154613666565b91600460206001600160a01b03601d54166040519283809263280e32fb60e01b82525afa90811561188d57889161184f575b506001600160a01b03825116856901138ccba11c9e8c000002916901138ccba11c9e8c000083048703611738579161184a916001600160a01b039493613884565b611486565b90506020813d602011611885575b8161186a6020938361357f565b810103126118815761187b90613673565b5f611809565b8780fd5b3d915061185d565b6040513d8a823e3d90fd5b6118af916001876001600160a01b038751166138e6565b5f80611784565b5086511561177f565b6118d26001600160a01b038551166137db565b421061194357876001600160a01b03601d54166001600160a01b03865116813b15610a8e57829160448392604051948593849263adb6233f60e01b845260048401528160248401525af1801561059e5761192e575b5050611776565b816119389161357f565b61188157875f611927565b636b0ed46d60e01b8852600488fd5b8161195c9161357f565b61196757865f6113bf565b8680fd5b6333a374eb60e11b8952600489fd5b8880fd5b50346102985780600319360112610298576001600160a01b036002541633036104cd5760105442106119bb57600f54600e5580600f558060105580f35b6384fa847560e01b8152600490fd5b50346102985780600319360112610298576119e36136da565b505061043a6040516119f481613533565b60135460ff161515808252601454602092830190815260408051928352905192820192909252918291820190565b503461029857806003193601126102985760206001600160a01b0360025416604051908152f35b503461029857602036600319011261029857600435333b1561115557604051611a7181613533565b338152602081019160018352602091604051611a8d848261357f565b85815285611aa46001600160a01b03845116613724565b8414611da0575b611d83575b506001600160a01b038151168552601c8352604085206001600160a01b038251168652601c84526040862054905f198201918211610a615760036117cf611af8938693613687565b906004846001600160a01b03601d54166040519283809263280e32fb60e01b82525afa908115611d78578791611d43575b506001600160a01b03825116846901138ccba11c9e8c000002916901138ccba11c9e8c000083048603611d2f5791611b6a916001600160a01b039493613884565b51168552601c8352604085208515611d27576001925b60405193611b8d85613563565b8452848401908152604084019142835260608501938452805490600160401b8210156109f05790611bc391600182018155613687565b9490946109dc5751845551600184015551600283015551600390910155601d54604051630a1ad2d160e21b81523360048201526001600160a01b03909116928282602481875afa9182156109d1578592611d08575b5081611cfe575b50611c28578280f35b60405163280e32fb60e01b8152918183600481845afa928315610962578493611cc3575b5081600491604051928380926309a69f5760e01b82525afa918215610962578492611c95575b50508060011b908082046002149015171561091a57906115b583610914936135f7565b90809250813d8311611cbc575b611cac818361357f565b8101031261095757515f80611c72565b503d611ca2565b9092508181813d8311611cf7575b611cdb818361357f565b8101031261099d5781611cef600492613673565b939150611c4c565b503d611cd1565b905051155f611c1f565b611d20919250833d851161059757610589818361357f565b905f611c18565b600292611b80565b634e487b7160e01b89526011600452602489fd5b90508481813d8311611d71575b611d5a818361357f565b8101031261196757611d6b90613673565b5f611b29565b503d611d50565b6040513d89823e3d90fd5b611d9a908680806001600160a01b038651166138e6565b5f611ab0565b50611db46001600160a01b038351166137db565b4210611e2857856001600160a01b03601d54166001600160a01b03845116813b15610a8e57829160448392604051948593849263adb6233f60e01b845260048401528160248401525af190811561059e578291611e13575b5050611aab565b81611e1d9161357f565b61029857805f611e0c565b636b0ed46d60e01b8652600486fd5b503461029857806003193601126102985760206001600160a01b0360055416604051908152f35b50346102985780600319360112610298576001600160a01b036002541633036104cd5780600c5580600d5580f35b50346102985780600319360112610298576001600160a01b036002541633036104cd578060125580f35b50346102985780600319360112610298576001600160a01b036002541633036104cd57600a5442106119bb576009546001600160a01b03811690816001600160601b0360a01b60085416176008556001600160601b0360a01b1660095581600a556001600160601b0360a01b601e541617601e5580f35b503461029857602036600319011261029857611f4761350e565b6001600160a01b03600254163303611fa35761032060015411611f94576001600160a01b03168152601b60205260408120600160ff19825416179055611f8e6001546136cc565b60015580f35b63d646f8c560e01b8252600482fd5b636587b01b60e11b8252600482fd5b5034610298576020366003190112610298576001600160a01b036002541633036104cd57600435600c556201518042018042116104b957600d5580f35b50346102985780600319360112610298576001600160a01b036002541633036104cd5760145442106119bb5760ff601354161581602060405161203181613533565b838152015260ff8019601354169116176013558060145580f35b503461029857806003193601126102985760206001600160a01b0360085416604051908152f35b503461029857806003193601126102985760206001600160a01b0360065416604051908152f35b50346102985780600319360112610298576001600160a01b036002541633036104cd57600d5442106119bb57600c54600b5580600c5580600d5580f35b5034610298576020366003190112610298576120f061350e565b90808092818291836001600160a01b038216808252601c602052604082205461213f575b5050506001600160a01b0360a095604051958652166020850152604084015260608301526080820152f35b94509450945050508160a06001600160a01b03601e541660246040518094819363f702720760e01b83528760048401525af19283156111f857808094819382908392612371575b50819581958095899a819a836121a1575b5050505050612114565b916121b58460029795936121f69795613884565b828852601c6020526121ca8460408a20613687565b5055818752601c60205260016121e38460408a20613687565b5001558552601c60205260408520613687565b5001556001600160a01b03601d541690604051630a1ad2d160e21b8152336004820152602081602481865afa90811561059e578291612352575b50612241575b808080808080612197565b60405163280e32fb60e01b815290602082600481865afa91821561230257819261230f575b506020600493604051948580926309a69f5760e01b82525afa9283156123025781936122ce575b50828004600114831517156122ba5750956122b46001600160a01b039260a0983390613884565b95612236565b634e487b7160e01b81526011600452602490fd5b9092506020813d6020116122fa575b816122ea6020938361357f565b810103126109575751915f61228d565b3d91506122dd565b50604051903d90823e3d90fd5b9091506020813d60201161234a575b8161232b6020938361357f565b81010312610dab5790602061234260049493613673565b929350612266565b3d915061231e565b61236b915060203d60201161059757610589818361357f565b5f612230565b9450505093505060a0813d60a0116123c3575b8161239160a0938361357f565b81010312610a8e578051926123a860208301613673565b9060408301519460806060850151940151909295935f612186565b3d9150612384565b5034610298576040366003190112610298576123e561350e565b6024356001600160a01b038116809103610a8e57601a549160f883901b6001600160f81b0319161561099d576001600160a01b031690816001600160601b0360a01b6008541617600855806001600160601b0360a01b8554161784556001600160601b0360a01b601d541617601d556001600160601b0360a01b601e541617601e5560ff1916601a5580f35b50346102985760203660031901126102985761248b61350e565b6001600160a01b03600254163303611fa3576001600160a01b03166001600160601b0360a01b60065416176006556201518042018042116104b95760075580f35b5034610298576060366003190112610298576004358015158103610dab5760243560443567ffffffffffffffff811161099d5761250d9036906004016135a1565b916001600160a01b036005541690813303612ad0576040519161252f83613533565b82526020820193858552602460206001600160a01b03601d541660405192838092630d9a602960e31b82523360048301525afa908115611d78578791612a9e575b5082156128cc5761258a6001600160a01b0385511661376f565b4210610ab05785511561288b575b5050846001600160a01b03601d54166001600160a01b03845116813b15610a8e57829160448392604051948593849263adb6233f60e01b84526004840152600160f81b60248401525af1801561059e57612876575b505081516001600160a01b03168552601c6020526040852054612820576001600160a01b03835b925b51168552601c602052604085209015612818576001925b6040519361263a85613563565b845260208401908152604084019142835260608501938452805490600160401b821015612804579061267191600182018155613687565b9490946127f05751845551600184015551600283015551600390910155601d54604051630a1ad2d160e21b81523360048201526001600160a01b0390911691602082602481865afa9182156109625784926127cf575b50816127c5575b506126d7575080f35b60405163280e32fb60e01b815290602082600481845afa91821561277b578392612786575b50906020600492604051938480926309a69f5760e01b82525afa91821561277b578392612747575b508160011b918083046002149015171561091a5790612744913390613884565b80f35b9091506020813d602011612773575b816127636020938361357f565b810103126109575751905f612724565b3d9150612756565b6040513d85823e3d90fd5b91506020823d6020116127bd575b816127a16020938361357f565b81010312610a8e5760206127b6600493613673565b92506126fc565b3d9150612794565b905051155f6126ce565b6127e991925060203d60201161059757610589818361357f565b905f6126c7565b634e487b7160e01b87526004879052602487fd5b634e487b7160e01b88526041600452602488fd5b60029261262d565b6001600160a01b038251168552601c602052604085206001600160a01b038351168652601c6020526040862054905f198201918211610a6157846003610a536001600160a01b039461287194613687565b612614565b816128809161357f565b610a8a57845f6125ed565b6001600160a01b03845116856901138ccba11c9e8c000002906901138ccba11c9e8c000082048703611d2f57886128c594939281926139ec565b5f80612598565b90866128e16001600160a01b03865116613724565b8614612a07575b6129ea575b50506001600160a01b038251168552601c602052604085206001600160a01b038351168652601c6020526040862054905f198201918211610a615760036117cf612938938793613687565b91600460206001600160a01b03601d54166040519283809263280e32fb60e01b82525afa908115611d785787916129b0575b506001600160a01b03825116856901138ccba11c9e8c000002916901138ccba11c9e8c000083048703611d2f57916129ab916001600160a01b039493613884565b612616565b90506020813d6020116129e2575b816129cb6020938361357f565b81010312611967576129dc90613673565b5f61296a565b3d91506129be565b612a009187806001600160a01b038751166138e6565b5f806128ed565b50612a1b6001600160a01b038551166137db565b4210612a8f57866001600160a01b03601d54166001600160a01b03865116813b15610a8e57829160448392604051948593849263adb6233f60e01b845260048401528160248401525af190811561059e578291612a7a575b50506128e8565b81612a849161357f565b61029857805f612a73565b636b0ed46d60e01b8752600487fd5b90506020813d602011612ac8575b81612ab96020938361357f565b8101031261095757515f612570565b3d9150612aac565b630d9974d560e11b8552600485fd5b5034610298576020366003190112610298576001600160a01b036002541633036104cd57600435600f556201518042018042116104b95760105580f35b503461029857602036600319011261029857612b3661350e565b6001600160a01b03600254163303611fa3576001600160a01b03166001600160601b0360a01b60095416176009556201518042018042116104b957600a5580f35b50346102985780600319360112610298576001600160a01b036002541633036104cd5760075442106119bb576006546001600160a01b0381166001600160601b0360a01b60055416176005556001600160601b0360a01b166006558060075580f35b50346109575761010036600319011261095757612bf461350e565b612bfc613524565b90604435916001600160a01b03831683036109575760843567ffffffffffffffff811161095757612c319036906004016135a1565b9060a4359260c4359260e43567ffffffffffffffff811161095757612c5a9036906004016135a1565b9560ff6011541615801561335a575b61334b576001600160a01b03601d541691604051602081019060608252600e60808201526d70726573616c655374616b696e6760901b60a082015286151560408201526001606082015260a08152612cc260c08261357f565b51902092803b1561095757612cf6935f8094604051968795869485936376aefe7760e01b8552606435918c60048701613628565b03925af1801561334057613324575b506001600160a01b0316808652601b60205260ff6040872054161561331557808652601b6020526040862060010154821561330e5760028110155b6132ff5782156132df5760018101809111610a61575b818752601b602052600160408820015560405190612d7382613533565b815260208101868152948693831561311057612d986001600160a01b0384511661376f565b4210613101578651156130bd575b50506001600160a01b03601d54166001600160a01b03825116813b15610a8a57849160448392604051948593849263adb6233f60e01b84526004840152600160f81b60248401525af180156109625784906130a6575b505080516001600160a01b03168352601c6020526040832054613031576001600160a01b0360015b915b51168352601c602052604083209115613029576001915b60405192612e4a84613563565b83526020830160018152604084019142835260608501938452805490600160401b8210156130155790612e8291600182018155613687565b9490946130015751845551600184015551600283015551600390910155601d54604051630a1ad2d160e21b81523360048201526001600160a01b0390911693602082602481885afa91821561277b578392612fe0575b5081612fd6575b50612ee8578380f35b60405163280e32fb60e01b815292602084600481845afa93841561059e578294612f93575b50906020600492604051938480926309a69f5760e01b82525afa918215612302578192612f5f575b508160011b91808304600214901517156122ba5750612f5892916115b5916135f7565b5f80808380f35b9091506020813d602011612f8b575b81612f7b6020938361357f565b810103126109575751905f612f35565b3d9150612f6e565b9093506020813d602011612fce575b81612faf6020938361357f565b81010312610dab57906020612fc5600493613673565b94919250612f0d565b3d9150612fa2565b905051155f612edf565b612ffa91925060203d60201161059757610589818361357f565b905f612ed8565b634e487b7160e01b86526004869052602486fd5b634e487b7160e01b87526041600452602487fd5b600291612e3d565b6001600160a01b038151168352601c602052604083206001600160a01b038251168452601c6020526040842054905f1982019182116130925760039161307691613687565b50015460018101809111610a61576001600160a01b0390612e24565b634e487b7160e01b85526011600452602485fd5b6130af9161357f565b828612610a8e575f83612dfc565b82516001600160a01b0316856130ed57906001876901138ccba11c9e8c00006130e695946139ec565b5f80612da6565b634e487b7160e01b86526011600452602486fd5b632df062b560e21b8552600485fd5b919293506131276001600160a01b03845116613724565b60011461325b575b84151580613252575b613234575b50506001600160a01b038151168552601c602052604085206001600160a01b038251168652601c6020526040862054905f198201918211610a615760039161318491613687565b5001545f1981019081116130ed57601d5460405163280e32fb60e01b8152939290602090859060049082906001600160a01b03165afa938415611d785787946131f0575b50806131eb6901138ccba11c9e8c00006001600160a01b03809451168a97613884565b612e26565b9093506020813d60201161322c575b8161320c6020938361357f565b81010312611967576132256001600160a01b0391613673565b93906131c8565b3d91506131ff565b61324b916001866001600160a01b038651166138e6565b5f8061313d565b50855115613138565b61326e6001600160a01b038451166137db565b4210612a8f57866001600160a01b03601d54166001600160a01b03855116813b15610a8e57829160448392604051948593849263adb6233f60e01b845260048401528160248401525af1801561059e576132ca575b505061312f565b816132d49161357f565b61196757865f6132c3565b5f19810190811115612d5657634e487b7160e01b87526011600452602487fd5b636b3af2e560e01b8752600487fd5b8015612d40565b63f706524f60e01b8652600486fd5b6133319196505f9061357f565b5f946001600160a01b03612d05565b6040513d5f823e3d90fd5b63098e23b360e41b5f5260045ffd5b5060ff60135416612c69565b34610957575f366003190112610957576001600160a01b036002541633036133ae5762015180420180421161339a57601455005b634e487b7160e01b5f52601160045260245ffd5b636587b01b60e11b5f5260045ffd5b34610957575f3660031901126109575760206001600160a01b035f5416604051908152f35b34610957575f366003190112610957576001600160a01b036002541633036133ae5760125442106134285760115460ff80821615169060ff1916176011555f6012555f80f35b6384fa847560e01b5f5260045ffd5b34610957575f36600319011261095757600460206001600160a01b03601d541660405192838092630be428a960e11b82525afa8015613340575f90613482575b602090604051908152f35b506020813d6020116134ad575b8161349c6020938361357f565b810103126109575760209051613477565b3d915061348f565b34610957576020366003190112610957576134ce61350e565b6001600160a01b036002541633036133ae576001600160a01b03166001600160601b0360a01b600354161760035562015180420180421161339a57600455005b600435906001600160a01b038216820361095757565b60243590811515820361095757565b6040810190811067ffffffffffffffff82111761354f57604052565b634e487b7160e01b5f52604160045260245ffd5b6080810190811067ffffffffffffffff82111761354f57604052565b90601f8019910116810190811067ffffffffffffffff82111761354f57604052565b81601f820112156109575780359067ffffffffffffffff821161354f57604051926135d6601f8401601f19166020018561357f565b8284526020838301011161095757815f926020809301838601378301015290565b9190820180921161339a57565b805180835260209291819084018484015e5f828201840152601f01601f1916010190565b9160c0936001600160a01b03918261366398979416855260208501521660408301526060820152600160808201528160a08201520190613604565b90565b9190820391821161339a57565b51906001600160a01b038216820361095757565b80548210156136a0575f5260205f209060021b01905f90565b634e487b7160e01b5f52603260045260245ffd5b90816020910312610957575180151581036109575790565b5f19811461339a5760010190565b604051906136e782613533565b5f6020838281520152565b906040516136ff81613563565b6060600382948054845260018101546020850152600281015460408501520154910152565b6001600160a01b0316805f52601c60205260405f2054908115613769575f52601c60205260405f205f19820191821161339a5760039161376391613687565b50015490565b50505f90565b6001600160a01b0316805f52601c60205260405f2054801561376957815f52601c60205260405f205f19820191821161339a576137ae82600392613687565b500154613769576137cf600291613663935f52601c60205260405f20613687565b500154600b54906135f7565b6001600160a01b0316805f52601c60205260405f2054805b61382057505f52601c60205260405f208054156136a0575f52613663600260205f200154600e54906135f7565b815f52601c60205260405f205f1982019082821161339a5761384482600392613687565b5001541561385c5750801561339a575f1901806137f3565b6002915061387890613663935f52601c60205260405f20613687565b500154600e54906135f7565b916001600160a01b03601d5416803b15610957575f92836064926001600160a01b039485604051988997889663c898a6e960e01b885216600487015216602485015260448401525af18015613340576138da5750565b5f6138e49161357f565b565b91939290936001600160a01b03601d5416916040519363280e32fb60e01b8552602085600481875afa948515613340575f956139b0575b50833b156109575761399f5f966001600160a01b03989488948a966040519b8c9a8b998a98631594872160e31b8a5216600489015230602489015261014060448901528861014489015216606487015286608487015260a48601523060c486015260e48501521515610104840152610160610124840152610164830190613604565b03925af18015613340576138da5750565b9094506020813d6020116139e4575b816139cc6020938361357f565b81010312610957576139dd90613673565b935f61391d565b3d91506139bf565b91939092936001600160a01b03601d5416926040519463280e32fb60e01b8652602086600481885afa958615613340575f96613aa4575b50843b15610957576001600160a01b03975f978995899561399f946040519c8d9b8c9a8b99631594872160e31b8b521660048a01523060248a015261014060448a0152896101448a0152166064880152608487015260a48601523060c486015260e48501521515610104840152610160610124840152610164830190613604565b9095506020813d602011613ad8575b81613ac06020938361357f565b8101031261095757613ad190613673565b945f613a23565b3d9150613ab356fea2646970667358221220806b1668dea060f860372545c3b4bb118fb833702510110432060937defaa2a564736f6c634300081e0033",
    "linkReferences": {}
  },
  "methodIdentifiers": {
    "acceptNewAdmin()": "cd6b5460",
    "acceptNewEstimator()": "6fa7ff17",
    "acceptNewGoldenFisher()": "34dd90d6",
    "acceptSetSecondsToUnlockStaking()": "610a0476",
    "addPresaleStaker(address)": "6c58f77b",
    "addPresaleStakers(address[])": "be100345",
    "cancelChangeAllowPresaleStaking()": "7068dc65",
    "cancelChangeAllowPublicStaking()": "b996b6c4",
    "cancelSetSecondsToUnllockFullUnstaking()": "b384c574",
    "confirmChangeAllowPresaleStaking()": "1e9c210f",
    "confirmChangeAllowPublicStaking()": "681f02ac",
    "confirmServiceStaking()": "c9d2beb1",
    "confirmSetSecondsToUnllockFullUnstaking()": "8f4b3f28",
    "getAddressHistory(address)": "fabd08e8",
    "getAddressHistoryByIndex(address,uint256)": "9053a258",
    "getAllowPresaleStaking()": "e7dc0756",
    "getAllowPublicStaking()": "89a75af8",
    "getCoreAddress()": "2096b768",
    "getEstimatorAddress()": "66d161aa",
    "getEstimatorProposal()": "e6cbd0a6",
    "getEvvmID()": "17c85152",
    "getGoldenFisher()": "7f8da591",
    "getGoldenFisherProposal()": "6254300b",
    "getIfUsedAsyncNonce(address,uint256)": "d0e3692d",
    "getMateAddress()": "96ae4e45",
    "getOwner()": "893d20e8",
    "getPresaleStaker(address)": "c130a719",
    "getPresaleStakerCount()": "fa6215f3",
    "getSecondsToUnlockFullUnstaking()": "f5c1af1c",
    "getSecondsToUnlockStaking()": "e6f2ebe4",
    "getSizeOfAddressHistory(address)": "fc2feab2",
    "getTimeToUserUnlockFullUnstakingTime(address)": "d5bbacd5",
    "getTimeToUserUnlockStakingTime(address)": "9e411233",
    "getUserAmountStaked(address)": "9cde1d3e",
    "gimmeYiel(address)": "602c4fb4",
    "goldenStaking(bool,uint256,bytes)": "475c31ff",
    "initializeSystemContracts(address,address)": "55160ea6",
    "prepareChangeAllowPresaleStaking()": "dfb2b3a4",
    "prepareChangeAllowPublicStaking()": "27be0557",
    "prepareServiceStaking(uint256)": "99b4c3ef",
    "prepareSetSecondsToUnllockFullUnstaking(uint256)": "3d8ff69a",
    "presaleStaking(address,bool,address,uint256,bytes,uint256,uint256,bytes)": "2a9d07cc",
    "priceOfStaking()": "cb0900b8",
    "proposeAdmin(address)": "147bf6c4",
    "proposeEstimator(address)": "3900738a",
    "proposeGoldenFisher(address)": "489c5ad4",
    "proposeSetSecondsToUnlockStaking(uint256)": "6b2933a2",
    "publicStaking(address,bool,uint256,address,uint256,bytes,uint256,uint256,bytes)": "9033b585",
    "rejectProposalAdmin()": "b38c950a",
    "rejectProposalEstimator()": "a06831ba",
    "rejectProposalGoldenFisher()": "a84e9f23",
    "rejectProposalSetSecondsToUnlockStaking()": "7c25faef",
    "serviceUnstaking(uint256)": "829c67d4"
  },
  "id": 68
}